* DMPMQMSG Version:9.1.0.3 Created:Thu Dec  5 10:48:05 2019
* Qmgr  = QMT4
* Queue = TEST.CULLEN

A VER 2
A RPT 0
A MST 8
A EXP -1
A FDB 0
A ENC 546
A CCS 1208
A FMT         
A PRI 0
A PER 1
A MSI 414D5120514D54342020202020202020945CD45D0BDB1A25
A COI 000000000000000000000000000000000000000000000000
A BOC 0
A RTQ                                                 
A RTM QMT1                                            
A USR m160987     
A ACC 16010515000000020898B26E53BB9DDEF35206EAED100000000000000000000B
A AIX 2020202020202020202020202020202020202020202020202020202020202020
A PAT 11
A PAN rfhutil_tls_new\rfhutilc.exe
A PTD 20191205
A PTT 16474448
A AOX 20202020
A GRP 000000000000000000000000000000000000000000000000
A MSQ 1
A OFF 0
A MSF 0
A ORL -1
X 3C3F786D6C2076657273696F6E3D22312E302220656E636F64
X 696E673D225554462D38223F3E3C52656365697665723E3C41
X 70706C69636174696F6E4E616D653E3C6E616D653E4F52555F
X 4D6372536D68496E74656C6C696272696467655F484C37436C
X 69656E7452656365697665724170703C2F6E616D653E3C4D65
X 737361676546696C7465724576656E7446696C746572466C61
X 673E545255453C2F4D65737361676546696C7465724576656E
X 7446696C746572466C61673E3C52656D61696E646572734669
X 6C7465724576656E7446696C746572466C61673E545255453C
X 2F52656D61696E6465727346696C7465724576656E7446696C
X 746572466C61673E3C4175646974496E7075744576656E7446
X 696C746572466C61673E545255453C2F4175646974496E7075
X 744576656E7446696C746572466C61673E3C4572726F724576
X 656E7446696C746572466C61673E545255453C2F4572726F72
X 4576656E7446696C746572466C61673E3C53656E6441636B45
X 76656E7446696C746572466C61673E545255453C2F53656E64
X 41636B4576656E7446696C746572466C61673E3C4A726E6C4D
X 73674578706972793E333C2F4A726E6C4D7367457870697279
X 3E3C4572726F724D73674578706972793E333C2F4572726F72
X 4D73674578706972793E3C54465349443E3334323334373C2F
X 54465349443E3C5075626C697368657249443E333432333437
X 3C2F5075626C697368657249443E3C537570706F72744C696E
X 6B3E4E2F413C2F537570706F72744C696E6B3E3C5375707072
X 6573734572726F724C6F673E545255453C2F53757070726573
X 734572726F724C6F673E3C53757070726573734572726F7254
X 6578743E4E2F413C2F53757070726573734572726F72546578
X 743E3C53757070726573734572726F72456D61696C3E46414C
X 53453C2F53757070726573734572726F72456D61696C3E3C53
X 757070726573734572726F72456D61696C416464726573733E
X 4E2F413C2F53757070726573734572726F72456D61696C4164
X 64726573733E3C53757070726573734572726F72456D61696C
X 5375626A6563743E4E2F413C2F53757070726573734572726F
X 72456D61696C5375626A6563743E3C53757070726573734572
X 726F72456D61696C426F64793E4E2F413C2F53757070726573
X 734572726F72456D61696C426F64793E3C5375707072657373
X 4572726F72456D61696C496E636C7564655061796C6F61643E
X 545255453C2F53757070726573734572726F72456D61696C49
X 6E636C7564655061796C6F61643E3C2F4170706C6963617469
X 6F6E4E616D653E3C4170706C69636174696F6E4E616D653E3C
X 6E616D653E4144545F45647361734253546F457069635F484C
X 3752656365697665724170703C2F6E616D653E3C4D65737361
X 676546696C7465724576656E7446696C746572466C61673E54
X 5255453C2F4D65737361676546696C7465724576656E744669
X 6C746572466C61673E3C52656D61696E6465727346696C7465
X 724576656E7446696C746572466C61673E545255453C2F5265
X 6D61696E6465727346696C7465724576656E7446696C746572
X 466C61673E3C4175646974496E7075744576656E7446696C74
X 6572466C61673E545255453C2F4175646974496E7075744576
X 656E7446696C746572466C61673E3C4572726F724576656E74
X 46696C746572466C61673E545255453C2F4572726F72457665
X 6E7446696C746572466C61673E3C53656E6441636B4576656E
X 7446696C746572466C61673E545255453C2F53656E6441636B
X 4576656E7446696C746572466C61673E3C4A726E6C4D736745
X 78706972793E333C2F4A726E6C4D73674578706972793E3C45
X 72726F724D73674578706972793E333C2F4572726F724D7367
X 4578706972793E3C54465349443E313931303231343C2F5446
X 5349443E3C5075626C697368657249443E4E2F413C2F507562
X 6C697368657249443E3C537570706F72744C696E6B3E4E2F41
X 3C2F537570706F72744C696E6B3E3C53757070726573734572
X 726F724C6F673E545255453C2F53757070726573734572726F
X 724C6F673E3C53757070726573734572726F72546578743E4E
X 2F413C2F53757070726573734572726F72546578743E3C5375
X 7070726573734572726F72456D61696C3E46414C53453C2F53
X 757070726573734572726F72456D61696C3E3C537570707265
X 73734572726F72456D61696C416464726573733E4E2F413C2F
X 53757070726573734572726F72456D61696C41646472657373
X 3E3C53757070726573734572726F72456D61696C5375626A65
X 63743E4E2F413C2F53757070726573734572726F72456D6169
X 6C5375626A6563743E3C53757070726573734572726F72456D
X 61696C426F64793E4E2F413C2F53757070726573734572726F
X 72456D61696C426F64793E3C53757070726573734572726F72
X 456D61696C496E636C7564655061796C6F61643E545255453C
X 2F53757070726573734572726F72456D61696C496E636C7564
X 655061796C6F61643E3C2F4170706C69636174696F6E4E616D
X 653E3C4170706C69636174696F6E4E616D653E3C6E616D653E
X 4D464E5F43656E7369747261635F484C374D51426174636852
X 656365697665724170703C2F6E616D653E3C4D657373616765
X 46696C7465724576656E7446696C746572466C61673E545255
X 453C2F4D65737361676546696C7465724576656E7446696C74
X 6572466C61673E3C52656D61696E6465727346696C74657245
X 76656E7446696C746572466C61673E545255453C2F52656D61
X 696E6465727346696C7465724576656E7446696C746572466C
X 61673E3C4175646974496E7075744576656E7446696C746572
X 466C61673E545255453C2F4175646974496E7075744576656E
X 7446696C746572466C61673E3C4572726F724576656E744669
X 6C746572466C61673E545255453C2F4572726F724576656E74
X 46696C746572466C61673E3C53656E6441636B4576656E7446
X 696C746572466C61673E545255453C2F53656E6441636B4576
X 656E7446696C746572466C61673E3C4A726E6C4D7367457870
X 6972793E333C2F4A726E6C4D73674578706972793E3C457272
X 6F724D73674578706972793E333C2F4572726F724D73674578
X 706972793E3C54465349443E4E2F413C2F54465349443E3C50
X 75626C697368657249443E4E2F413C2F5075626C6973686572
X 49443E3C537570706F72744C696E6B3E4E2F413C2F53757070
X 6F72744C696E6B3E3C53757070726573734572726F724C6F67
X 3E545255453C2F53757070726573734572726F724C6F673E3C
X 53757070726573734572726F72546578743E4E2F413C2F5375
X 7070726573734572726F72546578743E3C5375707072657373
X 4572726F72456D61696C3E46414C53453C2F53757070726573
X 734572726F72456D61696C3E3C53757070726573734572726F
X 72456D61696C416464726573733E4E2F413C2F537570707265
X 73734572726F72456D61696C416464726573733E3C53757070
X 726573734572726F72456D61696C5375626A6563743E4E2F41
X 3C2F53757070726573734572726F72456D61696C5375626A65
X 63743E3C53757070726573734572726F72456D61696C426F64
X 793E4E2F413C2F53757070726573734572726F72456D61696C
X 426F64793E3C53757070726573734572726F72456D61696C49
X 6E636C7564655061796C6F61643E545255453C2F5375707072
X 6573734572726F72456D61696C496E636C7564655061796C6F
X 61643E3C2F4170706C69636174696F6E4E616D653E3C417070
X 6C69636174696F6E4E616D653E3C6E616D653E4144545F416E
X 79546F416E7935363030315F484C3752656365697665724170
X 703C2F6E616D653E3C4D65737361676546696C746572457665
X 6E7446696C746572466C61673E545255453C2F4D6573736167
X 6546696C7465724576656E7446696C746572466C61673E3C52
X 656D61696E6465727346696C7465724576656E7446696C7465
X 72466C61673E545255453C2F52656D61696E6465727346696C
X 7465724576656E7446696C746572466C61673E3C4175646974
X 496E7075744576656E7446696C746572466C61673E54525545
X 3C2F4175646974496E7075744576656E7446696C746572466C
X 61673E3C4572726F724576656E7446696C746572466C61673E
X 545255453C2F4572726F724576656E7446696C746572466C61
X 673E3C53656E6441636B4576656E7446696C746572466C6167
X 3E545255453C2F53656E6441636B4576656E7446696C746572
X 466C61673E3C4A726E6C4D73674578706972793E333C2F4A72
X 6E6C4D73674578706972793E3C4572726F724D736745787069
X 72793E323C2F4572726F724D73674578706972793E3C544653
X 49443E4E2F413C2F54465349443E3C5075626C697368657249
X 443E4E2F413C2F5075626C697368657249443E3C537570706F
X 72744C696E6B3E4E2F413C2F537570706F72744C696E6B3E3C
X 53757070726573734572726F724C6F673E545255453C2F5375
X 7070726573734572726F724C6F673E3C537570707265737345
X 72726F72546578743E4E2F413C2F5375707072657373457272
X 6F72546578743E3C53757070726573734572726F72456D6169
X 6C3E46414C53453C2F53757070726573734572726F72456D61
X 696C3E3C53757070726573734572726F72456D61696C416464
X 726573733E4E2F413C2F53757070726573734572726F72456D
X 61696C416464726573733E3C53757070726573734572726F72
X 456D61696C5375626A6563743E4E2F413C2F53757070726573
X 734572726F72456D61696C5375626A6563743E3C5375707072
X 6573734572726F72456D61696C426F64793E4E2F413C2F5375
X 7070726573734572726F72456D61696C426F64793E3C537570
X 70726573734572726F72456D61696C496E636C756465506179
X 6C6F61643E545255453C2F53757070726573734572726F7245
X 6D61696C496E636C7564655061796C6F61643E3C2F4170706C
X 69636174696F6E4E616D653E3C4170706C69636174696F6E4E
X 616D653E3C6E616D653E484C375F53514150484954545F4D51
X 52656365697665724170703C2F6E616D653E3C4D6573736167
X 6546696C7465724576656E7446696C746572466C61673E5452
X 55453C2F4D65737361676546696C7465724576656E7446696C
X 746572466C61673E3C52656D61696E6465727346696C746572
X 4576656E7446696C746572466C61673E545255453C2F52656D
X 61696E6465727346696C7465724576656E7446696C74657246
X 6C61673E3C4175646974496E7075744576656E7446696C7465
X 72466C61673E545255453C2F4175646974496E707574457665
X 6E7446696C746572466C61673E3C4572726F724576656E7446
X 696C746572466C61673E545255453C2F4572726F724576656E
X 7446696C746572466C61673E3C53656E6441636B4576656E74
X 46696C746572466C61673E545255453C2F53656E6441636B45
X 76656E7446696C746572466C61673E3C4A726E6C4D73674578
X 706972793E333C2F4A726E6C4D73674578706972793E3C4572
X 726F724D73674578706972793E333C2F4572726F724D736745
X 78706972793E3C54465349443E323233333332393A32323333
X 3334363C2F54465349443E3C5075626C697368657249443E4E
X 2F413C2F5075626C697368657249443E3C537570706F72744C
X 696E6B3E4E2F413C2F537570706F72744C696E6B3E3C537570
X 70726573734572726F724C6F673E545255453C2F5375707072
X 6573734572726F724C6F673E3C53757070726573734572726F
X 72546578743E4E2F413C2F53757070726573734572726F7254
X 6578743E3C53757070726573734572726F72456D61696C3E46
X 414C53453C2F53757070726573734572726F72456D61696C3E
X 3C53757070726573734572726F72456D61696C416464726573
X 733E4E2F413C2F53757070726573734572726F72456D61696C
X 416464726573733E3C53757070726573734572726F72456D61
X 696C5375626A6563743E4E2F413C2F53757070726573734572
X 726F72456D61696C5375626A6563743E3C5375707072657373
X 4572726F72456D61696C426F64793E4E2F413C2F5375707072
X 6573734572726F72456D61696C426F64793E3C537570707265
X 73734572726F72456D61696C496E636C7564655061796C6F61
X 643E545255453C2F53757070726573734572726F72456D6169
X 6C496E636C7564655061796C6F61643E3C2F4170706C696361
X 74696F6E4E616D653E3C4170706C69636174696F6E4E616D65
X 3E3C6E616D653E4F52555F43617073756C65536D6172744C69
X 6E78546F457069634D4348535F484C37526563656976657241
X 70703C2F6E616D653E3C4D65737361676546696C7465724576
X 656E7446696C746572466C61673E545255453C2F4D65737361
X 676546696C7465724576656E7446696C746572466C61673E3C
X 52656D61696E6465727346696C7465724576656E7446696C74
X 6572466C61673E545255453C2F52656D61696E646572734669
X 6C7465724576656E7446696C746572466C61673E3C41756469
X 74496E7075744576656E7446696C746572466C61673E545255
X 453C2F4175646974496E7075744576656E7446696C74657246
X 6C61673E3C4572726F724576656E7446696C746572466C6167
X 3E545255453C2F4572726F724576656E7446696C746572466C
X 61673E3C53656E6441636B4576656E7446696C746572466C61
X 673E545255453C2F53656E6441636B4576656E7446696C7465
X 72466C61673E3C4A726E6C4D73674578706972793E333C2F4A
X 726E6C4D73674578706972793E3C4572726F724D7367457870
X 6972793E333C2F4572726F724D73674578706972793E3C5446
X 5349443E4E2F413C2F54465349443E3C5075626C6973686572
X 49443E4E2F413C2F5075626C697368657249443E3C53757070
X 6F72744C696E6B3E4E2F413C2F537570706F72744C696E6B3E
X 3C53757070726573734572726F724C6F673E545255453C2F53
X 757070726573734572726F724C6F673E3C5375707072657373
X 4572726F72546578743E4E2F413C2F53757070726573734572
X 726F72546578743E3C53757070726573734572726F72456D61
X 696C3E46414C53453C2F53757070726573734572726F72456D
X 61696C3E3C53757070726573734572726F72456D61696C4164
X 64726573733E4E2F413C2F53757070726573734572726F7245
X 6D61696C416464726573733E3C53757070726573734572726F
X 72456D61696C5375626A6563743E4E2F413C2F537570707265
X 73734572726F72456D61696C5375626A6563743E3C53757070
X 726573734572726F72456D61696C426F64793E4E2F413C2F53
X 757070726573734572726F72456D61696C426F64793E3C5375
X 7070726573734572726F72456D61696C496E636C7564655061
X 796C6F61643E545255453C2F53757070726573734572726F72
X 456D61696C496E636C7564655061796C6F61643E3C2F417070
X 6C69636174696F6E4E616D653E3C4170706C69636174696F6E
X 4E616D653E3C6E616D653E4144545F457069635F3130313030
X 5F484C3752656365697665724170703C2F6E616D653E3C4D65
X 737361676546696C7465724576656E7446696C746572466C61
X 673E545255453C2F4D65737361676546696C7465724576656E
X 7446696C746572466C61673E3C52656D61696E646572734669
X 6C7465724576656E7446696C746572466C61673E545255453C
X 2F52656D61696E6465727346696C7465724576656E7446696C
X 746572466C61673E3C4175646974496E7075744576656E7446
X 696C746572466C61673E545255453C2F4175646974496E7075
X 744576656E7446696C746572466C61673E3C4572726F724576
X 656E7446696C746572466C61673E545255453C2F4572726F72
X 4576656E7446696C746572466C61673E3C53656E6441636B45
X 76656E7446696C746572466C61673E545255453C2F53656E64
X 41636B4576656E7446696C746572466C61673E3C4A726E6C4D
X 73674578706972793E333C2F4A726E6C4D7367457870697279
X 3E3C4572726F724D73674578706972793E333C2F4572726F72
X 4D73674578706972793E3C54465349443E4E2F413C2F544653
X 49443E3C5075626C697368657249443E3630393730303C2F50
X 75626C697368657249443E3C537570706F72744C696E6B3E4E
X 2F413C2F537570706F72744C696E6B3E3C5375707072657373
X 4572726F724C6F673E545255453C2F53757070726573734572
X 726F724C6F673E3C53757070726573734572726F7254657874
X 3E4E2F413C2F53757070726573734572726F72546578743E3C
X 53757070726573734572726F72456D61696C3E46414C53453C
X 2F53757070726573734572726F72456D61696C3E3C53757070
X 726573734572726F72456D61696C416464726573733E4E2F41
X 3C2F53757070726573734572726F72456D61696C4164647265
X 73733E3C53757070726573734572726F72456D61696C537562
X 6A6563743E4E2F413C2F53757070726573734572726F72456D
X 61696C5375626A6563743E3C53757070726573734572726F72
X 456D61696C426F64793E4E2F413C2F53757070726573734572
X 726F72456D61696C426F64793E3C5375707072657373457272
X 6F72456D61696C496E636C7564655061796C6F61643E545255
X 453C2F53757070726573734572726F72456D61696C496E636C
X 7564655061796C6F61643E3C2F4170706C69636174696F6E4E
X 616D653E3C4170706C69636174696F6E4E616D653E3C6E616D
X 653E4144545F457069635F484C375265636569766572417070
X 3C2F6E616D653E3C4D65737361676546696C7465724576656E
X 7446696C746572466C61673E545255453C2F4D657373616765
X 46696C7465724576656E7446696C746572466C61673E3C5265
X 6D61696E6465727346696C7465724576656E7446696C746572
X 466C61673E545255453C2F52656D61696E6465727346696C74
X 65724576656E7446696C746572466C61673E3C417564697449
X 6E7075744576656E7446696C746572466C61673E545255453C
X 2F4175646974496E7075744576656E7446696C746572466C61
X 673E3C4572726F724576656E7446696C746572466C61673E54
X 5255453C2F4572726F724576656E7446696C746572466C6167
X 3E3C53656E6441636B4576656E7446696C746572466C61673E
X 545255453C2F53656E6441636B4576656E7446696C74657246
X 6C61673E3C4A726E6C4D73674578706972793E333C2F4A726E
X 6C4D73674578706972793E3C4572726F724D73674578706972
X 793E333C2F4572726F724D73674578706972793E3C54465349
X 443E3137363938383A3535383837333A3233343732303A3138
X 323030383A3433333133313A3139343834353A313832303139
X 3A3238363638323A3239343030393A3334313934333A323136
X 3937333A3234353731313A3138323031383A3232343734393A
X 3238363732333A3234353730383A3332323836323A31383339
X 30333A3138343437363A3138343437373A3535353833323A31
X 38323030393A3138323030353A3332323931373A3139353435
X 323A3138323031323A3138323032393A3234303339393A3239
X 333836303A3231363935393A3233343731373A313835323938
X 3A3138343330363A3138353330323A3138323031303A313931
X 3933303A3535353031313A3230383334383A3138313938343A
X 3538373436313A3239393632393A3338353434323A33343930
X 37363A3139343834303A3435323439313A3330343031393A33
X 36373139393A3236333933343A3334323331383A3537343037
X 363A3239393535393A3239393536323A3138333930353A3630
X 373630353A3436303730343A3239333837303A353739363538
X 3A3539333239333A3131393234363A3635333830323A353630
X 3936343A3635363936343A3639393634373A3639393932373A
X 3435323439313A3730303030343A3639393831363A36383830
X 38363A3633343538343A3630383036323A3733303731353A35
X 38373436333A3538373433383A3538373435333A3736393733
X 343A3739373230383A3736393733343A3739373137343A3338
X 353433343A3737393737323A3137363939303A333838343031
X 3A3332393035393A313037303733313A313037323233323A31
X 3331393339393C2F54465349443E3C5075626C697368657249
X 443E3630393730303C2F5075626C697368657249443E3C5375
X 70706F72744C696E6B3E4E2F413C2F537570706F72744C696E
X 6B3E3C53757070726573734572726F724C6F673E545255453C
X 2F53757070726573734572726F724C6F673E3C537570707265
X 73734572726F72546578743E4E2F413C2F5375707072657373
X 4572726F72546578743E3C53757070726573734572726F7245
X 6D61696C3E46414C53453C2F53757070726573734572726F72
X 456D61696C3E3C53757070726573734572726F72456D61696C
X 416464726573733E4E2F413C2F53757070726573734572726F
X 72456D61696C416464726573733E3C53757070726573734572
X 726F72456D61696C5375626A6563743E4E2F413C2F53757070
X 726573734572726F72456D61696C5375626A6563743E3C5375
X 7070726573734572726F72456D61696C426F64793E4E2F413C
X 2F53757070726573734572726F72456D61696C426F64793E3C
X 53757070726573734572726F72456D61696C496E636C756465
X 5061796C6F61643E545255453C2F5375707072657373457272
X 6F72456D61696C496E636C7564655061796C6F61643E3C2F41
X 70706C69636174696F6E4E616D653E3C4170706C6963617469
X 6F6E4E616D653E3C6E616D653E4144545F457069635F746573
X 745F484C3752656365697665724170703C2F6E616D653E3C4D
X 65737361676546696C7465724576656E7446696C746572466C
X 61673E545255453C2F4D65737361676546696C746572457665
X 6E7446696C746572466C61673E3C52656D61696E6465727346
X 696C7465724576656E7446696C746572466C61673E54525545
X 3C2F52656D61696E6465727346696C7465724576656E744669
X 6C746572466C61673E3C4175646974496E7075744576656E74
X 46696C746572466C61673E545255453C2F4175646974496E70
X 75744576656E7446696C746572466C61673E3C4572726F7245
X 76656E7446696C746572466C61673E545255453C2F4572726F
X 724576656E7446696C746572466C61673E3C53656E6441636B
X 4576656E7446696C746572466C61673E545255453C2F53656E
X 6441636B4576656E7446696C746572466C61673E3C4A726E6C
X 4D73674578706972793E333C2F4A726E6C4D73674578706972
X 793E3C4572726F724D73674578706972793E33353C2F457272
X 6F724D73674578706972793E3C54465349443E4E2F413C2F54
X 465349443E3C5075626C697368657249443E4E2F413C2F5075
X 626C697368657249443E3C537570706F72744C696E6B3E4E2F
X 413C2F537570706F72744C696E6B3E3C537570707265737345
X 72726F724C6F673E545255453C2F5375707072657373457272
X 6F724C6F673E3C53757070726573734572726F72546578743E
X 4E2F413C2F53757070726573734572726F72546578743E3C53
X 757070726573734572726F72456D61696C3E46414C53453C2F
X 53757070726573734572726F72456D61696C3E3C5375707072
X 6573734572726F72456D61696C416464726573733E4E2F413C
X 2F53757070726573734572726F72456D61696C416464726573
X 733E3C53757070726573734572726F72456D61696C5375626A
X 6563743E4E2F413C2F53757070726573734572726F72456D61
X 696C5375626A6563743E3C53757070726573734572726F7245
X 6D61696C426F64793E4E2F413C2F5375707072657373457272
X 6F72456D61696C426F64793E3C53757070726573734572726F
X 72456D61696C496E636C7564655061796C6F61643E54525545
X 3C2F53757070726573734572726F72456D61696C496E636C75
X 64655061796C6F61643E3C2F4170706C69636174696F6E4E61
X 6D653E3C4170706C69636174696F6E4E616D653E3C6E616D65
X 3E4144545F45706963546F486F6E657977656C6C5F484C3752
X 656365697665724170703C2F6E616D653E3C4D657373616765
X 46696C7465724576656E7446696C746572466C61673E545255
X 453C2F4D65737361676546696C7465724576656E7446696C74
X 6572466C61673E3C52656D61696E6465727346696C74657245
X 76656E7446696C746572466C61673E545255453C2F52656D61
X 696E6465727346696C7465724576656E7446696C746572466C
X 61673E3C4175646974496E7075744576656E7446696C746572
X 466C61673E545255453C2F4175646974496E7075744576656E
X 7446696C746572466C61673E3C4572726F724576656E744669
X 6C746572466C61673E545255453C2F4572726F724576656E74
X 46696C746572466C61673E3C53656E6441636B4576656E7446
X 696C746572466C61673E545255453C2F53656E6441636B4576
X 656E7446696C746572466C61673E3C4A726E6C4D7367457870
X 6972793E333C2F4A726E6C4D73674578706972793E3C457272
X 6F724D73674578706972793E333C2F4572726F724D73674578
X 706972793E3C54465349443E3435323434393C2F5446534944
X 3E3C5075626C697368657249443E3630393336323C2F507562
X 6C697368657249443E3C537570706F72744C696E6B3E4E2F41
X 3C2F537570706F72744C696E6B3E3C53757070726573734572
X 726F724C6F673E545255453C2F53757070726573734572726F
X 724C6F673E3C53757070726573734572726F72546578743E4E
X 2F413C2F53757070726573734572726F72546578743E3C5375
X 7070726573734572726F72456D61696C3E46414C53453C2F53
X 757070726573734572726F72456D61696C3E3C537570707265
X 73734572726F72456D61696C416464726573733E4E2F413C2F
X 53757070726573734572726F72456D61696C41646472657373
X 3E3C53757070726573734572726F72456D61696C5375626A65
X 63743E4E2F413C2F53757070726573734572726F72456D6169
X 6C5375626A6563743E3C53757070726573734572726F72456D
X 61696C426F64793E4E2F413C2F53757070726573734572726F
X 72456D61696C426F64793E3C53757070726573734572726F72
X 456D61696C496E636C7564655061796C6F61643E545255453C
X 2F53757070726573734572726F72456D61696C496E636C7564
X 655061796C6F61643E3C2F4170706C69636174696F6E4E616D
X 653E3C4170706C69636174696F6E4E616D653E3C6E616D653E
X 4144545F45706963546F4D696461735F484C37526563656976
X 65724170703C2F6E616D653E3C4D65737361676546696C7465
X 724576656E7446696C746572466C61673E545255453C2F4D65
X 737361676546696C7465724576656E7446696C746572466C61
X 673E3C52656D61696E6465727346696C7465724576656E7446
X 696C746572466C61673E545255453C2F52656D61696E646572
X 7346696C7465724576656E7446696C746572466C61673E3C41
X 75646974496E7075744576656E7446696C746572466C61673E
X 545255453C2F4175646974496E7075744576656E7446696C74
X 6572466C61673E3C4572726F724576656E7446696C74657246
X 6C61673E545255453C2F4572726F724576656E7446696C7465
X 72466C61673E3C53656E6441636B4576656E7446696C746572
X 466C61673E545255453C2F53656E6441636B4576656E744669
X 6C746572466C61673E3C4A726E6C4D73674578706972793E33
X 3C2F4A726E6C4D73674578706972793E3C4572726F724D7367
X 4578706972793E333C2F4572726F724D73674578706972793E
X 3C54465349443E3338353338363C2F54465349443E3C507562
X 6C697368657249443E4E2F413C2F5075626C69736865724944
X 3E3C537570706F72744C696E6B3E4E2F413C2F537570706F72
X 744C696E6B3E3C53757070726573734572726F724C6F673E54
X 5255453C2F53757070726573734572726F724C6F673E3C5375
X 7070726573734572726F72546578743E4E2F413C2F53757070
X 726573734572726F72546578743E3C53757070726573734572
X 726F72456D61696C3E46414C53453C2F537570707265737345
X 72726F72456D61696C3E3C53757070726573734572726F7245
X 6D61696C416464726573733E4E2F413C2F5375707072657373
X 4572726F72456D61696C416464726573733E3C537570707265
X 73734572726F72456D61696C5375626A6563743E4E2F413C2F
X 53757070726573734572726F72456D61696C5375626A656374
X 3E3C53757070726573734572726F72456D61696C426F64793E
X 4E2F413C2F53757070726573734572726F72456D61696C426F
X 64793E3C53757070726573734572726F72456D61696C496E63
X 6C7564655061796C6F61643E545255453C2F53757070726573
X 734572726F72456D61696C496E636C7564655061796C6F6164
X 3E3C2F4170706C69636174696F6E4E616D653E3C4170706C69
X 636174696F6E4E616D653E3C6E616D653E4144545F4D444D43
X 52546F5F457069635F484C374D515265636569766572417070
X 3C2F6E616D653E3C4D65737361676546696C7465724576656E
X 7446696C746572466C61673E545255453C2F4D657373616765
X 46696C7465724576656E7446696C746572466C61673E3C5265
X 6D61696E6465727346696C7465724576656E7446696C746572
X 466C61673E545255453C2F52656D61696E6465727346696C74
X 65724576656E7446696C746572466C61673E3C417564697449
X 6E7075744576656E7446696C746572466C61673E545255453C
X 2F4175646974496E7075744576656E7446696C746572466C61
X 673E3C4572726F724576656E7446696C746572466C61673E54
X 5255453C2F4572726F724576656E7446696C746572466C6167
X 3E3C53656E6441636B4576656E7446696C746572466C61673E
X 545255453C2F53656E6441636B4576656E7446696C74657246
X 6C61673E3C4A726E6C4D73674578706972793E333C2F4A726E
X 6C4D73674578706972793E3C4572726F724D73674578706972
X 793E333C2F4572726F724D73674578706972793E3C54465349
X 443E4E2F413C2F54465349443E3C5075626C69736865724944
X 3E4E2F413C2F5075626C697368657249443E3C537570706F72
X 744C696E6B3E4E2F413C2F537570706F72744C696E6B3E3C53
X 757070726573734572726F724C6F673E545255453C2F537570
X 70726573734572726F724C6F673E3C53757070726573734572
X 726F72546578743E4E2F413C2F53757070726573734572726F
X 72546578743E3C53757070726573734572726F72456D61696C
X 3E46414C53453C2F53757070726573734572726F72456D6169
X 6C3E3C53757070726573734572726F72456D61696C41646472
X 6573733E4E2F413C2F53757070726573734572726F72456D61
X 696C416464726573733E3C53757070726573734572726F7245
X 6D61696C5375626A6563743E4E2F413C2F5375707072657373
X 4572726F72456D61696C5375626A6563743E3C537570707265
X 73734572726F72456D61696C426F64793E4E2F413C2F537570
X 70726573734572726F72456D61696C426F64793E3C53757070
X 726573734572726F72456D61696C496E636C7564655061796C
X 6F61643E545255453C2F53757070726573734572726F72456D
X 61696C496E636C7564655061796C6F61643E3C2F4170706C69
X 636174696F6E4E616D653E3C4170706C69636174696F6E4E61
X 6D653E3C6E616D653E4241525F4F7074756D546F457069635F
X 484C3752656365697665724170703C2F6E616D653E3C4D6573
X 7361676546696C7465724576656E7446696C746572466C6167
X 3E545255453C2F4D65737361676546696C7465724576656E74
X 46696C746572466C61673E3C52656D61696E6465727346696C
X 7465724576656E7446696C746572466C61673E545255453C2F
X 52656D61696E6465727346696C7465724576656E7446696C74
X 6572466C61673E3C4175646974496E7075744576656E744669
X 6C746572466C61673E545255453C2F4175646974496E707574
X 4576656E7446696C746572466C61673E3C4572726F72457665
X 6E7446696C746572466C61673E545255453C2F4572726F7245
X 76656E7446696C746572466C61673E3C53656E6441636B4576
X 656E7446696C746572466C61673E545255453C2F53656E6441
X 636B4576656E7446696C746572466C61673E3C4A726E6C4D73
X 674578706972793E333C2F4A726E6C4D73674578706972793E
X 3C4572726F724D73674578706972793E333C2F4572726F724D
X 73674578706972793E3C54465349443E3234303339393C2F54
X 465349443E3C5075626C697368657249443E4E2F413C2F5075
X 626C697368657249443E3C537570706F72744C696E6B3E4E2F
X 413C2F537570706F72744C696E6B3E3C537570707265737345
X 72726F724C6F673E545255453C2F5375707072657373457272
X 6F724C6F673E3C53757070726573734572726F72546578743E
X 4E2F413C2F53757070726573734572726F72546578743E3C53
X 757070726573734572726F72456D61696C3E46414C53453C2F
X 53757070726573734572726F72456D61696C3E3C5375707072
X 6573734572726F72456D61696C416464726573733E4E2F413C
X 2F53757070726573734572726F72456D61696C416464726573
X 733E3C53757070726573734572726F72456D61696C5375626A
X 6563743E4E2F413C2F53757070726573734572726F72456D61
X 696C5375626A6563743E3C53757070726573734572726F7245
X 6D61696C426F64793E4E2F413C2F5375707072657373457272
X 6F72456D61696C426F64793E3C53757070726573734572726F
X 72456D61696C496E636C7564655061796C6F61643E54525545
X 3C2F53757070726573734572726F72456D61696C496E636C75
X 64655061796C6F61643E3C2F4170706C69636174696F6E4E61
X 6D653E3C4170706C69636174696F6E4E616D653E3C6E616D65
X 3E4446545F41726961546F457069635F484C37526563656976
X 65724170703C2F6E616D653E3C4D65737361676546696C7465
X 724576656E7446696C746572466C61673E545255453C2F4D65
X 737361676546696C7465724576656E7446696C746572466C61
X 673E3C52656D61696E6465727346696C7465724576656E7446
X 696C746572466C61673E545255453C2F52656D61696E646572
X 7346696C7465724576656E7446696C746572466C61673E3C41
X 75646974496E7075744576656E7446696C746572466C61673E
X 545255453C2F4175646974496E7075744576656E7446696C74
X 6572466C61673E3C4572726F724576656E7446696C74657246
X 6C61673E545255453C2F4572726F724576656E7446696C7465
X 72466C61673E3C53656E6441636B4576656E7446696C746572
X 466C61673E545255453C2F53656E6441636B4576656E744669
X 6C746572466C61673E3C4A726E6C4D73674578706972793E33
X 3C2F4A726E6C4D73674578706972793E3C4572726F724D7367
X 4578706972793E333C2F4572726F724D73674578706972793E
X 3C54465349443E3731383138373C2F54465349443E3C507562
X 6C697368657249443E4E2F413C2F5075626C69736865724944
X 3E3C537570706F72744C696E6B3E4E2F413C2F537570706F72
X 744C696E6B3E3C53757070726573734572726F724C6F673E54
X 5255453C2F53757070726573734572726F724C6F673E3C5375
X 7070726573734572726F72546578743E4E2F413C2F53757070
X 726573734572726F72546578743E3C53757070726573734572
X 726F72456D61696C3E46414C53453C2F537570707265737345
X 72726F72456D61696C3E3C53757070726573734572726F7245
X 6D61696C416464726573733E4E2F413C2F5375707072657373
X 4572726F72456D61696C416464726573733E3C537570707265
X 73734572726F72456D61696C5375626A6563743E4E2F413C2F
X 53757070726573734572726F72456D61696C5375626A656374
X 3E3C53757070726573734572726F72456D61696C426F64793E
X 4E2F413C2F53757070726573734572726F72456D61696C426F
X 64793E3C53757070726573734572726F72456D61696C496E63
X 6C7564655061796C6F61643E545255453C2F53757070726573
X 734572726F72456D61696C496E636C7564655061796C6F6164
X 3E3C2F4170706C69636174696F6E4E616D653E3C4170706C69
X 636174696F6E4E616D653E3C6E616D653E4446545F436F7061
X 7468546F457069635F484C3752656365697665724170703C2F
X 6E616D653E3C4D65737361676546696C7465724576656E7446
X 696C746572466C61673E545255453C2F4D6573736167654669
X 6C7465724576656E7446696C746572466C61673E3C52656D61
X 696E6465727346696C7465724576656E7446696C746572466C
X 61673E545255453C2F52656D61696E6465727346696C746572
X 4576656E7446696C746572466C61673E3C4175646974496E70
X 75744576656E7446696C746572466C61673E545255453C2F41
X 75646974496E7075744576656E7446696C746572466C61673E
X 3C4572726F724576656E7446696C746572466C61673E545255
X 453C2F4572726F724576656E7446696C746572466C61673E3C
X 53656E6441636B4576656E7446696C746572466C61673E5452
X 55453C2F53656E6441636B4576656E7446696C746572466C61
X 673E3C4A726E6C4D73674578706972793E333C2F4A726E6C4D
X 73674578706972793E3C4572726F724D73674578706972793E
X 333C2F4572726F724D73674578706972793E3C54465349443E
X 3239353636393A3239353637313C2F54465349443E3C507562
X 6C697368657249443E3630393735313C2F5075626C69736865
X 7249443E3C537570706F72744C696E6B3E4E2F413C2F537570
X 706F72744C696E6B3E3C53757070726573734572726F724C6F
X 673E545255453C2F53757070726573734572726F724C6F673E
X 3C53757070726573734572726F72546578743E4E2F413C2F53
X 757070726573734572726F72546578743E3C53757070726573
X 734572726F72456D61696C3E46414C53453C2F537570707265
X 73734572726F72456D61696C3E3C5375707072657373457272
X 6F72456D61696C416464726573733E4E2F413C2F5375707072
X 6573734572726F72456D61696C416464726573733E3C537570
X 70726573734572726F72456D61696C5375626A6563743E4E2F
X 413C2F53757070726573734572726F72456D61696C5375626A
X 6563743E3C53757070726573734572726F72456D61696C426F
X 64793E4E2F413C2F53757070726573734572726F72456D6169
X 6C426F64793E3C53757070726573734572726F72456D61696C
X 496E636C7564655061796C6F61643E545255453C2F53757070
X 726573734572726F72456D61696C496E636C7564655061796C
X 6F61643E3C2F4170706C69636174696F6E4E616D653E3C4170
X 706C69636174696F6E4E616D653E3C6E616D653E4446545F45
X 7069635F46696E5F484C3752656365697665724170703C2F6E
X 616D653E3C4D65737361676546696C7465724576656E744669
X 6C746572466C61673E545255453C2F4D65737361676546696C
X 7465724576656E7446696C746572466C61673E3C52656D6169
X 6E6465727346696C7465724576656E7446696C746572466C61
X 673E545255453C2F52656D61696E6465727346696C74657245
X 76656E7446696C746572466C61673E3C4175646974496E7075
X 744576656E7446696C746572466C61673E545255453C2F4175
X 646974496E7075744576656E7446696C746572466C61673E3C
X 4572726F724576656E7446696C746572466C61673E54525545
X 3C2F4572726F724576656E7446696C746572466C61673E3C53
X 656E6441636B4576656E7446696C746572466C61673E545255
X 453C2F53656E6441636B4576656E7446696C746572466C6167
X 3E3C4A726E6C4D73674578706972793E333C2F4A726E6C4D73
X 674578706972793E3C4572726F724D73674578706972793E33
X 3C2F4572726F724D73674578706972793E3C54465349443E4E
X 2F413C2F54465349443E3C5075626C697368657249443E3630
X 393735323C2F5075626C697368657249443E3C537570706F72
X 744C696E6B3E4E2F413C2F537570706F72744C696E6B3E3C53
X 757070726573734572726F724C6F673E545255453C2F537570
X 70726573734572726F724C6F673E3C53757070726573734572
X 726F72546578743E4E2F413C2F53757070726573734572726F
X 72546578743E3C53757070726573734572726F72456D61696C
X 3E46414C53453C2F53757070726573734572726F72456D6169
X 6C3E3C53757070726573734572726F72456D61696C41646472
X 6573733E4E2F413C2F53757070726573734572726F72456D61
X 696C416464726573733E3C53757070726573734572726F7245
X 6D61696C5375626A6563743E4E2F413C2F5375707072657373
X 4572726F72456D61696C5375626A6563743E3C537570707265
X 73734572726F72456D61696C426F64793E4E2F413C2F537570
X 70726573734572726F72456D61696C426F64793E3C53757070
X 726573734572726F72456D61696C496E636C7564655061796C
X 6F61643E545255453C2F53757070726573734572726F72456D
X 61696C496E636C7564655061796C6F61643E3C2F4170706C69
X 636174696F6E4E616D653E3C4170706C69636174696F6E4E61
X 6D653E3C6E616D653E4446545F457069635F47656E65726963
X 5F484C3752656365697665724170703C2F6E616D653E3C4D65
X 737361676546696C7465724576656E7446696C746572466C61
X 673E545255453C2F4D65737361676546696C7465724576656E
X 7446696C746572466C61673E3C52656D61696E646572734669
X 6C7465724576656E7446696C746572466C61673E545255453C
X 2F52656D61696E6465727346696C7465724576656E7446696C
X 746572466C61673E3C4175646974496E7075744576656E7446
X 696C746572466C61673E545255453C2F4175646974496E7075
X 744576656E7446696C746572466C61673E3C4572726F724576
X 656E7446696C746572466C61673E545255453C2F4572726F72
X 4576656E7446696C746572466C61673E3C53656E6441636B45
X 76656E7446696C746572466C61673E545255453C2F53656E64
X 41636B4576656E7446696C746572466C61673E3C4A726E6C4D
X 73674578706972793E333C2F4A726E6C4D7367457870697279
X 3E3C4572726F724D73674578706972793E333C2F4572726F72
X 4D73674578706972793E3C54465349443E3232343132303C2F
X 54465349443E3C5075626C697368657249443E4E2F413C2F50
X 75626C697368657249443E3C537570706F72744C696E6B3E4E
X 2F413C2F537570706F72744C696E6B3E3C5375707072657373
X 4572726F724C6F673E545255453C2F53757070726573734572
X 726F724C6F673E3C53757070726573734572726F7254657874
X 3E4E2F413C2F53757070726573734572726F72546578743E3C
X 53757070726573734572726F72456D61696C3E46414C53453C
X 2F53757070726573734572726F72456D61696C3E3C53757070
X 726573734572726F72456D61696C416464726573733E4E2F41
X 3C2F53757070726573734572726F72456D61696C4164647265
X 73733E3C53757070726573734572726F72456D61696C537562
X 6A6563743E4E2F413C2F53757070726573734572726F72456D
X 61696C5375626A6563743E3C53757070726573734572726F72
X 456D61696C426F64793E4E2F413C2F53757070726573734572
X 726F72456D61696C426F64793E3C5375707072657373457272
X 6F72456D61696C496E636C7564655061796C6F61643E545255
X 453C2F53757070726573734572726F72456D61696C496E636C
X 7564655061796C6F61643E3C2F4170706C69636174696F6E4E
X 616D653E3C4170706C69636174696F6E4E616D653E3C6E616D
X 653E4446545F45706963546F4F7074756D436163456E745F42
X 41525F484C3752656365697665724170703C2F6E616D653E3C
X 4D65737361676546696C7465724576656E7446696C74657246
X 6C61673E545255453C2F4D65737361676546696C7465724576
X 656E7446696C746572466C61673E3C52656D61696E64657273
X 46696C7465724576656E7446696C746572466C61673E545255
X 453C2F52656D61696E6465727346696C7465724576656E7446
X 696C746572466C61673E3C4175646974496E7075744576656E
X 7446696C746572466C61673E545255453C2F4175646974496E
X 7075744576656E7446696C746572466C61673E3C4572726F72
X 4576656E7446696C746572466C61673E545255453C2F457272
X 6F724576656E7446696C746572466C61673E3C53656E644163
X 6B4576656E7446696C746572466C61673E545255453C2F5365
X 6E6441636B4576656E7446696C746572466C61673E3C4A726E
X 6C4D73674578706972793E333C2F4A726E6C4D736745787069
X 72793E3C4572726F724D73674578706972793E333C2F457272
X 6F724D73674578706972793E3C54465349443E4E2F413C2F54
X 465349443E3C5075626C697368657249443E3630393737343C
X 2F5075626C697368657249443E3C537570706F72744C696E6B
X 3E4E2F413C2F537570706F72744C696E6B3E3C537570707265
X 73734572726F724C6F673E545255453C2F5375707072657373
X 4572726F724C6F673E3C53757070726573734572726F725465
X 78743E4E2F413C2F53757070726573734572726F7254657874
X 3E3C53757070726573734572726F72456D61696C3E46414C53
X 453C2F53757070726573734572726F72456D61696C3E3C5375
X 7070726573734572726F72456D61696C416464726573733E4E
X 2F413C2F53757070726573734572726F72456D61696C416464
X 726573733E3C53757070726573734572726F72456D61696C53
X 75626A6563743E4E2F413C2F53757070726573734572726F72
X 456D61696C5375626A6563743E3C5375707072657373457272
X 6F72456D61696C426F64793E4E2F413C2F5375707072657373
X 4572726F72456D61696C426F64793E3C537570707265737345
X 72726F72456D61696C496E636C7564655061796C6F61643E54
X 5255453C2F53757070726573734572726F72456D61696C496E
X 636C7564655061796C6F61643E3C2F4170706C69636174696F
X 6E4E616D653E3C4170706C69636174696F6E4E616D653E3C6E
X 616D653E4446545F48444D534D4352546F457069635F484C37
X 52656365697665724170703C2F6E616D653E3C4D6573736167
X 6546696C7465724576656E7446696C746572466C61673E5452
X 55453C2F4D65737361676546696C7465724576656E7446696C
X 746572466C61673E3C52656D61696E6465727346696C746572
X 4576656E7446696C746572466C61673E545255453C2F52656D
X 61696E6465727346696C7465724576656E7446696C74657246
X 6C61673E3C4175646974496E7075744576656E7446696C7465
X 72466C61673E545255453C2F4175646974496E707574457665
X 6E7446696C746572466C61673E3C4572726F724576656E7446
X 696C746572466C61673E545255453C2F4572726F724576656E
X 7446696C746572466C61673E3C53656E6441636B4576656E74
X 46696C746572466C61673E545255453C2F53656E6441636B45
X 76656E7446696C746572466C61673E3C4A726E6C4D73674578
X 706972793E333C2F4A726E6C4D73674578706972793E3C4572
X 726F724D73674578706972793E333C2F4572726F724D736745
X 78706972793E3C54465349443E3731383232323C2F54465349
X 443E3C5075626C697368657249443E4E2F413C2F5075626C69
X 7368657249443E3C537570706F72744C696E6B3E4E2F413C2F
X 537570706F72744C696E6B3E3C53757070726573734572726F
X 724C6F673E545255453C2F53757070726573734572726F724C
X 6F673E3C53757070726573734572726F72546578743E4E2F41
X 3C2F53757070726573734572726F72546578743E3C53757070
X 726573734572726F72456D61696C3E46414C53453C2F537570
X 70726573734572726F72456D61696C3E3C5375707072657373
X 4572726F72456D61696C416464726573733E4E2F413C2F5375
X 7070726573734572726F72456D61696C416464726573733E3C
X 53757070726573734572726F72456D61696C5375626A656374
X 3E4E2F413C2F53757070726573734572726F72456D61696C53
X 75626A6563743E3C53757070726573734572726F72456D6169
X 6C426F64793E4E2F413C2F53757070726573734572726F7245
X 6D61696C426F64793E3C53757070726573734572726F72456D
X 61696C496E636C7564655061796C6F61643E545255453C2F53
X 757070726573734572726F72456D61696C496E636C75646550
X 61796C6F61643E3C2F4170706C69636174696F6E4E616D653E
X 3C4170706C69636174696F6E4E616D653E3C6E616D653E4446
X 545F4D7573654D4352546F457069635F484C37526563656976
X 65724170703C2F6E616D653E3C4D65737361676546696C7465
X 724576656E7446696C746572466C61673E545255453C2F4D65
X 737361676546696C7465724576656E7446696C746572466C61
X 673E3C52656D61696E6465727346696C7465724576656E7446
X 696C746572466C61673E545255453C2F52656D61696E646572
X 7346696C7465724576656E7446696C746572466C61673E3C41
X 75646974496E7075744576656E7446696C746572466C61673E
X 545255453C2F4175646974496E7075744576656E7446696C74
X 6572466C61673E3C4572726F724576656E7446696C74657246
X 6C61673E545255453C2F4572726F724576656E7446696C7465
X 72466C61673E3C53656E6441636B4576656E7446696C746572
X 466C61673E545255453C2F53656E6441636B4576656E744669
X 6C746572466C61673E3C4A726E6C4D73674578706972793E33
X 3C2F4A726E6C4D73674578706972793E3C4572726F724D7367
X 4578706972793E333C2F4572726F724D73674578706972793E
X 3C54465349443E3538373535353C2F54465349443E3C507562
X 6C697368657249443E4E2F413C2F5075626C69736865724944
X 3E3C537570706F72744C696E6B3E4E2F413C2F537570706F72
X 744C696E6B3E3C53757070726573734572726F724C6F673E54
X 5255453C2F53757070726573734572726F724C6F673E3C5375
X 7070726573734572726F72546578743E4E2F413C2F53757070
X 726573734572726F72546578743E3C53757070726573734572
X 726F72456D61696C3E46414C53453C2F537570707265737345
X 72726F72456D61696C3E3C53757070726573734572726F7245
X 6D61696C416464726573733E4E2F413C2F5375707072657373
X 4572726F72456D61696C416464726573733E3C537570707265
X 73734572726F72456D61696C5375626A6563743E4E2F413C2F
X 53757070726573734572726F72456D61696C5375626A656374
X 3E3C53757070726573734572726F72456D61696C426F64793E
X 4E2F413C2F53757070726573734572726F72456D61696C426F
X 64793E3C53757070726573734572726F72456D61696C496E63
X 6C7564655061796C6F61643E545255453C2F53757070726573
X 734572726F72456D61696C496E636C7564655061796C6F6164
X 3E3C2F4170706C69636174696F6E4E616D653E3C4170706C69
X 636174696F6E4E616D653E3C6E616D653E4446545F50726F76
X 6174696F6E5F484C3752656365697665724170703C2F6E616D
X 653E3C4D65737361676546696C7465724576656E7446696C74
X 6572466C61673E545255453C2F4D65737361676546696C7465
X 724576656E7446696C746572466C61673E3C52656D61696E64
X 65727346696C7465724576656E7446696C746572466C61673E
X 545255453C2F52656D61696E6465727346696C746572457665
X 6E7446696C746572466C61673E3C4175646974496E70757445
X 76656E7446696C746572466C61673E545255453C2F41756469
X 74496E7075744576656E7446696C746572466C61673E3C4572
X 726F724576656E7446696C746572466C61673E545255453C2F
X 4572726F724576656E7446696C746572466C61673E3C53656E
X 6441636B4576656E7446696C746572466C61673E545255453C
X 2F53656E6441636B4576656E7446696C746572466C61673E3C
X 4A726E6C4D73674578706972793E333C2F4A726E6C4D736745
X 78706972793E3C4572726F724D73674578706972793E333C2F
X 4572726F724D73674578706972793E3C54465349443E313838
X 3736313A3536303834333C2F54465349443E3C5075626C6973
X 68657249443E4E2F413C2F5075626C697368657249443E3C53
X 7570706F72744C696E6B3E4E2F413C2F537570706F72744C69
X 6E6B3E3C53757070726573734572726F724C6F673E54525545
X 3C2F53757070726573734572726F724C6F673E3C5375707072
X 6573734572726F72546578743E4E2F413C2F53757070726573
X 734572726F72546578743E3C53757070726573734572726F72
X 456D61696C3E46414C53453C2F53757070726573734572726F
X 72456D61696C3E3C53757070726573734572726F72456D6169
X 6C416464726573733E4E2F413C2F5375707072657373457272
X 6F72456D61696C416464726573733E3C537570707265737345
X 72726F72456D61696C5375626A6563743E4E2F413C2F537570
X 70726573734572726F72456D61696C5375626A6563743E3C53
X 757070726573734572726F72456D61696C426F64793E4E2F41
X 3C2F53757070726573734572726F72456D61696C426F64793E
X 3C53757070726573734572726F72456D61696C496E636C7564
X 655061796C6F61643E545255453C2F53757070726573734572
X 726F72456D61696C496E636C7564655061796C6F61643E3C2F
X 4170706C69636174696F6E4E616D653E3C4170706C69636174
X 696F6E4E616D653E3C6E616D653E4446545F534343536F6674
X 454E5632546F457069635F484C375265636569766572417070
X 3C2F6E616D653E3C4D65737361676546696C7465724576656E
X 7446696C746572466C61673E545255453C2F4D657373616765
X 46696C7465724576656E7446696C746572466C61673E3C5265
X 6D61696E6465727346696C7465724576656E7446696C746572
X 466C61673E545255453C2F52656D61696E6465727346696C74
X 65724576656E7446696C746572466C61673E3C417564697449
X 6E7075744576656E7446696C746572466C61673E545255453C
X 2F4175646974496E7075744576656E7446696C746572466C61
X 673E3C4572726F724576656E7446696C746572466C61673E54
X 5255453C2F4572726F724576656E7446696C746572466C6167
X 3E3C53656E6441636B4576656E7446696C746572466C61673E
X 545255453C2F53656E6441636B4576656E7446696C74657246
X 6C61673E3C4A726E6C4D73674578706972793E333C2F4A726E
X 6C4D73674578706972793E3C4572726F724D73674578706972
X 793E333C2F4572726F724D73674578706972793E3C54465349
X 443E3335353035363C2F54465349443E3C5075626C69736865
X 7249443E3630393735313C2F5075626C697368657249443E3C
X 537570706F72744C696E6B3E4E2F413C2F537570706F72744C
X 696E6B3E3C53757070726573734572726F724C6F673E545255
X 453C2F53757070726573734572726F724C6F673E3C53757070
X 726573734572726F72546578743E4E2F413C2F537570707265
X 73734572726F72546578743E3C53757070726573734572726F
X 72456D61696C3E46414C53453C2F5375707072657373457272
X 6F72456D61696C3E3C53757070726573734572726F72456D61
X 696C416464726573733E4E2F413C2F53757070726573734572
X 726F72456D61696C416464726573733E3C5375707072657373
X 4572726F72456D61696C5375626A6563743E4E2F413C2F5375
X 7070726573734572726F72456D61696C5375626A6563743E3C
X 53757070726573734572726F72456D61696C426F64793E4E2F
X 413C2F53757070726573734572726F72456D61696C426F6479
X 3E3C53757070726573734572726F72456D61696C496E636C75
X 64655061796C6F61643E545255453C2F537570707265737345
X 72726F72456D61696C496E636C7564655061796C6F61643E3C
X 2F4170706C69636174696F6E4E616D653E3C4170706C696361
X 74696F6E4E616D653E3C6E616D653E4446545F534343536F66
X 74546F457069635F484C3752656365697665724170703C2F6E
X 616D653E3C4D65737361676546696C7465724576656E744669
X 6C746572466C61673E545255453C2F4D65737361676546696C
X 7465724576656E7446696C746572466C61673E3C52656D6169
X 6E6465727346696C7465724576656E7446696C746572466C61
X 673E545255453C2F52656D61696E6465727346696C74657245
X 76656E7446696C746572466C61673E3C4175646974496E7075
X 744576656E7446696C746572466C61673E545255453C2F4175
X 646974496E7075744576656E7446696C746572466C61673E3C
X 4572726F724576656E7446696C746572466C61673E54525545
X 3C2F4572726F724576656E7446696C746572466C61673E3C53
X 656E6441636B4576656E7446696C746572466C61673E545255
X 453C2F53656E6441636B4576656E7446696C746572466C6167
X 3E3C4A726E6C4D73674578706972793E333C2F4A726E6C4D73
X 674578706972793E3C4572726F724D73674578706972793E33
X 3C2F4572726F724D73674578706972793E3C54465349443E33
X 35353035363C2F54465349443E3C5075626C69736865724944
X 3E3630393735313C2F5075626C697368657249443E3C537570
X 706F72744C696E6B3E4E2F413C2F537570706F72744C696E6B
X 3E3C53757070726573734572726F724C6F673E545255453C2F
X 53757070726573734572726F724C6F673E3C53757070726573
X 734572726F72546578743E4E2F413C2F537570707265737345
X 72726F72546578743E3C53757070726573734572726F72456D
X 61696C3E46414C53453C2F53757070726573734572726F7245
X 6D61696C3E3C53757070726573734572726F72456D61696C41
X 6464726573733E4E2F413C2F53757070726573734572726F72
X 456D61696C416464726573733E3C5375707072657373457272
X 6F72456D61696C5375626A6563743E4E2F413C2F5375707072
X 6573734572726F72456D61696C5375626A6563743E3C537570
X 70726573734572726F72456D61696C426F64793E4E2F413C2F
X 53757070726573734572726F72456D61696C426F64793E3C53
X 757070726573734572726F72456D61696C496E636C75646550
X 61796C6F61643E545255453C2F53757070726573734572726F
X 72456D61696C496E636C7564655061796C6F61643E3C2F4170
X 706C69636174696F6E4E616D653E3C4170706C69636174696F
X 6E4E616D653E3C6E616D653E4446545F53656E747279537569
X 74655F4D51426174636852656365697665724170703C2F6E61
X 6D653E3C4D65737361676546696C7465724576656E7446696C
X 746572466C61673E545255453C2F4D65737361676546696C74
X 65724576656E7446696C746572466C61673E3C52656D61696E
X 6465727346696C7465724576656E7446696C746572466C6167
X 3E545255453C2F52656D61696E6465727346696C7465724576
X 656E7446696C746572466C61673E3C4175646974496E707574
X 4576656E7446696C746572466C61673E545255453C2F417564
X 6974496E7075744576656E7446696C746572466C61673E3C45
X 72726F724576656E7446696C746572466C61673E545255453C
X 2F4572726F724576656E7446696C746572466C61673E3C5365
X 6E6441636B4576656E7446696C746572466C61673E54525545
X 3C2F53656E6441636B4576656E7446696C746572466C61673E
X 3C4A726E6C4D73674578706972793E333C2F4A726E6C4D7367
X 4578706972793E3C4572726F724D73674578706972793E333C
X 2F4572726F724D73674578706972793E3C54465349443E3636
X 363033353C2F54465349443E3C5075626C697368657249443E
X 4E2F413C2F5075626C697368657249443E3C537570706F7274
X 4C696E6B3E4E2F413C2F537570706F72744C696E6B3E3C5375
X 7070726573734572726F724C6F673E545255453C2F53757070
X 726573734572726F724C6F673E3C5375707072657373457272
X 6F72546578743E4E2F413C2F53757070726573734572726F72
X 546578743E3C53757070726573734572726F72456D61696C3E
X 46414C53453C2F53757070726573734572726F72456D61696C
X 3E3C53757070726573734572726F72456D61696C4164647265
X 73733E4E2F413C2F53757070726573734572726F72456D6169
X 6C416464726573733E3C53757070726573734572726F72456D
X 61696C5375626A6563743E4E2F413C2F537570707265737345
X 72726F72456D61696C5375626A6563743E3C53757070726573
X 734572726F72456D61696C426F64793E4E2F413C2F53757070
X 726573734572726F72456D61696C426F64793E3C5375707072
X 6573734572726F72456D61696C496E636C7564655061796C6F
X 61643E545255453C2F53757070726573734572726F72456D61
X 696C496E636C7564655061796C6F61643E3C2F4170706C6963
X 6174696F6E4E616D653E3C4170706C69636174696F6E4E616D
X 653E3C6E616D653E4576656E74735F526566446174615F4D51
X 52656365697665724170703C2F6E616D653E3C4D6573736167
X 6546696C7465724576656E7446696C746572466C61673E5452
X 55453C2F4D65737361676546696C7465724576656E7446696C
X 746572466C61673E3C52656D61696E6465727346696C746572
X 4576656E7446696C746572466C61673E545255453C2F52656D
X 61696E6465727346696C7465724576656E7446696C74657246
X 6C61673E3C4175646974496E7075744576656E7446696C7465
X 72466C61673E545255453C2F4175646974496E707574457665
X 6E7446696C746572466C61673E3C4572726F724576656E7446
X 696C746572466C61673E545255453C2F4572726F724576656E
X 7446696C746572466C61673E3C53656E6441636B4576656E74
X 46696C746572466C61673E545255453C2F53656E6441636B45
X 76656E7446696C746572466C61673E3C4A726E6C4D73674578
X 706972793E333C2F4A726E6C4D73674578706972793E3C4572
X 726F724D73674578706972793E333C2F4572726F724D736745
X 78706972793E3C54465349443E4E2F413C2F54465349443E3C
X 5075626C697368657249443E4E2F413C2F5075626C69736865
X 7249443E3C537570706F72744C696E6B3E4E2F413C2F537570
X 706F72744C696E6B3E3C53757070726573734572726F724C6F
X 673E545255453C2F53757070726573734572726F724C6F673E
X 3C53757070726573734572726F72546578743E4E2F413C2F53
X 757070726573734572726F72546578743E3C53757070726573
X 734572726F72456D61696C3E46414C53453C2F537570707265
X 73734572726F72456D61696C3E3C5375707072657373457272
X 6F72456D61696C416464726573733E4E2F413C2F5375707072
X 6573734572726F72456D61696C416464726573733E3C537570
X 70726573734572726F72456D61696C5375626A6563743E4E2F
X 413C2F53757070726573734572726F72456D61696C5375626A
X 6563743E3C53757070726573734572726F72456D61696C426F
X 64793E4E2F413C2F53757070726573734572726F72456D6169
X 6C426F64793E3C53757070726573734572726F72456D61696C
X 496E636C7564655061796C6F61643E545255453C2F53757070
X 726573734572726F72456D61696C496E636C7564655061796C
X 6F61643E3C2F4170706C69636174696F6E4E616D653E3C4170
X 706C69636174696F6E4E616D653E3C6E616D653E484C375265
X 6365697665724170703C2F6E616D653E3C4D65737361676546
X 696C7465724576656E7446696C746572466C61673E54525545
X 3C2F4D65737361676546696C7465724576656E7446696C7465
X 72466C61673E3C52656D61696E6465727346696C7465724576
X 656E7446696C746572466C61673E545255453C2F52656D6169
X 6E6465727346696C7465724576656E7446696C746572466C61
X 673E3C4175646974496E7075744576656E7446696C74657246
X 6C61673E545255453C2F4175646974496E7075744576656E74
X 46696C746572466C61673E3C4572726F724576656E7446696C
X 746572466C61673E545255453C2F4572726F724576656E7446
X 696C746572466C61673E3C53656E6441636B4576656E744669
X 6C746572466C61673E545255453C2F53656E6441636B457665
X 6E7446696C746572466C61673E3C4A726E6C4D736745787069
X 72793E333C2F4A726E6C4D73674578706972793E3C4572726F
X 724D73674578706972793E333C2F4572726F724D7367457870
X 6972793E3C54465349443E4E2F413C2F54465349443E3C5075
X 626C697368657249443E3630393730303C2F5075626C697368
X 657249443E3C537570706F72744C696E6B3E4E2F413C2F5375
X 70706F72744C696E6B3E3C53757070726573734572726F724C
X 6F673E545255453C2F53757070726573734572726F724C6F67
X 3E3C53757070726573734572726F72546578743E4E2F413C2F
X 53757070726573734572726F72546578743E3C537570707265
X 73734572726F72456D61696C3E46414C53453C2F5375707072
X 6573734572726F72456D61696C3E3C53757070726573734572
X 726F72456D61696C416464726573733E4E2F413C2F53757070
X 726573734572726F72456D61696C416464726573733E3C5375
X 7070726573734572726F72456D61696C5375626A6563743E4E
X 2F413C2F53757070726573734572726F72456D61696C537562
X 6A6563743E3C53757070726573734572726F72456D61696C42
X 6F64793E4E2F413C2F53757070726573734572726F72456D61
X 696C426F64793E3C53757070726573734572726F72456D6169
X 6C496E636C7564655061796C6F61643E545255453C2F537570
X 70726573734572726F72456D61696C496E636C756465506179
X 6C6F61643E3C2F4170706C69636174696F6E4E616D653E3C41
X 70706C69636174696F6E4E616D653E3C6E616D653E4D444D5F
X 417564696F6C6F67795F484C3752656365697665724170703C
X 2F6E616D653E3C4D65737361676546696C7465724576656E74
X 46696C746572466C61673E545255453C2F4D65737361676546
X 696C7465724576656E7446696C746572466C61673E3C52656D
X 61696E6465727346696C7465724576656E7446696C74657246
X 6C61673E545255453C2F52656D61696E6465727346696C7465
X 724576656E7446696C746572466C61673E3C4175646974496E
X 7075744576656E7446696C746572466C61673E545255453C2F
X 4175646974496E7075744576656E7446696C746572466C6167
X 3E3C4572726F724576656E7446696C746572466C61673E5452
X 55453C2F4572726F724576656E7446696C746572466C61673E
X 3C53656E6441636B4576656E7446696C746572466C61673E54
X 5255453C2F53656E6441636B4576656E7446696C746572466C
X 61673E3C4A726E6C4D73674578706972793E333C2F4A726E6C
X 4D73674578706972793E3C4572726F724D7367457870697279
X 3E333C2F4572726F724D73674578706972793E3C5446534944
X 3E3336353439303A3430383836373C2F54465349443E3C5075
X 626C697368657249443E4E2F413C2F5075626C697368657249
X 443E3C537570706F72744C696E6B3E4E2F413C2F537570706F
X 72744C696E6B3E3C53757070726573734572726F724C6F673E
X 545255453C2F53757070726573734572726F724C6F673E3C53
X 757070726573734572726F72546578743E4E2F413C2F537570
X 70726573734572726F72546578743E3C537570707265737345
X 72726F72456D61696C3E46414C53453C2F5375707072657373
X 4572726F72456D61696C3E3C53757070726573734572726F72
X 456D61696C416464726573733E4E2F413C2F53757070726573
X 734572726F72456D61696C416464726573733E3C5375707072
X 6573734572726F72456D61696C5375626A6563743E4E2F413C
X 2F53757070726573734572726F72456D61696C5375626A6563
X 743E3C53757070726573734572726F72456D61696C426F6479
X 3E4E2F413C2F53757070726573734572726F72456D61696C42
X 6F64793E3C53757070726573734572726F72456D61696C496E
X 636C7564655061796C6F61643E545255453C2F537570707265
X 73734572726F72456D61696C496E636C7564655061796C6F61
X 643E3C2F4170706C69636174696F6E4E616D653E3C4170706C
X 69636174696F6E4E616D653E3C6E616D653E4D444D5F457069
X 635F484C3752656365697665724170703C2F6E616D653E3C4D
X 65737361676546696C7465724576656E7446696C746572466C
X 61673E545255453C2F4D65737361676546696C746572457665
X 6E7446696C746572466C61673E3C52656D61696E6465727346
X 696C7465724576656E7446696C746572466C61673E54525545
X 3C2F52656D61696E6465727346696C7465724576656E744669
X 6C746572466C61673E3C4175646974496E7075744576656E74
X 46696C746572466C61673E545255453C2F4175646974496E70
X 75744576656E7446696C746572466C61673E3C4572726F7245
X 76656E7446696C746572466C61673E545255453C2F4572726F
X 724576656E7446696C746572466C61673E3C53656E6441636B
X 4576656E7446696C746572466C61673E545255453C2F53656E
X 6441636B4576656E7446696C746572466C61673E3C4A726E6C
X 4D73674578706972793E333C2F4A726E6C4D73674578706972
X 793E3C4572726F724D73674578706972793E333C2F4572726F
X 724D73674578706972793E3C54465349443E3138323031373A
X 3538373534323C2F54465349443E3C5075626C697368657249
X 443E3630393130303C2F5075626C697368657249443E3C5375
X 70706F72744C696E6B3E4E2F413C2F537570706F72744C696E
X 6B3E3C53757070726573734572726F724C6F673E545255453C
X 2F53757070726573734572726F724C6F673E3C537570707265
X 73734572726F72546578743E4E2F413C2F5375707072657373
X 4572726F72546578743E3C53757070726573734572726F7245
X 6D61696C3E46414C53453C2F53757070726573734572726F72
X 456D61696C3E3C53757070726573734572726F72456D61696C
X 416464726573733E4E2F413C2F53757070726573734572726F
X 72456D61696C416464726573733E3C53757070726573734572
X 726F72456D61696C5375626A6563743E4E2F413C2F53757070
X 726573734572726F72456D61696C5375626A6563743E3C5375
X 7070726573734572726F72456D61696C426F64793E4E2F413C
X 2F53757070726573734572726F72456D61696C426F64793E3C
X 53757070726573734572726F72456D61696C496E636C756465
X 5061796C6F61643E545255453C2F5375707072657373457272
X 6F72456D61696C496E636C7564655061796C6F61643E3C2F41
X 70706C69636174696F6E4E616D653E3C4170706C6963617469
X 6F6E4E616D653E3C6E616D653E4D444D5F4D4D6F64616C5F48
X 4C3752656365697665724170703C2F6E616D653E3C4D657373
X 61676546696C7465724576656E7446696C746572466C61673E
X 545255453C2F4D65737361676546696C7465724576656E7446
X 696C746572466C61673E3C52656D61696E6465727346696C74
X 65724576656E7446696C746572466C61673E545255453C2F52
X 656D61696E6465727346696C7465724576656E7446696C7465
X 72466C61673E3C4175646974496E7075744576656E7446696C
X 746572466C61673E545255453C2F4175646974496E70757445
X 76656E7446696C746572466C61673E3C4572726F724576656E
X 7446696C746572466C61673E545255453C2F4572726F724576
X 656E7446696C746572466C61673E3C53656E6441636B457665
X 6E7446696C746572466C61673E545255453C2F53656E644163
X 6B4576656E7446696C746572466C61673E3C4A726E6C4D7367
X 4578706972793E333C2F4A726E6C4D73674578706972793E3C
X 4572726F724D73674578706972793E333C2F4572726F724D73
X 674578706972793E3C54465349443E3231363935373C2F5446
X 5349443E3C5075626C697368657249443E4E2F413C2F507562
X 6C697368657249443E3C537570706F72744C696E6B3E4E2F41
X 3C2F537570706F72744C696E6B3E3C53757070726573734572
X 726F724C6F673E545255453C2F53757070726573734572726F
X 724C6F673E3C53757070726573734572726F72546578743E4E
X 2F413C2F53757070726573734572726F72546578743E3C5375
X 7070726573734572726F72456D61696C3E46414C53453C2F53
X 757070726573734572726F72456D61696C3E3C537570707265
X 73734572726F72456D61696C416464726573733E4E2F413C2F
X 53757070726573734572726F72456D61696C41646472657373
X 3E3C53757070726573734572726F72456D61696C5375626A65
X 63743E4E2F413C2F53757070726573734572726F72456D6169
X 6C5375626A6563743E3C53757070726573734572726F72456D
X 61696C426F64793E4E2F413C2F53757070726573734572726F
X 72456D61696C426F64793E3C53757070726573734572726F72
X 456D61696C496E636C7564655061796C6F61643E545255453C
X 2F53757070726573734572726F72456D61696C496E636C7564
X 655061796C6F61643E3C2F4170706C69636174696F6E4E616D
X 653E3C4170706C69636174696F6E4E616D653E3C6E616D653E
X 4D464E5F43494D535F484C374D515265636569766572417070
X 3C2F6E616D653E3C4D65737361676546696C7465724576656E
X 7446696C746572466C61673E545255453C2F4D657373616765
X 46696C7465724576656E7446696C746572466C61673E3C5265
X 6D61696E6465727346696C7465724576656E7446696C746572
X 466C61673E545255453C2F52656D61696E6465727346696C74
X 65724576656E7446696C746572466C61673E3C417564697449
X 6E7075744576656E7446696C746572466C61673E545255453C
X 2F4175646974496E7075744576656E7446696C746572466C61
X 673E3C4572726F724576656E7446696C746572466C61673E54
X 5255453C2F4572726F724576656E7446696C746572466C6167
X 3E3C53656E6441636B4576656E7446696C746572466C61673E
X 545255453C2F53656E6441636B4576656E7446696C74657246
X 6C61673E3C4A726E6C4D73674578706972793E333C2F4A726E
X 6C4D73674578706972793E3C4572726F724D73674578706972
X 793E333C2F4572726F724D73674578706972793E3C54465349
X 443E3138333931343C2F54465349443E3C5075626C69736865
X 7249443E4E2F413C2F5075626C697368657249443E3C537570
X 706F72744C696E6B3E4E2F413C2F537570706F72744C696E6B
X 3E3C53757070726573734572726F724C6F673E545255453C2F
X 53757070726573734572726F724C6F673E3C53757070726573
X 734572726F72546578743E4E2F413C2F537570707265737345
X 72726F72546578743E3C53757070726573734572726F72456D
X 61696C3E46414C53453C2F53757070726573734572726F7245
X 6D61696C3E3C53757070726573734572726F72456D61696C41
X 6464726573733E4E2F413C2F53757070726573734572726F72
X 456D61696C416464726573733E3C5375707072657373457272
X 6F72456D61696C5375626A6563743E4E2F413C2F5375707072
X 6573734572726F72456D61696C5375626A6563743E3C537570
X 70726573734572726F72456D61696C426F64793E4E2F413C2F
X 53757070726573734572726F72456D61696C426F64793E3C53
X 757070726573734572726F72456D61696C496E636C75646550
X 61796C6F61643E545255453C2F53757070726573734572726F
X 72456D61696C496E636C7564655061796C6F61643E3C2F4170
X 706C69636174696F6E4E616D653E3C4170706C69636174696F
X 6E4E616D653E3C6E616D653E4D464E5F43494D535F4D716674
X 6553696D756C61746F724170703C2F6E616D653E3C4D657373
X 61676546696C7465724576656E7446696C746572466C61673E
X 545255453C2F4D65737361676546696C7465724576656E7446
X 696C746572466C61673E3C52656D61696E6465727346696C74
X 65724576656E7446696C746572466C61673E545255453C2F52
X 656D61696E6465727346696C7465724576656E7446696C7465
X 72466C61673E3C4175646974496E7075744576656E7446696C
X 746572466C61673E545255453C2F4175646974496E70757445
X 76656E7446696C746572466C61673E3C4572726F724576656E
X 7446696C746572466C61673E545255453C2F4572726F724576
X 656E7446696C746572466C61673E3C53656E6441636B457665
X 6E7446696C746572466C61673E545255453C2F53656E644163
X 6B4576656E7446696C746572466C61673E3C4A726E6C4D7367
X 4578706972793E333C2F4A726E6C4D73674578706972793E3C
X 4572726F724D73674578706972793E333C2F4572726F724D73
X 674578706972793E3C54465349443E3138333931343C2F5446
X 5349443E3C5075626C697368657249443E4E2F413C2F507562
X 6C697368657249443E3C537570706F72744C696E6B3E4E2F41
X 3C2F537570706F72744C696E6B3E3C53757070726573734572
X 726F724C6F673E545255453C2F53757070726573734572726F
X 724C6F673E3C53757070726573734572726F72546578743E4E
X 2F413C2F53757070726573734572726F72546578743E3C5375
X 7070726573734572726F72456D61696C3E46414C53453C2F53
X 757070726573734572726F72456D61696C3E3C537570707265
X 73734572726F72456D61696C416464726573733E4E2F413C2F
X 53757070726573734572726F72456D61696C41646472657373
X 3E3C53757070726573734572726F72456D61696C5375626A65
X 63743E4E2F413C2F53757070726573734572726F72456D6169
X 6C5375626A6563743E3C53757070726573734572726F72456D
X 61696C426F64793E4E2F413C2F53757070726573734572726F
X 72456D61696C426F64793E3C53757070726573734572726F72
X 456D61696C496E636C7564655061796C6F61643E545255453C
X 2F53757070726573734572726F72456D61696C496E636C7564
X 655061796C6F61643E3C2F4170706C69636174696F6E4E616D
X 653E3C4170706C69636174696F6E4E616D653E3C6E616D653E
X 4D464E5F457069635F484C3752656365697665724170703C2F
X 6E616D653E3C4D65737361676546696C7465724576656E7446
X 696C746572466C61673E545255453C2F4D6573736167654669
X 6C7465724576656E7446696C746572466C61673E3C52656D61
X 696E6465727346696C7465724576656E7446696C746572466C
X 61673E545255453C2F52656D61696E6465727346696C746572
X 4576656E7446696C746572466C61673E3C4175646974496E70
X 75744576656E7446696C746572466C61673E545255453C2F41
X 75646974496E7075744576656E7446696C746572466C61673E
X 3C4572726F724576656E7446696C746572466C61673E545255
X 453C2F4572726F724576656E7446696C746572466C61673E3C
X 53656E6441636B4576656E7446696C746572466C61673E5452
X 55453C2F53656E6441636B4576656E7446696C746572466C61
X 673E3C4A726E6C4D73674578706972793E333C2F4A726E6C4D
X 73674578706972793E3C4572726F724D73674578706972793E
X 333C2F4572726F724D73674578706972793E3C54465349443E
X 3232343234313A3234353032393A3538373532343C2F544653
X 49443E3C5075626C697368657249443E3630393030303C2F50
X 75626C697368657249443E3C537570706F72744C696E6B3E4E
X 2F413C2F537570706F72744C696E6B3E3C5375707072657373
X 4572726F724C6F673E545255453C2F53757070726573734572
X 726F724C6F673E3C53757070726573734572726F7254657874
X 3E4E2F413C2F53757070726573734572726F72546578743E3C
X 53757070726573734572726F72456D61696C3E46414C53453C
X 2F53757070726573734572726F72456D61696C3E3C53757070
X 726573734572726F72456D61696C416464726573733E4E2F41
X 3C2F53757070726573734572726F72456D61696C4164647265
X 73733E3C53757070726573734572726F72456D61696C537562
X 6A6563743E4E2F413C2F53757070726573734572726F72456D
X 61696C5375626A6563743E3C53757070726573734572726F72
X 456D61696C426F64793E4E2F413C2F53757070726573734572
X 726F72456D61696C426F64793E3C5375707072657373457272
X 6F72456D61696C496E636C7564655061796C6F61643E545255
X 453C2F53757070726573734572726F72456D61696C496E636C
X 7564655061796C6F61643E3C2F4170706C69636174696F6E4E
X 616D653E3C4170706C69636174696F6E4E616D653E3C6E616D
X 653E4D464E5F45706963546F506572736F6E44425F484C3752
X 656365697665724170703C2F6E616D653E3C4D657373616765
X 46696C7465724576656E7446696C746572466C61673E545255
X 453C2F4D65737361676546696C7465724576656E7446696C74
X 6572466C61673E3C52656D61696E6465727346696C74657245
X 76656E7446696C746572466C61673E545255453C2F52656D61
X 696E6465727346696C7465724576656E7446696C746572466C
X 61673E3C4175646974496E7075744576656E7446696C746572
X 466C61673E545255453C2F4175646974496E7075744576656E
X 7446696C746572466C61673E3C4572726F724576656E744669
X 6C746572466C61673E545255453C2F4572726F724576656E74
X 46696C746572466C61673E3C53656E6441636B4576656E7446
X 696C746572466C61673E545255453C2F53656E6441636B4576
X 656E7446696C746572466C61673E3C4A726E6C4D7367457870
X 6972793E333C2F4A726E6C4D73674578706972793E3C457272
X 6F724D73674578706972793E333C2F4572726F724D73674578
X 706972793E3C54465349443E3530343236383C2F5446534944
X 3E3C5075626C697368657249443E4E2F413C2F5075626C6973
X 68657249443E3C537570706F72744C696E6B3E4E2F413C2F53
X 7570706F72744C696E6B3E3C53757070726573734572726F72
X 4C6F673E545255453C2F53757070726573734572726F724C6F
X 673E3C53757070726573734572726F72546578743E4E2F413C
X 2F53757070726573734572726F72546578743E3C5375707072
X 6573734572726F72456D61696C3E46414C53453C2F53757070
X 726573734572726F72456D61696C3E3C537570707265737345
X 72726F72456D61696C416464726573733E4E2F413C2F537570
X 70726573734572726F72456D61696C416464726573733E3C53
X 757070726573734572726F72456D61696C5375626A6563743E
X 4E2F413C2F53757070726573734572726F72456D61696C5375
X 626A6563743E3C53757070726573734572726F72456D61696C
X 426F64793E4E2F413C2F53757070726573734572726F72456D
X 61696C426F64793E3C53757070726573734572726F72456D61
X 696C496E636C7564655061796C6F61643E545255453C2F5375
X 7070726573734572726F72456D61696C496E636C7564655061
X 796C6F61643E3C2F4170706C69636174696F6E4E616D653E3C
X 4170706C69636174696F6E4E616D653E3C6E616D653E4D464E
X 5F4D444D546F457069635F484C375265636569766572417070
X 3C2F6E616D653E3C4D65737361676546696C7465724576656E
X 7446696C746572466C61673E545255453C2F4D657373616765
X 46696C7465724576656E7446696C746572466C61673E3C5265
X 6D61696E6465727346696C7465724576656E7446696C746572
X 466C61673E545255453C2F52656D61696E6465727346696C74
X 65724576656E7446696C746572466C61673E3C417564697449
X 6E7075744576656E7446696C746572466C61673E545255453C
X 2F4175646974496E7075744576656E7446696C746572466C61
X 673E3C4572726F724576656E7446696C746572466C61673E54
X 5255453C2F4572726F724576656E7446696C746572466C6167
X 3E3C53656E6441636B4576656E7446696C746572466C61673E
X 545255453C2F53656E6441636B4576656E7446696C74657246
X 6C61673E3C4A726E6C4D73674578706972793E333C2F4A726E
X 6C4D73674578706972793E3C4572726F724D73674578706972
X 793E333C2F4572726F724D73674578706972793E3C54465349
X 443E3231353037353C2F54465349443E3C5075626C69736865
X 7249443E4E2F413C2F5075626C697368657249443E3C537570
X 706F72744C696E6B3E4E2F413C2F537570706F72744C696E6B
X 3E3C53757070726573734572726F724C6F673E545255453C2F
X 53757070726573734572726F724C6F673E3C53757070726573
X 734572726F72546578743E4E2F413C2F537570707265737345
X 72726F72546578743E3C53757070726573734572726F72456D
X 61696C3E46414C53453C2F53757070726573734572726F7245
X 6D61696C3E3C53757070726573734572726F72456D61696C41
X 6464726573733E4E2F413C2F53757070726573734572726F72
X 456D61696C416464726573733E3C5375707072657373457272
X 6F72456D61696C5375626A6563743E4E2F413C2F5375707072
X 6573734572726F72456D61696C5375626A6563743E3C537570
X 70726573734572726F72456D61696C426F64793E4E2F413C2F
X 53757070726573734572726F72456D61696C426F64793E3C53
X 757070726573734572726F72456D61696C496E636C75646550
X 61796C6F61643E545255453C2F53757070726573734572726F
X 72456D61696C496E636C7564655061796C6F61643E3C2F4170
X 706C69636174696F6E4E616D653E3C4170706C69636174696F
X 6E4E616D653E3C6E616D653E4F4D535F457069635F484C3752
X 656365697665724170703C2F6E616D653E3C4D657373616765
X 46696C7465724576656E7446696C746572466C61673E545255
X 453C2F4D65737361676546696C7465724576656E7446696C74
X 6572466C61673E3C52656D61696E6465727346696C74657245
X 76656E7446696C746572466C61673E545255453C2F52656D61
X 696E6465727346696C7465724576656E7446696C746572466C
X 61673E3C4175646974496E7075744576656E7446696C746572
X 466C61673E545255453C2F4175646974496E7075744576656E
X 7446696C746572466C61673E3C4572726F724576656E744669
X 6C746572466C61673E545255453C2F4572726F724576656E74
X 46696C746572466C61673E3C53656E6441636B4576656E7446
X 696C746572466C61673E545255453C2F53656E6441636B4576
X 656E7446696C746572466C61673E3C4A726E6C4D7367457870
X 6972793E333C2F4A726E6C4D73674578706972793E3C457272
X 6F724D73674578706972793E333C2F4572726F724D73674578
X 706972793E3C54465349443E3138333930393C2F5446534944
X 3E3C5075626C697368657249443E3630393830343C2F507562
X 6C697368657249443E3C537570706F72744C696E6B3E4E2F41
X 3C2F537570706F72744C696E6B3E3C53757070726573734572
X 726F724C6F673E545255453C2F53757070726573734572726F
X 724C6F673E3C53757070726573734572726F72546578743E4E
X 2F413C2F53757070726573734572726F72546578743E3C5375
X 7070726573734572726F72456D61696C3E46414C53453C2F53
X 757070726573734572726F72456D61696C3E3C537570707265
X 73734572726F72456D61696C416464726573733E4E2F413C2F
X 53757070726573734572726F72456D61696C41646472657373
X 3E3C53757070726573734572726F72456D61696C5375626A65
X 63743E4E2F413C2F53757070726573734572726F72456D6169
X 6C5375626A6563743E3C53757070726573734572726F72456D
X 61696C426F64793E4E2F413C2F53757070726573734572726F
X 72456D61696C426F64793E3C53757070726573734572726F72
X 456D61696C496E636C7564655061796C6F61643E545255453C
X 2F53757070726573734572726F72456D61696C496E636C7564
X 655061796C6F61643E3C2F4170706C69636174696F6E4E616D
X 653E3C4170706C69636174696F6E4E616D653E3C6E616D653E
X 4F524D5F436C6F7665726C6561665F446965746172795F484C
X 3752656365697665724170703C2F6E616D653E3C4D65737361
X 676546696C7465724576656E7446696C746572466C61673E54
X 5255453C2F4D65737361676546696C7465724576656E744669
X 6C746572466C61673E3C52656D61696E6465727346696C7465
X 724576656E7446696C746572466C61673E545255453C2F5265
X 6D61696E6465727346696C7465724576656E7446696C746572
X 466C61673E3C4175646974496E7075744576656E7446696C74
X 6572466C61673E545255453C2F4175646974496E7075744576
X 656E7446696C746572466C61673E3C4572726F724576656E74
X 46696C746572466C61673E545255453C2F4572726F72457665
X 6E7446696C746572466C61673E3C53656E6441636B4576656E
X 7446696C746572466C61673E545255453C2F53656E6441636B
X 4576656E7446696C746572466C61673E3C4A726E6C4D736745
X 78706972793E333C2F4A726E6C4D73674578706972793E3C45
X 72726F724D73674578706972793E333C2F4572726F724D7367
X 4578706972793E3C54465349443E4E2F413C2F54465349443E
X 3C5075626C697368657249443E4E2F413C2F5075626C697368
X 657249443E3C537570706F72744C696E6B3E4E2F413C2F5375
X 70706F72744C696E6B3E3C53757070726573734572726F724C
X 6F673E545255453C2F53757070726573734572726F724C6F67
X 3E3C53757070726573734572726F72546578743E4E2F413C2F
X 53757070726573734572726F72546578743E3C537570707265
X 73734572726F72456D61696C3E46414C53453C2F5375707072
X 6573734572726F72456D61696C3E3C53757070726573734572
X 726F72456D61696C416464726573733E4E2F413C2F53757070
X 726573734572726F72456D61696C416464726573733E3C5375
X 7070726573734572726F72456D61696C5375626A6563743E4E
X 2F413C2F53757070726573734572726F72456D61696C537562
X 6A6563743E3C53757070726573734572726F72456D61696C42
X 6F64793E4E2F413C2F53757070726573734572726F72456D61
X 696C426F64793E3C53757070726573734572726F72456D6169
X 6C496E636C7564655061796C6F61643E545255453C2F537570
X 70726573734572726F72456D61696C496E636C756465506179
X 6C6F61643E3C2F4170706C69636174696F6E4E616D653E3C41
X 70706C69636174696F6E4E616D653E3C6E616D653E4F524D5F
X 436C6F7665726C6561665F45494D535F484C37526563656976
X 65724170703C2F6E616D653E3C4D65737361676546696C7465
X 724576656E7446696C746572466C61673E545255453C2F4D65
X 737361676546696C7465724576656E7446696C746572466C61
X 673E3C52656D61696E6465727346696C7465724576656E7446
X 696C746572466C61673E545255453C2F52656D61696E646572
X 7346696C7465724576656E7446696C746572466C61673E3C41
X 75646974496E7075744576656E7446696C746572466C61673E
X 545255453C2F4175646974496E7075744576656E7446696C74
X 6572466C61673E3C4572726F724576656E7446696C74657246
X 6C61673E545255453C2F4572726F724576656E7446696C7465
X 72466C61673E3C53656E6441636B4576656E7446696C746572
X 466C61673E545255453C2F53656E6441636B4576656E744669
X 6C746572466C61673E3C4A726E6C4D73674578706972793E33
X 3C2F4A726E6C4D73674578706972793E3C4572726F724D7367
X 4578706972793E333C2F4572726F724D73674578706972793E
X 3C54465349443E4E2F413C2F54465349443E3C5075626C6973
X 68657249443E4E2F413C2F5075626C697368657249443E3C53
X 7570706F72744C696E6B3E4E2F413C2F537570706F72744C69
X 6E6B3E3C53757070726573734572726F724C6F673E54525545
X 3C2F53757070726573734572726F724C6F673E3C5375707072
X 6573734572726F72546578743E4E2F413C2F53757070726573
X 734572726F72546578743E3C53757070726573734572726F72
X 456D61696C3E46414C53453C2F53757070726573734572726F
X 72456D61696C3E3C53757070726573734572726F72456D6169
X 6C416464726573733E4E2F413C2F5375707072657373457272
X 6F72456D61696C416464726573733E3C537570707265737345
X 72726F72456D61696C5375626A6563743E4E2F413C2F537570
X 70726573734572726F72456D61696C5375626A6563743E3C53
X 757070726573734572726F72456D61696C426F64793E4E2F41
X 3C2F53757070726573734572726F72456D61696C426F64793E
X 3C53757070726573734572726F72456D61696C496E636C7564
X 655061796C6F61643E545255453C2F53757070726573734572
X 726F72456D61696C496E636C7564655061796C6F61643E3C2F
X 4170706C69636174696F6E4E616D653E3C4170706C69636174
X 696F6E4E616D653E3C6E616D653E4F524D5F436C6F7665726C
X 656166546F417564696F6C6F67795F484C3752656365697665
X 724170703C2F6E616D653E3C4D65737361676546696C746572
X 4576656E7446696C746572466C61673E545255453C2F4D6573
X 7361676546696C7465724576656E7446696C746572466C6167
X 3E3C52656D61696E6465727346696C7465724576656E744669
X 6C746572466C61673E545255453C2F52656D61696E64657273
X 46696C7465724576656E7446696C746572466C61673E3C4175
X 646974496E7075744576656E7446696C746572466C61673E54
X 5255453C2F4175646974496E7075744576656E7446696C7465
X 72466C61673E3C4572726F724576656E7446696C746572466C
X 61673E545255453C2F4572726F724576656E7446696C746572
X 466C61673E3C53656E6441636B4576656E7446696C74657246
X 6C61673E545255453C2F53656E6441636B4576656E7446696C
X 746572466C61673E3C4A726E6C4D73674578706972793E333C
X 2F4A726E6C4D73674578706972793E3C4572726F724D736745
X 78706972793E333C2F4572726F724D73674578706972793E3C
X 54465349443E3638373630393C2F54465349443E3C5075626C
X 697368657249443E3630393430343C2F5075626C6973686572
X 49443E3C537570706F72744C696E6B3E4E2F413C2F53757070
X 6F72744C696E6B3E3C53757070726573734572726F724C6F67
X 3E545255453C2F53757070726573734572726F724C6F673E3C
X 53757070726573734572726F72546578743E4E2F413C2F5375
X 7070726573734572726F72546578743E3C5375707072657373
X 4572726F72456D61696C3E46414C53453C2F53757070726573
X 734572726F72456D61696C3E3C53757070726573734572726F
X 72456D61696C416464726573733E4E2F413C2F537570707265
X 73734572726F72456D61696C416464726573733E3C53757070
X 726573734572726F72456D61696C5375626A6563743E4E2F41
X 3C2F53757070726573734572726F72456D61696C5375626A65
X 63743E3C53757070726573734572726F72456D61696C426F64
X 793E4E2F413C2F53757070726573734572726F72456D61696C
X 426F64793E3C53757070726573734572726F72456D61696C49
X 6E636C7564655061796C6F61643E545255453C2F5375707072
X 6573734572726F72456D61696C496E636C7564655061796C6F
X 61643E3C2F4170706C69636174696F6E4E616D653E3C417070
X 6C69636174696F6E4E616D653E3C6E616D653E4F524D5F436C
X 6F7665726C656166546F456D675F484C375265636569766572
X 4170703C2F6E616D653E3C4D65737361676546696C74657245
X 76656E7446696C746572466C61673E545255453C2F4D657373
X 61676546696C7465724576656E7446696C746572466C61673E
X 3C52656D61696E6465727346696C7465724576656E7446696C
X 746572466C61673E545255453C2F52656D61696E6465727346
X 696C7465724576656E7446696C746572466C61673E3C417564
X 6974496E7075744576656E7446696C746572466C61673E5452
X 55453C2F4175646974496E7075744576656E7446696C746572
X 466C61673E3C4572726F724576656E7446696C746572466C61
X 673E545255453C2F4572726F724576656E7446696C74657246
X 6C61673E3C53656E6441636B4576656E7446696C746572466C
X 61673E545255453C2F53656E6441636B4576656E7446696C74
X 6572466C61673E3C4A726E6C4D73674578706972793E333C2F
X 4A726E6C4D73674578706972793E3C4572726F724D73674578
X 706972793E333C2F4572726F724D73674578706972793E3C54
X 465349443E3337323130393C2F54465349443E3C5075626C69
X 7368657249443E4E2F413C2F5075626C697368657249443E3C
X 537570706F72744C696E6B3E4E2F413C2F537570706F72744C
X 696E6B3E3C53757070726573734572726F724C6F673E545255
X 453C2F53757070726573734572726F724C6F673E3C53757070
X 726573734572726F72546578743E4E2F413C2F537570707265
X 73734572726F72546578743E3C53757070726573734572726F
X 72456D61696C3E46414C53453C2F5375707072657373457272
X 6F72456D61696C3E3C53757070726573734572726F72456D61
X 696C416464726573733E4E2F413C2F53757070726573734572
X 726F72456D61696C416464726573733E3C5375707072657373
X 4572726F72456D61696C5375626A6563743E4E2F413C2F5375
X 7070726573734572726F72456D61696C5375626A6563743E3C
X 53757070726573734572726F72456D61696C426F64793E4E2F
X 413C2F53757070726573734572726F72456D61696C426F6479
X 3E3C53757070726573734572726F72456D61696C496E636C75
X 64655061796C6F61643E545255453C2F537570707265737345
X 72726F72456D61696C496E636C7564655061796C6F61643E3C
X 2F4170706C69636174696F6E4E616D653E3C4170706C696361
X 74696F6E4E616D653E3C6E616D653E4F524D5F436C6F766572
X 6C656166546F486F6C6F6769635F484C375265636569766572
X 4170703C2F6E616D653E3C4D65737361676546696C74657245
X 76656E7446696C746572466C61673E545255453C2F4D657373
X 61676546696C7465724576656E7446696C746572466C61673E
X 3C52656D61696E6465727346696C7465724576656E7446696C
X 746572466C61673E545255453C2F52656D61696E6465727346
X 696C7465724576656E7446696C746572466C61673E3C417564
X 6974496E7075744576656E7446696C746572466C61673E5452
X 55453C2F4175646974496E7075744576656E7446696C746572
X 466C61673E3C4572726F724576656E7446696C746572466C61
X 673E545255453C2F4572726F724576656E7446696C74657246
X 6C61673E3C53656E6441636B4576656E7446696C746572466C
X 61673E545255453C2F53656E6441636B4576656E7446696C74
X 6572466C61673E3C4A726E6C4D73674578706972793E333C2F
X 4A726E6C4D73674578706972793E3C4572726F724D73674578
X 706972793E333C2F4572726F724D73674578706972793E3C54
X 465349443E3336373232303A3336373232373C2F5446534944
X 3E3C5075626C697368657249443E4E2F413C2F5075626C6973
X 68657249443E3C537570706F72744C696E6B3E4E2F413C2F53
X 7570706F72744C696E6B3E3C53757070726573734572726F72
X 4C6F673E545255453C2F53757070726573734572726F724C6F
X 673E3C53757070726573734572726F72546578743E4E2F413C
X 2F53757070726573734572726F72546578743E3C5375707072
X 6573734572726F72456D61696C3E46414C53453C2F53757070
X 726573734572726F72456D61696C3E3C537570707265737345
X 72726F72456D61696C416464726573733E4E2F413C2F537570
X 70726573734572726F72456D61696C416464726573733E3C53
X 757070726573734572726F72456D61696C5375626A6563743E
X 4E2F413C2F53757070726573734572726F72456D61696C5375
X 626A6563743E3C53757070726573734572726F72456D61696C
X 426F64793E4E2F413C2F53757070726573734572726F72456D
X 61696C426F64793E3C53757070726573734572726F72456D61
X 696C496E636C7564655061796C6F61643E545255453C2F5375
X 7070726573734572726F72456D61696C496E636C7564655061
X 796C6F61643E3C2F4170706C69636174696F6E4E616D653E3C
X 4170706C69636174696F6E4E616D653E3C6E616D653E4F524D
X 5F436C6F7665726C656166546F4D656473747265616D696E67
X 5F484C3752656365697665724170703C2F6E616D653E3C4D65
X 737361676546696C7465724576656E7446696C746572466C61
X 673E545255453C2F4D65737361676546696C7465724576656E
X 7446696C746572466C61673E3C52656D61696E646572734669
X 6C7465724576656E7446696C746572466C61673E545255453C
X 2F52656D61696E6465727346696C7465724576656E7446696C
X 746572466C61673E3C4175646974496E7075744576656E7446
X 696C746572466C61673E545255453C2F4175646974496E7075
X 744576656E7446696C746572466C61673E3C4572726F724576
X 656E7446696C746572466C61673E545255453C2F4572726F72
X 4576656E7446696C746572466C61673E3C53656E6441636B45
X 76656E7446696C746572466C61673E545255453C2F53656E64
X 41636B4576656E7446696C746572466C61673E3C4A726E6C4D
X 73674578706972793E333C2F4A726E6C4D7367457870697279
X 3E3C4572726F724D73674578706972793E333C2F4572726F72
X 4D73674578706972793E3C54465349443E3436383837373C2F
X 54465349443E3C5075626C697368657249443E4E2F413C2F50
X 75626C697368657249443E3C537570706F72744C696E6B3E4E
X 2F413C2F537570706F72744C696E6B3E3C5375707072657373
X 4572726F724C6F673E545255453C2F53757070726573734572
X 726F724C6F673E3C53757070726573734572726F7254657874
X 3E4E2F413C2F53757070726573734572726F72546578743E3C
X 53757070726573734572726F72456D61696C3E46414C53453C
X 2F53757070726573734572726F72456D61696C3E3C53757070
X 726573734572726F72456D61696C416464726573733E4E2F41
X 3C2F53757070726573734572726F72456D61696C4164647265
X 73733E3C53757070726573734572726F72456D61696C537562
X 6A6563743E4E2F413C2F53757070726573734572726F72456D
X 61696C5375626A6563743E3C53757070726573734572726F72
X 456D61696C426F64793E4E2F413C2F53757070726573734572
X 726F72456D61696C426F64793E3C5375707072657373457272
X 6F72456D61696C496E636C7564655061796C6F61643E545255
X 453C2F53757070726573734572726F72456D61696C496E636C
X 7564655061796C6F61643E3C2F4170706C69636174696F6E4E
X 616D653E3C4170706C69636174696F6E4E616D653E3C6E616D
X 653E4F524D5F457069635F526164546F5269735F484C375265
X 6365697665724170703C2F6E616D653E3C4D65737361676546
X 696C7465724576656E7446696C746572466C61673E54525545
X 3C2F4D65737361676546696C7465724576656E7446696C7465
X 72466C61673E3C52656D61696E6465727346696C7465724576
X 656E7446696C746572466C61673E545255453C2F52656D6169
X 6E6465727346696C7465724576656E7446696C746572466C61
X 673E3C4175646974496E7075744576656E7446696C74657246
X 6C61673E545255453C2F4175646974496E7075744576656E74
X 46696C746572466C61673E3C4572726F724576656E7446696C
X 746572466C61673E545255453C2F4572726F724576656E7446
X 696C746572466C61673E3C53656E6441636B4576656E744669
X 6C746572466C61673E545255453C2F53656E6441636B457665
X 6E7446696C746572466C61673E3C4A726E6C4D736745787069
X 72793E333C2F4A726E6C4D73674578706972793E3C4572726F
X 724D73674578706972793E333C2F4572726F724D7367457870
X 6972793E3C54465349443E3234353339333C2F54465349443E
X 3C5075626C697368657249443E3431303C2F5075626C697368
X 657249443E3C537570706F72744C696E6B3E4E2F413C2F5375
X 70706F72744C696E6B3E3C53757070726573734572726F724C
X 6F673E545255453C2F53757070726573734572726F724C6F67
X 3E3C53757070726573734572726F72546578743E4E2F413C2F
X 53757070726573734572726F72546578743E3C537570707265
X 73734572726F72456D61696C3E46414C53453C2F5375707072
X 6573734572726F72456D61696C3E3C53757070726573734572
X 726F72456D61696C416464726573733E4E2F413C2F53757070
X 726573734572726F72456D61696C416464726573733E3C5375
X 7070726573734572726F72456D61696C5375626A6563743E4E
X 2F413C2F53757070726573734572726F72456D61696C537562
X 6A6563743E3C53757070726573734572726F72456D61696C42
X 6F64793E4E2F413C2F53757070726573734572726F72456D61
X 696C426F64793E3C53757070726573734572726F72456D6169
X 6C496E636C7564655061796C6F61643E545255453C2F537570
X 70726573734572726F72456D61696C496E636C756465506179
X 6C6F61643E3C2F4170706C69636174696F6E4E616D653E3C41
X 70706C69636174696F6E4E616D653E3C6E616D653E4F524D5F
X 457069635F5564705F43617264696F5F484C37526563656976
X 65724170703C2F6E616D653E3C4D65737361676546696C7465
X 724576656E7446696C746572466C61673E545255453C2F4D65
X 737361676546696C7465724576656E7446696C746572466C61
X 673E3C52656D61696E6465727346696C7465724576656E7446
X 696C746572466C61673E545255453C2F52656D61696E646572
X 7346696C7465724576656E7446696C746572466C61673E3C41
X 75646974496E7075744576656E7446696C746572466C61673E
X 545255453C2F4175646974496E7075744576656E7446696C74
X 6572466C61673E3C4572726F724576656E7446696C74657246
X 6C61673E545255453C2F4572726F724576656E7446696C7465
X 72466C61673E3C53656E6441636B4576656E7446696C746572
X 466C61673E545255453C2F53656E6441636B4576656E744669
X 6C746572466C61673E3C4A726E6C4D73674578706972793E33
X 3C2F4A726E6C4D73674578706972793E3C4572726F724D7367
X 4578706972793E333C2F4572726F724D73674578706972793E
X 3C54465349443E3332323834303C2F54465349443E3C507562
X 6C697368657249443E3630393331363C2F5075626C69736865
X 7249443E3C537570706F72744C696E6B3E4E2F413C2F537570
X 706F72744C696E6B3E3C53757070726573734572726F724C6F
X 673E545255453C2F53757070726573734572726F724C6F673E
X 3C53757070726573734572726F72546578743E4E2F413C2F53
X 757070726573734572726F72546578743E3C53757070726573
X 734572726F72456D61696C3E46414C53453C2F537570707265
X 73734572726F72456D61696C3E3C5375707072657373457272
X 6F72456D61696C416464726573733E4E2F413C2F5375707072
X 6573734572726F72456D61696C416464726573733E3C537570
X 70726573734572726F72456D61696C5375626A6563743E4E2F
X 413C2F53757070726573734572726F72456D61696C5375626A
X 6563743E3C53757070726573734572726F72456D61696C426F
X 64793E4E2F413C2F53757070726573734572726F72456D6169
X 6C426F64793E3C53757070726573734572726F72456D61696C
X 496E636C7564655061796C6F61643E545255453C2F53757070
X 726573734572726F72456D61696C496E636C7564655061796C
X 6F61643E3C2F4170706C69636174696F6E4E616D653E3C4170
X 706C69636174696F6E4E616D653E3C6E616D653E4F524D5F45
X 7069635F5564705F4C61625F484C3752656365697665724170
X 703C2F6E616D653E3C4D65737361676546696C746572457665
X 6E7446696C746572466C61673E545255453C2F4D6573736167
X 6546696C7465724576656E7446696C746572466C61673E3C52
X 656D61696E6465727346696C7465724576656E7446696C7465
X 72466C61673E545255453C2F52656D61696E6465727346696C
X 7465724576656E7446696C746572466C61673E3C4175646974
X 496E7075744576656E7446696C746572466C61673E54525545
X 3C2F4175646974496E7075744576656E7446696C746572466C
X 61673E3C4572726F724576656E7446696C746572466C61673E
X 545255453C2F4572726F724576656E7446696C746572466C61
X 673E3C53656E6441636B4576656E7446696C746572466C6167
X 3E545255453C2F53656E6441636B4576656E7446696C746572
X 466C61673E3C4A726E6C4D73674578706972793E333C2F4A72
X 6E6C4D73674578706972793E3C4572726F724D736745787069
X 72793E333C2F4572726F724D73674578706972793E3C544653
X 49443E3735393435333C2F54465349443E3C5075626C697368
X 657249443E3630393430383C2F5075626C697368657249443E
X 3C537570706F72744C696E6B3E4E2F413C2F537570706F7274
X 4C696E6B3E3C53757070726573734572726F724C6F673E5452
X 55453C2F53757070726573734572726F724C6F673E3C537570
X 70726573734572726F72546578743E4E2F413C2F5375707072
X 6573734572726F72546578743E3C5375707072657373457272
X 6F72456D61696C3E46414C53453C2F53757070726573734572
X 726F72456D61696C3E3C53757070726573734572726F72456D
X 61696C416464726573733E4E2F413C2F537570707265737345
X 72726F72456D61696C416464726573733E3C53757070726573
X 734572726F72456D61696C5375626A6563743E4E2F413C2F53
X 757070726573734572726F72456D61696C5375626A6563743E
X 3C53757070726573734572726F72456D61696C426F64793E4E
X 2F413C2F53757070726573734572726F72456D61696C426F64
X 793E3C53757070726573734572726F72456D61696C496E636C
X 7564655061796C6F61643E545255453C2F5375707072657373
X 4572726F72456D61696C496E636C7564655061796C6F61643E
X 3C2F4170706C69636174696F6E4E616D653E3C4170706C6963
X 6174696F6E4E616D653E3C6E616D653E4F524D5F457069635F
X 5564705F4D7573655F484C3752656365697665724170703C2F
X 6E616D653E3C4D65737361676546696C7465724576656E7446
X 696C746572466C61673E545255453C2F4D6573736167654669
X 6C7465724576656E7446696C746572466C61673E3C52656D61
X 696E6465727346696C7465724576656E7446696C746572466C
X 61673E545255453C2F52656D61696E6465727346696C746572
X 4576656E7446696C746572466C61673E3C4175646974496E70
X 75744576656E7446696C746572466C61673E545255453C2F41
X 75646974496E7075744576656E7446696C746572466C61673E
X 3C4572726F724576656E7446696C746572466C61673E545255
X 453C2F4572726F724576656E7446696C746572466C61673E3C
X 53656E6441636B4576656E7446696C746572466C61673E5452
X 55453C2F53656E6441636B4576656E7446696C746572466C61
X 673E3C4A726E6C4D73674578706972793E333C2F4A726E6C4D
X 73674578706972793E3C4572726F724D73674578706972793E
X 333C2F4572726F724D73674578706972793E3C54465349443E
X 4E2F413C2F54465349443E3C5075626C697368657249443E36
X 30393433303C2F5075626C697368657249443E3C537570706F
X 72744C696E6B3E4E2F413C2F537570706F72744C696E6B3E3C
X 53757070726573734572726F724C6F673E545255453C2F5375
X 7070726573734572726F724C6F673E3C537570707265737345
X 72726F72546578743E4E2F413C2F5375707072657373457272
X 6F72546578743E3C53757070726573734572726F72456D6169
X 6C3E46414C53453C2F53757070726573734572726F72456D61
X 696C3E3C53757070726573734572726F72456D61696C416464
X 726573733E4E2F413C2F53757070726573734572726F72456D
X 61696C416464726573733E3C53757070726573734572726F72
X 456D61696C5375626A6563743E4E2F413C2F53757070726573
X 734572726F72456D61696C5375626A6563743E3C5375707072
X 6573734572726F72456D61696C426F64793E4E2F413C2F5375
X 7070726573734572726F72456D61696C426F64793E3C537570
X 70726573734572726F72456D61696C496E636C756465506179
X 6C6F61643E545255453C2F53757070726573734572726F7245
X 6D61696C496E636C7564655061796C6F61643E3C2F4170706C
X 69636174696F6E4E616D653E3C4170706C69636174696F6E4E
X 616D653E3C6E616D653E4F524D5F457069635F5564705F4F70
X 4D6564735F484C3752656365697665724170703C2F6E616D65
X 3E3C4D65737361676546696C7465724576656E7446696C7465
X 72466C61673E545255453C2F4D65737361676546696C746572
X 4576656E7446696C746572466C61673E3C52656D61696E6465
X 727346696C7465724576656E7446696C746572466C61673E54
X 5255453C2F52656D61696E6465727346696C7465724576656E
X 7446696C746572466C61673E3C4175646974496E7075744576
X 656E7446696C746572466C61673E545255453C2F4175646974
X 496E7075744576656E7446696C746572466C61673E3C457272
X 6F724576656E7446696C746572466C61673E545255453C2F45
X 72726F724576656E7446696C746572466C61673E3C53656E64
X 41636B4576656E7446696C746572466C61673E545255453C2F
X 53656E6441636B4576656E7446696C746572466C61673E3C4A
X 726E6C4D73674578706972793E333C2F4A726E6C4D73674578
X 706972793E3C4572726F724D73674578706972793E333C2F45
X 72726F724D73674578706972793E3C54465349443E4E2F413C
X 2F54465349443E3C5075626C697368657249443E3630393630
X 303C2F5075626C697368657249443E3C537570706F72744C69
X 6E6B3E4E2F413C2F537570706F72744C696E6B3E3C53757070
X 726573734572726F724C6F673E545255453C2F537570707265
X 73734572726F724C6F673E3C53757070726573734572726F72
X 546578743E4E2F413C2F53757070726573734572726F725465
X 78743E3C53757070726573734572726F72456D61696C3E4641
X 4C53453C2F53757070726573734572726F72456D61696C3E3C
X 53757070726573734572726F72456D61696C41646472657373
X 3E4E2F413C2F53757070726573734572726F72456D61696C41
X 6464726573733E3C53757070726573734572726F72456D6169
X 6C5375626A6563743E4E2F413C2F5375707072657373457272
X 6F72456D61696C5375626A6563743E3C537570707265737345
X 72726F72456D61696C426F64793E4E2F413C2F537570707265
X 73734572726F72456D61696C426F64793E3C53757070726573
X 734572726F72456D61696C496E636C7564655061796C6F6164
X 3E545255453C2F53757070726573734572726F72456D61696C
X 496E636C7564655061796C6F61643E3C2F4170706C69636174
X 696F6E4E616D653E3C4170706C69636174696F6E4E616D653E
X 3C6E616D653E4F52555F43617073756C65536D6172744C696E
X 78546F457069634D4E5F484C37436C69656E74526563656976
X 65724170703C2F6E616D653E3C4D65737361676546696C7465
X 724576656E7446696C746572466C61673E545255453C2F4D65
X 737361676546696C7465724576656E7446696C746572466C61
X 673E3C52656D61696E6465727346696C7465724576656E7446
X 696C746572466C61673E545255453C2F52656D61696E646572
X 7346696C7465724576656E7446696C746572466C61673E3C41
X 75646974496E7075744576656E7446696C746572466C61673E
X 545255453C2F4175646974496E7075744576656E7446696C74
X 6572466C61673E3C4572726F724576656E7446696C74657246
X 6C61673E545255453C2F4572726F724576656E7446696C7465
X 72466C61673E3C53656E6441636B4576656E7446696C746572
X 466C61673E545255453C2F53656E6441636B4576656E744669
X 6C746572466C61673E3C4A726E6C4D73674578706972793E33
X 3C2F4A726E6C4D73674578706972793E3C4572726F724D7367
X 4578706972793E333C2F4572726F724D73674578706972793E
X 3C54465349443E3334323338313C2F54465349443E3C507562
X 6C697368657249443E4E2F413C2F5075626C69736865724944
X 3E3C537570706F72744C696E6B3E4E2F413C2F537570706F72
X 744C696E6B3E3C53757070726573734572726F724C6F673E54
X 5255453C2F53757070726573734572726F724C6F673E3C5375
X 7070726573734572726F72546578743E4E2F413C2F53757070
X 726573734572726F72546578743E3C53757070726573734572
X 726F72456D61696C3E46414C53453C2F537570707265737345
X 72726F72456D61696C3E3C53757070726573734572726F7245
X 6D61696C416464726573733E4E2F413C2F5375707072657373
X 4572726F72456D61696C416464726573733E3C537570707265
X 73734572726F72456D61696C5375626A6563743E4E2F413C2F
X 53757070726573734572726F72456D61696C5375626A656374
X 3E3C53757070726573734572726F72456D61696C426F64793E
X 4E2F413C2F53757070726573734572726F72456D61696C426F
X 64793E3C53757070726573734572726F72456D61696C496E63
X 6C7564655061796C6F61643E545255453C2F53757070726573
X 734572726F72456D61696C496E636C7564655061796C6F6164
X 3E3C2F4170706C69636174696F6E4E616D653E3C4170706C69
X 636174696F6E4E616D653E3C6E616D653E4F52555F43617073
X 756C65536D6172744C696E78546F457069634D4E325F484C37
X 436C69656E7452656365697665724170703C2F6E616D653E3C
X 4D65737361676546696C7465724576656E7446696C74657246
X 6C61673E545255453C2F4D65737361676546696C7465724576
X 656E7446696C746572466C61673E3C52656D61696E64657273
X 46696C7465724576656E7446696C746572466C61673E545255
X 453C2F52656D61696E6465727346696C7465724576656E7446
X 696C746572466C61673E3C4175646974496E7075744576656E
X 7446696C746572466C61673E545255453C2F4175646974496E
X 7075744576656E7446696C746572466C61673E3C4572726F72
X 4576656E7446696C746572466C61673E545255453C2F457272
X 6F724576656E7446696C746572466C61673E3C53656E644163
X 6B4576656E7446696C746572466C61673E545255453C2F5365
X 6E6441636B4576656E7446696C746572466C61673E3C4A726E
X 6C4D73674578706972793E333C2F4A726E6C4D736745787069
X 72793E3C4572726F724D73674578706972793E333C2F457272
X 6F724D73674578706972793E3C54465349443E333432333837
X 3C2F54465349443E3C5075626C697368657249443E4E2F413C
X 2F5075626C697368657249443E3C537570706F72744C696E6B
X 3E4E2F413C2F537570706F72744C696E6B3E3C537570707265
X 73734572726F724C6F673E545255453C2F5375707072657373
X 4572726F724C6F673E3C53757070726573734572726F725465
X 78743E4E2F413C2F53757070726573734572726F7254657874
X 3E3C53757070726573734572726F72456D61696C3E46414C53
X 453C2F53757070726573734572726F72456D61696C3E3C5375
X 7070726573734572726F72456D61696C416464726573733E4E
X 2F413C2F53757070726573734572726F72456D61696C416464
X 726573733E3C53757070726573734572726F72456D61696C53
X 75626A6563743E4E2F413C2F53757070726573734572726F72
X 456D61696C5375626A6563743E3C5375707072657373457272
X 6F72456D61696C426F64793E4E2F413C2F5375707072657373
X 4572726F72456D61696C426F64793E3C537570707265737345
X 72726F72456D61696C496E636C7564655061796C6F61643E54
X 5255453C2F53757070726573734572726F72456D61696C496E
X 636C7564655061796C6F61643E3C2F4170706C69636174696F
X 6E4E616D653E3C4170706C69636174696F6E4E616D653E3C6E
X 616D653E4F52555F43617073756C65536D6172744C696E7854
X 6F457069635749325F484C37436C69656E7452656365697665
X 724170703C2F6E616D653E3C4D65737361676546696C746572
X 4576656E7446696C746572466C61673E545255453C2F4D6573
X 7361676546696C7465724576656E7446696C746572466C6167
X 3E3C52656D61696E6465727346696C7465724576656E744669
X 6C746572466C61673E545255453C2F52656D61696E64657273
X 46696C7465724576656E7446696C746572466C61673E3C4175
X 646974496E7075744576656E7446696C746572466C61673E54
X 5255453C2F4175646974496E7075744576656E7446696C7465
X 72466C61673E3C4572726F724576656E7446696C746572466C
X 61673E545255453C2F4572726F724576656E7446696C746572
X 466C61673E3C53656E6441636B4576656E7446696C74657246
X 6C61673E545255453C2F53656E6441636B4576656E7446696C
X 746572466C61673E3C4A726E6C4D73674578706972793E333C
X 2F4A726E6C4D73674578706972793E3C4572726F724D736745
X 78706972793E333C2F4572726F724D73674578706972793E3C
X 54465349443E3334323338343C2F54465349443E3C5075626C
X 697368657249443E4E2F413C2F5075626C697368657249443E
X 3C537570706F72744C696E6B3E4E2F413C2F537570706F7274
X 4C696E6B3E3C53757070726573734572726F724C6F673E5452
X 55453C2F53757070726573734572726F724C6F673E3C537570
X 70726573734572726F72546578743E4E2F413C2F5375707072
X 6573734572726F72546578743E3C5375707072657373457272
X 6F72456D61696C3E46414C53453C2F53757070726573734572
X 726F72456D61696C3E3C53757070726573734572726F72456D
X 61696C416464726573733E4E2F413C2F537570707265737345
X 72726F72456D61696C416464726573733E3C53757070726573
X 734572726F72456D61696C5375626A6563743E4E2F413C2F53
X 757070726573734572726F72456D61696C5375626A6563743E
X 3C53757070726573734572726F72456D61696C426F64793E4E
X 2F413C2F53757070726573734572726F72456D61696C426F64
X 793E3C53757070726573734572726F72456D61696C496E636C
X 7564655061796C6F61643E545255453C2F5375707072657373
X 4572726F72456D61696C496E636C7564655061796C6F61643E
X 3C2F4170706C69636174696F6E4E616D653E3C4170706C6963
X 6174696F6E4E616D653E3C6E616D653E4F52555F457069635F
X 466C6F77736865657473566974616C735F484C375265636569
X 7665724170703C2F6E616D653E3C4D65737361676546696C74
X 65724576656E7446696C746572466C61673E545255453C2F4D
X 65737361676546696C7465724576656E7446696C746572466C
X 61673E3C52656D61696E6465727346696C7465724576656E74
X 46696C746572466C61673E545255453C2F52656D61696E6465
X 727346696C7465724576656E7446696C746572466C61673E3C
X 4175646974496E7075744576656E7446696C746572466C6167
X 3E545255453C2F4175646974496E7075744576656E7446696C
X 746572466C61673E3C4572726F724576656E7446696C746572
X 466C61673E545255453C2F4572726F724576656E7446696C74
X 6572466C61673E3C53656E6441636B4576656E7446696C7465
X 72466C61673E545255453C2F53656E6441636B4576656E7446
X 696C746572466C61673E3C4A726E6C4D73674578706972793E
X 333C2F4A726E6C4D73674578706972793E3C4572726F724D73
X 674578706972793E333C2F4572726F724D7367457870697279
X 3E3C54465349443E4E2F413C2F54465349443E3C5075626C69
X 7368657249443E4E2F413C2F5075626C697368657249443E3C
X 537570706F72744C696E6B3E4E2F413C2F537570706F72744C
X 696E6B3E3C53757070726573734572726F724C6F673E545255
X 453C2F53757070726573734572726F724C6F673E3C53757070
X 726573734572726F72546578743E4E2F413C2F537570707265
X 73734572726F72546578743E3C53757070726573734572726F
X 72456D61696C3E46414C53453C2F5375707072657373457272
X 6F72456D61696C3E3C53757070726573734572726F72456D61
X 696C416464726573733E4E2F413C2F53757070726573734572
X 726F72456D61696C416464726573733E3C5375707072657373
X 4572726F72456D61696C5375626A6563743E4E2F413C2F5375
X 7070726573734572726F72456D61696C5375626A6563743E3C
X 53757070726573734572726F72456D61696C426F64793E4E2F
X 413C2F53757070726573734572726F72456D61696C426F6479
X 3E3C53757070726573734572726F72456D61696C496E636C75
X 64655061796C6F61643E545255453C2F537570707265737345
X 72726F72456D61696C496E636C7564655061796C6F61643E3C
X 2F4170706C69636174696F6E4E616D653E3C4170706C696361
X 74696F6E4E616D653E3C6E616D653E4F52555F457069635F4C
X 61625F484C3752656365697665724170703C2F6E616D653E3C
X 4D65737361676546696C7465724576656E7446696C74657246
X 6C61673E545255453C2F4D65737361676546696C7465724576
X 656E7446696C746572466C61673E3C52656D61696E64657273
X 46696C7465724576656E7446696C746572466C61673E545255
X 453C2F52656D61696E6465727346696C7465724576656E7446
X 696C746572466C61673E3C4175646974496E7075744576656E
X 7446696C746572466C61673E46414C53453C2F417564697449
X 6E7075744576656E7446696C746572466C61673E3C4572726F
X 724576656E7446696C746572466C61673E545255453C2F4572
X 726F724576656E7446696C746572466C61673E3C53656E6441
X 636B4576656E7446696C746572466C61673E545255453C2F53
X 656E6441636B4576656E7446696C746572466C61673E3C4A72
X 6E6C4D73674578706972793E333C2F4A726E6C4D7367457870
X 6972793E3C4572726F724D73674578706972793E333C2F4572
X 726F724D73674578706972793E3C54465349443E3234303338
X 373A3537393837353C2F54465349443E3C5075626C69736865
X 7249443E3630393330303C2F5075626C697368657249443E3C
X 537570706F72744C696E6B3E4E2F413C2F537570706F72744C
X 696E6B3E3C53757070726573734572726F724C6F673E545255
X 453C2F53757070726573734572726F724C6F673E3C53757070
X 726573734572726F72546578743E4E2F413C2F537570707265
X 73734572726F72546578743E3C53757070726573734572726F
X 72456D61696C3E46414C53453C2F5375707072657373457272
X 6F72456D61696C3E3C53757070726573734572726F72456D61
X 696C416464726573733E4E2F413C2F53757070726573734572
X 726F72456D61696C416464726573733E3C5375707072657373
X 4572726F72456D61696C5375626A6563743E4E2F413C2F5375
X 7070726573734572726F72456D61696C5375626A6563743E3C
X 53757070726573734572726F72456D61696C426F64793E4E2F
X 413C2F53757070726573734572726F72456D61696C426F6479
X 3E3C53757070726573734572726F72456D61696C496E636C75
X 64655061796C6F61643E545255453C2F537570707265737345
X 72726F72456D61696C496E636C7564655061796C6F61643E3C
X 2F4170706C69636174696F6E4E616D653E3C4170706C696361
X 74696F6E4E616D653E3C6E616D653E4F52555F486F6E657977
X 656C6C546F457069635F484C3752656365697665724170703C
X 2F6E616D653E3C4D65737361676546696C7465724576656E74
X 46696C746572466C61673E545255453C2F4D65737361676546
X 696C7465724576656E7446696C746572466C61673E3C52656D
X 61696E6465727346696C7465724576656E7446696C74657246
X 6C61673E545255453C2F52656D61696E6465727346696C7465
X 724576656E7446696C746572466C61673E3C4175646974496E
X 7075744576656E7446696C746572466C61673E545255453C2F
X 4175646974496E7075744576656E7446696C746572466C6167
X 3E3C4572726F724576656E7446696C746572466C61673E5452
X 55453C2F4572726F724576656E7446696C746572466C61673E
X 3C53656E6441636B4576656E7446696C746572466C61673E54
X 5255453C2F53656E6441636B4576656E7446696C746572466C
X 61673E3C4A726E6C4D73674578706972793E333C2F4A726E6C
X 4D73674578706972793E3C4572726F724D7367457870697279
X 3E333C2F4572726F724D73674578706972793E3C5446534944
X 3E3435323435353C2F54465349443E3C5075626C6973686572
