* DMPMQMSG Version:9.1.0.3 Created:Thu Dec  5 10:46:31 2019
* Qmgr  = QMT4
* Queue = TEST.CULLEN

A VER 2
A RPT 0
A MST 8
A EXP -1
A FDB 0
A ENC 546
A CCS 1208
A FMT         
A PRI 0
A PER 1
A MSI 414D5120514D54342020202020202020945CD45D08DB1A25
A COI 000000000000000000000000000000000000000000000000
A BOC 0
A RTQ                                                 
A RTM QMT1                                            
A USR m160987     
A ACC 16010515000000020898B26E53BB9DDEF35206EAED100000000000000000000B
A AIX 2020202020202020202020202020202020202020202020202020202020202020
A PAT 11
A PAN rfhutil_tls_new\rfhutilc.exe
A PTD 20191205
A PTT 16461169
A AOX 20202020
A GRP 000000000000000000000000000000000000000000000000
A MSQ 1
A OFF 0
A MSF 0
A ORL -1
X 3C3F786D6C2076657273696F6E3D22312E302220656E636F64
X 696E673D225554462D38223F3E3C52464832436F6E6669673E
X 3C6669656C644C69737420726668322E6669656C642E6E616D
X 653D2255536572766963654964656E74696669657232222068
X 6C372E7365672E6E616D653D224149532220686C372E666965
X 6C642E6E616D653D224149532E332E556E6976657273616C53
X 6572766963654964656E7469666965727C43452E3222207266
X 68322E64656661756C742E76616C75653D224553424E554C4C
X 222F3E3C6669656C644C69737420726668322E6669656C642E
X 6E616D653D2270617469656E746465617468696E6469636174
X 6F722220686C372E7365672E6E616D653D225049442220686C
X 372E6669656C642E6E616D653D225049442E33302E50617469
X 656E744465617468496E64696361746F722220726668322E64
X 656661756C742E76616C75653D224553424E554C4C222F3E3C
X 6669656C644C69737420726668322E6669656C642E6E616D65
X 3D22505632313256697369744465736372697074696F6E2220
X 686C372E7365672E6E616D653D225056322220686C372E6669
X 656C642E6E616D653D225056322E31322E5669736974446573
X 6372697074696F6E2220726668322E64656661756C742E7661
X 6C75653D224553424E554C4C222F3E3C6669656C644C697374
X 20726668322E6669656C642E6E616D653D2266696C6C657246
X 69656C64322220686C372E7365672E6E616D653D224F425222
X 20686C372E6669656C642E6E616D653D224F42522E32312E46
X 696C6C65724669656C64322220726668322E64656661756C74
X 2E76616C75653D224553424E554C4C222F3E3C6669656C644C
X 69737420726668322E6669656C642E6E616D653D2252657375
X 6C747352707453746174757343686E674461746554696D6522
X 20686C372E7365672E6E616D653D224F42522220686C372E66
X 69656C642E6E616D653D224F42522E32322E526573756C7473
X 52707453746174757343686E674461746554696D657C54532E
X 312220726668322E64656661756C742E76616C75653D224553
X 424E554C4C222F3E3C6669656C644C69737420726668322E66
X 69656C642E6E616D653D2266696C6C6572537461747573436F
X 64654944352220686C372E7365672E6E616D653D2253434822
X 20686C372E6669656C642E6E616D653D225343482E32352E46
X 696C6C6572537461747573436F64657C43452E352220726668
X 322E64656661756C742E76616C75653D224553424E554C4C22
X 2F3E3C6669656C644C69737420726668322E6669656C642E6E
X 616D653D227072696F7250617469656E744C6F636174696F6E
X 466163696C6974792220686C372E7365672E6E616D653D2250
X 56312220686C372E6669656C642E6E616D653D225056312E36
X 2E5072696F7250617469656E744C6F636174696F6E7C504C2E
X 347C48442E312220726668322E64656661756C742E76616C75
X 653D224553424E554C4C222F3E3C6669656C644C6973742072
X 6668322E6669656C642E6E616D653D22505631417474656E64
X 696E67446F63746F722220686C372E7365672E6E616D653D22
X 5056312220686C372E6669656C642E6E616D653D225056312E
X 372E417474656E64696E67446F63746F722220726668322E64
X 656661756C742E76616C75653D224553424E554C4C222F3E3C
X 6669656C644C69737420726668322E6669656C642E6E616D65
X 3D22736572766963654944392220686C372E7365672E6E616D
X 653D224F42522220686C372E6669656C642E6E616D653D224F
X 42522E342E556E6976657273616C536572766963654964656E
X 7469666965727C43452E392220726668322E64656661756C74
X 2E76616C75653D224553424E554C4C222F3E3C6669656C644C
X 69737420726668322E6669656C642E6E616D653D2261646D69
X 744461746554696D652220686C372E7365672E6E616D653D22
X 5056312220686C372E6669656C642E6E616D653D225056312E
X 34342E41646D69744461746554696D657C54532E3122207266
X 68322E64656661756C742E76616C75653D224553424E554C4C
X 222F3E3C6669656C644C69737420726668322E6669656C642E
X 6E616D653D2266696C6C6572537461747573436F6465322220
X 686C372E7365672E6E616D653D225343482220686C372E6669
X 656C642E6E616D653D225343482E32352E46696C6C65725374
X 61747573436F64657C43452E322220726668322E6465666175
X 6C742E76616C75653D224553424E554C4C222F3E3C6669656C
X 644C69737420726668322E6669656C642E6E616D653D226F72
X 646572696E67466163696C6974794E616D652220686C372E73
X 65672E6E616D653D224F52432220686C372E6669656C642E6E
X 616D653D224F52432E32312E4F72646572696E67466163696C
X 6974794E616D657C584F4E2E312220726668322E6465666175
X 6C742E76616C75653D224553424E554C4C222F3E3C6669656C
X 644C69737420726668322E6669656C642E6E616D653D224E54
X 4534636F6D6D656E74547970652220686C372E7365672E6E61
X 6D653D224E54452220686C372E6669656C642E6E616D653D22
X 4E54452E342E436F6D6D656E74547970657C43452E31222072
X 6668322E64656661756C742E76616C75653D224553424E554C
X 4C222F3E3C6669656C644C69737420726668322E6669656C64
X 2E6E616D653D226576656E744461746554696D65506C616E6E
X 65644576656E742220686C372E7365672E6E616D653D224556
X 4E2220686C372E6669656C642E6E616D653D2245564E2E332E
X 4461746554696D65506C616E6E65644576656E747C54532E31
X 2220726668322E64656661756C742E76616C75653D22455342
X 4E554C4C222F3E3C6669656C644C69737420726668322E6669
X 656C642E6E616D653D22505631417474656E64696E67446F63
X 746F7249442220686C372E7365672E6E616D653D2250563122
X 20686C372E6669656C642E6E616D653D225056312E372E4174
X 74656E64696E67446F63746F727C58434E2E31222072666832
X 2E64656661756C742E76616C75653D224553424E554C4C222F
X 3E3C6669656C644C69737420726668322E6669656C642E6E61
X 6D653D226C6F63526563466163696C6974792220686C372E73
X 65672E6E616D653D2241494C2220686C372E6669656C642E6E
X 616D653D2241494C2E332E4C6F636174696F6E5265736F7572
X 636549447C504C2E312220726668322E64656661756C742E76
X 616C75653D224553424E554C4C222F3E3C6669656C644C6973
X 7420726668322E6669656C642E6E616D653D226C6F63526563
X 526F6F6D2220686C372E7365672E6E616D653D2241494C2220
X 686C372E6669656C642E6E616D653D2241494C2E332E4C6F63
X 6174696F6E5265736F7572636549447C504C2E322220726668
X 322E64656661756C742E76616C75653D224553424E554C4C22
X 2F3E3C6669656C644C69737420726668322E6669656C642E6E
X 616D653D227175616E7469747954696D696E67456E64222068
X 6C372E7365672E6E616D653D224F52432220686C372E666965
X 6C642E6E616D653D224F52432E372E5175616E746974795469
X 6D696E677C54512E357C54532E312220726668322E64656661
X 756C742E76616C75653D224553424E554C4C222F3E3C666965
X 6C644C69737420726668322E6669656C642E6E616D653D226D
X 7367436F6E74726F6C49642220686C372E7365672E6E616D65
X 3D224D53482220686C372E6669656C642E6E616D653D224D53
X 482E31302E4D657373616765436F6E74726F6C494422207266
X 68322E64656661756C742E76616C75653D224553424E554C4C
X 222F3E3C6669656C644C69737420726668322E6669656C642E
X 6E616D653D226D73674461746554696D652220686C372E7365
X 672E6E616D653D224D53482220686C372E6669656C642E6E61
X 6D653D224D53482E372E4461746554696D654F664D65737361
X 67657C54532E312220726668322E64656661756C742E76616C
X 75653D224553424E554C4C222F3E3C6669656C644C69737420
X 726668322E6669656C642E6E616D653D2273656E64696E6741
X 70702220686C372E7365672E6E616D653D224D53482220686C
X 372E6669656C642E6E616D653D224D53482E332E53656E6469
X 6E674170706C69636174696F6E7C48442E312220726668322E
X 64656661756C742E76616C75653D224553424E554C4C222F3E
X 3C6669656C644C69737420726668322E6669656C642E6E616D
X 653D22726563656976696E674170702220686C372E7365672E
X 6E616D653D224D53482220686C372E6669656C642E6E616D65
X 3D224D53482E352E526563656976696E674170706C69636174
X 696F6E7C48442E312220726668322E64656661756C742E7661
X 6C75653D224553424E554C4C222F3E3C6669656C644C697374
X 20726668322E6669656C642E6E616D653D2273656E64696E67
X 466163696C6974792220686C372E7365672E6E616D653D224D
X 53482220686C372E6669656C642E6E616D653D224D53482E34
X 2E53656E64696E67466163696C6974797C48442E3122207266
X 68322E64656661756C742E76616C75653D224553424E554C4C
X 222F3E3C6669656C644C69737420726668322E6669656C642E
X 6E616D653D22726563656976696E67466163696C6974792220
X 686C372E7365672E6E616D653D224D53482220686C372E6669
X 656C642E6E616D653D224D53482E362E526563656976696E67
X 466163696C6974797C48442E312220726668322E6465666175
X 6C742E76616C75653D224553424E554C4C222F3E3C6669656C
X 644C69737420726668322E6669656C642E6E616D653D227365
X 6E64696E67496E746572666163652220686C372E7365672E6E
X 616D653D224D53482220686C372E6669656C642E6E616D653D
X 224D53482E332E53656E64696E674170706C69636174696F6E
X 7C48442E322220726668322E64656661756C742E76616C7565
X 3D224553424E554C4C222F3E3C6669656C644C697374207266
X 68322E6669656C642E6E616D653D226D736749642220686C37
X 2E7365672E6E616D653D225049442220686C372E6669656C64
X 2E6E616D653D225049442E332E50617469656E744964656E74
X 69666965724C6973747C43582E312220726668322E64656661
X 756C742E76616C75653D224553424E554C4C222F3E3C666965
X 6C644C69737420726668322E6669656C642E6E616D653D224D
X 434E756D6265722220686C372E7365672E6E616D653D225049
X 442220686C372E6669656C642E6E616D653D225049442E332E
X 50617469656E744964656E7469666965724C6973747C43582E
X 312220726668322E64656661756C742E76616C75653D224553
X 424E554C4C222F3E3C6669656C644C69737420726668322E66
X 69656C642E6E616D653D2250617469656E744C6173744E616D
X 652220686C372E7365672E6E616D653D225049442220686C37
X 2E6669656C642E6E616D653D225049442E352E50617469656E
X 744E616D657C58504E2E317C464E2E312220726668322E6465
X 6661756C742E76616C75653D224553424E554C4C222F3E3C66
X 69656C644C69737420726668322E6669656C642E6E616D653D
X 2250494435322220686C372E7365672E6E616D653D22504944
X 2220686C372E6669656C642E6E616D653D225049442E352E50
X 617469656E744E616D657C58504E2E322220726668322E6465
X 6661756C742E76616C75653D224553424E554C4C222F3E3C66
X 69656C644C69737420726668322E6669656C642E6E616D653D
X 2250494437312220686C372E7365672E6E616D653D22504944
X 2220686C372E6669656C642E6E616D653D225049442E372E44
X 61746554696D654F6642697274687C54532E31222072666832
X 2E64656661756C742E76616C75653D224553424E554C4C222F
X 3E3C6669656C644C69737420726668322E6669656C642E6E61
X 6D653D2270617469656E745365782220686C372E7365672E6E
X 616D653D225049442220686C372E6669656C642E6E616D653D
X 225049442E382E41646D696E69737472617469766553657822
X 20726668322E64656661756C742E76616C75653D224553424E
X 554C4C222F3E3C6669656C644C69737420726668322E666965
X 6C642E6E616D653D2270617469656E74416363744E756D6265
X 722220686C372E7365672E6E616D653D225049442220686C37
X 2E6669656C642E6E616D653D225049442E31382E5061746965
X 6E744163636F756E744E756D6265727C43582E312220726668
X 322E64656661756C742E76616C75653D224553424E554C4C22
X 2F3E3C6669656C644C69737420726668322E6669656C642E6E
X 616D653D2270617469656E74436C617373436F64652220686C
X 372E7365672E6E616D653D225056312220686C372E6669656C
X 642E6E616D653D225056312E322E50617469656E74436C6173
X 732220726668322E64656661756C742E76616C75653D224553
X 424E554C4C222F3E3C6669656C644C69737420726668322E66
X 69656C642E6E616D653D22706F696E744F6643617265222068
X 6C372E7365672E6E616D653D225056312220686C372E666965
X 6C642E6E616D653D225056312E332E41737369676E65645061
X 7469656E744C6F636174696F6E7C504C2E312220726668322E
X 64656661756C742E76616C75653D224553424E554C4C222F3E
X 3C6669656C644C69737420726668322E6669656C642E6E616D
X 653D22726F6F6D2220686C372E7365672E6E616D653D225056
X 312220686C372E6669656C642E6E616D653D225056312E332E
X 41737369676E656450617469656E744C6F636174696F6E7C50
X 4C2E322220726668322E64656661756C742E76616C75653D22
X 4553424E554C4C222F3E3C6669656C644C6973742072666832
X 2E6669656C642E6E616D653D226265642220686C372E736567
X 2E6E616D653D225056312220686C372E6669656C642E6E616D
X 653D225056312E332E41737369676E656450617469656E744C
X 6F636174696F6E7C504C2E332220726668322E64656661756C
X 742E76616C75653D224553424E554C4C222F3E3C6669656C64
X 4C69737420726668322E6669656C642E6E616D653D22666163
X 696C6974792220686C372E7365672E6E616D653D2250563122
X 20686C372E6669656C642E6E616D653D225056312E332E4173
X 7369676E656450617469656E744C6F636174696F6E7C504C2E
X 347C48442E312220726668322E64656661756C742E76616C75
X 653D224553424E554C4C222F3E3C6669656C644C6973742072
X 6668322E6669656C642E6E616D653D2241646D697373696F6E
X 547970652220686C372E7365672E6E616D653D225056312220
X 686C372E6669656C642E6E616D653D225056312E342E41646D
X 697373696F6E547970652220726668322E64656661756C742E
X 76616C75653D224553424E554C4C222F3E3C6669656C644C69
X 737420726668322E6669656C642E6E616D653D227072696F72
X 50617469656E744C6F636174696F6E2220686C372E7365672E
X 6E616D653D225056312220686C372E6669656C642E6E616D65
X 3D225056312E362E5072696F7250617469656E744C6F636174
X 696F6E7C504C2E312220726668322E64656661756C742E7661
X 6C75653D224553424E554C4C222F3E3C6669656C644C697374
X 20726668322E6669656C642E6E616D653D22486F7370697461
X 6C536572766963652220686C372E7365672E6E616D653D2250
X 56312220686C372E6669656C642E6E616D653D225056312E31
X 302E486F73706974616C536572766963652220726668322E64
X 656661756C742E76616C75653D224553424E554C4C222F3E3C
X 6669656C644C69737420726668322E6669656C642E6E616D65
X 3D2250563154656D704C6F632220686C372E7365672E6E616D
X 653D225056312220686C372E6669656C642E6E616D653D2250
X 56312E31312E54656D706F726172794C6F636174696F6E7C50
X 4C2E312220726668322E64656661756C742E76616C75653D22
X 4553424E554C4C222F3E3C6669656C644C6973742072666832
X 2E6669656C642E6E616D653D224570696356697369744E756D
X 6265722220686C372E7365672E6E616D653D22505631222068
X 6C372E6669656C642E6E616D653D225056312E31392E566973
X 69744E756D6265727C43582E312220726668322E6465666175
X 6C742E76616C75653D224553424E554C4C222F3E3C6669656C
X 644C69737420726668322E6669656C642E6E616D653D22416C
X 7465726E617465566973697449442220686C372E7365672E6E
X 616D653D225056312220686C372E6669656C642E6E616D653D
X 225056312E35302E416C7465726E617465566973697449447C
X 43582E312220726668322E64656661756C742E76616C75653D
X 224553424E554C4C222F3E3C6669656C644C69737420726668
X 322E6669656C642E6E616D653D226163636F756E7453746174
X 75732220686C372E7365672E6E616D653D225056312220686C
X 372E6669656C642E6E616D653D225056312E34312E4163636F
X 756E745374617475732220726668322E64656661756C742E76
X 616C75653D224553424E554C4C222F3E3C6669656C644C6973
X 7420726668322E6669656C642E6E616D653D226F7264657243
X 74726C436F64652220686C372E7365672E6E616D653D224F52
X 432220686C372E6669656C642E6E616D653D224F52432E312E
X 4F72646572436F6E74726F6C2220726668322E64656661756C
X 742E76616C75653D224553424E554C4C222F3E3C6669656C64
X 4C69737420726668322E6669656C642E6E616D653D226F7264
X 65725374617475732220686C372E7365672E6E616D653D224F
X 52432220686C372E6669656C642E6E616D653D224F52432E35
X 2E4F726465725374617475732220726668322E64656661756C
X 742E76616C75653D224553424E554C4C222F3E3C6669656C64
X 4C69737420726668322E6669656C642E6E616D653D22717561
X 6E7469747954696D696E672220686C372E7365672E6E616D65
X 3D224F52432220686C372E6669656C642E6E616D653D224F52
X 432E372E5175616E7469747954696D696E677C54512E327C52
X 492E312220726668322E64656661756C742E76616C75653D22
X 4553424E554C4C222F3E3C6669656C644C6973742072666832
X 2E6669656C642E6E616D653D22656E74657265644279222068
X 6C372E7365672E6E616D653D224F52432220686C372E666965
X 6C642E6E616D653D224F52432E31302E456E74657265644279
X 7C58434E2E312220726668322E64656661756C742E76616C75
X 653D224553424E554C4C222F3E3C6669656C644C6973742072
X 6668322E6669656C642E6E616D653D226D6F64616C69747922
X 20686C372E7365672E6E616D653D224F42522220686C372E66
X 69656C642E6E616D653D224F42522E32342E446961676E6F73
X 746963536572765365637449442220726668322E6465666175
X 6C742E76616C75653D224553424E554C4C222F3E3C6669656C
X 644C69737420726668322E6669656C642E6E616D653D227265
X 706F72745374617475732220686C372E7365672E6E616D653D
X 224F42522220686C372E6669656C642E6E616D653D224F4252
X 2E32352E526573756C745374617475732220726668322E6465
X 6661756C742E76616C75653D224553424E554C4C222F3E3C66
X 69656C644C69737420726668322E6669656C642E6E616D653D
X 224F7264657249442220686C372E7365672E6E616D653D224F
X 42522220686C372E6669656C642E6E616D653D224F42522E33
X 2E46696C6C65724F726465724E756D6265727C45492E312220
X 726668322E64656661756C742E76616C75653D224553424E55
X 4C4C222F3E3C6669656C644C69737420726668322E6669656C
X 642E6E616D653D22736572766963654944312220686C372E73
X 65672E6E616D653D224F42522220686C372E6669656C642E6E
X 616D653D224F42522E342E556E6976657273616C5365727669
X 63654964656E7469666965727C43452E312220726668322E64
X 656661756C742E76616C75653D224553424E554C4C222F3E3C
X 6669656C644C69737420726668322E6669656C642E6E616D65
X 3D22736572766963654944332220686C372E7365672E6E616D
X 653D224F42522220686C372E6669656C642E6E616D653D224F
X 42522E342E556E6976657273616C536572766963654964656E
X 7469666965727C43452E332220726668322E64656661756C74
X 2E76616C75653D224553424E554C4C222F3E3C6669656C644C
X 69737420726668322E6669656C642E6E616D653D2273657276
X 6963654944342220686C372E7365672E6E616D653D224F4252
X 2220686C372E6669656C642E6E616D653D224F42522E342E55
X 6E6976657273616C536572766963654964656E746966696572
X 7C43452E342220726668322E64656661756C742E76616C7565
X 3D224553424E554C4C222F3E3C6669656C644C697374207266
X 68322E6669656C642E6E616D653D2273657276696365494436
X 2220686C372E7365672E6E616D653D224F42522220686C372E
X 6669656C642E6E616D653D224F42522E342E556E6976657273
X 616C536572766963654964656E7469666965727C43452E3522
X 20726668322E64656661756C742E76616C75653D224553424E
X 554C4C222F3E3C6669656C644C69737420726668322E666965
X 6C642E6E616D653D2253706563696D656E416374696F6E436F
X 64652220686C372E7365672E6E616D653D224F42522220686C
X 372E6669656C642E6E616D653D224F42522E31312E53706563
X 696D656E416374696F6E436F64652220726668322E64656661
X 756C742E76616C75653D224553424E554C4C222F3E3C666965
X 6C644C69737420726668322E6669656C642E6E616D653D2250
X 72696E636970616C526573496E746572707265746572222068
X 6C372E7365672E6E616D653D224F42522220686C372E666965
X 6C642E6E616D653D224F42522E33322E5072696E636970616C
X 526573756C74496E7465727072657465727C4E444C2E317C43
X 4E4E2E312220726668322E64656661756C742E76616C75653D
X 224553424E554C4C222F3E3C6669656C644C69737420726668
X 322E6669656C642E6E616D653D226576656E7454797065436F
X 64652220686C372E7365672E6E616D653D2245564E2220686C
X 372E6669656C642E6E616D653D2245564E2E312E4576656E74
X 54797065436F64652220726668322E64656661756C742E7661
X 6C75653D224553424E554C4C222F3E3C6669656C644C697374
X 20726668322E6669656C642E6E616D653D226576656E745265
X 61736F6E436F64652220686C372E7365672E6E616D653D2245
X 564E2220686C372E6669656C642E6E616D653D2245564E2E34
X 2E4576656E74526561736F6E436F64652220726668322E6465
X 6661756C742E76616C75653D224553424E554C4C222F3E3C66
X 69656C644C69737420726668322E6669656C642E6E616D653D
X 226170706F696E746D656E74526561736F6E4944312220686C
X 372E7365672E6E616D653D225343482220686C372E6669656C
X 642E6E616D653D225343482E372E4170706F696E746D656E74
X 526561736F6E7C43452E312220726668322E64656661756C74
X 2E76616C75653D224553424E554C4C222F3E3C6669656C644C
X 69737420726668322E6669656C642E6E616D653D226170706F
X 696E746D656E74526561736F6E2220686C372E7365672E6E61
X 6D653D225343482220686C372E6669656C642E6E616D653D22
X 5343482E372E4170706F696E746D656E74526561736F6E7C43
X 452E322220726668322E64656661756C742E76616C75653D22
X 4553424E554C4C222F3E3C6669656C644C6973742072666832
X 2E6669656C642E6E616D653D226170706F696E746D656E7452
X 6561736F6E4944322220686C372E7365672E6E616D653D2253
X 43482220686C372E6669656C642E6E616D653D225343482E37
X 2E4170706F696E746D656E74526561736F6E7C43452E342220
X 726668322E64656661756C742E76616C75653D224553424E55
X 4C4C222F3E3C6669656C644C69737420726668322E6669656C
X 642E6E616D653D2266696C6C6572537461747573436F646522
X 20686C372E7365672E6E616D653D225343482220686C372E66
X 69656C642E6E616D653D225343482E32352E46696C6C657253
X 7461747573436F64657C43452E312220726668322E64656661
X 756C742E76616C75653D224553424E554C4C222F3E3C666965
X 6C644C69737420726668322E6669656C642E6E616D653D2274
X 72616E73436F64652220686C372E7365672E6E616D653D2246
X 54312220686C372E6669656C642E6E616D653D224654312E37
X 2E5472616E73616374696F6E436F64657C43452E3122207266
X 68322E64656661756C742E76616C75653D224553424E554C4C
X 222F3E3C6669656C644C69737420726668322E6669656C642E
X 6E616D653D224F627849442220686C372E7365672E6E616D65
X 3D224F42582220686C372E6669656C642E6E616D653D224F42
X 582E312E53657449444F42582220726668322E64656661756C
X 742E76616C75653D224553424E554C4C222F3E3C6669656C64
X 4C69737420726668322E6669656C642E6E616D653D224F6273
X 6572766174696F6E547970652220686C372E7365672E6E616D
X 653D224F42582220686C372E6669656C642E6E616D653D224F
X 42582E322E56616C7565547970652220726668322E64656661
X 756C742E76616C75653D224553424E554C4C222F3E3C666965
X 6C644C69737420726668322E6669656C642E6E616D653D224F
X 62736572766174696F6E49442220686C372E7365672E6E616D
X 653D224F42582220686C372E6669656C642E6E616D653D224F
X 42582E332E4F62736572766174696F6E4964656E7469666965
X 727C43452E312220726668322E64656661756C742E76616C75
X 653D224553424E554C4C222F3E3C6669656C644C6973742072
X 6668322E6669656C642E6E616D653D224F6273657276617469
X 6F6E4944546578742220686C372E7365672E6E616D653D224F
X 42582220686C372E6669656C642E6E616D653D224F42582E33
X 2E4F62736572766174696F6E4964656E7469666965727C4345
X 2E322220726668322E64656661756C742E76616C75653D2245
X 53424E554C4C222F3E3C6669656C644C69737420726668322E
X 6669656C642E6E616D653D224F62736572766174696F6E5661
X 6C75652220686C372E7365672E6E616D653D224F4258222068
X 6C372E6669656C642E6E616D653D224F42582E352E4F627365
X 72766174696F6E56616C75652220726668322E64656661756C
X 742E76616C75653D224553424E554C4C222F3E3C6669656C64
X 4C69737420726668322E6669656C642E6E616D653D224D6564
X 4F7264657249442220686C372E7365672E6E616D653D225258
X 452220686C372E6669656C642E6E616D653D225258452E322E
X 47697665436F64657C43452E312220726668322E6465666175
X 6C742E76616C75653D224553424E554C4C222F3E3C6669656C
X 644C69737420726668322E6669656C642E6E616D653D22646F
X 63756D656E74547970652220686C372E7365672E6E616D653D
X 225458412220686C372E6669656C642E6E616D653D22545841
X 2E322E446F63756D656E74547970652220726668322E646566
X 61756C742E76616C75653D224553424E554C4C222F3E3C6669
X 656C644C69737420726668322E6669656C642E6E616D653D22
X 446F63756D656E745479706549442220686C372E7365672E6E
X 616D653D225458412220686C372E6669656C642E6E616D653D
X 225458412E31322E556E69717565446F63756D656E744E756D
X 6265727C45492E312220726668322E64656661756C742E7661
X 6C75653D224553424E554C4C222F3E3C6669656C644C697374
X 20726668322E6669656C642E6E616D653D2264657074436F64
X 652220686C372E7365672E6E616D653D2241494C2220686C37
X 2E6669656C642E6E616D653D2241494C2E332E4C6F63617469
X 6F6E5265736F7572636549447C504C2E347C48442E31222072
X 6668322E64656661756C742E76616C75653D224553424E554C
X 4C222F3E3C6669656C644C69737420726668322E6669656C64
X 2E6E616D653D2255536572766963654964656E746966696572
X 2220686C372E7365672E6E616D653D224149532220686C372E
X 6669656C642E6E616D653D224149532E332E556E6976657273
X 616C536572766963654964656E7469666965727C43452E3122
X 20726668322E64656661756C742E76616C75653D224553424E
X 554C4C222F3E3C6669656C644C69737420726668322E666965
X 6C642E6E616D653D2273746172744461746554696D65222068
X 6C372E7365672E6E616D653D224149532220686C372E666965
X 6C642E6E616D653D224149532E342E53746172744461746554
X 696D657C54532E312220726668322E64656661756C742E7661
X 6C75653D224553424E554C4C222F3E3C6669656C644C697374
X 20726668322E6669656C642E6E616D653D224E5445436F6D6D
X 656E742220686C372E7365672E6E616D653D224E5445222068
X 6C372E6669656C642E6E616D653D224E54452E332E436F6D6D
X 656E742220726668322E64656661756C742E76616C75653D22
X 4553424E554C4C222F3E3C6669656C644C6973742072666832
X 2E6669656C642E6E616D653D226163636F6D6D6F646174696F
X 6E436F64652220686C372E7365672E6E616D653D2250563222
X 20686C372E6669656C642E6E616D653D225056322E322E4163
X 636F6D6D6F646174696F6E436F64657C43452E312220726668
X 322E64656661756C742E76616C75653D224553424E554C4C22
X 2F3E3C6669656C644C69737420726668322E6669656C642E6E
X 616D653D2253746166664E616D652220686C372E7365672E6E
X 616D653D225354462220686C372E6669656C642E6E616D653D
X 225354462E332E53746166664E616D657C58504E2E317C464E
X 2E312220726668322E64656661756C742E76616C75653D2245
X 53424E554C4C222F3E3C6669656C644C69737420726668322E
X 6669656C642E6E616D653D2250726F636564757265436F6465
X 2220686C372E7365672E6E616D653D225A4F522220686C372E
X 6669656C642E6E616D653D225A4F522E332E50726F63656475
X 72657C43452E312220726668322E64656661756C742E76616C
X 75653D224553424E554C4C222F3E3C6669656C644C69737420
X 726668322E6669656C642E6E616D653D2250523150726F6365
X 64757265436F64652220686C372E7365672E6E616D653D2250
X 52312220686C372E6669656C642E6E616D653D225052312E33
X 2E50726F636564757265436F64657C43452E31222072666832
X 2E64656661756C742E76616C75653D224553424E554C4C222F
X 3E3C6669656C644C69737420726668322E6669656C642E6E61
X 6D653D22505631417474656E64696E67446F63746F724C6173
X 744E616D652220686C372E7365672E6E616D653D2250563122
X 20686C372E6669656C642E6E616D653D225056312E372E4174
X 74656E64696E67446F63746F727C58434E2E327C464E2E3122
X 20726668322E64656661756C742E76616C75653D224553424E
X 554C4C222F3E3C6669656C644C69737420726668322E666965
X 6C642E6E616D653D226D7367547970652220686C372E736567
X 2E6E616D653D224D53482220686C372E6669656C642E6E616D
X 653D224D53482E392E4D657373616765547970657C4D53472E
X 312220726668322E64656661756C742E76616C75653D224553
X 424E554C4C222F3E3C6669656C644C69737420726668322E66
X 69656C642E6E616D653D226D7367547269676765724576656E
X 742220686C372E7365672E6E616D653D224D53482220686C37
X 2E6669656C642E6E616D653D224D53482E392E4D6573736167
X 65547970657C4D53472E322220726668322E64656661756C74
X 2E76616C75653D224553424E554C4C222F3E3C6669656C644C
X 69737420726668322E6669656C642E6E616D653D224F627365
X 72766174696F6E4461746554696D652220686C372E7365672E
X 6E616D653D224F42522220686C372E6669656C642E6E616D65
X 3D224F42522E372E4F62736572766174696F6E446174655469
X 6D657C54532E312220726668322E64656661756C742E76616C
X 75653D224553424E554C4C222F3E3C6669656C644C69737420
X 726668322E6669656C642E6E616D653D22417474656E64696E
X 67446F63746F7246697273744E616D652220686C372E736567
X 2E6E616D653D225056312220686C372E6669656C642E6E616D
X 653D225056312E372E417474656E64696E67446F63746F727C
X 58434E2E332220726668322E64656661756C742E76616C7565
X 3D224553424E554C4C222F3E3C6669656C644C697374207266
X 68322E6669656C642E6E616D653D225049445F335F35222068
X 6C372E7365672E6E616D653D225049442220686C372E666965
X 6C642E6E616D653D225049442E332E50617469656E74496465
X 6E7469666965724C6973747C43582E352220726668322E6465
X 6661756C742E76616C75653D224553424E554C4C222F3E3C66
X 69656C644C69737420726668322E6669656C642E6E616D653D
X 227175616E7469747954696D696E6753746172742220686C37
X 2E7365672E6E616D653D224F52432220686C372E6669656C64
X 2E6E616D653D224F52432E372E5175616E7469747954696D69
X 6E677C54512E347C54532E312220726668322E64656661756C
X 742E76616C75653D224553424E554C4C222F3E3C2F52464832
X 436F6E6669673E

