* DMPMQMSG Version:9.1.0.3 Created:Thu Dec  5 12:27:25 2019
* Qmgr  = QMT4
* Queue = TEST.CULLEN

A VER 2
A RPT 0
A MST 8
A EXP -1
A FDB 0
A ENC 546
A CCS 1208
A FMT         
A PRI 0
A PER 1
A MSI 414D5120514D54342020202020202020945CD45D03CF1B25
A COI 000000000000000000000000000000000000000000000000
A BOC 0
A RTQ                                                 
A RTM QMT1                                            
A USR m160987     
A ACC 16010515000000020898B26E53BB9DDEF35206EAED100000000000000000000B
A AIX 2020202020202020202020202020202020202020202020202020202020202020
A PAT 11
A PAN rfhutil_tls_new\rfhutilc.exe
A PTD 20191205
A PTT 18264871
A AOX 20202020
A GRP 000000000000000000000000000000000000000000000000
A MSQ 1
A OFF 0
A MSF 0
A ORL -1
X 3C3F786D6C2076657273696F6E3D22312E302220656E636F64
X 696E673D225554462D38223F3E3C5472616E73666F726D3E3C
X 4170706C69636174696F6E4E616D653E3C6E616D653E4F5255
X 5F45504943566974616C73546F456469744C6966655F484C37
X 5472616E73666F726D4170703C2F6E616D653E3C46726F6D52
X 656365697665723E616E79484C375365676D656E743C2F4672
X 6F6D52656365697665723E3C4175646974496E707574457665
X 6E7446696C746572466C61673E545255453C2F417564697449
X 6E7075744576656E7446696C746572466C61673E3C5075626C
X 697368546F53656E6465724576656E7446696C746572466C61
X 673E545255453C2F5075626C697368546F53656E6465724576
X 656E7446696C746572466C61673E3C4572726F724D73674578
X 706972793E333C2F4572726F724D73674578706972793E3C54
X 465349443E3833343235353C2F54465349443E3C4874747045
X 6E64506F696E743E4E2F413C2F48747470456E64506F696E74
X 3E3C416B616E61546F6B656E3E4E2F413C2F416B616E61546F
X 6B656E3E3C537570706F72744C696E6B3E4E2F413C2F537570
X 706F72744C696E6B3E3C53757070726573734572726F724C6F
X 673E545255453C2F53757070726573734572726F724C6F673E
X 3C53757070726573734572726F72546578743E4E2F413C2F53
X 757070726573734572726F72546578743E3C53757070726573
X 734572726F72456D61696C3E46414C53453C2F537570707265
X 73734572726F72456D61696C3E3C5375707072657373457272
X 6F72456D61696C416464726573733E4E2F413C2F5375707072
X 6573734572726F72456D61696C416464726573733E3C537570
X 70726573734572726F72456D61696C5375626A6563743E4E2F
X 413C2F53757070726573734572726F72456D61696C5375626A
X 6563743E3C53757070726573734572726F72456D61696C426F
X 64793E4E2F413C2F53757070726573734572726F72456D6169
X 6C426F64793E3C53757070726573734572726F72456D61696C
X 496E636C7564655061796C6F61643E545255453C2F53757070
X 726573734572726F72456D61696C496E636C7564655061796C
X 6F61643E3C2F4170706C69636174696F6E4E616D653E3C4170
X 706C69636174696F6E4E616D653E3C6E616D653E4F52555F45
X 6469744C696665546F5F4D444D457069635F484C375472616E
X 73666F726D4170703C2F6E616D653E3C46726F6D5265636569
X 7665723E616E79484C375365676D656E743C2F46726F6D5265
X 6365697665723E3C4175646974496E7075744576656E744669
X 6C746572466C61673E545255453C2F4175646974496E707574
X 4576656E7446696C746572466C61673E3C5075626C69736854
X 6F53656E6465724576656E7446696C746572466C61673E5452
X 55453C2F5075626C697368546F53656E6465724576656E7446
X 696C746572466C61673E3C4572726F724D7367457870697279
X 3E333C2F4572726F724D73674578706972793E3C5446534944
X 3E3833343235353C2F54465349443E3C48747470456E64506F
X 696E743E68747470733A2F2F746573742E6170696D632E6D61
X 796F2E6564753A3434332F656170697373746166662F763231
X 3C2F48747470456E64506F696E743E3C416B616E61546F6B65
X 6E3E4D61796F4150492D316A4D72497A765543725341737344
X 6C7356466F647538563C2F416B616E61546F6B656E3E3C5375
X 70706F72744C696E6B3E4E2F413C2F537570706F72744C696E
X 6B3E3C53757070726573734572726F724C6F673E545255453C
X 2F53757070726573734572726F724C6F673E3C537570707265
X 73734572726F72546578743E4E2F413C2F5375707072657373
X 4572726F72546578743E3C53757070726573734572726F7245
X 6D61696C3E46414C53453C2F53757070726573734572726F72
X 456D61696C3E3C53757070726573734572726F72456D61696C
X 416464726573733E4E2F413C2F53757070726573734572726F
X 72456D61696C416464726573733E3C53757070726573734572
X 726F72456D61696C5375626A6563743E4E2F413C2F53757070
X 726573734572726F72456D61696C5375626A6563743E3C5375
X 7070726573734572726F72456D61696C426F64793E4E2F413C
X 2F53757070726573734572726F72456D61696C426F64793E3C
X 53757070726573734572726F72456D61696C496E636C756465
X 5061796C6F61643E545255453C2F5375707072657373457272
X 6F72456D61696C496E636C7564655061796C6F61643E3C2F41
X 70706C69636174696F6E4E616D653E3C4170706C6963617469
X 6F6E4E616D653E3C6E616D653E4144545F4D504949546F4F6E
X 626173655F484C375472616E73666F726D4170703C2F6E616D
X 653E3C46726F6D52656365697665723E616E79484C37536567
X 6D656E743C2F46726F6D52656365697665723E3C4175646974
X 496E7075744576656E7446696C746572466C61673E54525545
X 3C2F4175646974496E7075744576656E7446696C746572466C
X 61673E3C5075626C697368546F53656E6465724576656E7446
X 696C746572466C61673E545255453C2F5075626C697368546F
X 53656E6465724576656E7446696C746572466C61673E3C4572
X 726F724D73674578706972793E333C2F4572726F724D736745
X 78706972793E3C54465349443E313031333934323C2F544653
X 49443E3C48747470456E64506F696E743E4E2F413C2F487474
X 70456E64506F696E743E3C416B616E61546F6B656E3E4E2F41
X 3C2F416B616E61546F6B656E3E3C537570706F72744C696E6B
X 3E4E2F413C2F537570706F72744C696E6B3E3C537570707265
X 73734572726F724C6F673E545255453C2F5375707072657373
X 4572726F724C6F673E3C53757070726573734572726F725465
X 78743E4E2F413C2F53757070726573734572726F7254657874
X 3E3C53757070726573734572726F72456D61696C3E46414C53
X 453C2F53757070726573734572726F72456D61696C3E3C5375
X 7070726573734572726F72456D61696C416464726573733E4E
X 2F413C2F53757070726573734572726F72456D61696C416464
X 726573733E3C53757070726573734572726F72456D61696C53
X 75626A6563743E4E2F413C2F53757070726573734572726F72
X 456D61696C5375626A6563743E3C5375707072657373457272
X 6F72456D61696C426F64793E4E2F413C2F5375707072657373
X 4572726F72456D61696C426F64793E3C537570707265737345
X 72726F72456D61696C496E636C7564655061796C6F61643E54
X 5255453C2F53757070726573734572726F72456D61696C496E
X 636C7564655061796C6F61643E3C2F4170706C69636174696F
X 6E4E616D653E3C4170706C69636174696F6E4E616D653E3C6E
X 616D653E584D4C5F4344414E53414C31546F456469744C6966
X 655F484C375472616E73666F726D4170703C2F6E616D653E3C
X 46726F6D52656365697665723E616E79484C375365676D656E
X 743C2F46726F6D52656365697665723E3C4175646974496E70
X 75744576656E7446696C746572466C61673E545255453C2F41
X 75646974496E7075744576656E7446696C746572466C61673E
X 3C5075626C697368546F53656E6465724576656E7446696C74
X 6572466C61673E545255453C2F5075626C697368546F53656E
X 6465724576656E7446696C746572466C61673E3C4572726F72
X 4D73674578706972793E333C2F4572726F724D736745787069
X 72793E3C54465349443E3833343237333C2F54465349443E3C
X 48747470456E64506F696E743E4E2F413C2F48747470456E64
X 506F696E743E3C416B616E61546F6B656E3E4E2F413C2F416B
X 616E61546F6B656E3E3C537570706F72744C696E6B3E4E2F41
X 3C2F537570706F72744C696E6B3E3C53757070726573734572
X 726F724C6F673E545255453C2F53757070726573734572726F
X 724C6F673E3C53757070726573734572726F72546578743E4E
X 2F413C2F53757070726573734572726F72546578743E3C5375
X 7070726573734572726F72456D61696C3E46414C53453C2F53
X 757070726573734572726F72456D61696C3E3C537570707265
X 73734572726F72456D61696C416464726573733E4E2F413C2F
X 53757070726573734572726F72456D61696C41646472657373
X 3E3C53757070726573734572726F72456D61696C5375626A65
X 63743E4E2F413C2F53757070726573734572726F72456D6169
X 6C5375626A6563743E3C53757070726573734572726F72456D
X 61696C426F64793E4E2F413C2F53757070726573734572726F
X 72456D61696C426F64793E3C53757070726573734572726F72
X 456D61696C496E636C7564655061796C6F61643E545255453C
X 2F53757070726573734572726F72456D61696C496E636C7564
X 655061796C6F61643E3C2F4170706C69636174696F6E4E616D
X 653E3C4170706C69636174696F6E4E616D653E3C6E616D653E
X 584D4C5F4344414E53446F6373546F456469744C6966655F48
X 4C375472616E73666F726D4170703C2F6E616D653E3C46726F
X 6D52656365697665723E616E79484C375365676D656E743C2F
X 46726F6D52656365697665723E3C4175646974496E70757445
X 76656E7446696C746572466C61673E545255453C2F41756469
X 74496E7075744576656E7446696C746572466C61673E3C5075
X 626C697368546F53656E6465724576656E7446696C74657246
X 6C61673E545255453C2F5075626C697368546F53656E646572
X 4576656E7446696C746572466C61673E3C4572726F724D7367
X 4578706972793E333C2F4572726F724D73674578706972793E
X 3C54465349443E3833343237333C2F54465349443E3C487474
X 70456E64506F696E743E4E2F413C2F48747470456E64506F69
X 6E743E3C416B616E61546F6B656E3E4E2F413C2F416B616E61
X 546F6B656E3E3C537570706F72744C696E6B3E4E2F413C2F53
X 7570706F72744C696E6B3E3C53757070726573734572726F72
X 4C6F673E545255453C2F53757070726573734572726F724C6F
X 673E3C53757070726573734572726F72546578743E4E2F413C
X 2F53757070726573734572726F72546578743E3C5375707072
X 6573734572726F72456D61696C3E46414C53453C2F53757070
X 726573734572726F72456D61696C3E3C537570707265737345
X 72726F72456D61696C416464726573733E4E2F413C2F537570
X 70726573734572726F72456D61696C416464726573733E3C53
X 757070726573734572726F72456D61696C5375626A6563743E
X 4E2F413C2F53757070726573734572726F72456D61696C5375
X 626A6563743E3C53757070726573734572726F72456D61696C
X 426F64793E4E2F413C2F53757070726573734572726F72456D
X 61696C426F64793E3C53757070726573734572726F72456D61
X 696C496E636C7564655061796C6F61643E545255453C2F5375
X 7070726573734572726F72456D61696C496E636C7564655061
X 796C6F61643E3C2F4170706C69636174696F6E4E616D653E3C
X 4170706C69636174696F6E4E616D653E3C6E616D653E584D4C
X 5F4344414E534D656473546F456469744C6966655F484C3754
X 72616E73666F726D4170703C2F6E616D653E3C46726F6D5265
X 6365697665723E616E79484C375365676D656E743C2F46726F
X 6D52656365697665723E3C4175646974496E7075744576656E
X 7446696C746572466C61673E545255453C2F4175646974496E
X 7075744576656E7446696C746572466C61673E3C5075626C69
X 7368546F53656E6465724576656E7446696C746572466C6167
X 3E545255453C2F5075626C697368546F53656E646572457665
X 6E7446696C746572466C61673E3C4572726F724D7367457870
X 6972793E333C2F4572726F724D73674578706972793E3C5446
X 5349443E3833343237333C2F54465349443E3C48747470456E
X 64506F696E743E4E2F413C2F48747470456E64506F696E743E
X 3C416B616E61546F6B656E3E4E2F413C2F416B616E61546F6B
X 656E3E3C537570706F72744C696E6B3E4E2F413C2F53757070
X 6F72744C696E6B3E3C53757070726573734572726F724C6F67
X 3E545255453C2F53757070726573734572726F724C6F673E3C
X 53757070726573734572726F72546578743E4E2F413C2F5375
X 7070726573734572726F72546578743E3C5375707072657373
X 4572726F72456D61696C3E46414C53453C2F53757070726573
X 734572726F72456D61696C3E3C53757070726573734572726F
X 72456D61696C416464726573733E4E2F413C2F537570707265
X 73734572726F72456D61696C416464726573733E3C53757070
X 726573734572726F72456D61696C5375626A6563743E4E2F41
X 3C2F53757070726573734572726F72456D61696C5375626A65
X 63743E3C53757070726573734572726F72456D61696C426F64
X 793E4E2F413C2F53757070726573734572726F72456D61696C
X 426F64793E3C53757070726573734572726F72456D61696C49
X 6E636C7564655061796C6F61643E545255453C2F5375707072
X 6573734572726F72456D61696C496E636C7564655061796C6F
X 61643E3C2F4170706C69636174696F6E4E616D653E3C417070
X 6C69636174696F6E4E616D653E3C6E616D653E4144545F4851
X 5F4344414E53546F456469744C6966655F484C375472616E73
X 666F726D4170703C2F6E616D653E3C46726F6D526563656976
X 65723E616E79484C375365676D656E743C2F46726F6D526563
X 65697665723E3C4175646974496E7075744576656E7446696C
X 746572466C61673E545255453C2F4175646974496E70757445
X 76656E7446696C746572466C61673E3C5075626C697368546F
X 53656E6465724576656E7446696C746572466C61673E545255
X 453C2F5075626C697368546F53656E6465724576656E744669
X 6C746572466C61673E3C4572726F724D73674578706972793E
X 333C2F4572726F724D73674578706972793E3C54465349443E
X 3833343237333C2F54465349443E3C48747470456E64506F69
X 6E743E4E2F413C2F48747470456E64506F696E743E3C416B61
X 6E61546F6B656E3E4E2F413C2F416B616E61546F6B656E3E3C
X 537570706F72744C696E6B3E4E2F413C2F537570706F72744C
X 696E6B3E3C53757070726573734572726F724C6F673E545255
X 453C2F53757070726573734572726F724C6F673E3C53757070
X 726573734572726F72546578743E4E2F413C2F537570707265
X 73734572726F72546578743E3C53757070726573734572726F
X 72456D61696C3E46414C53453C2F5375707072657373457272
X 6F72456D61696C3E3C53757070726573734572726F72456D61
X 696C416464726573733E4E2F413C2F53757070726573734572
X 726F72456D61696C416464726573733E3C5375707072657373
X 4572726F72456D61696C5375626A6563743E4E2F413C2F5375
X 7070726573734572726F72456D61696C5375626A6563743E3C
X 53757070726573734572726F72456D61696C426F64793E4E2F
X 413C2F53757070726573734572726F72456D61696C426F6479
X 3E3C53757070726573734572726F72456D61696C496E636C75
X 64655061796C6F61643E545255453C2F537570707265737345
X 72726F72456D61696C496E636C7564655061796C6F61643E3C
X 2F4170706C69636174696F6E4E616D653E3C4170706C696361
X 74696F6E4E616D653E3C6E616D653E584D4C5F4344414E5356
X 6974616C73546F456469744C6966655F484C375472616E7366
X 6F726D4170703C2F6E616D653E3C46726F6D52656365697665
X 723E616E79484C375365676D656E743C2F46726F6D52656365
X 697665723E3C4175646974496E7075744576656E7446696C74
X 6572466C61673E545255453C2F4175646974496E7075744576
X 656E7446696C746572466C61673E3C5075626C697368546F53
X 656E6465724576656E7446696C746572466C61673E54525545
X 3C2F5075626C697368546F53656E6465724576656E7446696C
X 746572466C61673E3C4572726F724D73674578706972793E33
X 3C2F4572726F724D73674578706972793E3C54465349443E38
X 33343237333C2F54465349443E3C48747470456E64506F696E
X 743E4E2F413C2F48747470456E64506F696E743E3C416B616E
X 61546F6B656E3E4E2F413C2F416B616E61546F6B656E3E3C53
X 7570706F72744C696E6B3E4E2F413C2F537570706F72744C69
X 6E6B3E3C53757070726573734572726F724C6F673E54525545
X 3C2F53757070726573734572726F724C6F673E3C5375707072
X 6573734572726F72546578743E4E2F413C2F53757070726573
X 734572726F72546578743E3C53757070726573734572726F72
X 456D61696C3E46414C53453C2F53757070726573734572726F
X 72456D61696C3E3C53757070726573734572726F72456D6169
X 6C416464726573733E4E2F413C2F5375707072657373457272
X 6F72456D61696C416464726573733E3C537570707265737345
X 72726F72456D61696C5375626A6563743E4E2F413C2F537570
X 70726573734572726F72456D61696C5375626A6563743E3C53
X 757070726573734572726F72456D61696C426F64793E4E2F41
X 3C2F53757070726573734572726F72456D61696C426F64793E
X 3C53757070726573734572726F72456D61696C496E636C7564
X 655061796C6F61643E545255453C2F53757070726573734572
X 726F72456D61696C496E636C7564655061796C6F61643E3C2F
X 4170706C69636174696F6E4E616D653E3C4170706C69636174
X 696F6E4E616D653E3C6E616D653E5658555F4344414E53746F
X 454449544C6966655F484C375472616E73666F726D4170703C
X 2F6E616D653E3C46726F6D52656365697665723E616E79484C
X 375365676D656E743C2F46726F6D52656365697665723E3C41
X 75646974496E7075744576656E7446696C746572466C61673E
X 545255453C2F4175646974496E7075744576656E7446696C74
X 6572466C61673E3C5075626C697368546F53656E6465724576
X 656E7446696C746572466C61673E545255453C2F5075626C69
X 7368546F53656E6465724576656E7446696C746572466C6167
X 3E3C4572726F724D73674578706972793E333C2F4572726F72
X 4D73674578706972793E3C54465349443E3833343237333C2F
X 54465349443E3C48747470456E64506F696E743E4E2F413C2F
X 48747470456E64506F696E743E3C416B616E61546F6B656E3E
X 4E2F413C2F416B616E61546F6B656E3E3C537570706F72744C
X 696E6B3E4E2F413C2F537570706F72744C696E6B3E3C537570
X 70726573734572726F724C6F673E545255453C2F5375707072
X 6573734572726F724C6F673E3C53757070726573734572726F
X 72546578743E4E2F413C2F53757070726573734572726F7254
X 6578743E3C53757070726573734572726F72456D61696C3E46
X 414C53453C2F53757070726573734572726F72456D61696C3E
X 3C53757070726573734572726F72456D61696C416464726573
X 733E4E2F413C2F53757070726573734572726F72456D61696C
X 416464726573733E3C53757070726573734572726F72456D61
X 696C5375626A6563743E4E2F413C2F53757070726573734572
X 726F72456D61696C5375626A6563743E3C5375707072657373
X 4572726F72456D61696C426F64793E4E2F413C2F5375707072
X 6573734572726F72456D61696C426F64793E3C537570707265
X 73734572726F72456D61696C496E636C7564655061796C6F61
X 643E545255453C2F53757070726573734572726F72456D6169
X 6C496E636C7564655061796C6F61643E3C2F4170706C696361
X 74696F6E4E616D653E3C4170706C69636174696F6E4E616D65
X 3E3C6E616D653E4F52555F4344414E534C616273546F456469
X 744C6966655F484C375472616E73666F726D4170703C2F6E61
X 6D653E3C46726F6D52656365697665723E616E79484C375365
X 676D656E743C2F46726F6D52656365697665723E3C41756469
X 74496E7075744576656E7446696C746572466C61673E545255
X 453C2F4175646974496E7075744576656E7446696C74657246
X 6C61673E3C5075626C697368546F53656E6465724576656E74
X 46696C746572466C61673E545255453C2F5075626C69736854
X 6F53656E6465724576656E7446696C746572466C61673E3C45
X 72726F724D73674578706972793E333C2F4572726F724D7367
X 4578706972793E3C54465349443E3833343237333C2F544653
X 49443E3C48747470456E64506F696E743E4E2F413C2F487474
X 70456E64506F696E743E3C416B616E61546F6B656E3E4E2F41
X 3C2F416B616E61546F6B656E3E3C537570706F72744C696E6B
X 3E4E2F413C2F537570706F72744C696E6B3E3C537570707265
X 73734572726F724C6F673E545255453C2F5375707072657373
X 4572726F724C6F673E3C53757070726573734572726F725465
X 78743E4E2F413C2F53757070726573734572726F7254657874
X 3E3C53757070726573734572726F72456D61696C3E46414C53
X 453C2F53757070726573734572726F72456D61696C3E3C5375
X 7070726573734572726F72456D61696C416464726573733E4E
X 2F413C2F53757070726573734572726F72456D61696C416464
X 726573733E3C53757070726573734572726F72456D61696C53
X 75626A6563743E4E2F413C2F53757070726573734572726F72
X 456D61696C5375626A6563743E3C5375707072657373457272
X 6F72456D61696C426F64793E4E2F413C2F5375707072657373
X 4572726F72456D61696C426F64793E3C537570707265737345
X 72726F72456D61696C496E636C7564655061796C6F61643E54
X 5255453C2F53757070726573734572726F72456D61696C496E
X 636C7564655061796C6F61643E3C2F4170706C69636174696F
X 6E4E616D653E3C4170706C69636174696F6E4E616D653E3C6E
X 616D653E4144545F4D706969546F4D444D5F484C375472616E
X 73666F726D4170703C2F6E616D653E3C46726F6D5265636569
X 7665723E616E79484C375365676D656E743C2F46726F6D5265
X 6365697665723E3C4175646974496E7075744576656E744669
X 6C746572466C61673E545255453C2F4175646974496E707574
X 4576656E7446696C746572466C61673E3C5075626C69736854
X 6F53656E6465724576656E7446696C746572466C61673E5452
X 55453C2F5075626C697368546F53656E6465724576656E7446
X 696C746572466C61673E3C4572726F724D7367457870697279
X 3E333C2F4572726F724D73674578706972793E3C5446534944
X 3E313032323739323C2F54465349443E3C48747470456E6450
X 6F696E743E4E2F413C2F48747470456E64506F696E743E3C41
X 6B616E61546F6B656E3E4E2F413C2F416B616E61546F6B656E
X 3E3C537570706F72744C696E6B3E4E2F413C2F537570706F72
X 744C696E6B3E3C53757070726573734572726F724C6F673E54
X 5255453C2F53757070726573734572726F724C6F673E3C5375
X 7070726573734572726F72546578743E4E2F413C2F53757070
X 726573734572726F72546578743E3C53757070726573734572
X 726F72456D61696C3E46414C53453C2F537570707265737345
X 72726F72456D61696C3E3C53757070726573734572726F7245
X 6D61696C416464726573733E4E2F413C2F5375707072657373
X 4572726F72456D61696C416464726573733E3C537570707265
X 73734572726F72456D61696C5375626A6563743E4E2F413C2F
X 53757070726573734572726F72456D61696C5375626A656374
X 3E3C53757070726573734572726F72456D61696C426F64793E
X 4E2F413C2F53757070726573734572726F72456D61696C426F
X 64793E3C53757070726573734572726F72456D61696C496E63
X 6C7564655061796C6F61643E545255453C2F53757070726573
X 734572726F72456D61696C496E636C7564655061796C6F6164
X 3E3C2F4170706C69636174696F6E4E616D653E3C4170706C69
X 636174696F6E4E616D653E3C6E616D653E4144545F45706963
X 546F53636F7474436172655F484C375472616E73666F726D41
X 70703C2F6E616D653E3C46726F6D52656365697665723E616E
X 79484C375365676D656E743C2F46726F6D5265636569766572
X 3E3C4175646974496E7075744576656E7446696C746572466C
X 61673E545255453C2F4175646974496E7075744576656E7446
X 696C746572466C61673E3C5075626C697368546F53656E6465
X 724576656E7446696C746572466C61673E545255453C2F5075
X 626C697368546F53656E6465724576656E7446696C74657246
X 6C61673E3C4572726F724D73674578706972793E333C2F4572
X 726F724D73674578706972793E3C54465349443E3435323439
X 313C2F54465349443E3C48747470456E64506F696E743E4E2F
X 413C2F48747470456E64506F696E743E3C416B616E61546F6B
X 656E3E4E2F413C2F416B616E61546F6B656E3E3C537570706F
X 72744C696E6B3E4E2F413C2F537570706F72744C696E6B3E3C
X 53757070726573734572726F724C6F673E545255453C2F5375
X 7070726573734572726F724C6F673E3C537570707265737345
X 72726F72546578743E4E2F413C2F5375707072657373457272
X 6F72546578743E3C53757070726573734572726F72456D6169
X 6C3E46414C53453C2F53757070726573734572726F72456D61
X 696C3E3C53757070726573734572726F72456D61696C416464
X 726573733E4E2F413C2F53757070726573734572726F72456D
X 61696C416464726573733E3C53757070726573734572726F72
X 456D61696C5375626A6563743E4E2F413C2F53757070726573
X 734572726F72456D61696C5375626A6563743E3C5375707072
X 6573734572726F72456D61696C426F64793E4E2F413C2F5375
X 7070726573734572726F72456D61696C426F64793E3C537570
X 70726573734572726F72456D61696C496E636C756465506179
X 6C6F61643E545255453C2F53757070726573734572726F7245
X 6D61696C496E636C7564655061796C6F61643E3C2F4170706C
X 69636174696F6E4E616D653E3C4170706C69636174696F6E4E
X 616D653E3C6E616D653E4144545F45706963546F54656C6576
X 6F785F484C375472616E73666F726D4170703C2F6E616D653E
X 3C46726F6D52656365697665723E616E79484C375365676D65
X 6E743C2F46726F6D52656365697665723E3C4175646974496E
X 7075744576656E7446696C746572466C61673E545255453C2F
X 4175646974496E7075744576656E7446696C746572466C6167
X 3E3C5075626C697368546F53656E6465724576656E7446696C
X 746572466C61673E545255453C2F5075626C697368546F5365
X 6E6465724576656E7446696C746572466C61673E3C4572726F
X 724D73674578706972793E333C2F4572726F724D7367457870
X 6972793E3C54465349443E3236333933343C2F54465349443E
X 3C48747470456E64506F696E743E4E2F413C2F48747470456E
X 64506F696E743E3C416B616E61546F6B656E3E4E2F413C2F41
X 6B616E61546F6B656E3E3C537570706F72744C696E6B3E4E2F
X 413C2F537570706F72744C696E6B3E3C537570707265737345
X 72726F724C6F673E545255453C2F5375707072657373457272
X 6F724C6F673E3C53757070726573734572726F72546578743E
X 4E2F413C2F53757070726573734572726F72546578743E3C53
X 757070726573734572726F72456D61696C3E46414C53453C2F
X 53757070726573734572726F72456D61696C3E3C5375707072
X 6573734572726F72456D61696C416464726573733E4E2F413C
X 2F53757070726573734572726F72456D61696C416464726573
X 733E3C53757070726573734572726F72456D61696C5375626A
X 6563743E4E2F413C2F53757070726573734572726F72456D61
X 696C5375626A6563743E3C53757070726573734572726F7245
X 6D61696C426F64793E4E2F413C2F5375707072657373457272
X 6F72456D61696C426F64793E3C53757070726573734572726F
X 72456D61696C496E636C7564655061796C6F61643E54525545
X 3C2F53757070726573734572726F72456D61696C496E636C75
X 64655061796C6F61643E3C2F4170706C69636174696F6E4E61
X 6D653E3C4170706C69636174696F6E4E616D653E3C6E616D65
X 3E5349555F45706963546F50726F766174696F6E436164656E
X 63654D4348535F484C375472616E73666F726D4170703C2F6E
X 616D653E3C46726F6D52656365697665723E616E79484C3753
X 65676D656E743C2F46726F6D52656365697665723E3C417564
X 6974496E7075744576656E7446696C746572466C61673E5452
X 55453C2F4175646974496E7075744576656E7446696C746572
X 466C61673E3C5075626C697368546F53656E6465724576656E
X 7446696C746572466C61673E545255453C2F5075626C697368
X 546F53656E6465724576656E7446696C746572466C61673E3C
X 4572726F724D73674578706972793E333C2F4572726F724D73
X 674578706972793E3C54465349443E3234353338333C2F5446
X 5349443E3C48747470456E64506F696E743E4E2F413C2F4874
X 7470456E64506F696E743E3C416B616E61546F6B656E3E4E2F
X 413C2F416B616E61546F6B656E3E3C537570706F72744C696E
X 6B3E4E2F413C2F537570706F72744C696E6B3E3C5375707072
X 6573734572726F724C6F673E545255453C2F53757070726573
X 734572726F724C6F673E3C53757070726573734572726F7254
X 6578743E4E2F413C2F53757070726573734572726F72546578
X 743E3C53757070726573734572726F72456D61696C3E46414C
X 53453C2F53757070726573734572726F72456D61696C3E3C53
X 757070726573734572726F72456D61696C416464726573733E
X 4E2F413C2F53757070726573734572726F72456D61696C4164
X 64726573733E3C53757070726573734572726F72456D61696C
X 5375626A6563743E4E2F413C2F53757070726573734572726F
X 72456D61696C5375626A6563743E3C53757070726573734572
X 726F72456D61696C426F64793E4E2F413C2F53757070726573
X 734572726F72456D61696C426F64793E3C5375707072657373
X 4572726F72456D61696C496E636C7564655061796C6F61643E
X 545255453C2F53757070726573734572726F72456D61696C49
X 6E636C7564655061796C6F61643E3C2F4170706C6963617469
X 6F6E4E616D653E3C4170706C69636174696F6E4E616D653E3C
X 6E616D653E4144545F45706963546F415249414D43525F484C
X 375472616E73666F726D4170703C2F6E616D653E3C46726F6D
X 52656365697665723E616E79484C375365676D656E743C2F46
X 726F6D52656365697665723E3C4175646974496E7075744576
X 656E7446696C746572466C61673E545255453C2F4175646974
X 496E7075744576656E7446696C746572466C61673E3C507562
X 6C697368546F53656E6465724576656E7446696C746572466C
X 61673E545255453C2F5075626C697368546F53656E64657245
X 76656E7446696C746572466C61673E3C4572726F724D736745
X 78706972793E333C2F4572726F724D73674578706972793E3C
X 54465349443E3639393634373C2F54465349443E3C48747470
X 456E64506F696E743E4E2F413C2F48747470456E64506F696E
X 743E3C416B616E61546F6B656E3E4E2F413C2F416B616E6154
X 6F6B656E3E3C537570706F72744C696E6B3E4E2F413C2F5375
X 70706F72744C696E6B3E3C53757070726573734572726F724C
X 6F673E545255453C2F53757070726573734572726F724C6F67
X 3E3C53757070726573734572726F72546578743E4E2F413C2F
X 53757070726573734572726F72546578743E3C537570707265
X 73734572726F72456D61696C3E46414C53453C2F5375707072
X 6573734572726F72456D61696C3E3C53757070726573734572
X 726F72456D61696C416464726573733E4E2F413C2F53757070
X 726573734572726F72456D61696C416464726573733E3C5375
X 7070726573734572726F72456D61696C5375626A6563743E4E
X 2F413C2F53757070726573734572726F72456D61696C537562
X 6A6563743E3C53757070726573734572726F72456D61696C42
X 6F64793E4E2F413C2F53757070726573734572726F72456D61
X 696C426F64793E3C53757070726573734572726F72456D6169
X 6C496E636C7564655061796C6F61643E545255453C2F537570
X 70726573734572726F72456D61696C496E636C756465506179
X 6C6F61643E3C2F4170706C69636174696F6E4E616D653E3C41
X 70706C69636174696F6E4E616D653E3C6E616D653E4D464E5F
X 45706963546F506572736F6E44425F484C375472616E73666F
X 726D4170703C2F6E616D653E3C46726F6D5265636569766572
X 3E616E79484C375365676D656E743C2F46726F6D5265636569
X 7665723E3C4175646974496E7075744576656E7446696C7465
X 72466C61673E545255453C2F4175646974496E707574457665
X 6E7446696C746572466C61673E3C5075626C697368546F5365
X 6E6465724576656E7446696C746572466C61673E545255453C
X 2F5075626C697368546F53656E6465724576656E7446696C74
X 6572466C61673E3C4572726F724D73674578706972793E333C
X 2F4572726F724D73674578706972793E3C54465349443E3530
X 343236383C2F54465349443E3C48747470456E64506F696E74
X 3E4E2F413C2F48747470456E64506F696E743E3C416B616E61
X 546F6B656E3E4E2F413C2F416B616E61546F6B656E3E3C5375
X 70706F72744C696E6B3E4E2F413C2F537570706F72744C696E
X 6B3E3C53757070726573734572726F724C6F673E545255453C
X 2F53757070726573734572726F724C6F673E3C537570707265
X 73734572726F72546578743E4E2F413C2F5375707072657373
X 4572726F72546578743E3C53757070726573734572726F7245
X 6D61696C3E46414C53453C2F53757070726573734572726F72
X 456D61696C3E3C53757070726573734572726F72456D61696C
X 416464726573733E4E2F413C2F53757070726573734572726F
X 72456D61696C416464726573733E3C53757070726573734572
X 726F72456D61696C5375626A6563743E4E2F413C2F53757070
X 726573734572726F72456D61696C5375626A6563743E3C5375
X 7070726573734572726F72456D61696C426F64793E4E2F413C
X 2F53757070726573734572726F72456D61696C426F64793E3C
X 53757070726573734572726F72456D61696C496E636C756465
X 5061796C6F61643E545255453C2F5375707072657373457272
X 6F72456D61696C496E636C7564655061796C6F61643E3C2F41
X 70706C69636174696F6E4E616D653E3C4170706C6963617469
X 6F6E4E616D653E3C6E616D653E5244455F455049435F4D4544
X 53546F456469744C6966655F484C375472616E73666F726D41
X 70703C2F6E616D653E3C46726F6D52656365697665723E616E
X 79484C375365676D656E743C2F46726F6D5265636569766572
X 3E3C4175646974496E7075744576656E7446696C746572466C
X 61673E545255453C2F4175646974496E7075744576656E7446
X 696C746572466C61673E3C5075626C697368546F53656E6465
X 724576656E7446696C746572466C61673E545255453C2F5075
X 626C697368546F53656E6465724576656E7446696C74657246
X 6C61673E3C4572726F724D73674578706972793E333C2F4572
X 726F724D73674578706972793E3C54465349443E3833343235
X 353C2F54465349443E3C48747470456E64506F696E743E4E2F
X 413C2F48747470456E64506F696E743E3C416B616E61546F6B
X 656E3E4E2F413C2F416B616E61546F6B656E3E3C537570706F
X 72744C696E6B3E4E2F413C2F537570706F72744C696E6B3E3C
X 53757070726573734572726F724C6F673E545255453C2F5375
X 7070726573734572726F724C6F673E3C537570707265737345
X 72726F72546578743E4E2F413C2F5375707072657373457272
X 6F72546578743E3C53757070726573734572726F72456D6169
X 6C3E46414C53453C2F53757070726573734572726F72456D61
X 696C3E3C53757070726573734572726F72456D61696C416464
X 726573733E4E2F413C2F53757070726573734572726F72456D
X 61696C416464726573733E3C53757070726573734572726F72
X 456D61696C5375626A6563743E4E2F413C2F53757070726573
X 734572726F72456D61696C5375626A6563743E3C5375707072
X 6573734572726F72456D61696C426F64793E4E2F413C2F5375
X 7070726573734572726F72456D61696C426F64793E3C537570
X 70726573734572726F72456D61696C496E636C756465506179
X 6C6F61643E545255453C2F53757070726573734572726F7245
X 6D61696C496E636C7564655061796C6F61643E3C2F4170706C
X 69636174696F6E4E616D653E3C4170706C69636174696F6E4E
X 616D653E3C6E616D653E4144545F45706963546F4D69646173
X 5F484C375472616E73666F726D4170703C2F6E616D653E3C46
X 726F6D52656365697665723E616E79484C375365676D656E74
X 3C2F46726F6D52656365697665723E3C4175646974496E7075
X 744576656E7446696C746572466C61673E545255453C2F4175
X 646974496E7075744576656E7446696C746572466C61673E3C
X 5075626C697368546F53656E6465724576656E7446696C7465
X 72466C61673E545255453C2F5075626C697368546F53656E64
X 65724576656E7446696C746572466C61673E3C4572726F724D
X 73674578706972793E333C2F4572726F724D73674578706972
X 793E3C54465349443E3332393035393C2F54465349443E3C48
X 747470456E64506F696E743E4E2F413C2F48747470456E6450
X 6F696E743E3C416B616E61546F6B656E3E4E2F413C2F416B61
X 6E61546F6B656E3E3C537570706F72744C696E6B3E4E2F413C
X 2F537570706F72744C696E6B3E3C5375707072657373457272
X 6F724C6F673E545255453C2F53757070726573734572726F72
X 4C6F673E3C53757070726573734572726F72546578743E4E2F
X 413C2F53757070726573734572726F72546578743E3C537570
X 70726573734572726F72456D61696C3E545255453C2F537570
X 70726573734572726F72456D61696C3E3C5375707072657373
X 4572726F72456D61696C416464726573733E68696C6C657368
X 65696D2E6D617474686577406D61796F2E6564753C2F537570
X 70726573734572726F72456D61696C416464726573733E3C53
X 757070726573734572726F72456D61696C5375626A6563743E
X 54657374313C2F53757070726573734572726F72456D61696C
X 5375626A6563743E3C53757070726573734572726F72456D61
X 696C426F64793E54657374323C2F5375707072657373457272
X 6F72456D61696C426F64793E3C53757070726573734572726F
X 72456D61696C496E636C7564655061796C6F61643E54525545
X 3C2F53757070726573734572726F72456D61696C496E636C75
X 64655061796C6F61643E3C2F4170706C69636174696F6E4E61
X 6D653E3C4170706C69636174696F6E4E616D653E3C6E616D65
X 3E4144545F45706963546F436F6D707265737375735F484C37
X 5472616E73666F726D4170703C2F6E616D653E3C46726F6D52
X 656365697665723E616E79484C375365676D656E743C2F4672
X 6F6D52656365697665723E3C4175646974496E707574457665
X 6E7446696C746572466C61673E545255453C2F417564697449
X 6E7075744576656E7446696C746572466C61673E3C5075626C
X 697368546F53656E6465724576656E7446696C746572466C61
X 673E545255453C2F5075626C697368546F53656E6465724576
X 656E7446696C746572466C61673E3C4572726F724D73674578
X 706972793E333C2F4572726F724D73674578706972793E3C54
X 465349443E3233313239313C2F54465349443E3C4874747045
X 6E64506F696E743E4E2F413C2F48747470456E64506F696E74
X 3E3C416B616E61546F6B656E3E4E2F413C2F416B616E61546F
X 6B656E3E3C537570706F72744C696E6B3E4E2F413C2F537570
X 706F72744C696E6B3E3C53757070726573734572726F724C6F
X 673E545255453C2F53757070726573734572726F724C6F673E
X 3C53757070726573734572726F72546578743E4E2F413C2F53
X 757070726573734572726F72546578743E3C53757070726573
X 734572726F72456D61696C3E46414C53453C2F537570707265
X 73734572726F72456D61696C3E3C5375707072657373457272
X 6F72456D61696C416464726573733E4E2F413C2F5375707072
X 6573734572726F72456D61696C416464726573733E3C537570
X 70726573734572726F72456D61696C5375626A6563743E4E2F
X 413C2F53757070726573734572726F72456D61696C5375626A
X 6563743E3C53757070726573734572726F72456D61696C426F
X 64793E4E2F413C2F53757070726573734572726F72456D6169
X 6C426F64793E3C53757070726573734572726F72456D61696C
X 496E636C7564655061796C6F61643E545255453C2F53757070
X 726573734572726F72456D61696C496E636C7564655061796C
X 6F61643E3C2F4170706C69636174696F6E4E616D653E3C4170
X 706C69636174696F6E4E616D653E3C6E616D653E4144545F45
X 706963546F4849455F484C375472616E73666F726D4170703C
X 2F6E616D653E3C46726F6D52656365697665723E616E79484C
X 375365676D656E743C2F46726F6D52656365697665723E3C41
X 75646974496E7075744576656E7446696C746572466C61673E
X 545255453C2F4175646974496E7075744576656E7446696C74
X 6572466C61673E3C5075626C697368546F53656E6465724576
X 656E7446696C746572466C61673E545255453C2F5075626C69
X 7368546F53656E6465724576656E7446696C746572466C6167
X 3E3C4572726F724D73674578706972793E333C2F4572726F72
X 4D73674578706972793E3C54465349443E4E2F413C2F544653
X 49443E3C48747470456E64506F696E743E4E2F413C2F487474
X 70456E64506F696E743E3C416B616E61546F6B656E3E4E2F41
X 3C2F416B616E61546F6B656E3E3C537570706F72744C696E6B
X 3E4E2F413C2F537570706F72744C696E6B3E3C537570707265
X 73734572726F724C6F673E545255453C2F5375707072657373
X 4572726F724C6F673E3C53757070726573734572726F725465
X 78743E4E2F413C2F53757070726573734572726F7254657874
X 3E3C53757070726573734572726F72456D61696C3E46414C53
X 453C2F53757070726573734572726F72456D61696C3E3C5375
X 7070726573734572726F72456D61696C416464726573733E4E
X 2F413C2F53757070726573734572726F72456D61696C416464
X 726573733E3C53757070726573734572726F72456D61696C53
X 75626A6563743E4E2F413C2F53757070726573734572726F72
X 456D61696C5375626A6563743E3C5375707072657373457272
X 6F72456D61696C426F64793E4E2F413C2F5375707072657373
X 4572726F72456D61696C426F64793E3C537570707265737345
X 72726F72456D61696C496E636C7564655061796C6F61643E54
X 5255453C2F53757070726573734572726F72456D61696C496E
X 636C7564655061796C6F61643E3C2F4170706C69636174696F
X 6E4E616D653E3C4170706C69636174696F6E4E616D653E3C6E
X 616D653E4144545F45706963546F4D5049495F484C37547261
X 6E73666F726D4170703C2F6E616D653E3C46726F6D52656365
X 697665723E616E79484C375365676D656E743C2F46726F6D52
X 656365697665723E3C4175646974496E7075744576656E7446
X 696C746572466C61673E545255453C2F4175646974496E7075
X 744576656E7446696C746572466C61673E3C5075626C697368
X 546F53656E6465724576656E7446696C746572466C61673E54
X 5255453C2F5075626C697368546F53656E6465724576656E74
X 46696C746572466C61673E3C4572726F724D73674578706972
X 793E333C2F4572726F724D73674578706972793E3C54465349
X 443E3138333930353C2F54465349443E3C48747470456E6450
X 6F696E743E4E2F413C2F48747470456E64506F696E743E3C41
X 6B616E61546F6B656E3E4E2F413C2F416B616E61546F6B656E
X 3E3C537570706F72744C696E6B3E4F6E654E6F74653C2F5375
X 70706F72744C696E6B3E3C53757070726573734572726F724C
X 6F673E545255453C2F53757070726573734572726F724C6F67
X 3E3C53757070726573734572726F72546578743E4E2F413C2F
X 53757070726573734572726F72546578743E3C537570707265
X 73734572726F72456D61696C3E46414C53453C2F5375707072
X 6573734572726F72456D61696C3E3C53757070726573734572
X 726F72456D61696C416464726573733E4E2F413C2F53757070
X 726573734572726F72456D61696C416464726573733E3C5375
X 7070726573734572726F72456D61696C5375626A6563743E4E
X 2F413C2F53757070726573734572726F72456D61696C537562
X 6A6563743E3C53757070726573734572726F72456D61696C42
X 6F64793E4E2F413C2F53757070726573734572726F72456D61
X 696C426F64793E3C53757070726573734572726F72456D6169
X 6C496E636C7564655061796C6F61643E545255453C2F537570
X 70726573734572726F72456D61696C496E636C756465506179
X 6C6F61643E3C2F4170706C69636174696F6E4E616D653E3C41
X 70706C69636174696F6E4E616D653E3C6E616D653E4144545F
X 45706963546F506F7765725363726962655F484C375472616E
X 73666F726D4170703C2F6E616D653E3C46726F6D5265636569
X 7665723E616E79484C375365676D656E743C2F46726F6D5265
X 6365697665723E3C4175646974496E7075744576656E744669
X 6C746572466C61673E545255453C2F4175646974496E707574
X 4576656E7446696C746572466C61673E3C5075626C69736854
X 6F53656E6465724576656E7446696C746572466C61673E5452
X 55453C2F5075626C697368546F53656E6465724576656E7446
X 696C746572466C61673E3C4572726F724D7367457870697279
X 3E333C2F4572726F724D73674578706972793E3C5446534944
X 3E3138343330363A3138353239383A3138353330323A313835
X 3330303C2F54465349443E3C48747470456E64506F696E743E
X 4E2F413C2F48747470456E64506F696E743E3C416B616E6154
X 6F6B656E3E4E2F413C2F416B616E61546F6B656E3E3C537570
X 706F72744C696E6B3E4E2F413C2F537570706F72744C696E6B
X 3E3C53757070726573734572726F724C6F673E545255453C2F
X 53757070726573734572726F724C6F673E3C53757070726573
X 734572726F72546578743E4E2F413C2F537570707265737345
X 72726F72546578743E3C53757070726573734572726F72456D
X 61696C3E46414C53453C2F53757070726573734572726F7245
X 6D61696C3E3C53757070726573734572726F72456D61696C41
X 6464726573733E4E2F413C2F53757070726573734572726F72
X 456D61696C416464726573733E3C5375707072657373457272
X 6F72456D61696C5375626A6563743E4E2F413C2F5375707072
X 6573734572726F72456D61696C5375626A6563743E3C537570
X 70726573734572726F72456D61696C426F64793E4E2F413C2F
X 53757070726573734572726F72456D61696C426F64793E3C53
X 757070726573734572726F72456D61696C496E636C75646550
X 61796C6F61643E545255453C2F53757070726573734572726F
X 72456D61696C496E636C7564655061796C6F61643E3C2F4170
X 706C69636174696F6E4E616D653E3C4170706C69636174696F
X 6E4E616D653E3C6E616D653E4144545F45706963546F53656E
X 74727953756974654D43525F484C375472616E73666F726D41
X 70703C2F6E616D653E3C46726F6D52656365697665723E616E
X 79484C375365676D656E743C2F46726F6D5265636569766572
X 3E3C4175646974496E7075744576656E7446696C746572466C
X 61673E545255453C2F4175646974496E7075744576656E7446
X 696C746572466C61673E3C5075626C697368546F53656E6465
X 724576656E7446696C746572466C61673E545255453C2F5075
X 626C697368546F53656E6465724576656E7446696C74657246
X 6C61673E3C4572726F724D73674578706972793E333C2F4572
X 726F724D73674578706972793E3C54465349443E3635363936
X 343C2F54465349443E3C48747470456E64506F696E743E4E2F
X 413C2F48747470456E64506F696E743E3C416B616E61546F6B
X 656E3E4E2F413C2F416B616E61546F6B656E3E3C537570706F
X 72744C696E6B3E4E2F413C2F537570706F72744C696E6B3E3C
X 53757070726573734572726F724C6F673E545255453C2F5375
X 7070726573734572726F724C6F673E3C537570707265737345
X 72726F72546578743E4E2F413C2F5375707072657373457272
X 6F72546578743E3C53757070726573734572726F72456D6169
X 6C3E46414C53453C2F53757070726573734572726F72456D61
X 696C3E3C53757070726573734572726F72456D61696C416464
X 726573733E4E2F413C2F53757070726573734572726F72456D
X 61696C416464726573733E3C53757070726573734572726F72
X 456D61696C5375626A6563743E4E2F413C2F53757070726573
X 734572726F72456D61696C5375626A6563743E3C5375707072
X 6573734572726F72456D61696C426F64793E4E2F413C2F5375
X 7070726573734572726F72456D61696C426F64793E3C537570
X 70726573734572726F72456D61696C496E636C756465506179
X 6C6F61643E545255453C2F53757070726573734572726F7245
X 6D61696C496E636C7564655061796C6F61643E3C2F4170706C
X 69636174696F6E4E616D653E3C4170706C69636174696F6E4E
X 616D653E3C6E616D653E4446545F50726F766174696F6E546F
X 457069634D43525F484C375472616E73666F726D4170703C2F
X 6E616D653E3C46726F6D52656365697665723E616E79484C37
X 5365676D656E743C2F46726F6D52656365697665723E3C4175
X 646974496E7075744576656E7446696C746572466C61673E54
X 5255453C2F4175646974496E7075744576656E7446696C7465
X 72466C61673E3C5075626C697368546F53656E646572457665
X 6E7446696C746572466C61673E545255453C2F5075626C6973
X 68546F53656E6465724576656E7446696C746572466C61673E
X 3C4572726F724D73674578706972793E333C2F4572726F724D
X 73674578706972793E3C54465349443E3536303834333C2F54
X 465349443E3C48747470456E64506F696E743E4E2F413C2F48
X 747470456E64506F696E743E3C416B616E61546F6B656E3E4E
X 2F413C2F416B616E61546F6B656E3E3C537570706F72744C69
X 6E6B3E4E2F413C2F537570706F72744C696E6B3E3C53757070
X 726573734572726F724C6F673E545255453C2F537570707265
X 73734572726F724C6F673E3C53757070726573734572726F72
X 546578743E4E2F413C2F53757070726573734572726F725465
X 78743E3C53757070726573734572726F72456D61696C3E4641
X 4C53453C2F53757070726573734572726F72456D61696C3E3C
X 53757070726573734572726F72456D61696C41646472657373
X 3E4E2F413C2F53757070726573734572726F72456D61696C41
X 6464726573733E3C53757070726573734572726F72456D6169
X 6C5375626A6563743E4E2F413C2F5375707072657373457272
X 6F72456D61696C5375626A6563743E3C537570707265737345
X 72726F72456D61696C426F64793E4E2F413C2F537570707265
X 73734572726F72456D61696C426F64793E3C53757070726573
X 734572726F72456D61696C496E636C7564655061796C6F6164
X 3E545255453C2F53757070726573734572726F72456D61696C
X 496E636C7564655061796C6F61643E3C2F4170706C69636174
X 696F6E4E616D653E3C4170706C69636174696F6E4E616D653E
X 3C6E616D653E4D464E5F45706963546F4F7074756D43616350
X 726F5F484C375472616E73666F726D4170703C2F6E616D653E
X 3C46726F6D52656365697665723E616E79484C375365676D65
X 6E743C2F46726F6D52656365697665723E3C4175646974496E
X 7075744576656E7446696C746572466C61673E545255453C2F
X 4175646974496E7075744576656E7446696C746572466C6167
X 3E3C5075626C697368546F53656E6465724576656E7446696C
X 746572466C61673E545255453C2F5075626C697368546F5365
X 6E6465724576656E7446696C746572466C61673E3C4572726F
X 724D73674578706972793E333C2F4572726F724D7367457870
X 6972793E3C54465349443E3234353032393C2F54465349443E
X 3C48747470456E64506F696E743E4E2F413C2F48747470456E
X 64506F696E743E3C416B616E61546F6B656E3E4E2F413C2F41
X 6B616E61546F6B656E3E3C537570706F72744C696E6B3E4E2F
X 413C2F537570706F72744C696E6B3E3C537570707265737345
X 72726F724C6F673E545255453C2F5375707072657373457272
X 6F724C6F673E3C53757070726573734572726F72546578743E
X 4E2F413C2F53757070726573734572726F72546578743E3C53
X 757070726573734572726F72456D61696C3E46414C53453C2F
X 53757070726573734572726F72456D61696C3E3C5375707072
X 6573734572726F72456D61696C416464726573733E4E2F413C
X 2F53757070726573734572726F72456D61696C416464726573
X 733E3C53757070726573734572726F72456D61696C5375626A
X 6563743E4E2F413C2F53757070726573734572726F72456D61
X 696C5375626A6563743E3C53757070726573734572726F7245
X 6D61696C426F64793E4E2F413C2F5375707072657373457272
X 6F72456D61696C426F64793E3C53757070726573734572726F
X 72456D61696C496E636C7564655061796C6F61643E54525545
X 3C2F53757070726573734572726F72456D61696C496E636C75
X 64655061796C6F61643E3C2F4170706C69636174696F6E4E61
X 6D653E3C4170706C69636174696F6E4E616D653E3C6E616D65
X 3E4F52555F45706963546F4F7074756D436163456E745F484C
X 375472616E734170703C2F6E616D653E3C46726F6D52656365
X 697665723E616E79484C375365676D656E743C2F46726F6D52
X 656365697665723E3C4175646974496E7075744576656E7446
X 696C746572466C61673E545255453C2F4175646974496E7075
X 744576656E7446696C746572466C61673E3C5075626C697368
X 546F53656E6465724576656E7446696C746572466C61673E54
X 5255453C2F5075626C697368546F53656E6465724576656E74
X 46696C746572466C61673E3C4572726F724D73674578706972
X 793E333C2F4572726F724D73674578706972793E3C54465349
X 443E3138333838333C2F54465349443E3C48747470456E6450
X 6F696E743E4E2F413C2F48747470456E64506F696E743E3C41
X 6B616E61546F6B656E3E4E2F413C2F416B616E61546F6B656E
X 3E3C537570706F72744C696E6B3E4E2F413C2F537570706F72
X 744C696E6B3E3C53757070726573734572726F724C6F673E54
X 5255453C2F53757070726573734572726F724C6F673E3C5375
X 7070726573734572726F72546578743E4E2F413C2F53757070
X 726573734572726F72546578743E3C53757070726573734572
X 726F72456D61696C3E46414C53453C2F537570707265737345
X 72726F72456D61696C3E3C53757070726573734572726F7245
X 6D61696C416464726573733E4E2F413C2F5375707072657373
X 4572726F72456D61696C416464726573733E3C537570707265
X 73734572726F72456D61696C5375626A6563743E4E2F413C2F
X 53757070726573734572726F72456D61696C5375626A656374
X 3E3C53757070726573734572726F72456D61696C426F64793E
X 4E2F413C2F53757070726573734572726F72456D61696C426F
X 64793E3C53757070726573734572726F72456D61696C496E63
X 6C7564655061796C6F61643E545255453C2F53757070726573
X 734572726F72456D61696C496E636C7564655061796C6F6164
X 3E3C2F4170706C69636174696F6E4E616D653E3C4170706C69
X 636174696F6E4E616D653E3C6E616D653E5349555F45706963
X 546F45494D535F484C375472616E73666F726D4170703C2F6E
X 616D653E3C46726F6D52656365697665723E616E79484C3753
X 65676D656E743C2F46726F6D52656365697665723E3C417564
X 6974496E7075744576656E7446696C746572466C61673E5452
X 55453C2F4175646974496E7075744576656E7446696C746572
X 466C61673E3C5075626C697368546F53656E6465724576656E
X 7446696C746572466C61673E545255453C2F5075626C697368
X 546F53656E6465724576656E7446696C746572466C61673E3C
X 4572726F724D73674578706972793E333C2F4572726F724D73
X 674578706972793E3C54465349443E3333383633313C2F5446
X 5349443E3C48747470456E64506F696E743E4E2F413C2F4874
X 7470456E64506F696E743E3C416B616E61546F6B656E3E4E2F
X 413C2F416B616E61546F6B656E3E3C537570706F72744C696E
X 6B3E4E2F413C2F537570706F72744C696E6B3E3C5375707072
X 6573734572726F724C6F673E545255453C2F53757070726573
X 734572726F724C6F673E3C53757070726573734572726F7254
X 6578743E4E2F413C2F53757070726573734572726F72546578
X 743E3C53757070726573734572726F72456D61696C3E46414C
X 53453C2F53757070726573734572726F72456D61696C3E3C53
X 757070726573734572726F72456D61696C416464726573733E
X 4E2F413C2F53757070726573734572726F72456D61696C4164
X 64726573733E3C53757070726573734572726F72456D61696C
X 5375626A6563743E4E2F413C2F53757070726573734572726F
X 72456D61696C5375626A6563743E3C53757070726573734572
X 726F72456D61696C426F64793E4E2F413C2F53757070726573
X 734572726F72456D61696C426F64793E3C5375707072657373
X 4572726F72456D61696C496E636C7564655061796C6F61643E
X 545255453C2F53757070726573734572726F72456D61696C49
X 6E636C7564655061796C6F61643E3C2F4170706C6963617469
X 6F6E4E616D653E3C4170706C69636174696F6E4E616D653E3C
X 6E616D653E4144545F4745546F4D697274685F484C37547261
X 6E73666F726D4170703C2F6E616D653E3C46726F6D52656365
X 697665723E616E79484C375365676D656E743C2F46726F6D52
X 656365697665723E3C4175646974496E7075744576656E7446
X 696C746572466C61673E545255453C2F4175646974496E7075
X 744576656E7446696C746572466C61673E3C5075626C697368
X 546F53656E6465724576656E7446696C746572466C61673E54
X 5255453C2F5075626C697368546F53656E6465724576656E74
X 46696C746572466C61673E3C4572726F724D73674578706972
X 793E333C2F4572726F724D73674578706972793E3C54465349
X 443E3439363932313C2F54465349443E3C48747470456E6450
X 6F696E743E4E2F413C2F48747470456E64506F696E743E3C41
X 6B616E61546F6B656E3E4E2F413C2F416B616E61546F6B656E
X 3E3C537570706F72744C696E6B3E4E2F413C2F537570706F72
X 744C696E6B3E3C53757070726573734572726F724C6F673E54
X 5255453C2F53757070726573734572726F724C6F673E3C5375
X 7070726573734572726F72546578743E4E2F413C2F53757070
X 726573734572726F72546578743E3C53757070726573734572
X 726F72456D61696C3E46414C53453C2F537570707265737345
X 72726F72456D61696C3E3C53757070726573734572726F7245
X 6D61696C416464726573733E4E2F413C2F5375707072657373
X 4572726F72456D61696C416464726573733E3C537570707265
X 73734572726F72456D61696C5375626A6563743E4E2F413C2F
X 53757070726573734572726F72456D61696C5375626A656374
X 3E3C53757070726573734572726F72456D61696C426F64793E
X 4E2F413C2F53757070726573734572726F72456D61696C426F
X 64793E3C53757070726573734572726F72456D61696C496E63
X 6C7564655061796C6F61643E545255453C2F53757070726573
X 734572726F72456D61696C496E636C7564655061796C6F6164
X 3E3C2F4170706C69636174696F6E4E616D653E3C4170706C69
X 636174696F6E4E616D653E3C6E616D653E5658555F4F434D54
X 6F457069635F484C375472616E73666F726D4170703C2F6E61
X 6D653E3C46726F6D52656365697665723E616E79484C375365
X 676D656E743C2F46726F6D52656365697665723E3C41756469
X 74496E7075744576656E7446696C746572466C61673E545255
X 453C2F4175646974496E7075744576656E7446696C74657246
X 6C61673E3C5075626C697368546F53656E6465724576656E74
X 46696C746572466C61673E545255453C2F5075626C69736854
X 6F53656E6465724576656E7446696C746572466C61673E3C45
X 72726F724D73674578706972793E333C2F4572726F724D7367
X 4578706972793E3C54465349443E313931353033303C2F5446
X 5349443E3C48747470456E64506F696E743E4E2F413C2F4874
X 7470456E64506F696E743E3C416B616E61546F6B656E3E4E2F
X 413C2F416B616E61546F6B656E3E3C537570706F72744C696E
X 6B3E4E2F413C2F537570706F72744C696E6B3E3C5375707072
X 6573734572726F724C6F673E545255453C2F53757070726573
X 734572726F724C6F673E3C53757070726573734572726F7254
X 6578743E4E2F413C2F53757070726573734572726F72546578
X 743E3C53757070726573734572726F72456D61696C3E46414C
X 53453C2F53757070726573734572726F72456D61696C3E3C53
X 757070726573734572726F72456D61696C416464726573733E
X 4E2F413C2F53757070726573734572726F72456D61696C4164
X 64726573733E3C53757070726573734572726F72456D61696C
X 5375626A6563743E4E2F413C2F53757070726573734572726F
X 72456D61696C5375626A6563743E3C53757070726573734572
X 726F72456D61696C426F64793E4E2F413C2F53757070726573
X 734572726F72456D61696C426F64793E3C5375707072657373
X 4572726F72456D61696C496E636C7564655061796C6F61643E
X 545255453C2F53757070726573734572726F72456D61696C49
X 6E636C7564655061796C6F61643E3C2F4170706C6963617469
X 6F6E4E616D653E3C4170706C69636174696F6E4E616D653E3C
X 6E616D653E4144545F45706963546F504F4C535F484C375472
X 616E73666F726D4170703C2F6E616D653E3C46726F6D526563
X 65697665723E616E79484C375365676D656E743C2F46726F6D
X 52656365697665723E3C4175646974496E7075744576656E74
X 46696C746572466C61673E545255453C2F4175646974496E70
X 75744576656E7446696C746572466C61673E3C5075626C6973
X 68546F53656E6465724576656E7446696C746572466C61673E
X 545255453C2F5075626C697368546F53656E6465724576656E
X 7446696C746572466C61673E3C4572726F724D736745787069
X 72793E333C2F4572726F724D73674578706972793E3C544653
X 49443E313830373036393C2F54465349443E3C48747470456E
X 64506F696E743E4E2F413C2F48747470456E64506F696E743E
X 3C416B616E61546F6B656E3E4E2F413C2F416B616E61546F6B
X 656E3E3C537570706F72744C696E6B3E4E2F413C2F53757070
X 6F72744C696E6B3E3C53757070726573734572726F724C6F67
X 3E545255453C2F53757070726573734572726F724C6F673E3C
X 53757070726573734572726F72546578743E4E2F413C2F5375
X 7070726573734572726F72546578743E3C5375707072657373
X 4572726F72456D61696C3E46414C53453C2F53757070726573
X 734572726F72456D61696C3E3C53757070726573734572726F
X 72456D61696C416464726573733E4E2F413C2F537570707265
X 73734572726F72456D61696C416464726573733E3C53757070
X 726573734572726F72456D61696C5375626A6563743E4E2F41
X 3C2F53757070726573734572726F72456D61696C5375626A65
X 63743E3C53757070726573734572726F72456D61696C426F64
X 793E4E2F413C2F53757070726573734572726F72456D61696C
X 426F64793E3C53757070726573734572726F72456D61696C49
X 6E636C7564655061796C6F61643E545255453C2F5375707072
X 6573734572726F72456D61696C496E636C7564655061796C6F
X 61643E3C2F4170706C69636174696F6E4E616D653E3C417070
X 6C69636174696F6E4E616D653E3C6E616D653E4D464E5F4365
X 6E736974726163546F457069635F484C375472616E73666F72
X 6D4170703C2F6E616D653E3C46726F6D52656365697665723E
X 616E79484C375365676D656E743C2F46726F6D526563656976
X 65723E3C4175646974496E7075744576656E7446696C746572
X 466C61673E545255453C2F4175646974496E7075744576656E
X 7446696C746572466C61673E3C5075626C697368546F53656E
X 6465724576656E7446696C746572466C61673E545255453C2F
X 5075626C697368546F53656E6465724576656E7446696C7465
X 72466C61673E3C4572726F724D73674578706972793E333C2F
X 4572726F724D73674578706972793E3C54465349443E4E2F41
X 3C2F54465349443E3C48747470456E64506F696E743E4E2F41
X 3C2F48747470456E64506F696E743E3C416B616E61546F6B65
X 6E3E4E2F413C2F416B616E61546F6B656E3E3C537570706F72
X 744C696E6B3E4E2F413C2F537570706F72744C696E6B3E3C53
X 757070726573734572726F724C6F673E545255453C2F537570
X 70726573734572726F724C6F673E3C53757070726573734572
X 726F72546578743E4E2F413C2F53757070726573734572726F
X 72546578743E3C53757070726573734572726F72456D61696C
X 3E46414C53453C2F53757070726573734572726F72456D6169
X 6C3E3C53757070726573734572726F72456D61696C41646472
X 6573733E4E2F413C2F53757070726573734572726F72456D61
X 696C416464726573733E3C53757070726573734572726F7245
X 6D61696C5375626A6563743E4E2F413C2F5375707072657373
X 4572726F72456D61696C5375626A6563743E3C537570707265
X 73734572726F72456D61696C426F64793E4E2F413C2F537570
X 70726573734572726F72456D61696C426F64793E3C53757070
X 726573734572726F72456D61696C496E636C7564655061796C
X 6F61643E545255453C2F53757070726573734572726F72456D
X 61696C496E636C7564655061796C6F61643E3C2F4170706C69
X 636174696F6E4E616D653E3C4170706C69636174696F6E4E61
X 6D653E3C6E616D653E5349555F45706963546F536869656C64
X 536F61705F484C375472616E73666F726D4170703C2F6E616D
X 653E3C46726F6D52656365697665723E616E79484C37536567
X 6D656E743C2F46726F6D52656365697665723E3C4175646974
X 496E7075744576656E7446696C746572466C61673E54525545
X 3C2F4175646974496E7075744576656E7446696C746572466C
X 61673E3C5075626C697368546F53656E6465724576656E7446
X 696C746572466C61673E545255453C2F5075626C697368546F
X 53656E6465724576656E7446696C746572466C61673E3C4572
X 726F724D73674578706972793E333C2F4572726F724D736745
X 78706972793E3C54465349443E313937353539393C2F544653
X 49443E3C48747470456E64506F696E743E687474703A2F2F63
X 6C7764303030323436322F57656253657276696365732F5368
X 69656C642F536869656C64536572766963652F536869656C64
X 536572766963652E7376632F736F61703C2F48747470456E64
X 506F696E743E3C416B616E61546F6B656E3E4E2F413C2F416B
X 616E61546F6B656E3E3C537570706F72744C696E6B3E4E2F41
X 3C2F537570706F72744C696E6B3E3C53757070726573734572
X 726F724C6F673E545255453C2F53757070726573734572726F
X 724C6F673E3C53757070726573734572726F72546578743E4E
X 2F413C2F53757070726573734572726F72546578743E3C5375
X 7070726573734572726F72456D61696C3E46414C53453C2F53
X 757070726573734572726F72456D61696C3E3C537570707265
X 73734572726F72456D61696C416464726573733E4E2F413C2F
X 53757070726573734572726F72456D61696C41646472657373
X 3E3C53757070726573734572726F72456D61696C5375626A65
X 63743E4E2F413C2F53757070726573734572726F72456D6169
X 6C5375626A6563743E3C53757070726573734572726F72456D
X 61696C426F64793E4E2F413C2F53757070726573734572726F
X 72456D61696C426F64793E3C53757070726573734572726F72
X 456D61696C496E636C7564655061796C6F61643E545255453C
X 2F53757070726573734572726F72456D61696C496E636C7564
X 655061796C6F61643E3C2F4170706C69636174696F6E4E616D
X 653E3C4170706C69636174696F6E4E616D653E3C6E616D653E
X 4144545F45706963546F494D53555F484C375472616E73666F
X 726D4170703C2F6E616D653E3C46726F6D5265636569766572
X 3E616E79484C375365676D656E743C2F46726F6D5265636569
X 7665723E3C4175646974496E7075744576656E7446696C7465
X 72466C61673E545255453C2F4175646974496E707574457665
X 6E7446696C746572466C61673E3C5075626C697368546F5365
X 6E6465724576656E7446696C746572466C61673E545255453C
X 2F5075626C697368546F53656E6465724576656E7446696C74
X 6572466C61673E3C4572726F724D73674578706972793E333C
X 2F4572726F724D73674578706972793E3C54465349443E3231
X 32363131383C2F54465349443E3C48747470456E64506F696E
X 743E4E2F413C2F48747470456E64506F696E743E3C416B616E
X 61546F6B656E3E4E2F413C2F416B616E61546F6B656E3E3C53
X 7570706F72744C696E6B3E4E2F413C2F537570706F72744C69
X 6E6B3E3C53757070726573734572726F724C6F673E54525545
X 3C2F53757070726573734572726F724C6F673E3C5375707072
X 6573734572726F72546578743E4E2F413C2F53757070726573
X 734572726F72546578743E3C53757070726573734572726F72
X 456D61696C3E46414C53453C2F53757070726573734572726F
X 72456D61696C3E3C53757070726573734572726F72456D6169
X 6C416464726573733E4E2F413C2F5375707072657373457272
X 6F72456D61696C416464726573733E3C537570707265737345
X 72726F72456D61696C5375626A6563743E4E2F413C2F537570
X 70726573734572726F72456D61696C5375626A6563743E3C53
X 757070726573734572726F72456D61696C426F64793E4E2F41
X 3C2F53757070726573734572726F72456D61696C426F64793E
X 3C53757070726573734572726F72456D61696C496E636C7564
X 655061796C6F61643E545255453C2F53757070726573734572
X 726F72456D61696C496E636C7564655061796C6F61643E3C2F
X 4170706C69636174696F6E4E616D653E3C4170706C69636174
X 696F6E4E616D653E3C6E616D653E4D464E5F496E666F726D61
X 74696361546F534343536F66745F484C375472616E73666F72
X 6D4170703C2F6E616D653E3C46726F6D52656365697665723E
X 616E79484C375365676D656E743C2F46726F6D526563656976
X 65723E3C4175646974496E7075744576656E7446696C746572
X 466C61673E545255453C2F4175646974496E7075744576656E
X 7446696C746572466C61673E3C5075626C697368546F53656E
X 6465724576656E7446696C746572466C61673E545255453C2F
X 5075626C697368546F53656E6465724576656E7446696C7465
X 72466C61673E3C4572726F724D73674578706972793E333C2F
X 4572726F724D73674578706972793E3C54465349443E4E2F41
X 3C2F54465349443E3C48747470456E64506F696E743E4E2F41
X 3C2F48747470456E64506F696E743E3C416B616E61546F6B65
X 6E3E4E2F413C2F416B616E61546F6B656E3E3C537570706F72
X 744C696E6B3E4E2F413C2F537570706F72744C696E6B3E3C53
X 757070726573734572726F724C6F673E545255453C2F537570
X 70726573734572726F724C6F673E3C53757070726573734572
X 726F72546578743E4E2F413C2F53757070726573734572726F
X 72546578743E3C53757070726573734572726F72456D61696C
X 3E46414C53453C2F53757070726573734572726F72456D6169
X 6C3E3C53757070726573734572726F72456D61696C41646472
X 6573733E4E2F413C2F53757070726573734572726F72456D61
X 696C416464726573733E3C53757070726573734572726F7245
X 6D61696C5375626A6563743E4E2F413C2F5375707072657373
X 4572726F72456D61696C5375626A6563743E3C537570707265
X 73734572726F72456D61696C426F64793E4E2F413C2F537570
X 70726573734572726F72456D61696C426F64793E3C53757070
X 726573734572726F72456D61696C496E636C7564655061796C
X 6F61643E545255453C2F53757070726573734572726F72456D
X 61696C496E636C7564655061796C6F61643E3C2F4170706C69
X 636174696F6E4E616D653E3C4170706C69636174696F6E4E61
X 6D653E3C6E616D653E4F524D5F45706963546F43626F726447
X 6C75636F73655F484C375472616E73666F726D4170703C2F6E
X 616D653E3C46726F6D52656365697665723E616E79484C3753
X 65676D656E743C2F46726F6D52656365697665723E3C417564
X 6974496E7075744576656E7446696C746572466C61673E5452
X 55453C2F4175646974496E7075744576656E7446696C746572
X 466C61673E3C5075626C697368546F53656E6465724576656E
X 7446696C746572466C61673E545255453C2F5075626C697368
X 546F53656E6465724576656E7446696C746572466C61673E3C
X 4572726F724D73674578706972793E333C2F4572726F724D73
X 674578706972793E3C54465349443E323238383139333C2F54
X 465349443E3C48747470456E64506F696E743E4E2F413C2F48
X 747470456E64506F696E743E3C416B616E61546F6B656E3E4E
X 2F413C2F416B616E61546F6B656E3E3C537570706F72744C69
X 6E6B3E4E2F413C2F537570706F72744C696E6B3E3C53757070
X 726573734572726F724C6F673E545255453C2F537570707265
X 73734572726F724C6F673E3C53757070726573734572726F72
X 546578743E4E2F413C2F53757070726573734572726F725465
X 78743E3C53757070726573734572726F72456D61696C3E4641
X 4C53453C2F53757070726573734572726F72456D61696C3E3C
X 53757070726573734572726F72456D61696C41646472657373
X 3E4E2F413C2F53757070726573734572726F72456D61696C41
X 6464726573733E3C53757070726573734572726F72456D6169
X 6C5375626A6563743E4E2F413C2F5375707072657373457272
X 6F72456D61696C5375626A6563743E3C537570707265737345
X 72726F72456D61696C426F64793E4E2F413C2F537570707265
X 73734572726F72456D61696C426F64793E3C53757070726573
X 734572726F72456D61696C496E636C7564655061796C6F6164
X 3E545255453C2F53757070726573734572726F72456D61696C
X 496E636C7564655061796C6F61643E3C2F4170706C69636174
X 696F6E4E616D653E3C4170706C69636174696F6E4E616D653E
X 3C6E616D653E4130385F45706963546F4D494441535F484C37
X 5472616E73666F726D4170703C2F6E616D653E3C46726F6D52
X 656365697665723E616E79484C375365676D656E743C2F4672
X 6F6D52656365697665723E3C4175646974496E707574457665
X 6E7446696C746572466C61673E545255453C2F417564697449
X 6E7075744576656E7446696C746572466C61673E3C5075626C
X 697368546F53656E6465724576656E7446696C746572466C61
X 673E545255453C2F5075626C697368546F53656E6465724576
X 656E7446696C746572466C61673E3C4572726F724D73674578
X 706972793E343C2F4572726F724D73674578706972793E3C54
X 465349443E3338353338363C2F54465349443E3C4874747045
X 6E64506F696E743E4E2F413C2F48747470456E64506F696E74
X 3E3C416B616E61546F6B656E3E4E2F413C2F416B616E61546F
X 6B656E3E3C537570706F72744C696E6B3E4E2F413C2F537570
X 706F72744C696E6B3E3C53757070726573734572726F724C6F
X 673E545255453C2F53757070726573734572726F724C6F673E
X 3C53757070726573734572726F72546578743E4E2F413C2F53
X 757070726573734572726F72546578743E3C53757070726573
X 734572726F72456D61696C3E46414C53453C2F537570707265
X 73734572726F72456D61696C3E3C5375707072657373457272
X 6F72456D61696C416464726573733E4E2F413C2F5375707072
X 6573734572726F72456D61696C416464726573733E3C537570
X 70726573734572726F72456D61696C5375626A6563743E4E2F
X 413C2F53757070726573734572726F72456D61696C5375626A
X 6563743E3C53757070726573734572726F72456D61696C426F
X 64793E4E2F413C2F53757070726573734572726F72456D6169
X 6C426F64793E3C53757070726573734572726F72456D61696C
X 496E636C7564655061796C6F61643E545255453C2F53757070
X 726573734572726F72456D61696C496E636C7564655061796C
X 6F61643E3C2F4170706C69636174696F6E4E616D653E3C4170
X 706C69636174696F6E4E616D653E3C6E616D653E4144545F45
X 706963546F45445341535F484C375472616E73666F726D4170
X 703C2F6E616D653E3C46726F6D52656365697665723E616E79
X 484C375365676D656E743C2F46726F6D52656365697665723E
X 3C4175646974496E7075744576656E7446696C746572466C61
X 673E545255453C2F4175646974496E7075744576656E744669
X 6C746572466C61673E3C5075626C697368546F53656E646572
X 4576656E7446696C746572466C61673E545255453C2F507562
X 6C697368546F53656E6465724576656E7446696C746572466C
X 61673E3C4572726F724D73674578706972793E333C2F457272
X 6F724D73674578706972793E3C54465349443E363939383136
X 3C2F54465349443E3C48747470456E64506F696E743E4E2F41
X 3C2F48747470456E64506F696E743E3C416B616E61546F6B65
X 6E3E4E2F413C2F416B616E61546F6B656E3E3C537570706F72
X 744C696E6B3E4E2F413C2F537570706F72744C696E6B3E3C53
X 757070726573734572726F724C6F673E545255453C2F537570
X 70726573734572726F724C6F673E3C53757070726573734572
X 726F72546578743E4E2F413C2F53757070726573734572726F
X 72546578743E3C53757070726573734572726F72456D61696C
X 3E46414C53453C2F53757070726573734572726F72456D6169
X 6C3E3C53757070726573734572726F72456D61696C41646472
X 6573733E4E2F413C2F53757070726573734572726F72456D61
X 696C416464726573733E3C53757070726573734572726F7245
X 6D61696C5375626A6563743E4E2F413C2F5375707072657373
X 4572726F72456D61696C5375626A6563743E3C537570707265
X 73734572726F72456D61696C426F64793E4E2F413C2F537570
X 70726573734572726F72456D61696C426F64793E3C53757070
X 726573734572726F72456D61696C496E636C7564655061796C
X 6F61643E545255453C2F53757070726573734572726F72456D
X 61696C496E636C7564655061796C6F61643E3C2F4170706C69
X 636174696F6E4E616D653E3C4170706C69636174696F6E4E61
X 6D653E3C6E616D653E4F524D5F45706963546F416375697479
X 506C75735F484C375472616E73666F726D4170703C2F6E616D
X 653E3C46726F6D52656365697665723E616E79484C37536567
X 6D656E743C2F46726F6D52656365697665723E3C4175646974
X 496E7075744576656E7446696C746572466C61673E54525545
X 3C2F4175646974496E7075744576656E7446696C746572466C
X 61673E3C5075626C697368546F53656E6465724576656E7446
X 696C746572466C61673E545255453C2F5075626C697368546F
X 53656E6465724576656E7446696C746572466C61673E3C4572
X 726F724D73674578706972793E333C2F4572726F724D736745
X 78706972793E3C54465349443E4E2F413C2F54465349443E3C
X 48747470456E64506F696E743E4E2F413C2F48747470456E64
X 506F696E743E3C416B616E61546F6B656E3E4E2F413C2F416B
X 616E61546F6B656E3E3C537570706F72744C696E6B3E4E2F41
X 3C2F537570706F72744C696E6B3E3C53757070726573734572
X 726F724C6F673E545255453C2F53757070726573734572726F
X 724C6F673E3C53757070726573734572726F72546578743E53
X 656E64657220546F706963204E6F7420466F756E643C2F5375
X 7070726573734572726F72546578743E3C5375707072657373
X 4572726F72456D61696C3E545255453C2F5375707072657373
X 4572726F72456D61696C3E3C53757070726573734572726F72
X 456D61696C416464726573733E68696C6C65736865696D2E6D
X 617474686577406D61796F2E6564753C2F5375707072657373
X 4572726F72456D61696C416464726573733E3C537570707265
X 73734572726F72456D61696C5375626A6563743E4E2F413C2F
X 53757070726573734572726F72456D61696C5375626A656374
X 3E3C53757070726573734572726F72456D61696C426F64793E
X 4E2F413C2F53757070726573734572726F72456D61696C426F
X 64793E3C53757070726573734572726F72456D61696C496E63
X 6C7564655061796C6F61643E545255453C2F53757070726573
X 734572726F72456D61696C496E636C7564655061796C6F6164
X 3E3C2F4170706C69636174696F6E4E616D653E3C4170706C69
X 636174696F6E4E616D653E3C6E616D653E4144545F45504943
X 546F524C534F4C5F484C375472616E73666F726D4170703C2F
X 6E616D653E3C46726F6D52656365697665723E616E79484C37
X 5365676D656E743C2F46726F6D52656365697665723E3C4175
X 646974496E7075744576656E7446696C746572466C61673E54
X 5255453C2F4175646974496E7075744576656E7446696C7465
X 72466C61673E3C5075626C697368546F53656E646572457665
X 6E7446696C746572466C61673E545255453C2F5075626C6973
X 68546F53656E6465724576656E7446696C746572466C61673E
X 3C4572726F724D73674578706972793E333C2F4572726F724D
X 73674578706972793E3C54465349443E313839303039393C2F
X 54465349443E3C48747470456E64506F696E743E4E2F413C2F
X 48747470456E64506F696E743E3C416B616E61546F6B656E3E
X 4E2F413C2F416B616E61546F6B656E3E3C537570706F72744C
X 696E6B3E4E2F413C2F537570706F72744C696E6B3E3C537570
X 70726573734572726F724C6F673E545255453C2F5375707072
X 6573734572726F724C6F673E3C53757070726573734572726F
X 72546578743E4E2F413C2F53757070726573734572726F7254
X 6578743E3C53757070726573734572726F72456D61696C3E46
X 414C53453C2F53757070726573734572726F72456D61696C3E
X 3C53757070726573734572726F72456D61696C416464726573
X 733E4E2F413C2F53757070726573734572726F72456D61696C
X 416464726573733E3C53757070726573734572726F72456D61
X 696C5375626A6563743E4E2F413C2F53757070726573734572
X 726F72456D61696C5375626A6563743E3C5375707072657373
X 4572726F72456D61696C426F64793E4E2F413C2F5375707072
X 6573734572726F72456D61696C426F64793E3C537570707265
X 73734572726F72456D61696C496E636C7564655061796C6F61
X 643E545255453C2F53757070726573734572726F72456D6169
X 6C496E636C7564655061796C6F61643E3C2F4170706C696361
X 74696F6E4E616D653E3C4170706C69636174696F6E4E616D65
X 3E3C6E616D653E4F524D5F45706963546F536C656570576F72
X 6B735F484C375472616E73666F726D4170703C2F6E616D653E
X 3C46726F6D52656365697665723E616E79484C375365676D65
X 6E743C2F46726F6D52656365697665723E3C4175646974496E
X 7075744576656E7446696C746572466C61673E545255453C2F
X 4175646974496E7075744576656E7446696C746572466C6167
X 3E3C5075626C697368546F53656E6465724576656E7446696C
X 746572466C61673E545255453C2F5075626C697368546F5365
X 6E6465724576656E7446696C746572466C61673E3C4572726F
X 724D73674578706972793E333C2F4572726F724D7367457870
X 6972793E3C54465349443E323134303131363C2F5446534944
X 3E3C48747470456E64506F696E743E4E2F413C2F4874747045
X 6E64506F696E743E3C416B616E61546F6B656E3E4E2F413C2F
X 416B616E61546F6B656E3E3C537570706F72744C696E6B3E4E
X 2F413C2F537570706F72744C696E6B3E3C5375707072657373
X 4572726F724C6F673E545255453C2F53757070726573734572
X 726F724C6F673E3C53757070726573734572726F7254657874
X 3E4E2F413C2F53757070726573734572726F72546578743E3C
X 53757070726573734572726F72456D61696C3E46414C53453C
X 2F53757070726573734572726F72456D61696C3E3C53757070
X 726573734572726F72456D61696C416464726573733E4E2F41
X 3C2F53757070726573734572726F72456D61696C4164647265
X 73733E3C53757070726573734572726F72456D61696C537562
X 6A6563743E4E2F413C2F53757070726573734572726F72456D
X 61696C5375626A6563743E3C53757070726573734572726F72
X 456D61696C426F64793E4E2F413C2F53757070726573734572
X 726F72456D61696C426F64793E3C5375707072657373457272
X 6F72456D61696C496E636C7564655061796C6F61643E545255
X 453C2F53757070726573734572726F72456D61696C496E636C
X 7564655061796C6F61643E3C2F4170706C69636174696F6E4E
X 616D653E3C4170706C69636174696F6E4E616D653E3C6E616D
X 653E4144545F45706963546F4163756974795F484C37547261
X 6E73666F726D4170703C2F6E616D653E3C46726F6D52656365
X 697665723E616E79484C375365676D656E743C2F46726F6D52
X 656365697665723E3C4175646974496E7075744576656E7446
X 696C746572466C61673E545255453C2F4175646974496E7075
X 744576656E7446696C746572466C61673E3C5075626C697368
X 546F53656E6465724576656E7446696C746572466C61673E54
X 5255453C2F5075626C697368546F53656E6465724576656E74
X 46696C746572466C61673E3C4572726F724D73674578706972
X 793E333C2F4572726F724D73674578706972793E3C54465349
X 443E3233343732303C2F54465349443E3C48747470456E6450
X 6F696E743E4E2F413C2F48747470456E64506F696E743E3C41
X 6B616E61546F6B656E3E4E2F413C2F416B616E61546F6B656E
X 3E3C537570706F72744C696E6B3E4E2F413C2F537570706F72
X 744C696E6B3E3C53757070726573734572726F724C6F673E54
X 5255453C2F53757070726573734572726F724C6F673E3C5375
X 7070726573734572726F72546578743E416E206572726F7220
X 6F63637572726564207768696C73742073657269616C697A69
X 6E672077697468204446444C3C2F5375707072657373457272
X 6F72546578743E3C53757070726573734572726F72456D6169
X 6C3E545255453C2F53757070726573734572726F72456D6169
X 6C3E3C53757070726573734572726F72456D61696C41646472
X 6573733E68696C6C65736865696D2E6D617474686577406D61
X 796F2E6564753C2F53757070726573734572726F72456D6169
X 6C416464726573733E3C53757070726573734572726F72456D
X 61696C5375626A6563743E4E2F413C2F537570707265737345
X 72726F72456D61696C5375626A6563743E3C53757070726573
X 734572726F72456D61696C426F64793E4E2F413C2F53757070
X 726573734572726F72456D61696C426F64793E3C5375707072
X 6573734572726F72456D61696C496E636C7564655061796C6F
X 61643E545255453C2F53757070726573734572726F72456D61
X 696C496E636C7564655061796C6F61643E3C2F4170706C6963
X 6174696F6E4E616D653E3C4170706C69636174696F6E4E616D
X 653E3C6E616D653E4144545F45706963546F4163756974794D
X 43525F484C375472616E73666F726D4170703C2F6E616D653E
X 3C46726F6D52656365697665723E616E79484C375365676D65
X 6E743C2F46726F6D52656365697665723E3C4175646974496E
X 7075744576656E7446696C746572466C61673E545255453C2F
X 4175646974496E7075744576656E7446696C746572466C6167
X 3E3C5075626C697368546F53656E6465724576656E7446696C
X 746572466C61673E545255453C2F5075626C697368546F5365
X 6E6465724576656E7446696C746572466C61673E3C4572726F
X 724D73674578706972793E333C2F4572726F724D7367457870
X 6972793E3C54465349443E3535383837333C2F54465349443E
X 3C48747470456E64506F696E743E4E2F413C2F48747470456E
X 64506F696E743E3C416B616E61546F6B656E3E4E2F413C2F41
X 6B616E61546F6B656E3E3C537570706F72744C696E6B3E4E2F
X 413C2F537570706F72744C696E6B3E3C537570707265737345
X 72726F724C6F673E545255453C2F5375707072657373457272
X 6F724C6F673E3C53757070726573734572726F72546578743E
X 4E2F413C2F53757070726573734572726F72546578743E3C53
X 757070726573734572726F72456D61696C3E46414C53453C2F
X 53757070726573734572726F72456D61696C3E3C5375707072
X 6573734572726F72456D61696C416464726573733E4E2F413C
X 2F53757070726573734572726F72456D61696C416464726573
X 733E3C53757070726573734572726F72456D61696C5375626A
X 6563743E4E2F413C2F53757070726573734572726F72456D61
X 696C5375626A6563743E3C53757070726573734572726F7245
X 6D61696C426F64793E4E2F413C2F5375707072657373457272
X 6F72456D61696C426F64793E3C53757070726573734572726F
X 72456D61696C496E636C7564655061796C6F61643E54525545
X 3C2F53757070726573734572726F72456D61696C496E636C75
X 64655061796C6F61643E3C2F4170706C69636174696F6E4E61
X 6D653E3C4170706C69636174696F6E4E616D653E3C6E616D65
X 3E4144545F45706963546F41494D535F484C375472616E7366
X 6F726D4170703C2F6E616D653E3C46726F6D52656365697665
X 723E616E79484C375365676D656E743C2F46726F6D52656365
X 697665723E3C4175646974496E7075744576656E7446696C74
X 6572466C61673E545255453C2F4175646974496E7075744576
X 656E7446696C746572466C61673E3C5075626C697368546F53
X 656E6465724576656E7446696C746572466C61673E54525545
X 3C2F5075626C697368546F53656E6465724576656E7446696C
X 746572466C61673E3C4572726F724D73674578706972793E33
X 3C2F4572726F724D73674578706972793E3C54465349443E31
X 38323030383C2F54465349443E3C48747470456E64506F696E
X 743E4E2F413C2F48747470456E64506F696E743E3C416B616E
X 61546F6B656E3E4E2F413C2F416B616E61546F6B656E3E3C53
X 7570706F72744C696E6B3E4E2F413C2F537570706F72744C69
X 6E6B3E3C53757070726573734572726F724C6F673E54525545
X 3C2F53757070726573734572726F724C6F673E3C5375707072
X 6573734572726F72546578743E4E2F413C2F53757070726573
X 734572726F72546578743E3C53757070726573734572726F72
X 456D61696C3E46414C53453C2F53757070726573734572726F
X 72456D61696C3E3C53757070726573734572726F72456D6169
X 6C416464726573733E4E2F413C2F5375707072657373457272
X 6F72456D61696C416464726573733E3C537570707265737345
X 72726F72456D61696C5375626A6563743E4E2F413C2F537570
X 70726573734572726F72456D61696C5375626A6563743E3C53
X 757070726573734572726F72456D61696C426F64793E4E2F41
X 3C2F53757070726573734572726F72456D61696C426F64793E
X 3C53757070726573734572726F72456D61696C496E636C7564
X 655061796C6F61643E545255453C2F53757070726573734572
X 726F72456D61696C496E636C7564655061796C6F61643E3C2F
X 4170706C69636174696F6E4E616D653E3C4170706C69636174
X 696F6E4E616D653E3C6E616D653E4144545F45706963546F41
X 6D636F6D5F484C375472616E73666F726D4170703C2F6E616D
X 653E3C46726F6D52656365697665723E616E79484C37536567
X 6D656E743C2F46726F6D52656365697665723E3C4175646974
X 496E7075744576656E7446696C746572466C61673E54525545
X 3C2F4175646974496E7075744576656E7446696C746572466C
X 61673E3C5075626C697368546F53656E6465724576656E7446
X 696C746572466C61673E545255453C2F5075626C697368546F
X 53656E6465724576656E7446696C746572466C61673E3C4572
X 726F724D73674578706972793E333C2F4572726F724D736745
X 78706972793E3C54465349443E3433333133313C2F54465349
X 443E3C48747470456E64506F696E743E4E2F413C2F48747470
X 456E64506F696E743E3C416B616E61546F6B656E3E4E2F413C
X 2F416B616E61546F6B656E3E3C537570706F72744C696E6B3E
X 4E2F413C2F537570706F72744C696E6B3E3C53757070726573
X 734572726F724C6F673E545255453C2F537570707265737345
X 72726F724C6F673E3C53757070726573734572726F72546578
X 743E4E2F413C2F53757070726573734572726F72546578743E
X 3C53757070726573734572726F72456D61696C3E46414C5345
X 3C2F53757070726573734572726F72456D61696C3E3C537570
X 70726573734572726F72456D61696C416464726573733E4E2F
X 413C2F53757070726573734572726F72456D61696C41646472
X 6573733E3C53757070726573734572726F72456D61696C5375
X 626A6563743E4E2F413C2F53757070726573734572726F7245
X 6D61696C5375626A6563743E3C53757070726573734572726F
X 72456D61696C426F64793E4E2F413C2F537570707265737345
X 72726F72456D61696C426F64793E3C53757070726573734572
X 726F72456D61696C496E636C7564655061796C6F61643E5452
X 55453C2F53757070726573734572726F72456D61696C496E63
X 6C7564655061796C6F61643E3C2F4170706C69636174696F6E
X 4E616D653E3C4170706C69636174696F6E4E616D653E3C6E61
X 6D653E4144545F45706963546F43626F72645F484C37547261
X 6E73666F726D4170703C2F6E616D653E3C46726F6D52656365
X 697665723E616E79484C375365676D656E743C2F46726F6D52
X 656365697665723E3C4175646974496E7075744576656E7446
X 696C746572466C61673E545255453C2F4175646974496E7075
X 744576656E7446696C746572466C61673E3C5075626C697368
X 546F53656E6465724576656E7446696C746572466C61673E54
X 5255453C2F5075626C697368546F53656E6465724576656E74
X 46696C746572466C61673E3C4572726F724D73674578706972
X 793E333C2F4572726F724D73674578706972793E3C54465349
X 443E3139343834353C2F54465349443E3C48747470456E6450
X 6F696E743E4E2F413C2F48747470456E64506F696E743E3C41
X 6B616E61546F6B656E3E4E2F413C2F416B616E61546F6B656E
X 3E3C537570706F72744C696E6B3E266C743B6120687265663D
X 2661706F733B68747470733A2F2F636F6C6C61622E6D61796F
X 2E6564752F7465616D2F506C6174666F726D53657276696365
X 732F456E7465727072697365496E74657266616365732F5F6C
X 61796F7574732F31352F576F70694672616D65322E61737078
X 3F736F75726365646F633D2532467465616D253246506C6174
X 666F726D5365727669636573253246456E7465727072697365
X 496E7465726661636573253246536861726564253230446F63
X 756D656E7473253246456E7465727072697365253230496E74
X 6572666163652532304E6F7465626F6F6B26616D703B616374
X 696F6E3D6564697426616D703B77643D746172676574253238
X 45706963253230496E74657266616365253230537570706F72
X 74253230446F63756D656E746174696F6E2532456F6E652537
X 43413835464136353725324433314533253244343534422532
X 44413042412532444431314644314533393644332532464342
X 4F524425323025323845706963253543253239253743463431
X 37384637362532444230323225324434423131253244383131
X 32253244303032344137434644413631253246253239266170
X 6F733B207461726765743D2661706F733B5F626C616E6B2661
X 706F733B2667743B266C743B696D67207372633D2661706F73
X 3B6F6E654E6F74652E706E672661706F733B20616C743D2661
X 706F733B4F6E654E6F746520537570706F7274204C696E6B26
X 61706F733B2077696474683D2661706F733B31372661706F73
X 3B206865696768743D2661706F733B31372661706F733B2062
X 6F726465723D2661706F733B302661706F733B2667743B266C
X 743B2F612667743B3C2F537570706F72744C696E6B3E3C5375
X 7070726573734572726F724C6F673E545255453C2F53757070
X 726573734572726F724C6F673E3C5375707072657373457272
X 6F72546578743E4E2F413C2F53757070726573734572726F72
X 546578743E3C53757070726573734572726F72456D61696C3E
X 46414C53453C2F53757070726573734572726F72456D61696C
X 3E3C53757070726573734572726F72456D61696C4164647265
X 73733E4E2F413C2F53757070726573734572726F72456D6169
X 6C416464726573733E3C53757070726573734572726F72456D
X 61696C5375626A6563743E4E2F413C2F537570707265737345
X 72726F72456D61696C5375626A6563743E3C53757070726573
X 734572726F72456D61696C426F64793E4E2F413C2F53757070
X 726573734572726F72456D61696C426F64793E3C5375707072
X 6573734572726F72456D61696C496E636C7564655061796C6F
X 61643E545255453C2F53757070726573734572726F72456D61
X 696C496E636C7564655061796C6F61643E3C2F4170706C6963
X 6174696F6E4E616D653E3C4170706C69636174696F6E4E616D
X 653E3C6E616D653E4144545F45706963546F436F6D70757472
X 6974696F6E5F484C375472616E73666F726D4170703C2F6E61
X 6D653E3C46726F6D52656365697665723E616E79484C375365
X 676D656E743C2F46726F6D52656365697665723E3C41756469
X 74496E7075744576656E7446696C746572466C61673E545255
X 453C2F4175646974496E7075744576656E7446696C74657246
X 6C61673E3C5075626C697368546F53656E6465724576656E74
X 46696C746572466C61673E545255453C2F5075626C69736854
X 6F53656E6465724576656E7446696C746572466C61673E3C45
X 72726F724D73674578706972793E333C2F4572726F724D7367
X 4578706972793E3C54465349443E3138323031393C2F544653
X 49443E3C48747470456E64506F696E743E4E2F413C2F487474
X 70456E64506F696E743E3C416B616E61546F6B656E3E4E2F41
X 3C2F416B616E61546F6B656E3E3C537570706F72744C696E6B
X 3E4E2F413C2F537570706F72744C696E6B3E3C537570707265
X 73734572726F724C6F673E545255453C2F5375707072657373
X 4572726F724C6F673E3C53757070726573734572726F725465
X 78743E4E2F413C2F53757070726573734572726F7254657874
X 3E3C53757070726573734572726F72456D61696C3E46414C53
X 453C2F53757070726573734572726F72456D61696C3E3C5375
X 7070726573734572726F72456D61696C416464726573733E4E
X 2F413C2F53757070726573734572726F72456D61696C416464
X 726573733E3C53757070726573734572726F72456D61696C53
X 75626A6563743E4E2F413C2F53757070726573734572726F72
X 456D61696C5375626A6563743E3C5375707072657373457272
X 6F72456D61696C426F64793E4E2F413C2F5375707072657373
X 4572726F72456D61696C426F64793E3C537570707265737345
X 72726F72456D61696C496E636C7564655061796C6F61643E54
X 5255453C2F53757070726573734572726F72456D61696C496E
X 636C7564655061796C6F61643E3C2F4170706C69636174696F
X 6E4E616D653E3C4170706C69636174696F6E4E616D653E3C6E
X 616D653E4144545F45706963546F436F706174685F484C3754
X 72616E73666F726D4170703C2F6E616D653E3C46726F6D5265
X 6365697665723E616E79484C375365676D656E743C2F46726F
X 6D52656365697665723E3C4175646974496E7075744576656E
X 7446696C746572466C61673E545255453C2F4175646974496E
X 7075744576656E7446696C746572466C61673E3C5075626C69
X 7368546F53656E6465724576656E7446696C746572466C6167
X 3E545255453C2F5075626C697368546F53656E646572457665
X 6E7446696C746572466C61673E3C4572726F724D7367457870
X 6972793E333C2F4572726F724D73674578706972793E3C5446
X 5349443E3238363638323A3239343030393C2F54465349443E
X 3C48747470456E64506F696E743E4E2F413C2F48747470456E
X 64506F696E743E3C416B616E61546F6B656E3E4E2F413C2F41
X 6B616E61546F6B656E3E3C537570706F72744C696E6B3E4E2F
X 413C2F537570706F72744C696E6B3E3C537570707265737345
X 72726F724C6F673E545255453C2F5375707072657373457272
X 6F724C6F673E3C53757070726573734572726F72546578743E
X 4E2F413C2F53757070726573734572726F72546578743E3C53
X 757070726573734572726F72456D61696C3E46414C53453C2F
X 53757070726573734572726F72456D61696C3E3C5375707072
X 6573734572726F72456D61696C416464726573733E4E2F413C
X 2F53757070726573734572726F72456D61696C416464726573
X 733E3C53757070726573734572726F72456D61696C5375626A
X 6563743E4E2F413C2F53757070726573734572726F72456D61
X 696C5375626A6563743E3C53757070726573734572726F7245
X 6D61696C426F64793E4E2F413C2F5375707072657373457272
X 6F72456D61696C426F64793E3C53757070726573734572726F
X 72456D61696C496E636C7564655061796C6F61643E54525545
X 3C2F53757070726573734572726F72456D61696C496E636C75
X 64655061796C6F61643E3C2F4170706C69636174696F6E4E61
X 6D653E3C4170706C69636174696F6E4E616D653E3C6E616D65
X 3E4144545F45706963546F454449544C6966655F484C375472
X 616E73666F726D4170703C2F6E616D653E3C46726F6D526563
X 65697665723E616E79484C375365676D656E743C2F46726F6D
X 52656365697665723E3C4175646974496E7075744576656E74
X 46696C746572466C61673E545255453C2F4175646974496E70
X 75744576656E7446696C746572466C61673E3C5075626C6973
X 68546F53656E6465724576656E7446696C746572466C61673E
X 545255453C2F5075626C697368546F53656E6465724576656E
X 7446696C746572466C61673E3C4572726F724D736745787069
X 72793E333C2F4572726F724D73674578706972793E3C544653
X 49443E3635333830323C2F54465349443E3C48747470456E64
X 506F696E743E4E2F413C2F48747470456E64506F696E743E3C
X 416B616E61546F6B656E3E4E2F413C2F416B616E61546F6B65
X 6E3E3C537570706F72744C696E6B3E4E2F413C2F537570706F
X 72744C696E6B3E3C53757070726573734572726F724C6F673E
X 545255453C2F53757070726573734572726F724C6F673E3C53
X 757070726573734572726F72546578743E4E2F413C2F537570
X 70726573734572726F72546578743E3C537570707265737345
X 72726F72456D61696C3E46414C53453C2F5375707072657373
X 4572726F72456D61696C3E3C53757070726573734572726F72
X 456D61696C416464726573733E4E2F413C2F53757070726573
X 734572726F72456D61696C416464726573733E3C5375707072
X 6573734572726F72456D61696C5375626A6563743E4E2F413C
X 2F53757070726573734572726F72456D61696C5375626A6563
X 743E3C53757070726573734572726F72456D61696C426F6479
X 3E4E2F413C2F53757070726573734572726F72456D61696C42
X 6F64793E3C53757070726573734572726F72456D61696C496E
X 636C7564655061796C6F61643E545255453C2F537570707265
X 73734572726F72456D61696C496E636C7564655061796C6F61
X 643E3C2F4170706C69636174696F6E4E616D653E3C4170706C
X 69636174696F6E4E616D653E3C6E616D653E4144545F457069
X 63546F456963755F484C375472616E73666F726D4170703C2F
X 6E616D653E3C46726F6D52656365697665723E616E79484C37
X 5365676D656E743C2F46726F6D52656365697665723E3C4175
X 646974496E7075744576656E7446696C746572466C61673E54
X 5255453C2F4175646974496E7075744576656E7446696C7465
X 72466C61673E3C5075626C697368546F53656E646572457665
X 6E7446696C746572466C61673E545255453C2F5075626C6973
X 68546F53656E6465724576656E7446696C746572466C61673E
X 3C4572726F724D73674578706972793E333C2F4572726F724D
X 73674578706972793E3C54465349443E3334313934333C2F54
X 465349443E3C48747470456E64506F696E743E4E2F413C2F48
X 747470456E64506F696E743E3C416B616E61546F6B656E3E4E
X 2F413C2F416B616E61546F6B656E3E3C537570706F72744C69
X 6E6B3E4E2F413C2F537570706F72744C696E6B3E3C53757070
X 726573734572726F724C6F673E545255453C2F537570707265
X 73734572726F724C6F673E3C53757070726573734572726F72
X 546578743E4E2F413C2F53757070726573734572726F725465
X 78743E3C53757070726573734572726F72456D61696C3E4641
X 4C53453C2F53757070726573734572726F72456D61696C3E3C
X 53757070726573734572726F72456D61696C41646472657373
X 3E4E2F413C2F53757070726573734572726F72456D61696C41
X 6464726573733E3C53757070726573734572726F72456D6169
X 6C5375626A6563743E4E2F413C2F5375707072657373457272
X 6F72456D61696C5375626A6563743E3C537570707265737345
X 72726F72456D61696C426F64793E4E2F413C2F537570707265
X 73734572726F72456D61696C426F64793E3C53757070726573
X 734572726F72456D61696C496E636C7564655061796C6F6164
X 3E545255453C2F53757070726573734572726F72456D61696C
X 496E636C7564655061796C6F61643E3C2F4170706C69636174
X 696F6E4E616D653E3C4170706C69636174696F6E4E616D653E
X 3C6E616D653E4144545F45706963546F5072696D6F72646961
X 6C5F484C375472616E73666F726D4170703C2F6E616D653E3C
X 46726F6D52656365697665723E616E79484C375365676D656E
X 743C2F46726F6D52656365697665723E3C4175646974496E70
X 75744576656E7446696C746572466C61673E545255453C2F41
X 75646974496E7075744576656E7446696C746572466C61673E
X 3C5075626C697368546F53656E6465724576656E7446696C74
X 6572466C61673E545255453C2F5075626C697368546F53656E
X 6465724576656E7446696C746572466C61673E3C4572726F72
X 4D73674578706972793E333C2F4572726F724D736745787069
X 72793E3C54465349443E3639393932373C2F54465349443E3C
X 48747470456E64506F696E743E4E2F413C2F48747470456E64
X 506F696E743E3C416B616E61546F6B656E3E4E2F413C2F416B
X 616E61546F6B656E3E3C537570706F72744C696E6B3E4E2F41
X 3C2F537570706F72744C696E6B3E3C53757070726573734572
X 726F724C6F673E545255453C2F53757070726573734572726F
X 724C6F673E3C53757070726573734572726F72546578743E4E
X 2F413C2F53757070726573734572726F72546578743E3C5375
X 7070726573734572726F72456D61696C3E46414C53453C2F53
X 757070726573734572726F72456D61696C3E3C537570707265
X 73734572726F72456D61696C416464726573733E4E2F413C2F
X 53757070726573734572726F72456D61696C41646472657373
X 3E3C53757070726573734572726F72456D61696C5375626A65
X 63743E4E2F413C2F53757070726573734572726F72456D6169
X 6C5375626A6563743E3C53757070726573734572726F72456D
X 61696C426F64793E4E2F413C2F53757070726573734572726F
X 72456D61696C426F64793E3C53757070726573734572726F72
X 456D61696C496E636C7564655061796C6F61643E545255453C
X 2F53757070726573734572726F72456D61696C496E636C7564
X 655061796C6F61643E3C2F4170706C69636174696F6E4E616D
X 653E3C4170706C69636174696F6E4E616D653E3C6E616D653E
X 4144545F45706963546F45494D535F484C375472616E73666F
X 726D4170703C2F6E616D653E3C46726F6D5265636569766572
X 3E616E79484C375365676D656E743C2F46726F6D5265636569
X 7665723E3C4175646974496E7075744576656E7446696C7465
X 72466C61673E545255453C2F4175646974496E707574457665
X 6E7446696C746572466C61673E3C5075626C697368546F5365
X 6E6465724576656E7446696C746572466C61673E545255453C
X 2F5075626C697368546F53656E6465724576656E7446696C74
X 6572466C61673E3C4572726F724D73674578706972793E333C
X 2F4572726F724D73674578706972793E3C54465349443E3231
X 363937333C2F54465349443E3C48747470456E64506F696E74
X 3E4E2F413C2F48747470456E64506F696E743E3C416B616E61
X 546F6B656E3E4E2F413C2F416B616E61546F6B656E3E3C5375
X 70706F72744C696E6B3E4E2F413C2F537570706F72744C696E
X 6B3E3C53757070726573734572726F724C6F673E545255453C
X 2F53757070726573734572726F724C6F673E3C537570707265
X 73734572726F72546578743E4E2F413C2F5375707072657373
X 4572726F72546578743E3C53757070726573734572726F7245
X 6D61696C3E46414C53453C2F53757070726573734572726F72
X 456D61696C3E3C53757070726573734572726F72456D61696C
X 416464726573733E4E2F413C2F53757070726573734572726F
X 72456D61696C416464726573733E3C53757070726573734572
X 726F72456D61696C5375626A6563743E4E2F413C2F53757070
X 726573734572726F72456D61696C5375626A6563743E3C5375
X 7070726573734572726F72456D61696C426F64793E4E2F413C
X 2F53757070726573734572726F72456D61696C426F64793E3C
X 53757070726573734572726F72456D61696C496E636C756465
X 5061796C6F61643E545255453C2F5375707072657373457272
X 6F72456D61696C496E636C7564655061796C6F61643E3C2F41
X 70706C69636174696F6E4E616D653E3C4170706C6963617469
X 6F6E4E616D653E3C6E616D653E4144545F45706963746F456D
X 626C615F484C375472616E73666F726D4170703C2F6E616D65
X 3E3C46726F6D52656365697665723E616E79484C375365676D
X 656E743C2F46726F6D52656365697665723E3C417564697449
X 6E7075744576656E7446696C746572466C61673E545255453C
X 2F4175646974496E7075744576656E7446696C746572466C61
X 673E3C5075626C697368546F53656E6465724576656E744669
X 6C746572466C61673E545255453C2F5075626C697368546F53
X 656E6465724576656E7446696C746572466C61673E3C457272
X 6F724D73674578706972793E333C2F4572726F724D73674578
X 706972793E3C54465349443E3234353731313C2F5446534944
X 3E3C48747470456E64506F696E743E4E2F413C2F4874747045
X 6E64506F696E743E3C416B616E61546F6B656E3E4E2F413C2F
X 416B616E61546F6B656E3E3C537570706F72744C696E6B3E4E
X 2F413C2F537570706F72744C696E6B3E3C5375707072657373
X 4572726F724C6F673E545255453C2F53757070726573734572
X 726F724C6F673E3C53757070726573734572726F7254657874
X 3E4E2F413C2F53757070726573734572726F72546578743E3C
X 53757070726573734572726F72456D61696C3E46414C53453C
X 2F53757070726573734572726F72456D61696C3E3C53757070
X 726573734572726F72456D61696C416464726573733E4E2F41
X 3C2F53757070726573734572726F72456D61696C4164647265
X 73733E3C53757070726573734572726F72456D61696C537562
X 6A6563743E4E2F413C2F53757070726573734572726F72456D
X 61696C5375626A6563743E3C53757070726573734572726F72
X 456D61696C426F64793E4E2F413C2F53757070726573734572
X 726F72456D61696C426F64793E3C5375707072657373457272
X 6F72456D61696C496E636C7564655061796C6F61643E545255
X 453C2F53757070726573734572726F72456D61696C496E636C
X 7564655061796C6F61643E3C2F4170706C69636174696F6E4E
X 616D653E3C4170706C69636174696F6E4E616D653E3C6E616D
X 653E4144545F45706963546F466F726D466173745F484C3754
X 72616E73666F726D4170703C2F6E616D653E3C46726F6D5265
X 6365697665723E616E79484C375365676D656E743C2F46726F
X 6D52656365697665723E3C4175646974496E7075744576656E
X 7446696C746572466C61673E545255453C2F4175646974496E
X 7075744576656E7446696C746572466C61673E3C5075626C69
X 7368546F53656E6465724576656E7446696C746572466C6167
X 3E545255453C2F5075626C697368546F53656E646572457665
X 6E7446696C746572466C61673E3C4572726F724D7367457870
X 6972793E333C2F4572726F724D73674578706972793E3C5446
X 5349443E3239333837303C2F54465349443E3C48747470456E
X 64506F696E743E4E2F413C2F48747470456E64506F696E743E
X 3C416B616E61546F6B656E3E4E2F413C2F416B616E61546F6B
X 656E3E3C537570706F72744C696E6B3E4E2F413C2F53757070
X 6F72744C696E6B3E3C53757070726573734572726F724C6F67
X 3E545255453C2F53757070726573734572726F724C6F673E3C
X 53757070726573734572726F72546578743E4E2F413C2F5375
X 7070726573734572726F72546578743E3C5375707072657373
X 4572726F72456D61696C3E46414C53453C2F53757070726573
X 734572726F72456D61696C3E3C53757070726573734572726F
X 72456D61696C416464726573733E4E2F413C2F537570707265
X 73734572726F72456D61696C416464726573733E3C53757070
X 726573734572726F72456D61696C5375626A6563743E4E2F41
X 3C2F53757070726573734572726F72456D61696C5375626A65
X 63743E3C53757070726573734572726F72456D61696C426F64
X 793E4E2F413C2F53757070726573734572726F72456D61696C
X 426F64793E3C53757070726573734572726F72456D61696C49
X 6E636C7564655061796C6F61643E545255453C2F5375707072
X 6573734572726F72456D61696C496E636C7564655061796C6F
X 61643E3C2F4170706C69636174696F6E4E616D653E3C417070
X 6C69636174696F6E4E616D653E3C6E616D653E4144545F4570
X 6963546F4865616C7468746F7563685F484C375472616E7366
X 6F726D4170703C2F6E616D653E3C46726F6D52656365697665
X 723E616E79484C375365676D656E743C2F46726F6D52656365
X 697665723E3C4175646974496E7075744576656E7446696C74
X 6572466C61673E545255453C2F4175646974496E7075744576
X 656E7446696C746572466C61673E3C5075626C697368546F53
X 656E6465724576656E7446696C746572466C61673E54525545
X 3C2F5075626C697368546F53656E6465724576656E7446696C
X 746572466C61673E3C4572726F724D73674578706972793E33
X 3C2F4572726F724D73674578706972793E3C54465349443E31
X 38323031383C2F54465349443E3C48747470456E64506F696E
X 743E4E2F413C2F48747470456E64506F696E743E3C416B616E
X 61546F6B656E3E4E2F413C2F416B616E61546F6B656E3E3C53
X 7570706F72744C696E6B3E4E2F413C2F537570706F72744C69
X 6E6B3E3C53757070726573734572726F724C6F673E54525545
X 3C2F53757070726573734572726F724C6F673E3C5375707072
X 6573734572726F72546578743E4E2F413C2F53757070726573
X 734572726F72546578743E3C53757070726573734572726F72
X 456D61696C3E46414C53453C2F53757070726573734572726F
X 72456D61696C3E3C53757070726573734572726F72456D6169
X 6C416464726573733E4E2F413C2F5375707072657373457272
X 6F72456D61696C416464726573733E3C537570707265737345
X 72726F72456D61696C5375626A6563743E4E2F413C2F537570
X 70726573734572726F72456D61696C5375626A6563743E3C53
X 757070726573734572726F72456D61696C426F64793E4E2F41
X 3C2F53757070726573734572726F72456D61696C426F64793E
X 3C53757070726573734572726F72456D61696C496E636C7564
X 655061796C6F61643E545255453C2F53757070726573734572
X 726F72456D61696C496E636C7564655061796C6F61643E3C2F
X 4170706C69636174696F6E4E616D653E3C4170706C69636174
X 696F6E4E616D653E3C6E616D653E4144545F45706963546F48
X 6F6C7465725F484C375472616E734170703C2F6E616D653E3C
X 46726F6D52656365697665723E616E79484C375365676D656E
X 743C2F46726F6D52656365697665723E3C4175646974496E70
X 75744576656E7446696C746572466C61673E545255453C2F41
X 75646974496E7075744576656E7446696C746572466C61673E
X 3C5075626C697368546F53656E6465724576656E7446696C74
X 6572466C61673E545255453C2F5075626C697368546F53656E
X 6465724576656E7446696C746572466C61673E3C4572726F72
X 4D73674578706972793E333C2F4572726F724D736745787069
X 72793E3C54465349443E3232343734393C2F54465349443E3C
X 48747470456E64506F696E743E4E2F413C2F48747470456E64
X 506F696E743E3C416B616E61546F6B656E3E4E2F413C2F416B
X 616E61546F6B656E3E3C537570706F72744C696E6B3E4E2F41
X 3C2F537570706F72744C696E6B3E3C53757070726573734572
X 726F724C6F673E545255453C2F53757070726573734572726F
X 724C6F673E3C53757070726573734572726F72546578743E4E
X 2F413C2F53757070726573734572726F72546578743E3C5375
X 7070726573734572726F72456D61696C3E46414C53453C2F53
X 757070726573734572726F72456D61696C3E3C537570707265
X 73734572726F72456D61696C416464726573733E4E2F413C2F
X 53757070726573734572726F72456D61696C41646472657373
X 3E3C53757070726573734572726F72456D61696C5375626A65
X 63743E4E2F413C2F53757070726573734572726F72456D6169
X 6C5375626A6563743E3C53757070726573734572726F72456D
X 61696C426F64793E4E2F413C2F53757070726573734572726F
X 72456D61696C426F64793E3C53757070726573734572726F72
X 456D61696C496E636C7564655061796C6F61643E545255453C
X 2F53757070726573734572726F72456D61696C496E636C7564
X 655061796C6F61643E3C2F4170706C69636174696F6E4E616D
X 653E3C4170706C69636174696F6E4E616D653E3C6E616D653E
X 4144545F45706963546F486F6E657977656C6C5F484C375472
X 616E73666F726D4170703C2F6E616D653E3C46726F6D526563
X 65697665723E616E79484C375365676D656E743C2F46726F6D
X 52656365697665723E3C4175646974496E7075744576656E74
X 46696C746572466C61673E545255453C2F4175646974496E70
X 75744576656E7446696C746572466C61673E3C5075626C6973
X 68546F53656E6465724576656E7446696C746572466C61673E
X 545255453C2F5075626C697368546F53656E6465724576656E
X 7446696C746572466C61673E3C4572726F724D736745787069
X 72793E333C2F4572726F724D73674578706972793E3C544653
X 49443E3435323434393C2F54465349443E3C48747470456E64
X 506F696E743E4E2F413C2F48747470456E64506F696E743E3C
X 416B616E61546F6B656E3E4E2F413C2F416B616E61546F6B65
X 6E3E3C537570706F72744C696E6B3E4E2F413C2F537570706F
X 72744C696E6B3E3C53757070726573734572726F724C6F673E
X 545255453C2F53757070726573734572726F724C6F673E3C53
X 757070726573734572726F72546578743E4E2F413C2F537570
X 70726573734572726F72546578743E3C537570707265737345
X 72726F72456D61696C3E46414C53453C2F5375707072657373
X 4572726F72456D61696C3E3C53757070726573734572726F72
X 456D61696C416464726573733E4E2F413C2F53757070726573
X 734572726F72456D61696C416464726573733E3C5375707072
X 6573734572726F72456D61696C5375626A6563743E4E2F413C
X 2F53757070726573734572726F72456D61696C5375626A6563
X 743E3C53757070726573734572726F72456D61696C426F6479
X 3E4E2F413C2F53757070726573734572726F72456D61696C42
X 6F64793E3C53757070726573734572726F72456D61696C496E
X 636C7564655061796C6F61643E545255453C2F537570707265
X 73734572726F72456D61696C496E636C7564655061796C6F61
X 643E3C2F4170706C69636174696F6E4E616D653E3C4170706C
X 69636174696F6E4E616D653E3C6E616D653E4144545F457069
X 63546F496E7374794D65645F484C375472616E73666F726D41
X 70703C2F6E616D653E3C46726F6D52656365697665723E616E
X 79484C375365676D656E743C2F46726F6D5265636569766572
X 3E3C4175646974496E7075744576656E7446696C746572466C
X 61673E545255453C2F4175646974496E7075744576656E7446
X 696C746572466C61673E3C5075626C697368546F53656E6465
X 724576656E7446696C746572466C61673E545255453C2F5075
X 626C697368546F53656E6465724576656E7446696C74657246
X 6C61673E3C4572726F724D73674578706972793E333C2F4572
X 726F724D73674578706972793E3C54465349443E3234353730
X 383C2F54465349443E3C48747470456E64506F696E743E4E2F
X 413C2F48747470456E64506F696E743E3C416B616E61546F6B
X 656E3E4E2F413C2F416B616E61546F6B656E3E3C537570706F
X 72744C696E6B3E4E2F413C2F537570706F72744C696E6B3E3C
X 53757070726573734572726F724C6F673E545255453C2F5375
X 7070726573734572726F724C6F673E3C537570707265737345
X 72726F72546578743E4E2F413C2F5375707072657373457272
X 6F72546578743E3C53757070726573734572726F72456D6169
X 6C3E46414C53453C2F53757070726573734572726F72456D61
X 696C3E3C53757070726573734572726F72456D61696C416464
X 726573733E4E2F413C2F53757070726573734572726F72456D
X 61696C416464726573733E3C53757070726573734572726F72
X 456D61696C5375626A6563743E4E2F413C2F53757070726573
X 734572726F72456D61696C5375626A6563743E3C5375707072
X 6573734572726F72456D61696C426F64793E4E2F413C2F5375
X 7070726573734572726F72456D61696C426F64793E3C537570
X 70726573734572726F72456D61696C496E636C756465506179
X 6C6F61643E545255453C2F53757070726573734572726F7245
X 6D61696C496E636C7564655061796C6F61643E3C2F4170706C
X 69636174696F6E4E616D653E3C4170706C69636174696F6E4E
X 616D653E3C6E616D653E4144545F45706963546F6956696577
X 5F484C375472616E73666F726D4170703C2F6E616D653E3C46
X 726F6D52656365697665723E616E79484C375365676D656E74
X 3C2F46726F6D52656365697665723E3C4175646974496E7075
X 744576656E7446696C746572466C61673E545255453C2F4175
X 646974496E7075744576656E7446696C746572466C61673E3C
X 5075626C697368546F53656E6465724576656E7446696C7465
X 72466C61673E545255453C2F5075626C697368546F53656E64
X 65724576656E7446696C746572466C61673E3C4572726F724D
X 73674578706972793E333C2F4572726F724D73674578706972
X 793E3C54465349443E3332323836323C2F54465349443E3C48
X 747470456E64506F696E743E4E2F413C2F48747470456E6450
X 6F696E743E3C416B616E61546F6B656E3E4E2F413C2F416B61
X 6E61546F6B656E3E3C537570706F72744C696E6B3E4E2F413C
X 2F537570706F72744C696E6B3E3C5375707072657373457272
X 6F724C6F673E545255453C2F53757070726573734572726F72
X 4C6F673E3C53757070726573734572726F72546578743E4E2F
X 413C2F53757070726573734572726F72546578743E3C537570
X 70726573734572726F72456D61696C3E46414C53453C2F5375
X 7070726573734572726F72456D61696C3E3C53757070726573
X 734572726F72456D61696C416464726573733E4E2F413C2F53
X 757070726573734572726F72456D61696C416464726573733E
X 3C53757070726573734572726F72456D61696C5375626A6563
X 743E4E2F413C2F53757070726573734572726F72456D61696C
X 5375626A6563743E3C53757070726573734572726F72456D61
X 696C426F64793E4E2F413C2F53757070726573734572726F72
X 456D61696C426F64793E3C53757070726573734572726F7245
X 6D61696C496E636C7564655061796C6F61643E545255453C2F
X 53757070726573734572726F72456D61696C496E636C756465
X 5061796C6F61643E3C2F4170706C69636174696F6E4E616D65
X 3E3C4170706C69636174696F6E4E616D653E3C6E616D653E41
X 44545F45706963546F4D61634C61625F484C375472616E7366
X 6F726D4170703C2F6E616D653E3C46726F6D52656365697665
X 723E616E79484C375365676D656E743C2F46726F6D52656365
X 697665723E3C4175646974496E7075744576656E7446696C74
X 6572466C61673E545255453C2F4175646974496E7075744576
X 656E7446696C746572466C61673E3C5075626C697368546F53
X 656E6465724576656E7446696C746572466C61673E54525545
X 3C2F5075626C697368546F53656E6465724576656E7446696C
X 746572466C61673E3C4572726F724D73674578706972793E33
X 3C2F4572726F724D73674578706972793E3C54465349443E31
X 38333930333A3138343437373A3138343437363A3130373037
X 33313A313037323233323C2F54465349443E3C48747470456E
X 64506F696E743E4E2F413C2F48747470456E64506F696E743E
X 3C416B616E61546F6B656E3E4E2F413C2F416B616E61546F6B
X 656E3E3C537570706F72744C696E6B3E4E2F413C2F53757070
X 6F72744C696E6B3E3C53757070726573734572726F724C6F67
X 3E545255453C2F53757070726573734572726F724C6F673E3C
X 53757070726573734572726F72546578743E4E2F413C2F5375
X 7070726573734572726F72546578743E3C5375707072657373
X 4572726F72456D61696C3E46414C53453C2F53757070726573
X 734572726F72456D61696C3E3C53757070726573734572726F
X 72456D61696C416464726573733E4E2F413C2F537570707265
X 73734572726F72456D61696C416464726573733E3C53757070
X 726573734572726F72456D61696C5375626A6563743E4E2F41
X 3C2F53757070726573734572726F72456D61696C5375626A65
X 63743E3C53757070726573734572726F72456D61696C426F64
X 793E4E2F413C2F53757070726573734572726F72456D61696C
X 426F64793E3C53757070726573734572726F72456D61696C49
X 6E636C7564655061796C6F61643E545255453C2F5375707072
X 6573734572726F72456D61696C496E636C7564655061796C6F
X 61643E3C2F4170706C69636174696F6E4E616D653E3C417070
X 6C69636174696F6E4E616D653E3C6E616D653E4144545F4570
X 6963546F4D6572676543617264696F5F484C375472616E7366
X 6F726D4170703C2F6E616D653E3C46726F6D52656365697665
X 723E616E79484C375365676D656E743C2F46726F6D52656365
X 697665723E3C4175646974496E7075744576656E7446696C74
X 6572466C61673E545255453C2F4175646974496E7075744576
X 656E7446696C746572466C61673E3C5075626C697368546F53
X 656E6465724576656E7446696C746572466C61673E54525545
X 3C2F5075626C697368546F53656E6465724576656E7446696C
X 746572466C61673E3C4572726F724D73674578706972793E33
X 3C2F4572726F724D73674578706972793E3C54465349443E34
X 36303730343C2F54465349443E3C48747470456E64506F696E
X 743E4E2F413C2F48747470456E64506F696E743E3C416B616E
X 61546F6B656E3E4E2F413C2F416B616E61546F6B656E3E3C53
X 7570706F72744C696E6B3E4E2F413C2F537570706F72744C69
X 6E6B3E3C53757070726573734572726F724C6F673E54525545
X 3C2F53757070726573734572726F724C6F673E3C5375707072
X 6573734572726F72546578743E4E2F413C2F53757070726573
X 734572726F72546578743E3C53757070726573734572726F72
X 456D61696C3E46414C53453C2F53757070726573734572726F
X 72456D61696C3E3C53757070726573734572726F72456D6169
