* DMPMQMSG Version:9.1.0.3 Created:Thu Dec  5 10:46:53 2019
* Qmgr  = QMT4
* Queue = TEST.CULLEN

A VER 2
A RPT 0
A MST 8
A EXP -1
A FDB 0
A ENC 546
A CCS 1208
A FMT         
A PRI 0
A PER 1
A MSI 414D5120514D54342020202020202020945CD45D09DB1A25
A COI 000000000000000000000000000000000000000000000000
A BOC 0
A RTQ                                                 
A RTM QMT1                                            
A USR m160987     
A ACC 16010515000000020898B26E53BB9DDEF35206EAED100000000000000000000B
A AIX 2020202020202020202020202020202020202020202020202020202020202020
A PAT 11
A PAN rfhutil_tls_new\rfhutilc.exe
A PTD 20191205
A PTT 16464022
A AOX 20202020
A GRP 000000000000000000000000000000000000000000000000
A MSQ 1
A OFF 0
A MSF 0
A ORL -1
X 3C3F786D6C2076657273696F6E3D22312E302220656E636F64
X 696E673D225554462D38223F3E3C53656E6465723E3C417070
X 6C69636174696F6E4E616D653E3C6E616D653E4F524D5F4570
X 6963546F43626F72645F484C3753656E6465724170703C2F6E
X 616D653E3C484C37536F636B65744F75747075743E3C636F6E
X 6E656374696F6E44657461696C733E6C6F63616C686F73743A
X 34303030313C2F636F6E6E656374696F6E44657461696C733E
X 3C536E47656E65726174655469636B65743E46414C53453C2F
X 536E47656E65726174655469636B65743E3C456D61696C4765
X 6E6572617465456D61696C3E46414C53453C2F456D61696C47
X 656E6572617465456D61696C3E3C536E537570706F72744772
X 6F75703E456E746572707269736520496E7465726661636573
X 3C2F536E537570706F727447726F75703E3C456D61696C4672
X 6F6D3E706C756D6D6572406D61796F2E6564753C2F456D6169
X 6C46726F6D3E3C456D61696C546F3E706C756D6D6572406D61
X 796F2E6564753C2F456D61696C546F3E3C436F6E6E65637469
X 6F6E526566757365645265747279496E74657276616C3E3330
X 3C2F436F6E6E656374696F6E52656675736564526574727949
X 6E74657276616C3E3C436F6E6E656374696F6E526566757365
X 6453746F70466C6F773E46414C53453C2F436F6E6E65637469
X 6F6E5265667573656453746F70466C6F773E3C436F6E6E6563
X 74696F6E526566757365644D6178526574726965733E2D313C
X 2F436F6E6E656374696F6E526566757365644D617852657472
X 6965733E3C436F6E6E656374696F6E54696D656F7574526574
X 7279496E74657276616C3E33303C2F436F6E6E656374696F6E
X 54696D656F75745265747279496E74657276616C3E3C436F6E
X 6E656374696F6E54696D656F757453746F70466C6F773E4641
X 4C53453C2F436F6E6E656374696F6E54696D656F757453746F
X 70466C6F773E3C436F6E6E656374696F6E54696D656F75744D
X 6178526574726965733E333C2F436F6E6E656374696F6E5469
X 6D656F75744D6178526574726965733E3C50726F636573734E
X 61636B41653E46414C53453C2F50726F636573734E61636B41
X 653E3C4E61636B41655265747279496E74657276616C3E3630
X 3C2F4E61636B41655265747279496E74657276616C3E3C4E61
X 636B416553746F70466C6F773E46414C53453C2F4E61636B41
X 6553746F70466C6F773E3C4E61636B41654D61785265747269
X 65733E333C2F4E61636B41654D6178526574726965733E3C50
X 726F636573734E61636B41723E46414C53453C2F50726F6365
X 73734E61636B41723E3C4E61636B41725265747279496E7465
X 7276616C3E36303C2F4E61636B41725265747279496E746572
X 76616C3E3C4E61636B417253746F70466C6F773E46414C5345
X 3C2F4E61636B417253746F70466C6F773E3C4E61636B41724D
X 6178526574726965733E333C2F4E61636B41724D6178526574
X 726965733E3C54696D656F757457616974696E67466F724461
X 74613E36303C2F54696D656F757457616974696E67466F7244
X 6174613E3C436865636B41636B4576656E7446696C74657246
X 6C61673E545255453C2F436865636B41636B4576656E744669
X 6C746572466C61673E3C5265636569766541636B4576656E74
X 46696C746572466C61673E545255453C2F5265636569766541
X 636B4576656E7446696C746572466C61673E3C44697361626C
X 6541636B4576656E7446696C746572466C61673E545255453C
X 2F44697361626C6541636B4576656E7446696C746572466C61
X 673E3C4C6F6767696E674576656E7446696C746572466C6167
X 3E545255453C2F4C6F6767696E674576656E7446696C746572
X 466C61673E3C2F484C37536F636B65744F75747075743E3C45
X 564E34466C61673E46414C53453C2F45564E34466C61673E3C
X 4576656E74526561736F6E436F64653E424C4F434B3C2F4576
X 656E74526561736F6E436F64653E3C4576656E74416374696F
X 6E3E444953434152443C2F4576656E74416374696F6E3E3C41
X 75646974496E7075744576656E7446696C746572466C61673E
X 545255453C2F4175646974496E7075744576656E7446696C74
X 6572466C61673E3C4572726F724D73674578706972793E333C
X 2F4572726F724D73674578706972793E3C54465349443E3630
X 383034373C2F54465349443E3C537570706F72744C696E6B3E
X 266C743B6120687265663D2661706F733B68747470733A2F2F
X 636F6C6C61622E6D61796F2E6564752F7465616D2F506C6174
X 666F726D53657276696365732F456E7465727072697365496E
X 74657266616365732F5F6C61796F7574732F31352F576F7069
X 4672616D65322E617370783F736F75726365646F633D253246
X 7465616D253246506C6174666F726D53657276696365732532
X 46456E7465727072697365496E746572666163657325324653
X 6861726564253230446F63756D656E7473253246456E746572
X 7072697365253230496E746572666163652532304E6F746562
X 6F6F6B26616D703B616374696F6E3D6564697426616D703B77
X 643D74617267657425323845706963253230496E7465726661
X 6365253230537570706F7274253230446F63756D656E746174
X 696F6E2532456F6E6525374341383546413635372532443331
X 45332532443435344225324441304241253244443131464431
X 45333936443325324643424F52442532302532384570696325
X 35432532392537434634313738463736253244423032322532
X 44344231312532443831313225324430303234413743464441
X 36312532462532392661706F733B207461726765743D266170
X 6F733B5F626C616E6B2661706F733B2667743B266C743B696D
X 67207372633D2661706F733B6F6E654E6F74652E706E672661
X 706F733B20616C743D2661706F733B4F6E654E6F7465205375
X 70706F7274204C696E6B2661706F733B2077696474683D2661
X 706F733B31372661706F733B206865696768743D2661706F73
X 3B31372661706F733B20626F726465723D2661706F733B3026
X 61706F733B2667743B266C743B2F612667743B3C2F53757070
X 6F72744C696E6B3E3C5365727665724469726563746F72793E
X 4E2F413C2F5365727665724469726563746F72793E3C46696C
X 654E616D653E4E2F413C2F46696C654E616D653E3C4C6F6361
X 6C4469726563746F72793E4E2F413C2F4C6F63616C44697265
X 63746F72793E3C53757070726573734572726F724C6F673E54
X 5255453C2F53757070726573734572726F724C6F673E3C5375
X 7070726573734572726F72546578743E4E2F413C2F53757070
X 726573734572726F72546578743E3C53757070726573734572
X 726F72456D61696C3E46414C53453C2F537570707265737345
X 72726F72456D61696C3E3C53757070726573734572726F7245
X 6D61696C416464726573733E4E2F413C2F5375707072657373
X 4572726F72456D61696C416464726573733E3C537570707265
X 73734572726F72456D61696C5375626A6563743E4E2F413C2F
X 53757070726573734572726F72456D61696C5375626A656374
X 3E3C53757070726573734572726F72456D61696C426F64793E
X 4E2F413C2F53757070726573734572726F72456D61696C426F
X 64793E3C53757070726573734572726F72456D61696C496E63
X 6C7564655061796C6F61643E545255453C2F53757070726573
X 734572726F72456D61696C496E636C7564655061796C6F6164
X 3E3C68747470456E64706F696E743E4E2F413C2F6874747045
X 6E64706F696E743E3C687474704661756C744D617852657472
X 6965733E333C2F687474704661756C744D6178526574726965
X 733E3C687474704661756C745265747279496E74657276616C
X 3E36303C2F687474704661756C745265747279496E74657276
X 616C3E3C6874747054696D656F75745365636F6E64733E3630
X 3C2F6874747054696D656F75745365636F6E64733E3C687474
X 7054696D656F75744D6178526574726965733E333C2F687474
X 7054696D656F75744D6178526574726965733E3C6874747054
X 696D656F75745265747279496E74657276616C3E36303C2F68
X 74747054696D656F75745265747279496E74657276616C3E3C
X 68747470436F6E6E526566757365644D617852657472696573
X 3E333C2F68747470436F6E6E526566757365644D6178526574
X 726965733E3C68747470436F6E6E5265667573656452657472
X 79496E74657276616C3E36303C2F68747470436F6E6E526566
X 757365645265747279496E74657276616C3E3C68747470416B
X 616E61546F6B656E56616C75653E4E2F413C2F68747470416B
X 616E61546F6B656E56616C75653E3C68747470436C69656E74
X 417574684B6579416C6961733E4E2F413C2F68747470436C69
X 656E74417574684B6579416C6961733E3C68747470416B616E
X 61546F6B656E50726F7669646572456E64706F696E743E4E2F
X 413C2F68747470416B616E61546F6B656E50726F7669646572
X 456E64706F696E743E3C68747470416B616E61546F6B656E55
X 73657249643E4E2F413C2F68747470416B616E61546F6B656E
X 5573657249643E3C68747470416B616E61546F6B656E506173
X 73776F72643E4E2F413C2F68747470416B616E61546F6B656E
X 50617373776F72643E3C68747470416B616E61546F6B656E43
X 6C69656E7449643E4E2F413C2F68747470416B616E61546F6B
X 656E436C69656E7449643E3C68747470416B616E61546F6B65
X 6E436C69656E745365637265743E4E2F413C2F68747470416B
X 616E61546F6B656E436C69656E745365637265743E3C2F4170
X 706C69636174696F6E4E616D653E3C4170706C69636174696F
X 6E4E616D653E3C6E616D653E4F52555F45706963546F536F66
X 74656B4C61625F484C3753656E6465724170703C2F6E616D65
X 3E3C484C37536F636B65744F75747075743E3C636F6E6E6563
X 74696F6E44657461696C733E6C6F63616C686F73743A343030
X 30313C2F636F6E6E656374696F6E44657461696C733E3C536E
X 47656E65726174655469636B65743E46414C53453C2F536E47
X 656E65726174655469636B65743E3C456D61696C47656E6572
X 617465456D61696C3E46414C53453C2F456D61696C47656E65
X 72617465456D61696C3E3C536E537570706F727447726F7570
X 3E456E746572707269736520496E74657266616365733C2F53
X 6E537570706F727447726F75703E3C456D61696C46726F6D3E
X 706C756D6D6572406D61796F2E6564753C2F456D61696C4672
X 6F6D3E3C456D61696C546F3E706C756D6D6572406D61796F2E
X 6564753C2F456D61696C546F3E3C436F6E6E656374696F6E52
X 6566757365645265747279496E74657276616C3E33303C2F43
X 6F6E6E656374696F6E526566757365645265747279496E7465
X 7276616C3E3C436F6E6E656374696F6E526566757365645374
X 6F70466C6F773E46414C53453C2F436F6E6E656374696F6E52
X 65667573656453746F70466C6F773E3C436F6E6E656374696F
X 6E526566757365644D6178526574726965733E2D313C2F436F
X 6E6E656374696F6E526566757365644D617852657472696573
X 3E3C436F6E6E656374696F6E54696D656F7574526574727949
X 6E74657276616C3E33303C2F436F6E6E656374696F6E54696D
X 656F75745265747279496E74657276616C3E3C436F6E6E6563
X 74696F6E54696D656F757453746F70466C6F773E46414C5345
X 3C2F436F6E6E656374696F6E54696D656F757453746F70466C
X 6F773E3C436F6E6E656374696F6E54696D656F75744D617852
X 6574726965733E333C2F436F6E6E656374696F6E54696D656F
X 75744D6178526574726965733E3C50726F636573734E61636B
X 41653E46414C53453C2F50726F636573734E61636B41653E3C
X 4E61636B41655265747279496E74657276616C3E36303C2F4E
X 61636B41655265747279496E74657276616C3E3C4E61636B41
X 6553746F70466C6F773E46414C53453C2F4E61636B41655374
X 6F70466C6F773E3C4E61636B41654D6178526574726965733E
X 333C2F4E61636B41654D6178526574726965733E3C50726F63
X 6573734E61636B41723E46414C53453C2F50726F636573734E
X 61636B41723E3C4E61636B41725265747279496E7465727661
X 6C3E36303C2F4E61636B41725265747279496E74657276616C
X 3E3C4E61636B417253746F70466C6F773E46414C53453C2F4E
X 61636B417253746F70466C6F773E3C4E61636B41724D617852
X 6574726965733E333C2F4E61636B41724D6178526574726965
X 733E3C54696D656F757457616974696E67466F72446174613E
X 36303C2F54696D656F757457616974696E67466F7244617461
X 3E3C436865636B41636B4576656E7446696C746572466C6167
X 3E545255453C2F436865636B41636B4576656E7446696C7465
X 72466C61673E3C5265636569766541636B4576656E7446696C
X 746572466C61673E545255453C2F5265636569766541636B45
X 76656E7446696C746572466C61673E3C44697361626C654163
X 6B4576656E7446696C746572466C61673E545255453C2F4469
X 7361626C6541636B4576656E7446696C746572466C61673E3C
X 4C6F6767696E674576656E7446696C746572466C61673E5452
X 55453C2F4C6F6767696E674576656E7446696C746572466C61
X 673E3C2F484C37536F636B65744F75747075743E3C45564E34
X 466C61673E46414C53453C2F45564E34466C61673E3C457665
X 6E74526561736F6E436F64653E424C4F434B3C2F4576656E74
X 526561736F6E436F64653E3C4576656E74416374696F6E3E44
X 4953434152443C2F4576656E74416374696F6E3E3C41756469
X 74496E7075744576656E7446696C746572466C61673E545255
X 453C2F4175646974496E7075744576656E7446696C74657246
X 6C61673E3C4572726F724D73674578706972793E333C2F4572
X 726F724D73674578706972793E3C54465349443E3537393837
X 353C2F54465349443E3C537570706F72744C696E6B3E4E2F41
X 3C2F537570706F72744C696E6B3E3C53657276657244697265
X 63746F72793E4E2F413C2F5365727665724469726563746F72
X 793E3C46696C654E616D653E4E2F413C2F46696C654E616D65
X 3E3C4C6F63616C4469726563746F72793E4E2F413C2F4C6F63
X 616C4469726563746F72793E3C53757070726573734572726F
X 724C6F673E545255453C2F53757070726573734572726F724C
X 6F673E3C53757070726573734572726F72546578743E4E2F41
X 3C2F53757070726573734572726F72546578743E3C53757070
X 726573734572726F72456D61696C3E46414C53453C2F537570
X 70726573734572726F72456D61696C3E3C5375707072657373
X 4572726F72456D61696C416464726573733E4E2F413C2F5375
X 7070726573734572726F72456D61696C416464726573733E3C
X 53757070726573734572726F72456D61696C5375626A656374
X 3E4E2F413C2F53757070726573734572726F72456D61696C53
X 75626A6563743E3C53757070726573734572726F72456D6169
X 6C426F64793E4E2F413C2F53757070726573734572726F7245
X 6D61696C426F64793E3C53757070726573734572726F72456D
X 61696C496E636C7564655061796C6F61643E545255453C2F53
X 757070726573734572726F72456D61696C496E636C75646550
X 61796C6F61643E3C68747470456E64706F696E743E4E2F413C
X 2F68747470456E64706F696E743E3C687474704661756C744D
X 6178526574726965733E333C2F687474704661756C744D6178
X 526574726965733E3C687474704661756C745265747279496E
X 74657276616C3E36303C2F687474704661756C745265747279
X 496E74657276616C3E3C6874747054696D656F75745365636F
X 6E64733E36303C2F6874747054696D656F75745365636F6E64
X 733E3C6874747054696D656F75744D6178526574726965733E
X 333C2F6874747054696D656F75744D6178526574726965733E
X 3C6874747054696D656F75745265747279496E74657276616C
X 3E36303C2F6874747054696D656F75745265747279496E7465
X 7276616C3E3C68747470436F6E6E526566757365644D617852
X 6574726965733E333C2F68747470436F6E6E52656675736564
X 4D6178526574726965733E3C68747470436F6E6E5265667573
X 65645265747279496E74657276616C3E36303C2F6874747043
X 6F6E6E526566757365645265747279496E74657276616C3E3C
X 68747470416B616E61546F6B656E56616C75653E4E2F413C2F
X 68747470416B616E61546F6B656E56616C75653E3C68747470
X 436C69656E74417574684B6579416C6961733E4E2F413C2F68
X 747470436C69656E74417574684B6579416C6961733E3C6874
X 7470416B616E61546F6B656E50726F7669646572456E64706F
X 696E743E4E2F413C2F68747470416B616E61546F6B656E5072
X 6F7669646572456E64706F696E743E3C68747470416B616E61
X 546F6B656E5573657249643E4E2F413C2F68747470416B616E
X 61546F6B656E5573657249643E3C68747470416B616E61546F
X 6B656E50617373776F72643E4E2F413C2F68747470416B616E
X 61546F6B656E50617373776F72643E3C68747470416B616E61
X 546F6B656E436C69656E7449643E4E2F413C2F68747470416B
X 616E61546F6B656E436C69656E7449643E3C68747470416B61
X 6E61546F6B656E436C69656E745365637265743E4E2F413C2F
X 68747470416B616E61546F6B656E436C69656E745365637265
X 743E3C2F4170706C69636174696F6E4E616D653E3C4170706C
X 69636174696F6E4E616D653E3C6E616D653E4144545F457069
X 63546F51706174684D43525F484C3753656E6465724170703C
X 2F6E616D653E3C484C37536F636B65744F75747075743E3C63
X 6F6E6E656374696F6E44657461696C733E6C6F63616C686F73
X 743A34303030313C2F636F6E6E656374696F6E44657461696C
X 733E3C536E47656E65726174655469636B65743E46414C5345
X 3C2F536E47656E65726174655469636B65743E3C456D61696C
X 47656E6572617465456D61696C3E46414C53453C2F456D6169
X 6C47656E6572617465456D61696C3E3C536E537570706F7274
X 47726F75703E456E746572707269736520496E746572666163
X 65733C2F536E537570706F727447726F75703E3C456D61696C
X 46726F6D3E706C756D6D6572406D61796F2E6564753C2F456D
X 61696C46726F6D3E3C456D61696C546F3E706C756D6D657240
X 6D61796F2E6564753C2F456D61696C546F3E3C436F6E6E6563
X 74696F6E526566757365645265747279496E74657276616C3E
X 33303C2F436F6E6E656374696F6E5265667573656452657472
X 79496E74657276616C3E3C436F6E6E656374696F6E52656675
X 73656453746F70466C6F773E46414C53453C2F436F6E6E6563
X 74696F6E5265667573656453746F70466C6F773E3C436F6E6E
X 656374696F6E526566757365644D6178526574726965733E2D
X 313C2F436F6E6E656374696F6E526566757365644D61785265
X 74726965733E3C436F6E6E656374696F6E54696D656F757452
X 65747279496E74657276616C3E33303C2F436F6E6E65637469
X 6F6E54696D656F75745265747279496E74657276616C3E3C43
X 6F6E6E656374696F6E54696D656F757453746F70466C6F773E
X 46414C53453C2F436F6E6E656374696F6E54696D656F757453
X 746F70466C6F773E3C436F6E6E656374696F6E54696D656F75
X 744D6178526574726965733E333C2F436F6E6E656374696F6E
X 54696D656F75744D6178526574726965733E3C50726F636573
X 734E61636B41653E46414C53453C2F50726F636573734E6163
X 6B41653E3C4E61636B41655265747279496E74657276616C3E
X 36303C2F4E61636B41655265747279496E74657276616C3E3C
X 4E61636B416553746F70466C6F773E46414C53453C2F4E6163
X 6B416553746F70466C6F773E3C4E61636B41654D6178526574
X 726965733E333C2F4E61636B41654D6178526574726965733E
X 3C50726F636573734E61636B41723E46414C53453C2F50726F
X 636573734E61636B41723E3C4E61636B41725265747279496E
X 74657276616C3E36303C2F4E61636B41725265747279496E74
X 657276616C3E3C4E61636B417253746F70466C6F773E46414C
X 53453C2F4E61636B417253746F70466C6F773E3C4E61636B41
X 724D6178526574726965733E333C2F4E61636B41724D617852
X 6574726965733E3C54696D656F757457616974696E67466F72
X 446174613E36303C2F54696D656F757457616974696E67466F
X 72446174613E3C436865636B41636B4576656E7446696C7465
X 72466C61673E545255453C2F436865636B41636B4576656E74
X 46696C746572466C61673E3C5265636569766541636B457665
X 6E7446696C746572466C61673E545255453C2F526563656976
X 6541636B4576656E7446696C746572466C61673E3C44697361
X 626C6541636B4576656E7446696C746572466C61673E545255
X 453C2F44697361626C6541636B4576656E7446696C74657246
X 6C61673E3C4C6F6767696E674576656E7446696C746572466C
X 61673E545255453C2F4C6F6767696E674576656E7446696C74
X 6572466C61673E3C2F484C37536F636B65744F75747075743E
X 3C45564E34466C61673E545255453C2F45564E34466C61673E
X 3C4576656E74526561736F6E436F64653E424C4F434B3C2F45
X 76656E74526561736F6E436F64653E3C4576656E7441637469
X 6F6E3E444953434152443C2F4576656E74416374696F6E3E3C
X 4175646974496E7075744576656E7446696C746572466C6167
X 3E545255453C2F4175646974496E7075744576656E7446696C
X 746572466C61673E3C4572726F724D73674578706972793E33
X 3C2F4572726F724D73674578706972793E3C54465349443E36
X 30373630353C2F54465349443E3C537570706F72744C696E6B
X 3E4E2F413C2F537570706F72744C696E6B3E3C536572766572
X 4469726563746F72793E4E2F413C2F53657276657244697265
X 63746F72793E3C46696C654E616D653E4E2F413C2F46696C65
X 4E616D653E3C4C6F63616C4469726563746F72793E4E2F413C
X 2F4C6F63616C4469726563746F72793E3C5375707072657373
X 4572726F724C6F673E545255453C2F53757070726573734572
X 726F724C6F673E3C53757070726573734572726F7254657874
X 3E4E2F413C2F53757070726573734572726F72546578743E3C
X 53757070726573734572726F72456D61696C3E46414C53453C
X 2F53757070726573734572726F72456D61696C3E3C53757070
X 726573734572726F72456D61696C416464726573733E4E2F41
X 3C2F53757070726573734572726F72456D61696C4164647265
X 73733E3C53757070726573734572726F72456D61696C537562
X 6A6563743E4E2F413C2F53757070726573734572726F72456D
X 61696C5375626A6563743E3C53757070726573734572726F72
X 456D61696C426F64793E4E2F413C2F53757070726573734572
X 726F72456D61696C426F64793E3C5375707072657373457272
X 6F72456D61696C496E636C7564655061796C6F61643E545255
X 453C2F53757070726573734572726F72456D61696C496E636C
X 7564655061796C6F61643E3C68747470456E64706F696E743E
X 4E2F413C2F68747470456E64706F696E743E3C687474704661
X 756C744D6178526574726965733E333C2F687474704661756C
X 744D6178526574726965733E3C687474704661756C74526574
X 7279496E74657276616C3E36303C2F687474704661756C7452
X 65747279496E74657276616C3E3C6874747054696D656F7574
X 5365636F6E64733E36303C2F6874747054696D656F75745365
X 636F6E64733E3C6874747054696D656F75744D617852657472
X 6965733E333C2F6874747054696D656F75744D617852657472
X 6965733E3C6874747054696D656F75745265747279496E7465
X 7276616C3E36303C2F6874747054696D656F75745265747279
X 496E74657276616C3E3C68747470436F6E6E52656675736564
X 4D6178526574726965733E333C2F68747470436F6E6E526566
X 757365644D6178526574726965733E3C68747470436F6E6E52
X 6566757365645265747279496E74657276616C3E36303C2F68
X 747470436F6E6E526566757365645265747279496E74657276
X 616C3E3C68747470416B616E61546F6B656E56616C75653E4E
X 2F413C2F68747470416B616E61546F6B656E56616C75653E3C
X 68747470436C69656E74417574684B6579416C6961733E4E2F
X 413C2F68747470436C69656E74417574684B6579416C696173
X 3E3C68747470416B616E61546F6B656E50726F766964657245
X 6E64706F696E743E4E2F413C2F68747470416B616E61546F6B
X 656E50726F7669646572456E64706F696E743E3C6874747041
X 6B616E61546F6B656E5573657249643E4E2F413C2F68747470
X 416B616E61546F6B656E5573657249643E3C68747470416B61
X 6E61546F6B656E50617373776F72643E4E2F413C2F68747470
X 416B616E61546F6B656E50617373776F72643E3C6874747041
X 6B616E61546F6B656E436C69656E7449643E4E2F413C2F6874
X 7470416B616E61546F6B656E436C69656E7449643E3C687474
X 70416B616E61546F6B656E436C69656E745365637265743E4E
X 2F413C2F68747470416B616E61546F6B656E436C69656E7453
X 65637265743E3C2F4170706C69636174696F6E4E616D653E3C
X 4170706C69636174696F6E4E616D653E3C6E616D653E4F5255
X 5F4D656473747265616D696E67546F436C6F7665726C656166
X 5F484C3753656E6465724170703C2F6E616D653E3C484C3753
X 6F636B65744F75747075743E3C636F6E6E656374696F6E4465
X 7461696C733E636C766465762E6D61796F2E6564753A313833
X 39383C2F636F6E6E656374696F6E44657461696C733E3C536E
X 47656E65726174655469636B65743E46414C53453C2F536E47
X 656E65726174655469636B65743E3C456D61696C47656E6572
X 617465456D61696C3E46414C53453C2F456D61696C47656E65
X 72617465456D61696C3E3C536E537570706F727447726F7570
X 3E456E746572707269736520496E74657266616365733C2F53
X 6E537570706F727447726F75703E3C456D61696C46726F6D3E
X 706C756D6D6572406D61796F2E6564753C2F456D61696C4672
X 6F6D3E3C456D61696C546F3E706C756D6D6572406D61796F2E
X 6564753C2F456D61696C546F3E3C436F6E6E656374696F6E52
X 6566757365645265747279496E74657276616C3E33303C2F43
X 6F6E6E656374696F6E526566757365645265747279496E7465
X 7276616C3E3C436F6E6E656374696F6E526566757365645374
X 6F70466C6F773E46414C53453C2F436F6E6E656374696F6E52
X 65667573656453746F70466C6F773E3C436F6E6E656374696F
X 6E526566757365644D6178526574726965733E2D313C2F436F
X 6E6E656374696F6E526566757365644D617852657472696573
X 3E3C436F6E6E656374696F6E54696D656F7574526574727949
X 6E74657276616C3E33303C2F436F6E6E656374696F6E54696D
X 656F75745265747279496E74657276616C3E3C436F6E6E6563
X 74696F6E54696D656F757453746F70466C6F773E46414C5345
X 3C2F436F6E6E656374696F6E54696D656F757453746F70466C
X 6F773E3C436F6E6E656374696F6E54696D656F75744D617852
X 6574726965733E333C2F436F6E6E656374696F6E54696D656F
X 75744D6178526574726965733E3C50726F636573734E61636B
X 41653E46414C53453C2F50726F636573734E61636B41653E3C
X 4E61636B41655265747279496E74657276616C3E36303C2F4E
X 61636B41655265747279496E74657276616C3E3C4E61636B41
X 6553746F70466C6F773E46414C53453C2F4E61636B41655374
X 6F70466C6F773E3C4E61636B41654D6178526574726965733E
X 333C2F4E61636B41654D6178526574726965733E3C50726F63
X 6573734E61636B41723E46414C53453C2F50726F636573734E
X 61636B41723E3C4E61636B41725265747279496E7465727661
X 6C3E36303C2F4E61636B41725265747279496E74657276616C
X 3E3C4E61636B417253746F70466C6F773E46414C53453C2F4E
X 61636B417253746F70466C6F773E3C4E61636B41724D617852
X 6574726965733E333C2F4E61636B41724D6178526574726965
X 733E3C54696D656F757457616974696E67466F72446174613E
X 36303C2F54696D656F757457616974696E67466F7244617461
X 3E3C436865636B41636B4576656E7446696C746572466C6167
X 3E545255453C2F436865636B41636B4576656E7446696C7465
X 72466C61673E3C5265636569766541636B4576656E7446696C
X 746572466C61673E545255453C2F5265636569766541636B45
X 76656E7446696C746572466C61673E3C44697361626C654163
X 6B4576656E7446696C746572466C61673E545255453C2F4469
X 7361626C6541636B4576656E7446696C746572466C61673E3C
X 4C6F6767696E674576656E7446696C746572466C61673E5452
X 55453C2F4C6F6767696E674576656E7446696C746572466C61
X 673E3C2F484C37536F636B65744F75747075743E3C45564E34
X 466C61673E46414C53453C2F45564E34466C61673E3C457665
X 6E74526561736F6E436F64653E424C4F434B3C2F4576656E74
X 526561736F6E436F64653E3C4576656E74416374696F6E3E44
X 4953434152443C2F4576656E74416374696F6E3E3C41756469
X 74496E7075744576656E7446696C746572466C61673E545255
X 453C2F4175646974496E7075744576656E7446696C74657246
X 6C61673E3C4572726F724D73674578706972793E333C2F4572
X 726F724D73674578706972793E3C54465349443E4E2F413C2F
X 54465349443E3C537570706F72744C696E6B3E4E2F413C2F53
X 7570706F72744C696E6B3E3C5365727665724469726563746F
X 72793E4E2F413C2F5365727665724469726563746F72793E3C
X 46696C654E616D653E4E2F413C2F46696C654E616D653E3C4C
X 6F63616C4469726563746F72793E4E2F413C2F4C6F63616C44
X 69726563746F72793E3C53757070726573734572726F724C6F
X 673E545255453C2F53757070726573734572726F724C6F673E
X 3C53757070726573734572726F72546578743E4E2F413C2F53
X 757070726573734572726F72546578743E3C53757070726573
X 734572726F72456D61696C3E46414C53453C2F537570707265
X 73734572726F72456D61696C3E3C5375707072657373457272
X 6F72456D61696C416464726573733E4E2F413C2F5375707072
X 6573734572726F72456D61696C416464726573733E3C537570
X 70726573734572726F72456D61696C5375626A6563743E4E2F
X 413C2F53757070726573734572726F72456D61696C5375626A
X 6563743E3C53757070726573734572726F72456D61696C426F
X 64793E4E2F413C2F53757070726573734572726F72456D6169
X 6C426F64793E3C53757070726573734572726F72456D61696C
X 496E636C7564655061796C6F61643E545255453C2F53757070
X 726573734572726F72456D61696C496E636C7564655061796C
X 6F61643E3C68747470456E64706F696E743E4E2F413C2F6874
X 7470456E64706F696E743E3C687474704661756C744D617852
X 6574726965733E333C2F687474704661756C744D6178526574
X 726965733E3C687474704661756C745265747279496E746572
X 76616C3E36303C2F687474704661756C745265747279496E74
X 657276616C3E3C6874747054696D656F75745365636F6E6473
X 3E36303C2F6874747054696D656F75745365636F6E64733E3C
X 6874747054696D656F75744D6178526574726965733E333C2F
X 6874747054696D656F75744D6178526574726965733E3C6874
X 747054696D656F75745265747279496E74657276616C3E3630
X 3C2F6874747054696D656F75745265747279496E7465727661
X 6C3E3C68747470436F6E6E526566757365644D617852657472
X 6965733E333C2F68747470436F6E6E526566757365644D6178
X 526574726965733E3C68747470436F6E6E5265667573656452
X 65747279496E74657276616C3E36303C2F68747470436F6E6E
X 526566757365645265747279496E74657276616C3E3C687474
X 70416B616E61546F6B656E56616C75653E4E2F413C2F687474
X 70416B616E61546F6B656E56616C75653E3C68747470436C69
X 656E74417574684B6579416C6961733E4E2F413C2F68747470
X 436C69656E74417574684B6579416C6961733E3C6874747041
X 6B616E61546F6B656E50726F7669646572456E64706F696E74
X 3E4E2F413C2F68747470416B616E61546F6B656E50726F7669
X 646572456E64706F696E743E3C68747470416B616E61546F6B
X 656E5573657249643E4E2F413C2F68747470416B616E61546F
X 6B656E5573657249643E3C68747470416B616E61546F6B656E
X 50617373776F72643E4E2F413C2F68747470416B616E61546F
X 6B656E50617373776F72643E3C68747470416B616E61546F6B
X 656E436C69656E7449643E4E2F413C2F68747470416B616E61
X 546F6B656E436C69656E7449643E3C68747470416B616E6154
X 6F6B656E436C69656E745365637265743E4E2F413C2F687474
X 70416B616E61546F6B656E436C69656E745365637265743E3C
X 2F4170706C69636174696F6E4E616D653E3C4170706C696361
X 74696F6E4E616D653E3C6E616D653E4F52555F455342546F4F
X 7074756D5F484C3753656E6465724170703C2F6E616D653E3C
X 484C37536F636B65744F75747075743E3C636F6E6E65637469
X 6F6E44657461696C733E6C6F63616C686F73743A3430303031
X 3C2F636F6E6E656374696F6E44657461696C733E3C536E4765
X 6E65726174655469636B65743E46414C53453C2F536E47656E
X 65726174655469636B65743E3C456D61696C47656E65726174
X 65456D61696C3E46414C53453C2F456D61696C47656E657261
X 7465456D61696C3E3C536E537570706F727447726F75703E45
X 6E746572707269736520496E74657266616365733C2F536E53
X 7570706F727447726F75703E3C456D61696C46726F6D3E444C
X 526576656E75654379636C65546563685465616D406D61796F
X 2E6564753C2F456D61696C46726F6D3E3C456D61696C546F3E
X 444C526576656E75654379636C65546563685465616D406D61
X 796F2E6564753C2F456D61696C546F3E3C436F6E6E65637469
X 6F6E526566757365645265747279496E74657276616C3E3330
X 3C2F436F6E6E656374696F6E52656675736564526574727949
X 6E74657276616C3E3C436F6E6E656374696F6E526566757365
X 6453746F70466C6F773E46414C53453C2F436F6E6E65637469
X 6F6E5265667573656453746F70466C6F773E3C436F6E6E6563
X 74696F6E526566757365644D6178526574726965733E2D313C
X 2F436F6E6E656374696F6E526566757365644D617852657472
X 6965733E3C436F6E6E656374696F6E54696D656F7574526574
X 7279496E74657276616C3E33303C2F436F6E6E656374696F6E
X 54696D656F75745265747279496E74657276616C3E3C436F6E
X 6E656374696F6E54696D656F757453746F70466C6F773E5452
X 55453C2F436F6E6E656374696F6E54696D656F757453746F70
X 466C6F773E3C436F6E6E656374696F6E54696D656F75744D61
X 78526574726965733E2D313C2F436F6E6E656374696F6E5469
X 6D656F75744D6178526574726965733E3C50726F636573734E
X 61636B41653E46414C53453C2F50726F636573734E61636B41
X 653E3C4E61636B41655265747279496E74657276616C3E3630
X 3C2F4E61636B41655265747279496E74657276616C3E3C4E61
X 636B416553746F70466C6F773E46414C53453C2F4E61636B41
X 6553746F70466C6F773E3C4E61636B41654D61785265747269
X 65733E333C2F4E61636B41654D6178526574726965733E3C50
X 726F636573734E61636B41723E46414C53453C2F50726F6365
X 73734E61636B41723E3C4E61636B41725265747279496E7465
X 7276616C3E36303C2F4E61636B41725265747279496E746572
X 76616C3E3C4E61636B417253746F70466C6F773E46414C5345
X 3C2F4E61636B417253746F70466C6F773E3C4E61636B41724D
X 6178526574726965733E333C2F4E61636B41724D6178526574
X 726965733E3C54696D656F757457616974696E67466F724461
X 74613E36303C2F54696D656F757457616974696E67466F7244
X 6174613E3C436865636B41636B4576656E7446696C74657246
X 6C61673E545255453C2F436865636B41636B4576656E744669
X 6C746572466C61673E3C5265636569766541636B4576656E74
X 46696C746572466C61673E545255453C2F5265636569766541
X 636B4576656E7446696C746572466C61673E3C44697361626C
X 6541636B4576656E7446696C746572466C61673E545255453C
X 2F44697361626C6541636B4576656E7446696C746572466C61
X 673E3C4C6F6767696E674576656E7446696C746572466C6167
X 3E545255453C2F4C6F6767696E674576656E7446696C746572
X 466C61673E3C2F484C37536F636B65744F75747075743E3C45
X 564E34466C61673E46414C53453C2F45564E34466C61673E3C
X 4576656E74526561736F6E436F64653E424C4F434B3C2F4576
X 656E74526561736F6E436F64653E3C4576656E74416374696F
X 6E3E444953434152443C2F4576656E74416374696F6E3E3C41
X 75646974496E7075744576656E7446696C746572466C61673E
X 545255453C2F4175646974496E7075744576656E7446696C74
X 6572466C61673E3C4572726F724D73674578706972793E333C
X 2F4572726F724D73674578706972793E3C54465349443E3531
X 333531323C2F54465349443E3C537570706F72744C696E6B3E
X 4E2F413C2F537570706F72744C696E6B3E3C53657276657244
X 69726563746F72793E4E2F413C2F5365727665724469726563
X 746F72793E3C46696C654E616D653E4E2F413C2F46696C654E
X 616D653E3C4C6F63616C4469726563746F72793E4E2F413C2F
X 4C6F63616C4469726563746F72793E3C537570707265737345
X 72726F724C6F673E545255453C2F5375707072657373457272
X 6F724C6F673E3C53757070726573734572726F72546578743E
X 4E2F413C2F53757070726573734572726F72546578743E3C53
X 757070726573734572726F72456D61696C3E46414C53453C2F
X 53757070726573734572726F72456D61696C3E3C5375707072
X 6573734572726F72456D61696C416464726573733E4E2F413C
X 2F53757070726573734572726F72456D61696C416464726573
X 733E3C53757070726573734572726F72456D61696C5375626A
X 6563743E4E2F413C2F53757070726573734572726F72456D61
X 696C5375626A6563743E3C53757070726573734572726F7245
X 6D61696C426F64793E4E2F413C2F5375707072657373457272
X 6F72456D61696C426F64793E3C53757070726573734572726F
X 72456D61696C496E636C7564655061796C6F61643E54525545
X 3C2F53757070726573734572726F72456D61696C496E636C75
X 64655061796C6F61643E3C68747470456E64706F696E743E4E
X 2F413C2F68747470456E64706F696E743E3C68747470466175
X 6C744D6178526574726965733E333C2F687474704661756C74
X 4D6178526574726965733E3C687474704661756C7452657472
X 79496E74657276616C3E36303C2F687474704661756C745265
X 747279496E74657276616C3E3C6874747054696D656F757453
X 65636F6E64733E36303C2F6874747054696D656F7574536563
X 6F6E64733E3C6874747054696D656F75744D61785265747269
X 65733E333C2F6874747054696D656F75744D61785265747269
X 65733E3C6874747054696D656F75745265747279496E746572
X 76616C3E36303C2F6874747054696D656F7574526574727949
X 6E74657276616C3E3C68747470436F6E6E526566757365644D
X 6178526574726965733E333C2F68747470436F6E6E52656675
X 7365644D6178526574726965733E3C68747470436F6E6E5265
X 66757365645265747279496E74657276616C3E36303C2F6874
X 7470436F6E6E526566757365645265747279496E7465727661
X 6C3E3C68747470416B616E61546F6B656E56616C75653E4E2F
X 413C2F68747470416B616E61546F6B656E56616C75653E3C68
X 747470436C69656E74417574684B6579416C6961733E4E2F41
X 3C2F68747470436C69656E74417574684B6579416C6961733E
X 3C68747470416B616E61546F6B656E50726F7669646572456E
X 64706F696E743E4E2F413C2F68747470416B616E61546F6B65
X 6E50726F7669646572456E64706F696E743E3C68747470416B
X 616E61546F6B656E5573657249643E4E2F413C2F6874747041
X 6B616E61546F6B656E5573657249643E3C68747470416B616E
X 61546F6B656E50617373776F72643E4E2F413C2F6874747041
X 6B616E61546F6B656E50617373776F72643E3C68747470416B
X 616E61546F6B656E436C69656E7449643E4E2F413C2F687474
X 70416B616E61546F6B656E436C69656E7449643E3C68747470
X 416B616E61546F6B656E436C69656E745365637265743E4E2F
X 413C2F68747470416B616E61546F6B656E436C69656E745365
X 637265743E3C2F4170706C69636174696F6E4E616D653E3C41
X 70706C69636174696F6E4E616D653E3C6E616D653E4D444D5F
X 4C6567616379546F4F7074756D5F484C3753656E6465724170
X 703C2F6E616D653E3C484C37536F636B65744F75747075743E
X 3C636F6E6E656374696F6E44657461696C733E6C6F63616C68
X 6F73743A34303030313C2F636F6E6E656374696F6E44657461
X 696C733E3C536E47656E65726174655469636B65743E46414C
X 53453C2F536E47656E65726174655469636B65743E3C456D61
X 696C47656E6572617465456D61696C3E46414C53453C2F456D
X 61696C47656E6572617465456D61696C3E3C536E537570706F
X 727447726F75703E456E746572707269736520496E74657266
X 616365733C2F536E537570706F727447726F75703E3C456D61
X 696C46726F6D3E444C526576656E75654379636C6554656368
X 5465616D406D61796F2E6564753C2F456D61696C46726F6D3E
X 3C456D61696C546F3E444C526576656E75654379636C655465
X 63685465616D406D61796F2E6564753C2F456D61696C546F3E
X 3C436F6E6E656374696F6E526566757365645265747279496E
X 74657276616C3E33303C2F436F6E6E656374696F6E52656675
X 7365645265747279496E74657276616C3E3C436F6E6E656374
X 696F6E5265667573656453746F70466C6F773E46414C53453C
X 2F436F6E6E656374696F6E5265667573656453746F70466C6F
X 773E3C436F6E6E656374696F6E526566757365644D61785265
X 74726965733E2D313C2F436F6E6E656374696F6E5265667573
X 65644D6178526574726965733E3C436F6E6E656374696F6E54
X 696D656F75745265747279496E74657276616C3E33303C2F43
X 6F6E6E656374696F6E54696D656F75745265747279496E7465
X 7276616C3E3C436F6E6E656374696F6E54696D656F75745374
X 6F70466C6F773E545255453C2F436F6E6E656374696F6E5469
X 6D656F757453746F70466C6F773E3C436F6E6E656374696F6E
X 54696D656F75744D6178526574726965733E2D313C2F436F6E
X 6E656374696F6E54696D656F75744D6178526574726965733E
X 3C50726F636573734E61636B41653E46414C53453C2F50726F
X 636573734E61636B41653E3C4E61636B41655265747279496E
X 74657276616C3E36303C2F4E61636B41655265747279496E74
X 657276616C3E3C4E61636B416553746F70466C6F773E46414C
X 53453C2F4E61636B416553746F70466C6F773E3C4E61636B41
X 654D6178526574726965733E333C2F4E61636B41654D617852
X 6574726965733E3C50726F636573734E61636B41723E46414C
X 53453C2F50726F636573734E61636B41723E3C4E61636B4172
X 5265747279496E74657276616C3E36303C2F4E61636B417252
X 65747279496E74657276616C3E3C4E61636B417253746F7046
X 6C6F773E46414C53453C2F4E61636B417253746F70466C6F77
X 3E3C4E61636B41724D6178526574726965733E333C2F4E6163
X 6B41724D6178526574726965733E3C54696D656F7574576169
X 74696E67466F72446174613E36303C2F54696D656F75745761
X 6974696E67466F72446174613E3C436865636B41636B457665
X 6E7446696C746572466C61673E545255453C2F436865636B41
X 636B4576656E7446696C746572466C61673E3C526563656976
X 6541636B4576656E7446696C746572466C61673E545255453C
X 2F5265636569766541636B4576656E7446696C746572466C61
X 673E3C44697361626C6541636B4576656E7446696C74657246
X 6C61673E545255453C2F44697361626C6541636B4576656E74
X 46696C746572466C61673E3C4C6F6767696E674576656E7446
X 696C746572466C61673E545255453C2F4C6F6767696E674576
X 656E7446696C746572466C61673E3C2F484C37536F636B6574
X 4F75747075743E3C45564E34466C61673E46414C53453C2F45
X 564E34466C61673E3C4576656E74526561736F6E436F64653E
X 424C4F434B3C2F4576656E74526561736F6E436F64653E3C45
X 76656E74416374696F6E3E444953434152443C2F4576656E74
X 416374696F6E3E3C4175646974496E7075744576656E744669
X 6C746572466C61673E545255453C2F4175646974496E707574
X 4576656E7446696C746572466C61673E3C4572726F724D7367
X 4578706972793E333C2F4572726F724D73674578706972793E
X 3C54465349443E3531333531323C2F54465349443E3C537570
X 706F72744C696E6B3E4E2F413C2F537570706F72744C696E6B
X 3E3C5365727665724469726563746F72793E4E2F413C2F5365
X 727665724469726563746F72793E3C46696C654E616D653E4E
X 2F413C2F46696C654E616D653E3C4C6F63616C446972656374
X 6F72793E4E2F413C2F4C6F63616C4469726563746F72793E3C
X 53757070726573734572726F724C6F673E545255453C2F5375
X 7070726573734572726F724C6F673E3C537570707265737345
X 72726F72546578743E4E2F413C2F5375707072657373457272
X 6F72546578743E3C53757070726573734572726F72456D6169
X 6C3E46414C53453C2F53757070726573734572726F72456D61
X 696C3E3C53757070726573734572726F72456D61696C416464
X 726573733E4E2F413C2F53757070726573734572726F72456D
X 61696C416464726573733E3C53757070726573734572726F72
X 456D61696C5375626A6563743E4E2F413C2F53757070726573
X 734572726F72456D61696C5375626A6563743E3C5375707072
X 6573734572726F72456D61696C426F64793E4E2F413C2F5375
X 7070726573734572726F72456D61696C426F64793E3C537570
X 70726573734572726F72456D61696C496E636C756465506179
X 6C6F61643E545255453C2F53757070726573734572726F7245
X 6D61696C496E636C7564655061796C6F61643E3C6874747045
X 6E64706F696E743E4E2F413C2F68747470456E64706F696E74
X 3E3C687474704661756C744D6178526574726965733E333C2F
X 687474704661756C744D6178526574726965733E3C68747470
X 4661756C745265747279496E74657276616C3E36303C2F6874
X 74704661756C745265747279496E74657276616C3E3C687474
X 7054696D656F75745365636F6E64733E36303C2F6874747054
X 696D656F75745365636F6E64733E3C6874747054696D656F75
X 744D6178526574726965733E333C2F6874747054696D656F75
X 744D6178526574726965733E3C6874747054696D656F757452
X 65747279496E74657276616C3E36303C2F6874747054696D65
X 6F75745265747279496E74657276616C3E3C68747470436F6E
X 6E526566757365644D6178526574726965733E333C2F687474
X 70436F6E6E526566757365644D6178526574726965733E3C68
X 747470436F6E6E526566757365645265747279496E74657276
X 616C3E36303C2F68747470436F6E6E52656675736564526574
X 7279496E74657276616C3E3C68747470416B616E61546F6B65
X 6E56616C75653E4E2F413C2F68747470416B616E61546F6B65
X 6E56616C75653E3C68747470436C69656E74417574684B6579
X 416C6961733E4E2F413C2F68747470436C69656E7441757468
X 4B6579416C6961733E3C68747470416B616E61546F6B656E50
X 726F7669646572456E64706F696E743E4E2F413C2F68747470
X 416B616E61546F6B656E50726F7669646572456E64706F696E
X 743E3C68747470416B616E61546F6B656E5573657249643E4E
X 2F413C2F68747470416B616E61546F6B656E5573657249643E
X 3C68747470416B616E61546F6B656E50617373776F72643E4E
X 2F413C2F68747470416B616E61546F6B656E50617373776F72
X 643E3C68747470416B616E61546F6B656E436C69656E744964
X 3E4E2F413C2F68747470416B616E61546F6B656E436C69656E
X 7449643E3C68747470416B616E61546F6B656E436C69656E74
X 5365637265743E4E2F413C2F68747470416B616E61546F6B65
X 6E436C69656E745365637265743E3C2F4170706C6963617469
X 6F6E4E616D653E3C4170706C69636174696F6E4E616D653E3C
X 6E616D653E4F524D5F45706963546F5343494D6167655F484C
X 3753656E6465724170703C2F6E616D653E3C484C37536F636B
X 65744F75747075743E3C636F6E6E656374696F6E4465746169
X 6C733E6C6F63616C686F73743A34303030313C2F636F6E6E65
X 6374696F6E44657461696C733E3C536E47656E657261746554
X 69636B65743E46414C53453C2F536E47656E65726174655469
X 636B65743E3C456D61696C47656E6572617465456D61696C3E
X 46414C53453C2F456D61696C47656E6572617465456D61696C
X 3E3C536E537570706F727447726F75703E456E746572707269
X 736520496E74657266616365733C2F536E537570706F727447
X 726F75703E3C456D61696C46726F6D3E706C756D6D6572406D
X 61796F2E6564753C2F456D61696C46726F6D3E3C456D61696C
X 546F3E706C756D6D6572406D61796F2E6564753C2F456D6169
X 6C546F3E3C436F6E6E656374696F6E52656675736564526574
X 7279496E74657276616C3E33303C2F436F6E6E656374696F6E
X 526566757365645265747279496E74657276616C3E3C436F6E
X 6E656374696F6E5265667573656453746F70466C6F773E4641
X 4C53453C2F436F6E6E656374696F6E5265667573656453746F
X 70466C6F773E3C436F6E6E656374696F6E526566757365644D
X 6178526574726965733E2D313C2F436F6E6E656374696F6E52
X 6566757365644D6178526574726965733E3C436F6E6E656374
X 696F6E54696D656F75745265747279496E74657276616C3E33
X 303C2F436F6E6E656374696F6E54696D656F75745265747279
X 496E74657276616C3E3C436F6E6E656374696F6E54696D656F
X 757453746F70466C6F773E46414C53453C2F436F6E6E656374
X 696F6E54696D656F757453746F70466C6F773E3C436F6E6E65
X 6374696F6E54696D656F75744D6178526574726965733E333C
X 2F436F6E6E656374696F6E54696D656F75744D617852657472
X 6965733E3C50726F636573734E61636B41653E46414C53453C
X 2F50726F636573734E61636B41653E3C4E61636B4165526574
X 7279496E74657276616C3E36303C2F4E61636B416552657472
X 79496E74657276616C3E3C4E61636B416553746F70466C6F77
X 3E46414C53453C2F4E61636B416553746F70466C6F773E3C4E
X 61636B41654D6178526574726965733E333C2F4E61636B4165
X 4D6178526574726965733E3C50726F636573734E61636B4172
X 3E46414C53453C2F50726F636573734E61636B41723E3C4E61
X 636B41725265747279496E74657276616C3E36303C2F4E6163
X 6B41725265747279496E74657276616C3E3C4E61636B417253
X 746F70466C6F773E46414C53453C2F4E61636B417253746F70
X 466C6F773E3C4E61636B41724D6178526574726965733E333C
X 2F4E61636B41724D6178526574726965733E3C54696D656F75
X 7457616974696E67466F72446174613E36303C2F54696D656F
X 757457616974696E67466F72446174613E3C436865636B4163
X 6B4576656E7446696C746572466C61673E545255453C2F4368
X 65636B41636B4576656E7446696C746572466C61673E3C5265
X 636569766541636B4576656E7446696C746572466C61673E54
X 5255453C2F5265636569766541636B4576656E7446696C7465
X 72466C61673E3C44697361626C6541636B4576656E7446696C
X 746572466C61673E545255453C2F44697361626C6541636B45
X 76656E7446696C746572466C61673E3C4C6F6767696E674576
X 656E7446696C746572466C61673E545255453C2F4C6F676769
X 6E674576656E7446696C746572466C61673E3C2F484C37536F
X 636B65744F75747075743E3C45564E34466C61673E46414C53
X 453C2F45564E34466C61673E3C4576656E74526561736F6E43
X 6F64653E424C4F434B3C2F4576656E74526561736F6E436F64
X 653E3C4576656E74416374696F6E3E444953434152443C2F45
X 76656E74416374696F6E3E3C4175646974496E707574457665
X 6E7446696C746572466C61673E545255453C2F417564697449
X 6E7075744576656E7446696C746572466C61673E3C4572726F
X 724D73674578706972793E333C2F4572726F724D7367457870
X 6972793E3C54465349443E4E2F413C2F54465349443E3C5375
X 70706F72744C696E6B3E4E2F413C2F537570706F72744C696E
X 6B3E3C5365727665724469726563746F72793E4E2F413C2F53
X 65727665724469726563746F72793E3C46696C654E616D653E
X 4E2F413C2F46696C654E616D653E3C4C6F63616C4469726563
X 746F72793E4E2F413C2F4C6F63616C4469726563746F72793E
X 3C53757070726573734572726F724C6F673E545255453C2F53
X 757070726573734572726F724C6F673E3C5375707072657373
X 4572726F72546578743E4E2F413C2F53757070726573734572
X 726F72546578743E3C53757070726573734572726F72456D61
X 696C3E46414C53453C2F53757070726573734572726F72456D
X 61696C3E3C53757070726573734572726F72456D61696C4164
X 64726573733E4E2F413C2F53757070726573734572726F7245
X 6D61696C416464726573733E3C53757070726573734572726F
X 72456D61696C5375626A6563743E4E2F413C2F537570707265
X 73734572726F72456D61696C5375626A6563743E3C53757070
X 726573734572726F72456D61696C426F64793E4E2F413C2F53
X 757070726573734572726F72456D61696C426F64793E3C5375
X 7070726573734572726F72456D61696C496E636C7564655061
X 796C6F61643E545255453C2F53757070726573734572726F72
X 456D61696C496E636C7564655061796C6F61643E3C68747470
X 456E64706F696E743E4E2F413C2F68747470456E64706F696E
X 743E3C687474704661756C744D6178526574726965733E333C
X 2F687474704661756C744D6178526574726965733E3C687474
X 704661756C745265747279496E74657276616C3E36303C2F68
X 7474704661756C745265747279496E74657276616C3E3C6874
X 747054696D656F75745365636F6E64733E36303C2F68747470
X 54696D656F75745365636F6E64733E3C6874747054696D656F
X 75744D6178526574726965733E333C2F6874747054696D656F
X 75744D6178526574726965733E3C6874747054696D656F7574
X 5265747279496E74657276616C3E36303C2F6874747054696D
X 656F75745265747279496E74657276616C3E3C68747470436F
X 6E6E526566757365644D6178526574726965733E333C2F6874
X 7470436F6E6E526566757365644D6178526574726965733E3C
X 68747470436F6E6E526566757365645265747279496E746572
X 76616C3E36303C2F68747470436F6E6E526566757365645265
X 747279496E74657276616C3E3C68747470416B616E61546F6B
X 656E56616C75653E4E2F413C2F68747470416B616E61546F6B
X 656E56616C75653E3C68747470436C69656E74417574684B65
X 79416C6961733E4E2F413C2F68747470436C69656E74417574
X 684B6579416C6961733E3C68747470416B616E61546F6B656E
X 50726F7669646572456E64706F696E743E4E2F413C2F687474
X 70416B616E61546F6B656E50726F7669646572456E64706F69
X 6E743E3C68747470416B616E61546F6B656E5573657249643E
X 4E2F413C2F68747470416B616E61546F6B656E557365724964
X 3E3C68747470416B616E61546F6B656E50617373776F72643E
X 4E2F413C2F68747470416B616E61546F6B656E50617373776F
X 72643E3C68747470416B616E61546F6B656E436C69656E7449
X 643E4E2F413C2F68747470416B616E61546F6B656E436C6965
X 6E7449643E3C68747470416B616E61546F6B656E436C69656E
X 745365637265743E4E2F413C2F68747470416B616E61546F6B
X 656E436C69656E745365637265743E3C2F4170706C69636174
X 696F6E4E616D653E3C4170706C69636174696F6E4E616D653E
X 3C6E616D653E4F52555F455342546F4F7074756D5044465F48
X 4C3753656E6465724170703C2F6E616D653E3C484C37536F63
X 6B65744F75747075743E3C636F6E6E656374696F6E44657461
X 696C733E6C6F63616C686F73743A34303030313C2F636F6E6E
X 656374696F6E44657461696C733E3C536E47656E6572617465
X 5469636B65743E46414C53453C2F536E47656E657261746554
X 69636B65743E3C456D61696C47656E6572617465456D61696C
X 3E46414C53453C2F456D61696C47656E6572617465456D6169
X 6C3E3C536E537570706F727447726F75703E456E7465727072
X 69736520496E74657266616365733C2F536E537570706F7274
X 47726F75703E3C456D61696C46726F6D3E444C526576656E75
X 654379636C65546563685465616D406D61796F2E6564753C2F
X 456D61696C46726F6D3E3C456D61696C546F3E444C52657665
X 6E75654379636C65546563685465616D406D61796F2E656475
X 3C2F456D61696C546F3E3C436F6E6E656374696F6E52656675
X 7365645265747279496E74657276616C3E33303C2F436F6E6E
X 656374696F6E526566757365645265747279496E7465727661
X 6C3E3C436F6E6E656374696F6E5265667573656453746F7046
X 6C6F773E46414C53453C2F436F6E6E656374696F6E52656675
X 73656453746F70466C6F773E3C436F6E6E656374696F6E5265
X 66757365644D6178526574726965733E2D313C2F436F6E6E65
X 6374696F6E526566757365644D6178526574726965733E3C43
X 6F6E6E656374696F6E54696D656F75745265747279496E7465
X 7276616C3E33303C2F436F6E6E656374696F6E54696D656F75
X 745265747279496E74657276616C3E3C436F6E6E656374696F
X 6E54696D656F757453746F70466C6F773E46414C53453C2F43
X 6F6E6E656374696F6E54696D656F757453746F70466C6F773E
X 3C436F6E6E656374696F6E54696D656F75744D617852657472
X 6965733E2D313C2F436F6E6E656374696F6E54696D656F7574
X 4D6178526574726965733E3C50726F636573734E61636B4165
X 3E46414C53453C2F50726F636573734E61636B41653E3C4E61
X 636B41655265747279496E74657276616C3E36303C2F4E6163
X 6B41655265747279496E74657276616C3E3C4E61636B416553
X 746F70466C6F773E46414C53453C2F4E61636B416553746F70
X 466C6F773E3C4E61636B41654D6178526574726965733E333C
X 2F4E61636B41654D6178526574726965733E3C50726F636573
X 734E61636B41723E46414C53453C2F50726F636573734E6163
X 6B41723E3C4E61636B41725265747279496E74657276616C3E
X 36303C2F4E61636B41725265747279496E74657276616C3E3C
X 4E61636B417253746F70466C6F773E46414C53453C2F4E6163
X 6B417253746F70466C6F773E3C4E61636B41724D6178526574
X 726965733E333C2F4E61636B41724D6178526574726965733E
X 3C54696D656F757457616974696E67466F72446174613E3630
X 3C2F54696D656F757457616974696E67466F72446174613E3C
X 436865636B41636B4576656E7446696C746572466C61673E54
X 5255453C2F436865636B41636B4576656E7446696C74657246
X 6C61673E3C5265636569766541636B4576656E7446696C7465
X 72466C61673E545255453C2F5265636569766541636B457665
X 6E7446696C746572466C61673E3C44697361626C6541636B45
X 76656E7446696C746572466C61673E545255453C2F44697361
X 626C6541636B4576656E7446696C746572466C61673E3C4C6F
X 6767696E674576656E7446696C746572466C61673E54525545
X 3C2F4C6F6767696E674576656E7446696C746572466C61673E
X 3C2F484C37536F636B65744F75747075743E3C45564E34466C
X 61673E46414C53453C2F45564E34466C61673E3C4576656E74
X 526561736F6E436F64653E424C4F434B3C2F4576656E745265
X 61736F6E436F64653E3C4576656E74416374696F6E3E444953
X 434152443C2F4576656E74416374696F6E3E3C417564697449
X 6E7075744576656E7446696C746572466C61673E545255453C
X 2F4175646974496E7075744576656E7446696C746572466C61
X 673E3C4572726F724D73674578706972793E333C2F4572726F
X 724D73674578706972793E3C54465349443E3531333531323C
X 2F54465349443E3C537570706F72744C696E6B3E4E2F413C2F
X 537570706F72744C696E6B3E3C536572766572446972656374
X 6F72793E4E2F413C2F5365727665724469726563746F72793E
X 3C46696C654E616D653E4E2F413C2F46696C654E616D653E3C
X 4C6F63616C4469726563746F72793E4E2F413C2F4C6F63616C
X 4469726563746F72793E3C53757070726573734572726F724C
X 6F673E545255453C2F53757070726573734572726F724C6F67
X 3E3C53757070726573734572726F72546578743E4E2F413C2F
X 53757070726573734572726F72546578743E3C537570707265
X 73734572726F72456D61696C3E46414C53453C2F5375707072
X 6573734572726F72456D61696C3E3C53757070726573734572
X 726F72456D61696C416464726573733E4E2F413C2F53757070
X 726573734572726F72456D61696C416464726573733E3C5375
X 7070726573734572726F72456D61696C5375626A6563743E4E
X 2F413C2F53757070726573734572726F72456D61696C537562
X 6A6563743E3C53757070726573734572726F72456D61696C42
X 6F64793E4E2F413C2F53757070726573734572726F72456D61
X 696C426F64793E3C53757070726573734572726F72456D6169
X 6C496E636C7564655061796C6F61643E545255453C2F537570
X 70726573734572726F72456D61696C496E636C756465506179
X 6C6F61643E3C68747470456E64706F696E743E4E2F413C2F68
X 747470456E64706F696E743E3C687474704661756C744D6178
X 526574726965733E333C2F687474704661756C744D61785265
X 74726965733E3C687474704661756C745265747279496E7465
X 7276616C3E36303C2F687474704661756C745265747279496E
X 74657276616C3E3C6874747054696D656F75745365636F6E64
X 733E36303C2F6874747054696D656F75745365636F6E64733E
X 3C6874747054696D656F75744D6178526574726965733E333C
X 2F6874747054696D656F75744D6178526574726965733E3C68
X 74747054696D656F75745265747279496E74657276616C3E36
X 303C2F6874747054696D656F75745265747279496E74657276
X 616C3E3C68747470436F6E6E526566757365644D6178526574
X 726965733E333C2F68747470436F6E6E526566757365644D61
X 78526574726965733E3C68747470436F6E6E52656675736564
X 5265747279496E74657276616C3E36303C2F68747470436F6E
X 6E526566757365645265747279496E74657276616C3E3C6874
X 7470416B616E61546F6B656E56616C75653E4E2F413C2F6874
X 7470416B616E61546F6B656E56616C75653E3C68747470436C
X 69656E74417574684B6579416C6961733E4E2F413C2F687474
X 70436C69656E74417574684B6579416C6961733E3C68747470
X 416B616E61546F6B656E50726F7669646572456E64706F696E
X 743E4E2F413C2F68747470416B616E61546F6B656E50726F76
X 69646572456E64706F696E743E3C68747470416B616E61546F
X 6B656E5573657249643E4E2F413C2F68747470416B616E6154
X 6F6B656E5573657249643E3C68747470416B616E61546F6B65
X 6E50617373776F72643E4E2F413C2F68747470416B616E6154
X 6F6B656E50617373776F72643E3C68747470416B616E61546F
X 6B656E436C69656E7449643E4E2F413C2F68747470416B616E
X 61546F6B656E436C69656E7449643E3C68747470416B616E61
X 546F6B656E436C69656E745365637265743E4E2F413C2F6874
X 7470416B616E61546F6B656E436C69656E745365637265743E
X 3C2F4170706C69636174696F6E4E616D653E3C4170706C6963
X 6174696F6E4E616D653E3C6E616D653E4144545F4570696354
X 6F454449544C6966655F484C3753656E6465724170703C2F6E
X 616D653E3C484C37536F636B65744F75747075743E3C636F6E
X 6E656374696F6E44657461696C733E6C6F63616C686F73743A
X 34303030313C2F636F6E6E656374696F6E44657461696C733E
X 3C536E47656E65726174655469636B65743E46414C53453C2F
X 536E47656E65726174655469636B65743E3C456D61696C4765
X 6E6572617465456D61696C3E46414C53453C2F456D61696C47
X 656E6572617465456D61696C3E3C536E537570706F72744772
X 6F75703E456E746572707269736520496E7465726661636573
X 3C2F536E537570706F727447726F75703E3C456D61696C4672
X 6F6D3E706C756D6D6572406D61796F2E6564753C2F456D6169
X 6C46726F6D3E3C456D61696C546F3E706C756D6D6572406D61
X 796F2E6564753C2F456D61696C546F3E3C436F6E6E65637469
X 6F6E526566757365645265747279496E74657276616C3E3330
X 3C2F436F6E6E656374696F6E52656675736564526574727949
X 6E74657276616C3E3C436F6E6E656374696F6E526566757365
X 6453746F70466C6F773E46414C53453C2F436F6E6E65637469
X 6F6E5265667573656453746F70466C6F773E3C436F6E6E6563
X 74696F6E526566757365644D6178526574726965733E2D313C
X 2F436F6E6E656374696F6E526566757365644D617852657472
X 6965733E3C436F6E6E656374696F6E54696D656F7574526574
X 7279496E74657276616C3E33303C2F436F6E6E656374696F6E
X 54696D656F75745265747279496E74657276616C3E3C436F6E
X 6E656374696F6E54696D656F757453746F70466C6F773E4641
X 4C53453C2F436F6E6E656374696F6E54696D656F757453746F
X 70466C6F773E3C436F6E6E656374696F6E54696D656F75744D
X 6178526574726965733E333C2F436F6E6E656374696F6E5469
X 6D656F75744D6178526574726965733E3C50726F636573734E
X 61636B41653E46414C53453C2F50726F636573734E61636B41
X 653E3C4E61636B41655265747279496E74657276616C3E3630
X 3C2F4E61636B41655265747279496E74657276616C3E3C4E61
X 636B416553746F70466C6F773E46414C53453C2F4E61636B41
X 6553746F70466C6F773E3C4E61636B41654D61785265747269
X 65733E333C2F4E61636B41654D6178526574726965733E3C50
X 726F636573734E61636B41723E46414C53453C2F50726F6365
X 73734E61636B41723E3C4E61636B41725265747279496E7465
X 7276616C3E36303C2F4E61636B41725265747279496E746572
X 76616C3E3C4E61636B417253746F70466C6F773E46414C5345
X 3C2F4E61636B417253746F70466C6F773E3C4E61636B41724D
X 6178526574726965733E333C2F4E61636B41724D6178526574
X 726965733E3C54696D656F757457616974696E67466F724461
X 74613E36303C2F54696D656F757457616974696E67466F7244
X 6174613E3C436865636B41636B4576656E7446696C74657246
X 6C61673E545255453C2F436865636B41636B4576656E744669
X 6C746572466C61673E3C5265636569766541636B4576656E74
X 46696C746572466C61673E545255453C2F5265636569766541
X 636B4576656E7446696C746572466C61673E3C44697361626C
X 6541636B4576656E7446696C746572466C61673E545255453C
X 2F44697361626C6541636B4576656E7446696C746572466C61
X 673E3C4C6F6767696E674576656E7446696C746572466C6167
X 3E545255453C2F4C6F6767696E674576656E7446696C746572
X 466C61673E3C2F484C37536F636B65744F75747075743E3C45
X 564E34466C61673E46414C53453C2F45564E34466C61673E3C
X 4576656E74526561736F6E436F64653E424C4F434B3C2F4576
X 656E74526561736F6E436F64653E3C4576656E74416374696F
X 6E3E444953434152443C2F4576656E74416374696F6E3E3C41
X 75646974496E7075744576656E7446696C746572466C61673E
X 545255453C2F4175646974496E7075744576656E7446696C74
X 6572466C61673E3C4572726F724D73674578706972793E333C
X 2F4572726F724D73674578706972793E3C54465349443E3635
X 333830323C2F54465349443E3C537570706F72744C696E6B3E
X 4E2F413C2F537570706F72744C696E6B3E3C53657276657244
X 69726563746F72793E4E2F413C2F5365727665724469726563
X 746F72793E3C46696C654E616D653E4E2F413C2F46696C654E
X 616D653E3C4C6F63616C4469726563746F72793E4E2F413C2F
X 4C6F63616C4469726563746F72793E3C537570707265737345
X 72726F724C6F673E545255453C2F5375707072657373457272
X 6F724C6F673E3C53757070726573734572726F72546578743E
X 4E2F413C2F53757070726573734572726F72546578743E3C53
X 757070726573734572726F72456D61696C3E46414C53453C2F
X 53757070726573734572726F72456D61696C3E3C5375707072
X 6573734572726F72456D61696C416464726573733E4E2F413C
X 2F53757070726573734572726F72456D61696C416464726573
X 733E3C53757070726573734572726F72456D61696C5375626A
X 6563743E4E2F413C2F53757070726573734572726F72456D61
X 696C5375626A6563743E3C53757070726573734572726F7245
X 6D61696C426F64793E4E2F413C2F5375707072657373457272
X 6F72456D61696C426F64793E3C53757070726573734572726F
X 72456D61696C496E636C7564655061796C6F61643E54525545
X 3C2F53757070726573734572726F72456D61696C496E636C75
X 64655061796C6F61643E3C68747470456E64706F696E743E4E
X 2F413C2F68747470456E64706F696E743E3C68747470466175
X 6C744D6178526574726965733E333C2F687474704661756C74
X 4D6178526574726965733E3C687474704661756C7452657472
X 79496E74657276616C3E36303C2F687474704661756C745265
X 747279496E74657276616C3E3C6874747054696D656F757453
X 65636F6E64733E36303C2F6874747054696D656F7574536563
X 6F6E64733E3C6874747054696D656F75744D61785265747269
X 65733E333C2F6874747054696D656F75744D61785265747269
X 65733E3C6874747054696D656F75745265747279496E746572
X 76616C3E36303C2F6874747054696D656F7574526574727949
X 6E74657276616C3E3C68747470436F6E6E526566757365644D
X 6178526574726965733E333C2F68747470436F6E6E52656675
X 7365644D6178526574726965733E3C68747470436F6E6E5265
X 66757365645265747279496E74657276616C3E36303C2F6874
X 7470436F6E6E526566757365645265747279496E7465727661
X 6C3E3C68747470416B616E61546F6B656E56616C75653E4E2F
X 413C2F68747470416B616E61546F6B656E56616C75653E3C68
X 747470436C69656E74417574684B6579416C6961733E4E2F41
X 3C2F68747470436C69656E74417574684B6579416C6961733E
X 3C68747470416B616E61546F6B656E50726F7669646572456E
X 64706F696E743E4E2F413C2F68747470416B616E61546F6B65
X 6E50726F7669646572456E64706F696E743E3C68747470416B
X 616E61546F6B656E5573657249643E4E2F413C2F6874747041
X 6B616E61546F6B656E5573657249643E3C68747470416B616E
X 61546F6B656E50617373776F72643E4E2F413C2F6874747041
X 6B616E61546F6B656E50617373776F72643E3C68747470416B
X 616E61546F6B656E436C69656E7449643E4E2F413C2F687474
X 70416B616E61546F6B656E436C69656E7449643E3C68747470
X 416B616E61546F6B656E436C69656E745365637265743E4E2F
X 413C2F68747470416B616E61546F6B656E436C69656E745365
X 637265743E3C2F4170706C69636174696F6E4E616D653E3C41
X 70706C69636174696F6E4E616D653E3C6E616D653E5241535F
X 45706963546F436C6F7665724C6561665F5550445F484C3753
X 656E6465724170703C2F6E616D653E3C484C37536F636B6574
X 4F75747075743E3C636F6E6E656374696F6E44657461696C73
X 3E636C766465762E6D61796F2E6564753A31383332363C2F63
X 6F6E6E656374696F6E44657461696C733E3C536E47656E6572
X 6174655469636B65743E46414C53453C2F536E47656E657261
X 74655469636B65743E3C456D61696C47656E6572617465456D
X 61696C3E46414C53453C2F456D61696C47656E657261746545
X 6D61696C3E3C536E537570706F727447726F75703E456E7465
X 72707269736520496E74657266616365733C2F536E53757070
X 6F727447726F75703E3C456D61696C46726F6D3E706C756D6D
X 6572406D61796F2E6564753C2F456D61696C46726F6D3E3C45
X 6D61696C546F3E706C756D6D6572406D61796F2E6564753C2F
X 456D61696C546F3E3C436F6E6E656374696F6E526566757365
X 645265747279496E74657276616C3E33303C2F436F6E6E6563
X 74696F6E526566757365645265747279496E74657276616C3E
X 3C436F6E6E656374696F6E5265667573656453746F70466C6F
X 773E46414C53453C2F436F6E6E656374696F6E526566757365
X 6453746F70466C6F773E3C436F6E6E656374696F6E52656675
X 7365644D6178526574726965733E2D313C2F436F6E6E656374
X 696F6E526566757365644D6178526574726965733E3C436F6E
X 6E656374696F6E54696D656F75745265747279496E74657276
X 616C3E33303C2F436F6E6E656374696F6E54696D656F757452
X 65747279496E74657276616C3E3C436F6E6E656374696F6E54
X 696D656F757453746F70466C6F773E46414C53453C2F436F6E
X 6E656374696F6E54696D656F757453746F70466C6F773E3C43
X 6F6E6E656374696F6E54696D656F75744D6178526574726965
X 733E333C2F436F6E6E656374696F6E54696D656F75744D6178
X 526574726965733E3C50726F636573734E61636B41653E4641
X 4C53453C2F50726F636573734E61636B41653E3C4E61636B41
X 655265747279496E74657276616C3E36303C2F4E61636B4165
X 5265747279496E74657276616C3E3C4E61636B416553746F70
X 466C6F773E46414C53453C2F4E61636B416553746F70466C6F
X 773E3C4E61636B41654D6178526574726965733E333C2F4E61
X 636B41654D6178526574726965733E3C50726F636573734E61
X 636B41723E46414C53453C2F50726F636573734E61636B4172
X 3E3C4E61636B41725265747279496E74657276616C3E36303C
X 2F4E61636B41725265747279496E74657276616C3E3C4E6163
X 6B417253746F70466C6F773E46414C53453C2F4E61636B4172
X 53746F70466C6F773E3C4E61636B41724D6178526574726965
X 733E333C2F4E61636B41724D6178526574726965733E3C5469
X 6D656F757457616974696E67466F72446174613E36303C2F54
X 696D656F757457616974696E67466F72446174613E3C436865
X 636B41636B4576656E7446696C746572466C61673E54525545
X 3C2F436865636B41636B4576656E7446696C746572466C6167
X 3E3C5265636569766541636B4576656E7446696C746572466C
X 61673E545255453C2F5265636569766541636B4576656E7446
X 696C746572466C61673E3C44697361626C6541636B4576656E
X 7446696C746572466C61673E545255453C2F44697361626C65
X 41636B4576656E7446696C746572466C61673E3C4C6F676769
X 6E674576656E7446696C746572466C61673E545255453C2F4C
X 6F6767696E674576656E7446696C746572466C61673E3C2F48
X 4C37536F636B65744F75747075743E3C45564E34466C61673E
X 46414C53453C2F45564E34466C61673E3C4576656E74526561
X 736F6E436F64653E424C4F434B3C2F4576656E74526561736F
X 6E436F64653E3C4576656E74416374696F6E3E444953434152
X 443C2F4576656E74416374696F6E3E3C4175646974496E7075
X 744576656E7446696C746572466C61673E545255453C2F4175
X 646974496E7075744576656E7446696C746572466C61673E3C
X 4572726F724D73674578706972793E333C2F4572726F724D73
X 674578706972793E3C54465349443E4E2F413C2F5446534944
X 3E3C537570706F72744C696E6B3E4E2F413C2F537570706F72
X 744C696E6B3E3C5365727665724469726563746F72793E4E2F
X 413C2F5365727665724469726563746F72793E3C46696C654E
X 616D653E4E2F413C2F46696C654E616D653E3C4C6F63616C44
X 69726563746F72793E4E2F413C2F4C6F63616C446972656374
X 6F72793E3C53757070726573734572726F724C6F673E545255
X 453C2F53757070726573734572726F724C6F673E3C53757070
X 726573734572726F72546578743E4E2F413C2F537570707265
X 73734572726F72546578743E3C53757070726573734572726F
X 72456D61696C3E46414C53453C2F5375707072657373457272
X 6F72456D61696C3E3C53757070726573734572726F72456D61
X 696C416464726573733E4E2F413C2F53757070726573734572
X 726F72456D61696C416464726573733E3C5375707072657373
X 4572726F72456D61696C5375626A6563743E4E2F413C2F5375
X 7070726573734572726F72456D61696C5375626A6563743E3C
X 53757070726573734572726F72456D61696C426F64793E4E2F
X 413C2F53757070726573734572726F72456D61696C426F6479
X 3E3C53757070726573734572726F72456D61696C496E636C75
X 64655061796C6F61643E545255453C2F537570707265737345
X 72726F72456D61696C496E636C7564655061796C6F61643E3C
X 68747470456E64706F696E743E4E2F413C2F68747470456E64
X 706F696E743E3C687474704661756C744D6178526574726965
X 733E333C2F687474704661756C744D6178526574726965733E
X 3C687474704661756C745265747279496E74657276616C3E36
X 303C2F687474704661756C745265747279496E74657276616C
X 3E3C6874747054696D656F75745365636F6E64733E36303C2F
X 6874747054696D656F75745365636F6E64733E3C6874747054
X 696D656F75744D6178526574726965733E333C2F6874747054
X 696D656F75744D6178526574726965733E3C6874747054696D
X 656F75745265747279496E74657276616C3E36303C2F687474
X 7054696D656F75745265747279496E74657276616C3E3C6874
X 7470436F6E6E526566757365644D6178526574726965733E33
X 3C2F68747470436F6E6E526566757365644D61785265747269
X 65733E3C68747470436F6E6E52656675736564526574727949
X 6E74657276616C3E36303C2F68747470436F6E6E5265667573
X 65645265747279496E74657276616C3E3C68747470416B616E
X 61546F6B656E56616C75653E4E2F413C2F68747470416B616E
X 61546F6B656E56616C75653E3C68747470436C69656E744175
X 74684B6579416C6961733E4E2F413C2F68747470436C69656E
X 74417574684B6579416C6961733E3C68747470416B616E6154
X 6F6B656E50726F7669646572456E64706F696E743E4E2F413C
X 2F68747470416B616E61546F6B656E50726F7669646572456E
X 64706F696E743E3C68747470416B616E61546F6B656E557365
X 7249643E4E2F413C2F68747470416B616E61546F6B656E5573
X 657249643E3C68747470416B616E61546F6B656E5061737377
X 6F72643E4E2F413C2F68747470416B616E61546F6B656E5061
X 7373776F72643E3C68747470416B616E61546F6B656E436C69
X 656E7449643E4E2F413C2F68747470416B616E61546F6B656E
X 436C69656E7449643E3C68747470416B616E61546F6B656E43
X 6C69656E745365637265743E4E2F413C2F68747470416B616E
X 61546F6B656E436C69656E745365637265743E3C2F4170706C
X 69636174696F6E4E616D653E3C4170706C69636174696F6E4E
X 616D653E3C6E616D653E4144545F45706963546F52736E614D
X 43525F484C3753656E6465724170703C2F6E616D653E3C484C
X 37536F636B65744F75747075743E3C636F6E6E656374696F6E
X 44657461696C733E6C6F63616C686F73743A34303030313C2F
X 636F6E6E656374696F6E44657461696C733E3C536E47656E65
X 726174655469636B65743E46414C53453C2F536E47656E6572
X 6174655469636B65743E3C456D61696C47656E657261746545
X 6D61696C3E46414C53453C2F456D61696C47656E6572617465
X 456D61696C3E3C536E537570706F727447726F75703E456E74
X 6572707269736520496E74657266616365733C2F536E537570
X 706F727447726F75703E3C456D61696C46726F6D3E706C756D
X 6D6572406D61796F2E6564753C2F456D61696C46726F6D3E3C
X 456D61696C546F3E706C756D6D6572406D61796F2E6564753C
X 2F456D61696C546F3E3C436F6E6E656374696F6E5265667573
X 65645265747279496E74657276616C3E33303C2F436F6E6E65
X 6374696F6E526566757365645265747279496E74657276616C
X 3E3C436F6E6E656374696F6E5265667573656453746F70466C
X 6F773E46414C53453C2F436F6E6E656374696F6E5265667573
X 656453746F70466C6F773E3C436F6E6E656374696F6E526566
X 757365644D6178526574726965733E2D313C2F436F6E6E6563
X 74696F6E526566757365644D6178526574726965733E3C436F
X 6E6E656374696F6E54696D656F75745265747279496E746572
X 76616C3E33303C2F436F6E6E656374696F6E54696D656F7574
X 5265747279496E74657276616C3E3C436F6E6E656374696F6E
X 54696D656F757453746F70466C6F773E46414C53453C2F436F
X 6E6E656374696F6E54696D656F757453746F70466C6F773E3C
X 436F6E6E656374696F6E54696D656F75744D61785265747269
X 65733E333C2F436F6E6E656374696F6E54696D656F75744D61
X 78526574726965733E3C50726F636573734E61636B41653E46
X 414C53453C2F50726F636573734E61636B41653E3C4E61636B
X 41655265747279496E74657276616C3E36303C2F4E61636B41
X 655265747279496E74657276616C3E3C4E61636B416553746F
X 70466C6F773E46414C53453C2F4E61636B416553746F70466C
X 6F773E3C4E61636B41654D6178526574726965733E333C2F4E
X 61636B41654D6178526574726965733E3C50726F636573734E
X 61636B41723E46414C53453C2F50726F636573734E61636B41
X 723E3C4E61636B41725265747279496E74657276616C3E3630
X 3C2F4E61636B41725265747279496E74657276616C3E3C4E61
X 636B417253746F70466C6F773E46414C53453C2F4E61636B41
X 7253746F70466C6F773E3C4E61636B41724D61785265747269
X 65733E333C2F4E61636B41724D6178526574726965733E3C54
X 696D656F757457616974696E67466F72446174613E36303C2F
X 54696D656F757457616974696E67466F72446174613E3C4368
X 65636B41636B4576656E7446696C746572466C61673E545255
X 453C2F436865636B41636B4576656E7446696C746572466C61
X 673E3C5265636569766541636B4576656E7446696C74657246
X 6C61673E545255453C2F5265636569766541636B4576656E74
X 46696C746572466C61673E3C44697361626C6541636B457665
X 6E7446696C746572466C61673E545255453C2F44697361626C
X 6541636B4576656E7446696C746572466C61673E3C4C6F6767
X 696E674576656E7446696C746572466C61673E545255453C2F
X 4C6F6767696E674576656E7446696C746572466C61673E3C2F
X 484C37536F636B65744F75747075743E3C45564E34466C6167
X 3E46414C53453C2F45564E34466C61673E3C4576656E745265
X 61736F6E436F64653E424C4F434B3C2F4576656E7452656173
X 6F6E436F64653E3C4576656E74416374696F6E3E4449534341
X 52443C2F4576656E74416374696F6E3E3C4175646974496E70
X 75744576656E7446696C746572466C61673E545255453C2F41
X 75646974496E7075744576656E7446696C746572466C61673E
X 3C4572726F724D73674578706972793E333C2F4572726F724D
X 73674578706972793E3C54465349443E4E2F413C2F54465349
X 443E3C537570706F72744C696E6B3E4E2F413C2F537570706F
X 72744C696E6B3E3C5365727665724469726563746F72793E4E
X 2F413C2F5365727665724469726563746F72793E3C46696C65
X 4E616D653E4E2F413C2F46696C654E616D653E3C4C6F63616C
X 4469726563746F72793E4E2F413C2F4C6F63616C4469726563
X 746F72793E3C53757070726573734572726F724C6F673E5452
X 55453C2F53757070726573734572726F724C6F673E3C537570
X 70726573734572726F72546578743E4E2F413C2F5375707072
X 6573734572726F72546578743E3C5375707072657373457272
X 6F72456D61696C3E46414C53453C2F53757070726573734572
X 726F72456D61696C3E3C53757070726573734572726F72456D
X 61696C416464726573733E4E2F413C2F537570707265737345
X 72726F72456D61696C416464726573733E3C53757070726573
X 734572726F72456D61696C5375626A6563743E4E2F413C2F53
X 757070726573734572726F72456D61696C5375626A6563743E
X 3C53757070726573734572726F72456D61696C426F64793E4E
X 2F413C2F53757070726573734572726F72456D61696C426F64
X 793E3C53757070726573734572726F72456D61696C496E636C
X 7564655061796C6F61643E545255453C2F5375707072657373
X 4572726F72456D61696C496E636C7564655061796C6F61643E
X 3C68747470456E64706F696E743E4E2F413C2F68747470456E
X 64706F696E743E3C687474704661756C744D61785265747269
X 65733E333C2F687474704661756C744D617852657472696573
X 3E3C687474704661756C745265747279496E74657276616C3E
X 36303C2F687474704661756C745265747279496E7465727661
X 6C3E3C6874747054696D656F75745365636F6E64733E36303C
X 2F6874747054696D656F75745365636F6E64733E3C68747470
X 54696D656F75744D6178526574726965733E333C2F68747470
X 54696D656F75744D6178526574726965733E3C687474705469
X 6D656F75745265747279496E74657276616C3E36303C2F6874
X 747054696D656F75745265747279496E74657276616C3E3C68
X 747470436F6E6E526566757365644D6178526574726965733E
X 333C2F68747470436F6E6E526566757365644D617852657472
X 6965733E3C68747470436F6E6E526566757365645265747279
X 496E74657276616C3E36303C2F68747470436F6E6E52656675
X 7365645265747279496E74657276616C3E3C68747470416B61
X 6E61546F6B656E56616C75653E4E2F413C2F68747470416B61
X 6E61546F6B656E56616C75653E3C68747470436C69656E7441
X 7574684B6579416C6961733E4E2F413C2F68747470436C6965
X 6E74417574684B6579416C6961733E3C68747470416B616E61
X 546F6B656E50726F7669646572456E64706F696E743E4E2F41
X 3C2F68747470416B616E61546F6B656E50726F766964657245
X 6E64706F696E743E3C68747470416B616E61546F6B656E5573
X 657249643E4E2F413C2F68747470416B616E61546F6B656E55
X 73657249643E3C68747470416B616E61546F6B656E50617373
X 776F72643E4E2F413C2F68747470416B616E61546F6B656E50
X 617373776F72643E3C68747470416B616E61546F6B656E436C
X 69656E7449643E4E2F413C2F68747470416B616E61546F6B65
X 6E436C69656E7449643E3C68747470416B616E61546F6B656E
X 436C69656E745365637265743E4E2F413C2F68747470416B61
X 6E61546F6B656E436C69656E745365637265743E3C2F417070
X 6C69636174696F6E4E616D653E3C4170706C69636174696F6E
X 4E616D653E3C6E616D653E5349555F41726961546F45706963
X 5F484C3753656E6465724170703C2F6E616D653E3C484C3753
X 6F636B65744F75747075743E3C636F6E6E656374696F6E4465
X 7461696C733E6C6F63616C686F73743A34303030313C2F636F
X 6E6E656374696F6E44657461696C733E3C536E47656E657261
X 74655469636B65743E46414C53453C2F536E47656E65726174
X 655469636B65743E3C456D61696C47656E6572617465456D61
X 696C3E46414C53453C2F456D61696C47656E6572617465456D
X 61696C3E3C536E537570706F727447726F75703E456E746572
X 707269736520496E74657266616365733C2F536E537570706F
X 727447726F75703E3C456D61696C46726F6D3E706C756D6D65
X 72406D61796F2E6564753C2F456D61696C46726F6D3E3C456D
X 61696C546F3E706C756D6D6572406D61796F2E6564753C2F45
X 6D61696C546F3E3C436F6E6E656374696F6E52656675736564
X 5265747279496E74657276616C3E33303C2F436F6E6E656374
X 696F6E526566757365645265747279496E74657276616C3E3C
X 436F6E6E656374696F6E5265667573656453746F70466C6F77
X 3E46414C53453C2F436F6E6E656374696F6E52656675736564
X 53746F70466C6F773E3C436F6E6E656374696F6E5265667573
X 65644D6178526574726965733E2D313C2F436F6E6E65637469
X 6F6E526566757365644D6178526574726965733E3C436F6E6E
X 656374696F6E54696D656F75745265747279496E7465727661
X 6C3E33303C2F436F6E6E656374696F6E54696D656F75745265
X 747279496E74657276616C3E3C436F6E6E656374696F6E5469
X 6D656F757453746F70466C6F773E46414C53453C2F436F6E6E
X 656374696F6E54696D656F757453746F70466C6F773E3C436F
X 6E6E656374696F6E54696D656F75744D617852657472696573
X 3E333C2F436F6E6E656374696F6E54696D656F75744D617852
X 6574726965733E3C50726F636573734E61636B41653E46414C
X 53453C2F50726F636573734E61636B41653E3C4E61636B4165
X 5265747279496E74657276616C3E36303C2F4E61636B416552
X 65747279496E74657276616C3E3C4E61636B416553746F7046
X 6C6F773E46414C53453C2F4E61636B416553746F70466C6F77
X 3E3C4E61636B41654D6178526574726965733E333C2F4E6163
X 6B41654D6178526574726965733E3C50726F636573734E6163
X 6B41723E46414C53453C2F50726F636573734E61636B41723E
X 3C4E61636B41725265747279496E74657276616C3E36303C2F
X 4E61636B41725265747279496E74657276616C3E3C4E61636B
X 417253746F70466C6F773E46414C53453C2F4E61636B417253
X 746F70466C6F773E3C4E61636B41724D617852657472696573
X 3E333C2F4E61636B41724D6178526574726965733E3C54696D
X 656F757457616974696E67466F72446174613E36303C2F5469
X 6D656F757457616974696E67466F72446174613E3C43686563
X 6B41636B4576656E7446696C746572466C61673E545255453C
X 2F436865636B41636B4576656E7446696C746572466C61673E
X 3C5265636569766541636B4576656E7446696C746572466C61
X 673E545255453C2F5265636569766541636B4576656E744669
X 6C746572466C61673E3C44697361626C6541636B4576656E74
X 46696C746572466C61673E545255453C2F44697361626C6541
X 636B4576656E7446696C746572466C61673E3C4C6F6767696E
X 674576656E7446696C746572466C61673E545255453C2F4C6F
X 6767696E674576656E7446696C746572466C61673E3C2F484C
X 37536F636B65744F75747075743E3C45564E34466C61673E46
X 414C53453C2F45564E34466C61673E3C4576656E7452656173
X 6F6E436F64653E424C4F434B3C2F4576656E74526561736F6E
X 436F64653E3C4576656E74416374696F6E3E44495343415244
X 3C2F4576656E74416374696F6E3E3C4175646974496E707574
X 4576656E7446696C746572466C61673E545255453C2F417564
X 6974496E7075744576656E7446696C746572466C61673E3C45
X 72726F724D73674578706972793E333C2F4572726F724D7367
X 4578706972793E3C54465349443E3731383136333C2F544653
X 49443E3C537570706F72744C696E6B3E4E2F413C2F53757070
X 6F72744C696E6B3E3C5365727665724469726563746F72793E
X 4E2F413C2F5365727665724469726563746F72793E3C46696C
X 654E616D653E4E2F413C2F46696C654E616D653E3C4C6F6361
X 6C4469726563746F72793E4E2F413C2F4C6F63616C44697265
X 63746F72793E3C53757070726573734572726F724C6F673E54
X 5255453C2F53757070726573734572726F724C6F673E3C5375
X 7070726573734572726F72546578743E4E2F413C2F53757070
X 726573734572726F72546578743E3C53757070726573734572
X 726F72456D61696C3E46414C53453C2F537570707265737345
X 72726F72456D61696C3E3C53757070726573734572726F7245
X 6D61696C416464726573733E4E2F413C2F5375707072657373
X 4572726F72456D61696C416464726573733E3C537570707265
X 73734572726F72456D61696C5375626A6563743E4E2F413C2F
X 53757070726573734572726F72456D61696C5375626A656374
X 3E3C53757070726573734572726F72456D61696C426F64793E
X 4E2F413C2F53757070726573734572726F72456D61696C426F
X 64793E3C53757070726573734572726F72456D61696C496E63
X 6C7564655061796C6F61643E545255453C2F53757070726573
X 734572726F72456D61696C496E636C7564655061796C6F6164
X 3E3C68747470456E64706F696E743E4E2F413C2F6874747045
X 6E64706F696E743E3C687474704661756C744D617852657472
X 6965733E333C2F687474704661756C744D6178526574726965
X 733E3C687474704661756C745265747279496E74657276616C
X 3E36303C2F687474704661756C745265747279496E74657276
X 616C3E3C6874747054696D656F75745365636F6E64733E3630
X 3C2F6874747054696D656F75745365636F6E64733E3C687474
X 7054696D656F75744D6178526574726965733E333C2F687474
X 7054696D656F75744D6178526574726965733E3C6874747054
X 696D656F75745265747279496E74657276616C3E36303C2F68
X 74747054696D656F75745265747279496E74657276616C3E3C
X 68747470436F6E6E526566757365644D617852657472696573
X 3E333C2F68747470436F6E6E526566757365644D6178526574
X 726965733E3C68747470436F6E6E5265667573656452657472
X 79496E74657276616C3E36303C2F68747470436F6E6E526566
X 757365645265747279496E74657276616C3E3C68747470416B
X 616E61546F6B656E56616C75653E4E2F413C2F68747470416B
X 616E61546F6B656E56616C75653E3C68747470436C69656E74
X 417574684B6579416C6961733E4E2F413C2F68747470436C69
X 656E74417574684B6579416C6961733E3C68747470416B616E
X 61546F6B656E50726F7669646572456E64706F696E743E4E2F
X 413C2F68747470416B616E61546F6B656E50726F7669646572
X 456E64706F696E743E3C68747470416B616E61546F6B656E55
X 73657249643E4E2F413C2F68747470416B616E61546F6B656E
X 5573657249643E3C68747470416B616E61546F6B656E506173
X 73776F72643E4E2F413C2F68747470416B616E61546F6B656E
X 50617373776F72643E3C68747470416B616E61546F6B656E43
X 6C69656E7449643E4E2F413C2F68747470416B616E61546F6B
X 656E436C69656E7449643E3C68747470416B616E61546F6B65
X 6E436C69656E745365637265743E4E2F413C2F68747470416B
X 616E61546F6B656E436C69656E745365637265743E3C2F4170
X 706C69636174696F6E4E616D653E3C4170706C69636174696F
X 6E4E616D653E3C6E616D653E4C6162526573756C74735F546F
X 5472616E73706C616E745F484C3753656E6465724170703C2F
X 6E616D653E3C484C37536F636B65744F75747075743E3C636F
X 6E6E656374696F6E44657461696C733E6C6F63616C686F7374
X 3A34303030313C2F636F6E6E656374696F6E44657461696C73
X 3E3C536E47656E65726174655469636B65743E46414C53453C
X 2F536E47656E65726174655469636B65743E3C456D61696C47
X 656E6572617465456D61696C3E46414C53453C2F456D61696C
X 47656E6572617465456D61696C3E3C536E537570706F727447
X 726F75703E456E746572707269736520496E74657266616365
X 733C2F536E537570706F727447726F75703E3C456D61696C46
X 726F6D3E444C5253544954456E7465727072697365496E7465
X 726661636573556E6974406D61796F2E6564753C2F456D6169
X 6C46726F6D3E3C456D61696C546F3E444C5253544954456E74
X 65727072697365496E7465726661636573556E6974406D6179
X 6F2E6564753C2F456D61696C546F3E3C436F6E6E656374696F
X 6E526566757365645265747279496E74657276616C3E33303C
X 2F436F6E6E656374696F6E526566757365645265747279496E
X 74657276616C3E3C436F6E6E656374696F6E52656675736564
X 53746F70466C6F773E545255453C2F436F6E6E656374696F6E
X 5265667573656453746F70466C6F773E3C436F6E6E65637469
X 6F6E526566757365644D6178526574726965733E353C2F436F
X 6E6E656374696F6E526566757365644D617852657472696573
X 3E3C436F6E6E656374696F6E54696D656F7574526574727949
X 6E74657276616C3E33303C2F436F6E6E656374696F6E54696D
X 656F75745265747279496E74657276616C3E3C436F6E6E6563
X 74696F6E54696D656F757453746F70466C6F773E545255453C
X 2F436F6E6E656374696F6E54696D656F757453746F70466C6F
X 773E3C436F6E6E656374696F6E54696D656F75744D61785265
X 74726965733E333C2F436F6E6E656374696F6E54696D656F75
X 744D6178526574726965733E3C50726F636573734E61636B41
X 653E46414C53453C2F50726F636573734E61636B41653E3C4E
X 61636B41655265747279496E74657276616C3E36303C2F4E61
X 636B41655265747279496E74657276616C3E3C4E61636B4165
X 53746F70466C6F773E46414C53453C2F4E61636B416553746F
X 70466C6F773E3C4E61636B41654D6178526574726965733E33
X 3C2F4E61636B41654D6178526574726965733E3C50726F6365
X 73734E61636B41723E46414C53453C2F50726F636573734E61
X 636B41723E3C4E61636B41725265747279496E74657276616C
X 3E36303C2F4E61636B41725265747279496E74657276616C3E
X 3C4E61636B417253746F70466C6F773E46414C53453C2F4E61
X 636B417253746F70466C6F773E3C4E61636B41724D61785265
X 74726965733E333C2F4E61636B41724D617852657472696573
X 3E3C54696D656F757457616974696E67466F72446174613E36
X 303C2F54696D656F757457616974696E67466F72446174613E
X 3C436865636B41636B4576656E7446696C746572466C61673E
X 545255453C2F436865636B41636B4576656E7446696C746572
X 466C61673E3C5265636569766541636B4576656E7446696C74
X 6572466C61673E545255453C2F5265636569766541636B4576
X 656E7446696C746572466C61673E3C44697361626C6541636B
X 4576656E7446696C746572466C61673E46414C53453C2F4469
X 7361626C6541636B4576656E7446696C746572466C61673E3C
X 4C6F6767696E674576656E7446696C746572466C61673E5452
X 55453C2F4C6F6767696E674576656E7446696C746572466C61
X 673E3C2F484C37536F636B65744F75747075743E3C45564E34
X 466C61673E46414C53453C2F45564E34466C61673E3C457665
X 6E74526561736F6E436F64653E424C4F434B3C2F4576656E74
X 526561736F6E436F64653E3C4576656E74416374696F6E3E44
X 4953434152443C2F4576656E74416374696F6E3E3C41756469
X 74496E7075744576656E7446696C746572466C61673E545255
X 453C2F4175646974496E7075744576656E7446696C74657246
X 6C61673E3C4572726F724D73674578706972793E333C2F4572
X 726F724D73674578706972793E3C54465349443E4E2F413C2F
X 54465349443E3C537570706F72744C696E6B3E4E2F413C2F53
X 7570706F72744C696E6B3E3C5365727665724469726563746F
X 72793E4E2F413C2F5365727665724469726563746F72793E3C
X 46696C654E616D653E4E2F413C2F46696C654E616D653E3C4C
X 6F63616C4469726563746F72793E4E2F413C2F4C6F63616C44
X 69726563746F72793E3C53757070726573734572726F724C6F
X 673E545255453C2F53757070726573734572726F724C6F673E
X 3C53757070726573734572726F72546578743E4E2F413C2F53
X 757070726573734572726F72546578743E3C53757070726573
X 734572726F72456D61696C3E46414C53453C2F537570707265
X 73734572726F72456D61696C3E3C5375707072657373457272
X 6F72456D61696C416464726573733E4E2F413C2F5375707072
X 6573734572726F72456D61696C416464726573733E3C537570
X 70726573734572726F72456D61696C5375626A6563743E4E2F
X 413C2F53757070726573734572726F72456D61696C5375626A
X 6563743E3C53757070726573734572726F72456D61696C426F
X 64793E4E2F413C2F53757070726573734572726F72456D6169
X 6C426F64793E3C53757070726573734572726F72456D61696C
X 496E636C7564655061796C6F61643E545255453C2F53757070
X 726573734572726F72456D61696C496E636C7564655061796C
X 6F61643E3C68747470456E64706F696E743E4E2F413C2F6874
X 7470456E64706F696E743E3C687474704661756C744D617852
X 6574726965733E333C2F687474704661756C744D6178526574
X 726965733E3C687474704661756C745265747279496E746572
X 76616C3E36303C2F687474704661756C745265747279496E74
X 657276616C3E3C6874747054696D656F75745365636F6E6473
X 3E36303C2F6874747054696D656F75745365636F6E64733E3C
X 6874747054696D656F75744D6178526574726965733E333C2F
X 6874747054696D656F75744D6178526574726965733E3C6874
X 747054696D656F75745265747279496E74657276616C3E3630
X 3C2F6874747054696D656F75745265747279496E7465727661
X 6C3E3C68747470436F6E6E526566757365644D617852657472
X 6965733E333C2F68747470436F6E6E526566757365644D6178
X 526574726965733E3C68747470436F6E6E5265667573656452
X 65747279496E74657276616C3E36303C2F68747470436F6E6E
X 526566757365645265747279496E74657276616C3E3C687474
X 70416B616E61546F6B656E56616C75653E4E2F413C2F687474
X 70416B616E61546F6B656E56616C75653E3C68747470436C69
X 656E74417574684B6579416C6961733E4E2F413C2F68747470
X 436C69656E74417574684B6579416C6961733E3C6874747041
X 6B616E61546F6B656E50726F7669646572456E64706F696E74
X 3E4E2F413C2F68747470416B616E61546F6B656E50726F7669
X 646572456E64706F696E743E3C68747470416B616E61546F6B
X 656E5573657249643E4E2F413C2F68747470416B616E61546F
X 6B656E5573657249643E3C68747470416B616E61546F6B656E
X 50617373776F72643E4E2F413C2F68747470416B616E61546F
X 6B656E50617373776F72643E3C68747470416B616E61546F6B
X 656E436C69656E7449643E4E2F413C2F68747470416B616E61
X 546F6B656E436C69656E7449643E3C68747470416B616E6154
X 6F6B656E436C69656E745365637265743E4E2F413C2F687474
X 70416B616E61546F6B656E436C69656E745365637265743E3C
X 2F4170706C69636174696F6E4E616D653E3C4170706C696361
X 74696F6E4E616D653E3C6E616D653E4144545F45706963546F
X 415249414D43525F484C3753656E6465724170703C2F6E616D
X 653E3C484C37536F636B65744F75747075743E3C636F6E6E65
X 6374696F6E44657461696C733E6C6F63616C686F73743A3430
X 3030313C2F636F6E6E656374696F6E44657461696C733E3C53
X 6E47656E65726174655469636B65743E46414C53453C2F536E
X 47656E65726174655469636B65743E3C456D61696C47656E65
X 72617465456D61696C3E46414C53453C2F456D61696C47656E
X 6572617465456D61696C3E3C536E537570706F727447726F75
X 703E456E746572707269736520496E74657266616365733C2F
X 536E537570706F727447726F75703E3C456D61696C46726F6D
X 3E444C5253544954456E7465727072697365496E7465726661
X 636573556E6974406D61796F2E6564753C2F456D61696C4672
X 6F6D3E3C456D61696C546F3E444C5253544954456E74657270
X 72697365496E7465726661636573556E6974406D61796F2E65
X 64753C2F456D61696C546F3E3C436F6E6E656374696F6E5265
X 66757365645265747279496E74657276616C3E33303C2F436F
X 6E6E656374696F6E526566757365645265747279496E746572
X 76616C3E3C436F6E6E656374696F6E5265667573656453746F
X 70466C6F773E545255453C2F436F6E6E656374696F6E526566
X 7573656453746F70466C6F773E3C436F6E6E656374696F6E52
X 6566757365644D6178526574726965733E353C2F436F6E6E65
X 6374696F6E526566757365644D6178526574726965733E3C43
X 6F6E6E656374696F6E54696D656F75745265747279496E7465
X 7276616C3E33303C2F436F6E6E656374696F6E54696D656F75
X 745265747279496E74657276616C3E3C436F6E6E656374696F
X 6E54696D656F757453746F70466C6F773E545255453C2F436F
X 6E6E656374696F6E54696D656F757453746F70466C6F773E3C
X 436F6E6E656374696F6E54696D656F75744D61785265747269
X 65733E333C2F436F6E6E656374696F6E54696D656F75744D61
X 78526574726965733E3C50726F636573734E61636B41653E46
X 414C53453C2F50726F636573734E61636B41653E3C4E61636B
X 41655265747279496E74657276616C3E36303C2F4E61636B41
X 655265747279496E74657276616C3E3C4E61636B416553746F
X 70466C6F773E46414C53453C2F4E61636B416553746F70466C
X 6F773E3C4E61636B41654D6178526574726965733E333C2F4E
X 61636B41654D6178526574726965733E3C50726F636573734E
X 61636B41723E46414C53453C2F50726F636573734E61636B41
X 723E3C4E61636B41725265747279496E74657276616C3E3630
X 3C2F4E61636B41725265747279496E74657276616C3E3C4E61
X 636B417253746F70466C6F773E46414C53453C2F4E61636B41
X 7253746F70466C6F773E3C4E61636B41724D61785265747269
X 65733E333C2F4E61636B41724D6178526574726965733E3C54
X 696D656F757457616974696E67466F72446174613E36303C2F
X 54696D656F757457616974696E67466F72446174613E3C4368
X 65636B41636B4576656E7446696C746572466C61673E545255
X 453C2F436865636B41636B4576656E7446696C746572466C61
X 673E3C5265636569766541636B4576656E7446696C74657246
X 6C61673E545255453C2F5265636569766541636B4576656E74
X 46696C746572466C61673E3C44697361626C6541636B457665
X 6E7446696C746572466C61673E46414C53453C2F4469736162
X 6C6541636B4576656E7446696C746572466C61673E3C4C6F67
X 67696E674576656E7446696C746572466C61673E545255453C
X 2F4C6F6767696E674576656E7446696C746572466C61673E3C
X 2F484C37536F636B65744F75747075743E3C45564E34466C61
X 673E46414C53453C2F45564E34466C61673E3C4576656E7452
X 6561736F6E436F64653E424C4F434B3C2F4576656E74526561
X 736F6E436F64653E3C4576656E74416374696F6E3E44495343
X 4152443C2F4576656E74416374696F6E3E3C4175646974496E
X 7075744576656E7446696C746572466C61673E545255453C2F
X 4175646974496E7075744576656E7446696C746572466C6167
X 3E3C4572726F724D73674578706972793E333C2F4572726F72
X 4D73674578706972793E3C54465349443E3639393634373C2F
X 54465349443E3C537570706F72744C696E6B3E4E2F413C2F53
X 7570706F72744C696E6B3E3C5365727665724469726563746F
X 72793E4E2F413C2F5365727665724469726563746F72793E3C
X 46696C654E616D653E4E2F413C2F46696C654E616D653E3C4C
X 6F63616C4469726563746F72793E4E2F413C2F4C6F63616C44
X 69726563746F72793E3C53757070726573734572726F724C6F
X 673E545255453C2F53757070726573734572726F724C6F673E
X 3C53757070726573734572726F72546578743E4E2F413C2F53
X 757070726573734572726F72546578743E3C53757070726573
X 734572726F72456D61696C3E46414C53453C2F537570707265
X 73734572726F72456D61696C3E3C5375707072657373457272
X 6F72456D61696C416464726573733E4E2F413C2F5375707072
X 6573734572726F72456D61696C416464726573733E3C537570
X 70726573734572726F72456D61696C5375626A6563743E4E2F
X 413C2F53757070726573734572726F72456D61696C5375626A
X 6563743E3C53757070726573734572726F72456D61696C426F
X 64793E4E2F413C2F53757070726573734572726F72456D6169
X 6C426F64793E3C53757070726573734572726F72456D61696C
X 496E636C7564655061796C6F61643E545255453C2F53757070
X 726573734572726F72456D61696C496E636C7564655061796C
X 6F61643E3C68747470456E64706F696E743E4E2F413C2F6874
X 7470456E64706F696E743E3C687474704661756C744D617852
X 6574726965733E333C2F687474704661756C744D6178526574
X 726965733E3C687474704661756C745265747279496E746572
X 76616C3E36303C2F687474704661756C745265747279496E74
X 657276616C3E3C6874747054696D656F75745365636F6E6473
X 3E36303C2F6874747054696D656F75745365636F6E64733E3C
X 6874747054696D656F75744D6178526574726965733E333C2F
X 6874747054696D656F75744D6178526574726965733E3C6874
X 747054696D656F75745265747279496E74657276616C3E3630
X 3C2F6874747054696D656F75745265747279496E7465727661
X 6C3E3C68747470436F6E6E526566757365644D617852657472
X 6965733E333C2F68747470436F6E6E526566757365644D6178
X 526574726965733E3C68747470436F6E6E5265667573656452
X 65747279496E74657276616C3E36303C2F68747470436F6E6E
X 526566757365645265747279496E74657276616C3E3C687474
X 70416B616E61546F6B656E56616C75653E4E2F413C2F687474
X 70416B616E61546F6B656E56616C75653E3C68747470436C69
X 656E74417574684B6579416C6961733E4E2F413C2F68747470
X 436C69656E74417574684B6579416C6961733E3C6874747041
X 6B616E61546F6B656E50726F7669646572456E64706F696E74
X 3E4E2F413C2F68747470416B616E61546F6B656E50726F7669
X 646572456E64706F696E743E3C68747470416B616E61546F6B
X 656E5573657249643E4E2F413C2F68747470416B616E61546F
X 6B656E5573657249643E3C68747470416B616E61546F6B656E
X 50617373776F72643E4E2F413C2F68747470416B616E61546F
X 6B656E50617373776F72643E3C68747470416B616E61546F6B
X 656E436C69656E7449643E4E2F413C2F68747470416B616E61
X 546F6B656E436C69656E7449643E3C68747470416B616E6154
X 6F6B656E436C69656E745365637265743E4E2F413C2F687474
X 70416B616E61546F6B656E436C69656E745365637265743E3C
X 2F4170706C69636174696F6E4E616D653E3C4170706C696361
X 74696F6E4E616D653E3C6E616D653E5349555F45706963546F
X 415249415F484C3753656E6465724170703C2F6E616D653E3C
X 484C37536F636B65744F75747075743E3C636F6E6E65637469
X 6F6E44657461696C733E6C6F63616C686F73743A3430303031
X 3C2F636F6E6E656374696F6E44657461696C733E3C536E4765
X 6E65726174655469636B65743E46414C53453C2F536E47656E
X 65726174655469636B65743E3C456D61696C47656E65726174
X 65456D61696C3E46414C53453C2F456D61696C47656E657261
X 7465456D61696C3E3C536E537570706F727447726F75703E45
X 6E746572707269736520496E74657266616365733C2F536E53
X 7570706F727447726F75703E3C456D61696C46726F6D3E444C
X 5253544954456E7465727072697365496E7465726661636573
X 556E6974406D61796F2E6564753C2F456D61696C46726F6D3E
X 3C456D61696C546F3E444C5253544954456E74657270726973
X 65496E7465726661636573556E6974406D61796F2E6564753C
X 2F456D61696C546F3E3C436F6E6E656374696F6E5265667573
X 65645265747279496E74657276616C3E33303C2F436F6E6E65
X 6374696F6E526566757365645265747279496E74657276616C
X 3E3C436F6E6E656374696F6E5265667573656453746F70466C
X 6F773E545255453C2F436F6E6E656374696F6E526566757365
X 6453746F70466C6F773E3C436F6E6E656374696F6E52656675
X 7365644D6178526574726965733E353C2F436F6E6E65637469
X 6F6E526566757365644D6178526574726965733E3C436F6E6E
X 656374696F6E54696D656F75745265747279496E7465727661
X 6C3E33303C2F436F6E6E656374696F6E54696D656F75745265
X 747279496E74657276616C3E3C436F6E6E656374696F6E5469
X 6D656F757453746F70466C6F773E545255453C2F436F6E6E65
X 6374696F6E54696D656F757453746F70466C6F773E3C436F6E
X 6E656374696F6E54696D656F75744D6178526574726965733E
X 333C2F436F6E6E656374696F6E54696D656F75744D61785265
X 74726965733E3C50726F636573734E61636B41653E46414C53
X 453C2F50726F636573734E61636B41653E3C4E61636B416552
X 65747279496E74657276616C3E36303C2F4E61636B41655265
X 747279496E74657276616C3E3C4E61636B416553746F70466C
X 6F773E46414C53453C2F4E61636B416553746F70466C6F773E
X 3C4E61636B41654D6178526574726965733E333C2F4E61636B
X 41654D6178526574726965733E3C50726F636573734E61636B
X 41723E46414C53453C2F50726F636573734E61636B41723E3C
X 4E61636B41725265747279496E74657276616C3E36303C2F4E
X 61636B41725265747279496E74657276616C3E3C4E61636B41
X 7253746F70466C6F773E46414C53453C2F4E61636B41725374
X 6F70466C6F773E3C4E61636B41724D6178526574726965733E
X 333C2F4E61636B41724D6178526574726965733E3C54696D65
X 6F757457616974696E67466F72446174613E36303C2F54696D
X 656F757457616974696E67466F72446174613E3C436865636B
X 41636B4576656E7446696C746572466C61673E545255453C2F
X 436865636B41636B4576656E7446696C746572466C61673E3C
X 5265636569766541636B4576656E7446696C746572466C6167
X 3E545255453C2F5265636569766541636B4576656E7446696C
X 746572466C61673E3C44697361626C6541636B4576656E7446
X 696C746572466C61673E46414C53453C2F44697361626C6541
X 636B4576656E7446696C746572466C61673E3C4C6F6767696E
X 674576656E7446696C746572466C61673E545255453C2F4C6F
X 6767696E674576656E7446696C746572466C61673E3C2F484C
X 37536F636B65744F75747075743E3C45564E34466C61673E46
X 414C53453C2F45564E34466C61673E3C4576656E7452656173
X 6F6E436F64653E424C4F434B3C2F4576656E74526561736F6E
X 436F64653E3C4576656E74416374696F6E3E44495343415244
X 3C2F4576656E74416374696F6E3E3C4175646974496E707574
X 4576656E7446696C746572466C61673E545255453C2F417564
X 6974496E7075744576656E7446696C746572466C61673E3C45
X 72726F724D73674578706972793E333C2F4572726F724D7367
X 4578706972793E3C54465349443E3731383137343C2F544653
X 49443E3C537570706F72744C696E6B3E4E2F413C2F53757070
X 6F72744C696E6B3E3C5365727665724469726563746F72793E
X 4E2F413C2F5365727665724469726563746F72793E3C46696C
X 654E616D653E4E2F413C2F46696C654E616D653E3C4C6F6361
X 6C4469726563746F72793E4E2F413C2F4C6F63616C44697265
X 63746F72793E3C53757070726573734572726F724C6F673E54
X 5255453C2F53757070726573734572726F724C6F673E3C5375
X 7070726573734572726F72546578743E4E2F413C2F53757070
X 726573734572726F72546578743E3C53757070726573734572
X 726F72456D61696C3E46414C53453C2F537570707265737345
X 72726F72456D61696C3E3C53757070726573734572726F7245
X 6D61696C416464726573733E4E2F413C2F5375707072657373
X 4572726F72456D61696C416464726573733E3C537570707265
X 73734572726F72456D61696C5375626A6563743E4E2F413C2F
X 53757070726573734572726F72456D61696C5375626A656374
X 3E3C53757070726573734572726F72456D61696C426F64793E
X 4E2F413C2F53757070726573734572726F72456D61696C426F
X 64793E3C53757070726573734572726F72456D61696C496E63
X 6C7564655061796C6F61643E545255453C2F53757070726573
X 734572726F72456D61696C496E636C7564655061796C6F6164
X 3E3C68747470456E64706F696E743E4E2F413C2F6874747045
X 6E64706F696E743E3C687474704661756C744D617852657472
X 6965733E333C2F687474704661756C744D6178526574726965
X 733E3C687474704661756C745265747279496E74657276616C
X 3E36303C2F687474704661756C745265747279496E74657276
X 616C3E3C6874747054696D656F75745365636F6E64733E3630
X 3C2F6874747054696D656F75745365636F6E64733E3C687474
X 7054696D656F75744D6178526574726965733E333C2F687474
X 7054696D656F75744D6178526574726965733E3C6874747054
X 696D656F75745265747279496E74657276616C3E36303C2F68
X 74747054696D656F75745265747279496E74657276616C3E3C
X 68747470436F6E6E526566757365644D617852657472696573
X 3E333C2F68747470436F6E6E526566757365644D6178526574
X 726965733E3C68747470436F6E6E5265667573656452657472
X 79496E74657276616C3E36303C2F68747470436F6E6E526566
X 757365645265747279496E74657276616C3E3C68747470416B
X 616E61546F6B656E56616C75653E4E2F413C2F68747470416B
X 616E61546F6B656E56616C75653E3C68747470436C69656E74
X 417574684B6579416C6961733E4E2F413C2F68747470436C69
X 656E74417574684B6579416C6961733E3C68747470416B616E
X 61546F6B656E50726F7669646572456E64706F696E743E4E2F
X 413C2F68747470416B616E61546F6B656E50726F7669646572
X 456E64706F696E743E3C68747470416B616E61546F6B656E55
X 73657249643E4E2F413C2F68747470416B616E61546F6B656E
X 5573657249643E3C68747470416B616E61546F6B656E506173
X 73776F72643E4E2F413C2F68747470416B616E61546F6B656E
X 50617373776F72643E3C68747470416B616E61546F6B656E43
X 6C69656E7449643E4E2F413C2F68747470416B616E61546F6B
X 656E436C69656E7449643E3C68747470416B616E61546F6B65
X 6E436C69656E745365637265743E4E2F413C2F68747470416B
X 616E61546F6B656E436C69656E745365637265743E3C2F4170
X 706C69636174696F6E4E616D653E3C4170706C69636174696F
X 6E4E616D653E3C6E616D653E4144545F4745546F4D69727468
X 5F484C3753656E6465724170703C2F6E616D653E3C484C3753
X 6F636B65744F75747075743E3C636F6E6E656374696F6E4465
X 7461696C733E6C6F63616C686F73743A34303030313C2F636F
X 6E6E656374696F6E44657461696C733E3C536E47656E657261
X 74655469636B65743E46414C53453C2F536E47656E65726174
X 655469636B65743E3C456D61696C47656E6572617465456D61
X 696C3E46414C53453C2F456D61696C47656E6572617465456D
X 61696C3E3C536E537570706F727447726F75703E456E746572
X 707269736520496E74657266616365733C2F536E537570706F
X 727447726F75703E3C456D61696C46726F6D3E74616B6B616C
X 6C6170656C6C692E737572656E646172406D61796F2E656475
X 3C2F456D61696C46726F6D3E3C456D61696C546F3E74616B6B
X 616C6C6170656C6C692E737572656E646172406D61796F2E65
X 64753C2F456D61696C546F3E3C436F6E6E656374696F6E5265
X 66757365645265747279496E74657276616C3E33303C2F436F
X 6E6E656374696F6E526566757365645265747279496E746572
X 76616C3E3C436F6E6E656374696F6E5265667573656453746F
X 70466C6F773E46414C53453C2F436F6E6E656374696F6E5265
X 667573656453746F70466C6F773E3C436F6E6E656374696F6E
X 526566757365644D6178526574726965733E2D313C2F436F6E
X 6E656374696F6E526566757365644D6178526574726965733E
X 3C436F6E6E656374696F6E54696D656F75745265747279496E
X 74657276616C3E33303C2F436F6E6E656374696F6E54696D65
X 6F75745265747279496E74657276616C3E3C436F6E6E656374
X 696F6E54696D656F757453746F70466C6F773E46414C53453C
X 2F436F6E6E656374696F6E54696D656F757453746F70466C6F
X 773E3C436F6E6E656374696F6E54696D656F75744D61785265
X 74726965733E2D313C2F436F6E6E656374696F6E54696D656F
X 75744D6178526574726965733E3C50726F636573734E61636B
X 41653E46414C53453C2F50726F636573734E61636B41653E3C
X 4E61636B41655265747279496E74657276616C3E36303C2F4E
X 61636B41655265747279496E74657276616C3E3C4E61636B41
X 6553746F70466C6F773E46414C53453C2F4E61636B41655374
X 6F70466C6F773E3C4E61636B41654D6178526574726965733E
X 333C2F4E61636B41654D6178526574726965733E3C50726F63
X 6573734E61636B41723E46414C53453C2F50726F636573734E
X 61636B41723E3C4E61636B41725265747279496E7465727661
X 6C3E36303C2F4E61636B41725265747279496E74657276616C
X 3E3C4E61636B417253746F70466C6F773E46414C53453C2F4E
X 61636B417253746F70466C6F773E3C4E61636B41724D617852
X 6574726965733E333C2F4E61636B41724D6178526574726965
X 733E3C54696D656F757457616974696E67466F72446174613E
X 36303C2F54696D656F757457616974696E67466F7244617461
X 3E3C436865636B41636B4576656E7446696C746572466C6167
X 3E545255453C2F436865636B41636B4576656E7446696C7465
X 72466C61673E3C5265636569766541636B4576656E7446696C
X 746572466C61673E545255453C2F5265636569766541636B45
X 76656E7446696C746572466C61673E3C44697361626C654163
X 6B4576656E7446696C746572466C61673E46414C53453C2F44
X 697361626C6541636B4576656E7446696C746572466C61673E
X 3C4C6F6767696E674576656E7446696C746572466C61673E54
X 5255453C2F4C6F6767696E674576656E7446696C746572466C
X 61673E3C2F484C37536F636B65744F75747075743E3C45564E
X 34466C61673E46414C53453C2F45564E34466C61673E3C4576
X 656E74526561736F6E436F64653E424C4F434B3C2F4576656E
X 74526561736F6E436F64653E3C4576656E74416374696F6E3E
X 444953434152443C2F4576656E74416374696F6E3E3C417564
X 6974496E7075744576656E7446696C746572466C61673E5452
X 55453C2F4175646974496E7075744576656E7446696C746572
X 466C61673E3C4572726F724D73674578706972793E333C2F45
X 72726F724D73674578706972793E3C54465349443E34393639
X 32313C2F54465349443E3C537570706F72744C696E6B3E4E2F
X 413C2F537570706F72744C696E6B3E3C536572766572446972
X 6563746F72793E4E2F413C2F5365727665724469726563746F
X 72793E3C46696C654E616D653E4E2F413C2F46696C654E616D
X 653E3C4C6F63616C4469726563746F72793E4E2F413C2F4C6F
X 63616C4469726563746F72793E3C5375707072657373457272
X 6F724C6F673E545255453C2F53757070726573734572726F72
X 4C6F673E3C53757070726573734572726F72546578743E4E2F
X 413C2F53757070726573734572726F72546578743E3C537570
X 70726573734572726F72456D61696C3E46414C53453C2F5375
X 7070726573734572726F72456D61696C3E3C53757070726573
X 734572726F72456D61696C416464726573733E4E2F413C2F53
X 757070726573734572726F72456D61696C416464726573733E
X 3C53757070726573734572726F72456D61696C5375626A6563
X 743E4E2F413C2F53757070726573734572726F72456D61696C
X 5375626A6563743E3C53757070726573734572726F72456D61
X 696C426F64793E4E2F413C2F53757070726573734572726F72
X 456D61696C426F64793E3C53757070726573734572726F7245
X 6D61696C496E636C7564655061796C6F61643E545255453C2F
X 53757070726573734572726F72456D61696C496E636C756465
X 5061796C6F61643E3C68747470456E64706F696E743E4E2F41
X 3C2F68747470456E64706F696E743E3C687474704661756C74
X 4D6178526574726965733E333C2F687474704661756C744D61
X 78526574726965733E3C687474704661756C74526574727949
X 6E74657276616C3E36303C2F687474704661756C7452657472
X 79496E74657276616C3E3C6874747054696D656F7574536563
X 6F6E64733E36303C2F6874747054696D656F75745365636F6E
X 64733E3C6874747054696D656F75744D617852657472696573
X 3E333C2F6874747054696D656F75744D617852657472696573
X 3E3C6874747054696D656F75745265747279496E7465727661
X 6C3E36303C2F6874747054696D656F75745265747279496E74
X 657276616C3E3C68747470436F6E6E526566757365644D6178
X 526574726965733E333C2F68747470436F6E6E526566757365
X 644D6178526574726965733E3C68747470436F6E6E52656675
X 7365645265747279496E74657276616C3E36303C2F68747470
X 436F6E6E526566757365645265747279496E74657276616C3E
X 3C68747470416B616E61546F6B656E56616C75653E4E2F413C
X 2F68747470416B616E61546F6B656E56616C75653E3C687474
X 70436C69656E74417574684B6579416C6961733E4E2F413C2F
X 68747470436C69656E74417574684B6579416C6961733E3C68
X 747470416B616E61546F6B656E50726F7669646572456E6470
X 6F696E743E4E2F413C2F68747470416B616E61546F6B656E50
X 726F7669646572456E64706F696E743E3C68747470416B616E
X 61546F6B656E5573657249643E4E2F413C2F68747470416B61
X 6E61546F6B656E5573657249643E3C68747470416B616E6154
X 6F6B656E50617373776F72643E4E2F413C2F68747470416B61
X 6E61546F6B656E50617373776F72643E3C68747470416B616E
X 61546F6B656E436C69656E7449643E4E2F413C2F6874747041
X 6B616E61546F6B656E436C69656E7449643E3C68747470416B
X 616E61546F6B656E436C69656E745365637265743E4E2F413C
X 2F68747470416B616E61546F6B656E436C69656E7453656372
X 65743E3C2F4170706C69636174696F6E4E616D653E3C417070
X 6C69636174696F6E4E616D653E3C6E616D653E4F524D5F4D53
X 53546F4D697274685F484C3753656E6465724170703C2F6E61
X 6D653E3C484C37536F636B65744F75747075743E3C636F6E6E
X 656374696F6E44657461696C733E6C6F63616C686F73743A34
X 303030313C2F636F6E6E656374696F6E44657461696C733E3C
X 536E47656E65726174655469636B65743E46414C53453C2F53
X 6E47656E65726174655469636B65743E3C456D61696C47656E
X 6572617465456D61696C3E46414C53453C2F456D61696C4765
X 6E6572617465456D61696C3E3C536E537570706F727447726F
X 75703E456E746572707269736520496E74657266616365733C
X 2F536E537570706F727447726F75703E3C456D61696C46726F
X 6D3E74616B6B616C6C6170656C6C692E737572656E64617240
X 6D61796F2E6564753C2F456D61696C46726F6D3E3C456D6169
X 6C546F3E74616B6B616C6C6170656C6C692E737572656E6461
X 72406D61796F2E6564753C2F456D61696C546F3E3C436F6E6E
X 656374696F6E526566757365645265747279496E7465727661
X 6C3E33303C2F436F6E6E656374696F6E526566757365645265
X 747279496E74657276616C3E3C436F6E6E656374696F6E5265
X 667573656453746F70466C6F773E46414C53453C2F436F6E6E
X 656374696F6E5265667573656453746F70466C6F773E3C436F
X 6E6E656374696F6E526566757365644D617852657472696573
X 3E2D313C2F436F6E6E656374696F6E526566757365644D6178
X 526574726965733E3C436F6E6E656374696F6E54696D656F75
X 745265747279496E74657276616C3E33303C2F436F6E6E6563
